:1000000034C0000057C0000055C0000053C00000BD
:1000100051C000004FC000004DC000004BC00000A8
:1000200049C0000047C0000045C0000043C00000B8
:1000300041C000003FC000003DC000003BC00000C8
:1000400050C1000037C00000CFC1000001C2000055
:1000500031C000002FC000002DC000002BC00000E8
:1000600029C0000027C00000CC0311241FBECFEF21
:10007000D8E0DEBFCDBF11E0A0E0B1E0E8E7F9E0F5
:1000800002C005900D92A031B107D9F711E0A0E1AF
:10009000B1E001C01D92A63CB107E1F710E0CAE64D
:1000A000D0E003C02297FE0161D4C836D107D1F752
:1000B00042D060C4A5CFA0E0B2E0E0E6F0E015C415
:1000C00087EA91E040E052EC61E070E048D25BD01A
:1000D00080E092E0F7D0EE24FF24B701882777FD77
:1000E0008095982F49E0ABD0CE01019664E670E090
:1000F000CDD0CE018B599F4F6CE971E0C7D000E0A5
:1001000010E0FE01E00FF11F87EA91E06181A4D3C6
:100110000F5F1F4F82E0003018079CF30894E11C2A
:10012000F11CC4D080E0E81684E0F806B4F2C050B8
:10013000DE4FE6E0F6C31DD1BEDFFFCF8FEF8EBDF1
:100140000DB407FEFDCF2A9820E030E0F901E05F12
:10015000FE4F80818EBD0DB407FEFDCF2F5F3F4F58
:100160002630310598F320E030E08FEF8EBD0DB4DE
:1001700007FEFDCF8EB587FF05C02F5F3F4F2038AC
:10018000310598F308951F93249884B18C6284B943
:1001900083E58CBD81E08DBD90E08FEF8EBD0DB409
:1001A00007FEFDCF9F5F9A30C0F380E4809310017B
:1001B0001092110110921201109213011092140169
:1001C00085E98093150110E0B9DF982F2A9A8FEF07
:1001D0008EBD0DB407FEFDCF913029F01F5F1A30A0
:1001E00098F381E017C081E48093100110E007C00C
:1001F0002A9A8FEF8EBD0DB407FEFDCF1F5F9EDFE5
:10020000882311F01F3FA1F72A9A1F3F11F484E0C1
:1002100001C080E01F91089590E08FEF8EBD0DB476
:1002200007FEFDCF9F5F8EB58E3F19F09F3FA9F768
:1002300004C09F3F11F080E0089582E0089504C05B
:10024000660F771F881F991F4A95D2F721E52093E3
:100250001001292F3327442755272093110180931C
:100260001201709313016093140185E980931501C5
:1002700083E58CBD63DF882319F02A9A83E0089513
:10028000CBDF882311F02A9A82E00895FC0108C090
:100290008FEF8EBD0DB407FEFDCF8EB58193B901F2
:1002A0009B0121503040672B99F708958FEF8EBD49
:1002B0000DB407FEFDCF8FEF8EBD0DB407FEFDCF51
:1002C0002A9A089520E520931001109211011092AE
:1002D0001201909313018093140185E98093150115
:1002E0002DCF1F920F920FB60F9211242F933F9391
:1002F0008F939F93AF93BF9380911A0190911B01AD
:10030000A0911C01B0911D0130911E010196A11D0B
:10031000B11D232F2D5F2D3720F02D570196A11DE4
:10032000B11D20931E0180931A0190931B01A0938D
:100330001C01B0931D018091160190911701A091AD
:100340001801B09119010196A11DB11D80931601EC
:1003500090931701A0931801B0931901BF91AF9129
:100360009F918F913F912F910F900FBE0F901F90F3
:100370001895789484B5826084BD84B5816084BD0D
:1003800085B5826085BD85B5816085BDEEE6F0E00E
:10039000808181608083E1E8F0E01082808182606A
:1003A0008083808181608083E0E8F0E080818160EB
:1003B0008083E1EBF0E0808184608083E0EBF0E01B
:1003C000808181608083EAE7F0E0808184608083BF
:1003D0008081826080838081816080838081806869
:1003E00080831092C10008951F920F920FB60F9252
:1003F00011242F933F934F938F939F93EF93FF93EA
:100400004091C60020915F01309160012F5F3F4F06
:100410002F73307080916101909162012817390724
:1004200059F0E0915F01F0916001E15EFE4F408381
:100430003093600120935F01FF91EF919F918F9125
:100440004F913F912F910F900FBE0F901F901895D5
:100450001F920F920FB60F9211242F933F934F9339
:100460005F936F937F938F939F93AF93BF93EF931C
:10047000FF932091A3013091A4018091A501909157
:10048000A6012817390731F48091C1008F7D809330
:10049000C10015C0E091A501F091A601ED59FE4FF4
:1004A00040818091A5019091A601019660E470E0E1
:1004B000DBD19093A6018093A5014093C600FF91E4
:1004C000EF91BF91AF919F918F917F916F915F91CC
:1004D0004F913F912F910F900FBE0F901F90189545
:1004E0008F92AF92BF92CF92DF92EF92FF920F93D3
:1004F0001F93DF93CF93CDB7DEB7FC011382128237
:1005000088EE93E0A0E0B0E084839583A683B78370
:1005100084E091E09183808375876487578746875D
:10052000318B208B138B028BF58AE48AD78AC68A9B
:10053000B18EA08E828E8E85838F8F85848F8889E1
:10054000858F8989868FCF91DF911F910F91FF90C1
:10055000EF90DF90CF90BF90AF908F900895A0E084
:10056000B0E0E4EBF2E0C0C1EC017A018B01DD24E4
:10057000403081EE580780E0680780E0780711F08E
:10058000DD24D394EC89FD89DD2071F081E090E0D9
:100590000E8C02C0880F991F0A94E2F7808360E0F6
:1005A00079E08DE390E005C0108260E874E88EE1A8
:1005B00090E0A80197016BD121503040404050405D
:1005C000569547953795279580E12030380720F0DC
:1005D000DD2011F0DD24D6CFE889F9893083EA895E
:1005E000FB892083EE89FF89408121E030E0C90149
:1005F0000A8C02C0880F991F0A94E2F7482B4083A7
:10060000EE89FF894081C9010B8C02C0880F991FB8
:100610000A94E2F7482B4083EE89FF894081C901A3
:100620000C8C02C0880F991F0A94E2F7482B408374
:10063000EE89FF8980810D8C02C0220F331F0A943E
:10064000E2F7209528232083CDB7DEB7E7E068C125
:10065000DC011C96ED91FC911D97E05CFF4F219110
:10066000319180819181281B390B2F733070C90122
:100670000895DC011C96ED91FC911D97E05CFF4F05
:1006800020813181E054F040DF01AE5BBF4F8D919E
:100690009C9111972817390719F42FEF3FEF07C0E6
:1006A0008D919C91E80FF91F8081282F30E0C901BE
:1006B0000895DC011C96ED91FC911D97E05CFF4FC5
:1006C00020813181E054F040DF01AE5BBF4F8D915E
:1006D0009C9111972817390719F42FEF3FEF10C09D
:1006E0008D919C911197E80FF91F20818D919C911C
:1006F000119701968F73907011969C938E9330E0B2
:10070000C9010895DC011E96ED91FC911F97E05CF4
:10071000FF4F21913191808191812817390799F7F5
:100720000895CF93DF93EC01462FEE85FF85E05CC3
:10073000FF4F80819181E054F040019660E470E0C9
:1007400093D09C01EE5BFF4F80819181E254F04099
:1007500028173907B9F3E05CFF4F80819181E0549D
:10076000F040E80FF91F4083EE85FF85E05CFF4F06
:1007700031832083EE89FF89208181E090E00D8C18
:1007800002C0880F991F0A94E2F7282B208381E08A
:1007900090E0DF91CF9108958F92AF92BF92CF9268
:1007A000DF92EF92FF920F931F9300D000D0EDB72E
:1007B000FEB7319683E0ADB7BEB711968C9387E054
:1007C000818385E0828381E0838387EA91E06FE122
:1007D00071E043E651E025EC30E004EC10E0B0ECD1
:1007E000EB2EF12CA1ECCA2ED12CF6ECAF2EB12CB5
:1007F000E4E08E2E75DE0F900F900F900F901F91FA
:100800000F91FF90EF90DF90CF90BF90AF908F90BF
:100810000895A0E0B0E0EEE0F4E065C08C017B015B
:10082000C0E0D0E00EC0D7016D917D01D801ED91FF
:10083000FC910190F081E02DC8010995C80FD91FE6
:10084000A6016A010894C108D108452B61F7CE01C1
:10085000CDB7DEB7E8E063C0DC01ED91FC9101901B
:10086000F081E02D0995089597FB092E07260AD0FF
:1008700077FD04D065D006D000201AF470956195FC
:100880007F4F0895F6F7909581959F4F0895A1E2C7
:100890001A2EAA1BBB1BFD010DC0AA1FBB1FEE1FFA
:1008A000FF1FA217B307E407F50720F0A21BB30B45
:1008B000E40BF50B661F771F881F991F1A9469F7C1
:1008C00060957095809590959B01AC01BD01CF011D
:1008D00008952F923F924F925F926F927F928F92E4
:1008E0009F92AF92BF92CF92DF92EF92FF920F93BF
:1008F0001F93CF93DF93CDB7DEB7CA1BDB0B0FB6C9
:10090000F894DEBF0FBECDBF09942A883988488885
:100910005F846E847D848C849B84AA84B984C8841B
:10092000DF80EE80FD800C811B81AA81B981CE0F12
:10093000D11D0FB6F894DEBF0FBECDBFED010895F7
:10094000AA1BBB1B51E107C0AA1FBB1FA617B707F5
:1009500010F0A61BB70B881F991F5A95A9F7809511
:100960009095BC01CD010895EE0FFF1F0590F49105
:08097000E02D0994F894FFCF7B
:100978000000000091030904280359033903820386
:00000001FF
