:1000000036C0000059C0000057C0000055C00000B5
:1000100053C0000051C000004FC000004DC00000A0
:100020004BC0000049C0000047C0000045C00000B0
:1000300043C0000041C000003FC000003DC00000C0
:1000400006C3000039C00000CCC30000FEC300009E
:1000500033C0000031C000002FC000002DC00000E0
:100060002BC0000029C0000068012403C905112429
:100070001FBECFEFD8E0DEBFCDBF11E0A0E0B1E002
:10008000E0EFFDE002C005900D92AE32B107D9F766
:1000900011E0AEE2B1E001C01D92AC3EB107E1F764
:1000A00010E0CEE6D0E003C02297FE019BD6C83612
:1000B000D107D1F713D19AC6A3CFCF93DF93BC0159
:1000C0008230910510F462E070E0A091EA01B091F5
:1000D000EB01ED01E0E0F0E040E050E021C088817C
:1000E00099818617970769F48A819B81309719F067
:1000F0009383828304C09093EB018093EA01FE0115
:1001000034C06817790738F44115510519F0841780
:10011000950708F4AC01FE018A819B819C01E901ED
:100120002097E9F641155105A9F1CA01861B970BE5
:10013000049708F4BA01E0E0F0E02AC08D919C91A8
:10014000119784179507F9F46417750781F41296CF
:100150008D919C911397309719F09383828304C0FB
:100160009093EB018093EA01FD0132964CC0CA01E5
:10017000861B970BFD01E80FF91F6193719302979E
:100180008D939C9340C0FD01828193819C01D90194
:100190001097A1F68091E8019091E901892B41F433
:1001A00080911A0190911B019093E9018093E801DD
:1001B00040911C0150911D014115510541F44DB76D
:1001C0005EB78091180190911901481B590B20913D
:1001D000E8013091E901CA01821B930B861797074A
:1001E00080F0AB014E5F5F4F8417950750F0420FD0
:1001F000531F5093E9014093E801F9016193719312
:1002000002C0E0E0F0E0CF01DF91CF910895CF93FD
:10021000DF93009709F450C0EC0122971B821A82E9
:10022000A091EA01B091EB01109709F140E050E094
:10023000AC17BD0708F1BB83AA83FE012191319160
:10024000E20FF31FAE17BF0779F48D919C911197C0
:10025000280F391F2E5F3F4F3983288312968D91C7
:100260009C9113979B838A834115510571F4D09318
:10027000EB01C093EA0120C012968D919C911397D7
:10028000AD01009711F0DC01D3CFFA01D383C28313
:1002900021913191E20FF31FCE17DF0769F48881B6
:1002A0009981280F391F2E5F3F4FFA013183208338
:1002B0008A819B8193838283DF91CF910895FC0192
:1002C00001900020E9F7809590958E0F9F1F08956B
:1002D0008EE291E0ADD186E391E048C0AF92BF924B
:1002E000CF92DF92EF92FF920F93CF93DF933ED2A4
:1002F00089EC91E040E052EC61E070E02DD364ECD9
:1003000079E080E090E011D280E094E0D6DE5C01FC
:1003100086E391E0D6D0882329F089EC91E060E073
:1003200071E0CCD4CC24DD24760116C0C0E0D0E04E
:10033000F501EC0FFD1F89EC91E060818AD42196D4
:1003400084E0C030D807A4F382E090E0A0E0B0E001
:10035000C80ED91EEA1EFB1E86E391E0B501A70177
:10036000960102E01ED1882309F3FFCF08956EBDE8
:100370000DB407FEFDCF8EB508957EBD0DB407FE0A
:10038000FDCF9EB56EBD0DB407FEFDCF8EB55EBD33
:100390000DB407FEFDCF7EB54EBD0DB407FEFDCFFB
:1003A0006EB50895FF920F931F93CF93DF938C0147
:1003B000F62ECFEFDFE0C8016FEFD9DF8F1521F008
:1003C000209711F02197F7CF80E0CD2B09F081E045
:1003D000CDB7DEB7E5E0E2C42A9A6FEFC8CF70E888
:1003E000862F90E036E0969587953A95E1F7582F5D
:1003F0005170872F90E0242F30E082239323892BA4
:1004000011F081E05827660F552311F089E0682725
:10041000872F90E095958795782F882309F7862F69
:100420008F770895A0E0B0E0E7E1F2E093C47C01AB
:10043000C62E49015A01702E80E4C80EC70160E043
:100440004C2DCDDF682FC7014B2DC9DF682FC701A9
:100450004A2DC5DF682FC701492DC1DF682FC701AD
:10046000482DBDDFD82EDD0C81E0D82A00E02A9887
:10047000C7016C2D7CDFC701A401B5017EDFC70178
:100480006D2D75DFC0E0D0E0C7016FEF70DF182F72
:1004900087FF05C0219680E1C030D807A8F37720F8
:1004A00039F013FF0BC0C70197DF0F5F0530F8F27B
:1004B000812F90E0CDB7DEB7EDE068C4C7018CDFD7
:1004C000F7CFEF92FF920F93CF93DF937C0183E0FE
:1004D000F701808385B1846385B984B18C6284B966
:1004E000249883E58CBD8DB58EB52A9A00E0C701AE
:1004F0006FEF3DDF0F5F0A30D0F3C70160E020E00F
:1005000030E040E050E001E08DDF813009F03EC096
:10051000CFEFDFEFC7016AE320E030E040E050E0DA
:1005200000E080DF8230D0F1CE010197CD2BA9F120
:10053000EC01F0CFC70140E050E060E070E01DDF6B
:1005400082FD03C0C70148DF21C0CFEFDFEFC70145
:1005500061E020E030E040E050E401E063DF21971B
:10056000882319F0209799F711C0CD2B79F0C70196
:1005700060E120E032E040E050E001E053DF88231A
:1005800029F482E0F701808380E001C083E0DF91FD
:10059000CF910F91FF90EF900895EC01CD2BA9F230
:1005A000C9CFA0E0B0E0E6EDF2E0D4C37C014B019E
:1005B00059016A01702E10E034C0A6019501210F87
:1005C000311D411D511D69E0220F331F441F551F6E
:1005D0006A95D1F7C70161E100E024DF882329F49F
:1005E000C7016EEFDFDE882331F42A9A83E0F7013A
:1005F000808381E019C0C0E0D0E0C7016FEFB7DEB3
:10060000F40181934F012196F2E0C030DF07A8F397
:10061000C7016FEFACDEC7016FEFA9DEC701DCDEFB
:100620001F5F171550F280E0CDB7DEB7EDE0AEC327
:10063000FC0110821182128213828FEF9FEF95834B
:10064000848317821682089587E391E08FCE1F92EC
:100650000F920FB60F9211242F933F938F939F9376
:10066000AF93BF9380913C0190913D01A0913E01D9
:10067000B0913F01309140010196A11DB11D232F82
:100680002D5F2D3720F02D570196A11DB11D209310
:10069000400180933C0190933D01A0933E01B093B3
:1006A0003F018091380190913901A0913A01B091B8
:1006B0003B010196A11DB11D809338019093390132
:1006C000A0933A01B0933B01BF91AF919F918F915D
:1006D0003F912F910F900FBE0F901F9018959FB7CD
:1006E000F894209138013091390140913A015091AC
:1006F0003B0186B5A89B06C08F3F21F02F5F3F4F7F
:100700004F4F5F4F9FBF542F432F322F2227280F69
:10071000311D411D511D82E0220F331F441F551F03
:100720008A95D1F7B901CA010895EF92FF920F930C
:100730001F93CF93DF937B018C01D1DFEB010DC0C1
:10074000CEDF6C1B7D0B685E7340D0F30894E1082C
:10075000F10801091109C851DC4FE114F104010548
:10076000110571F7CDB7DEB7E6E017C3789484B50D
:10077000826084BD84B5816084BD85B5826085BD9D
:1007800085B5816085BDEEE6F0E080818160808383
:10079000E1E8F0E010828081826080838081816066
:1007A0008083E0E8F0E0808181608083E1EBF0E02D
:1007B000808184608083E0EBF0E0808181608083D1
:1007C000EAE7F0E0808184608083808182608083BA
:1007D0008081816080838081806880831092C100E5
:1007E00008951F920F920FB60F9211242F933F93EB
:1007F0004F938F939F93EF93FF934091C600209167
:100800008101309182012F5F3F4F2F7330708091B3
:100810008301909184012817390759F0E0918101F3
:10082000F0918201EF5BFE4F408330938201209371
:100830008101FF91EF919F918F914F913F912F9166
:100840000F900FBE0F901F9018951F920F920FB62A
:100850000F9211242F933F934F935F936F937F9346
:100860008F939F93AF93BF93EF93FF932091C50115
:100870003091C6018091C7019091C80128173907AE
:1008800031F48091C1008F7D8093C10015C0E0914B
:10089000C701F091C801EB57FE4F40818091C7011D
:1008A0009091C801019660E470E01AD29093C8015B
:1008B0008093C7014093C600FF91EF91BF91AF9124
:1008C0009F918F917F916F915F914F913F912F9168
:1008D0000F900FBE0F901F9018958F92AF92BF92FE
:1008E000CF92DF92EF92FF920F931F93DF93CF93FC
:1008F000CDB7DEB7FC011382128288EE93E0A0E050
:10090000B0E084839583A683B78382E291E09183EC
:1009100080837587648757874687318B208B138B3D
:10092000028BF58AE48AD78AC68AB18EA08E828E1F
:100930008E85838F8F85848F8889858F8989868F1F
:10094000CF91DF911F910F91FF90EF90DF90CF90AB
:10095000BF90AF908F900895A0E0B0E0E1EBF4E09D
:10096000FFC1EC017A018B01DD24403081EE580794
:1009700080E0680780E0780711F0DD24D394EC89EB
:10098000FD89DD2071F081E090E00E8C02C0880FBF
:10099000991F0A94E2F7808360E079E08DE390E0AC
:1009A00005C0108260E874E88EE190E0A80197012C
:1009B000AAD1215030404040504056954795379538
:1009C000279580E12030380720F0DD2011F0DD246C
:1009D000D6CFE889F9893083EA89FB892083EE89BB
:1009E000FF89408121E030E0C9010A8C02C0880FF4
:1009F000991F0A94E2F7482B4083EE89FF894081D2
:100A0000C9010B8C02C0880F991F0A94E2F7482B8A
:100A10004083EE89FF894081C9010C8C02C0880F98
:100A2000991F0A94E2F7482B4083EE89FF89808161
:100A30000D8C02C0220F331F0A94E2F72095282361
:100A40002083CDB7DEB7E7E0A7C1DC011C96ED91AE
:100A5000FC911D97E05CFF4F219131918081918144
:100A6000281B390B2F733070C9010895DC011C96C7
:100A7000ED91FC911D97E05CFF4F20813181E054A6
:100A8000F040DF01AE5BBF4F8D919C91119728170D
:100A9000390719F42FEF3FEF07C08D919C91E80FB4
:100AA000F91F8081282F30E0C9010895DC011C96D0
:100AB000ED91FC911D97E05CFF4F20813181E05466
:100AC000F040DF01AE5BBF4F8D919C9111972817CD
:100AD000390719F42FEF3FEF10C08D919C911197BA
:100AE000E80FF91F20818D919C91119701968F73CA
:100AF000907011969C938E9330E0C9010895DC01AB
:100B00001E96ED91FC911F97E05CFF4F2191319172
:100B1000808191812817390799F70895CF93DF9342
:100B2000EC01462FEE85FF85E05CFF4F80819181CF
:100B3000E054F040019660E470E0D2D09C01EE5B9E
:100B4000FF4F80819181E254F04028173907B9F3B3
:100B5000E05CFF4F80819181E054F040E80FF91F85
:100B60004083EE85FF85E05CFF4F31832083EE8973
:100B7000FF89208181E090E00D8C02C0880F991FD1
:100B80000A94E2F7282B208381E090E0DF91CF9157
:100B900008958F92AF92BF92CF92DF92EF92FF9221
:100BA0000F931F9300D000D0EDB7FEB7319683E0CE
:100BB000ADB7BEB711968C9387E0818385E08283C1
:100BC00081E0838389EC91E061E471E045E851E0E4
:100BD00025EC30E004EC10E0B0ECEB2EF12CA1ECB5
:100BE000CA2ED12CF6ECAF2EB12CE4E08E2E75DEA1
:100BF0000F900F900F900F901F910F91FF90EF901B
:100C0000DF90CF90BF90AF908F900895A0E0B0E0BC
:100C1000EBE0F6E0A4C08C017B01C0E0D0E00EC0A8
:100C2000D7016D917D01D801ED91FC910190F0818A
:100C3000E02DC8010995C80FD91FA6016A010894C3
:100C4000C108D108452B61F7CE01CDB7DEB7E8E08A
:100C5000A2C0DC01ED91FC910190F081E02D09959D
:100C60000895EF92FF920F931F938C016DE0F1DFD7
:100C70007C01C8016AE0EDDF9C012E0D3F1DC9011A
:100C80001F910F91FF90EF900895EF92FF920F93B5
:100C90001F938C017B01CB0112DBAC01D801ED91DC
:100CA000FC910280F381E02DC801B70109951F91E5
:100CB0000F91FF90EF900895E8CF0895EF92FF9283
:100CC0000F931F937C01F8DF8C01C701CADF9C01E1
:100CD000200F311FC9011F910F91FF90EF900895D0
:100CE00097FB092E07260AD077FD04D065D006D0E1
:100CF00000201AF4709561957F4F0895F6F790954E
:100D000081959F4F0895A1E21A2EAA1BBB1BFD01DE
:100D10000DC0AA1FBB1FEE1FFF1FA217B307E407DA
:100D2000F50720F0A21BB30BE40BF50B661F771F32
:100D3000881F991F1A9469F7609570958095909512
:100D40009B01AC01BD01CF0108952F923F924F92BC
:100D50005F926F927F928F929F92AF92BF92CF924B
:100D6000DF92EF92FF920F931F93CF93DF93CDB754
:100D7000DEB7CA1BDB0B0FB6F894DEBF0FBECDBFCC
:100D800009942A88398848885F846E847D848C849D
:100D90009B84AA84B984C884DF80EE80FD800C81A6
:100DA0001B81AA81B981CE0FD11D0FB6F894DEBF89
:100DB0000FBECDBFED010895AA1BBB1B51E107C0BB
:100DC000AA1FBB1FA617B70710F0A61BB70B881FDB
:100DD000991F5A95A9F780959095BC01CD0108956A
:100DE000EE0FFF1F0590F491E02D0994F894FFCFCA
:100DF0006572726F7220696E697469616C697A6973
:100E00006E672063617264002000EC010000000046
:0E0E100000008E0506062505560536057F05F1
:00000001FF
