:100000000C9462000C948A000C948A000C948A0070
:100010000C948A000C948A000C948A000C948A0038
:100020000C948A000C948A000C948A000C948A0028
:100030000C948A000C948A000C948A000C948A0018
:100040000C94E80A0C948A000C94EE0C0C94350D78
:100050000C948A000C948A000C948A000C948A00F8
:100060000C948A000C948A000000000024002700F1
:100070002A0000000000250028002B0000000000DE
:1000800023002600290004040404040404040202DA
:100090000202020203030303030301020408102007
:1000A0004080010204081020010204081020000012
:1000B0000007000201000003040600000000000029
:1000C0000000900F11241FBECFEFD8E0DEBFCDBFE0
:1000D00012E0A0E0B1E0E6EAFAE302C005900D927A
:1000E000AC33B107D9F712E0ACE3B2E001C01D9226
:1000F000A13FB107E1F710E0C4ECD0E004C02297C3
:10010000FE010E94321DC23CD107C9F70E94C90AF4
:100110000C94511D0C940000EF92FF920F931F93CB
:100120007B018C0120E030E040E05FE40E940804A5
:1001300088238CF0C801B70120E030E040E05FE4A4
:100140000E9404020E94C6049B01AC012050304072
:100150004040504806C0C801B7010E94C6049B0138
:10016000AC01B901CA011F910F91FF90EF90089562
:10017000A0E0B0E0EEEBF0E00C94F91CDC012B0108
:10018000FA019C91923008F439C1EB0188818230E8
:1001900008F433C1943069F4843009F02FC111960A
:1001A0009C9111978981981709F428C1A6E0B1E0C4
:1001B00025C1843009F421C18230A9F4923009F0BC
:1001C0001DC19A01AD0188E0EA010990AE01E90183
:1001D00009929E018150C1F7E201898111969C919B
:1001E0008923818308C1923009F407C112962D90AA
:1001F0003C901397EB018A819B811496AD90BD9042
:10020000CD90DC901797EC80FD800E811F819101CD
:10021000281B390BB90137FF04C066277727621BFB
:10022000730B603271050CF061C0121613066CF589
:1002300037014801062E04C09694879477946794FA
:100240000A94D2F721E030E040E050E004C0220FF1
:10025000331F441F551F6A95D2F72150304040404C
:1002600050402E213F2140235123211531054105C6
:10027000510521F021E030E040E050E079018A01B1
:10028000E628F728082919293CC0232BD1F1260E8E
:10029000371E35014601062E04C096948794779444
:1002A00067940A94D2F721E030E040E050E004C0C7
:1002B000220F331F441F551F6A95D2F7215030403B
:1002C000404050402A213B214C215D212115310520
:1002D0004105510521F021E030E040E050E05901B6
:1002E0006A01A628B728C828D9280BC0821593050B
:1002F0002CF01C01AA24BB24650103C0EE24FF24BA
:10030000870111969C91D20111968C91981709F44E
:1003100045C0992339F0A80197012A193B094C09D6
:100320005D0906C0A60195012E193F09400B510B2E
:1003300057FD08C01182338222822483358346838D
:1003400057831DC081E081833382228288279927C9
:10035000DC01821B930BA40BB50B84839583A683CE
:10036000B7830DC0220F331F441F551F24833583CD
:10037000468357838281938101979383828324816B
:10038000358146815781DA01C9010197A109B10977
:100390008F5F9F4FAF4FBF4328F30BC091833382D2
:1003A0002282EA0CFB1C0C1D1D1DE482F5820683D3
:1003B000178383E08083248135814681578157FFED
:1003C0001AC0C901AA2797FDA095BA2F8170907015
:1003D000A070B0705695479537952795822B932B33
:1003E000A42BB52B84839583A683B78382819381C5
:1003F000019693838283DF0101C0D201CD01CDB785
:10040000DEB7E2E10C94151DA0E2B0E0EAE0F2E014
:100410000C94051D69837A838B839C832D833E8393
:100420004F835887E9E0EE2EF12CEC0EFD1ECE0135
:100430000196B7010E94B7068E010F5E1F4FCE01D5
:100440000596B8010E94B7068A8991E089278A8BB0
:10045000C701B801AE01475E5F4F0E94B8000E941D
:10046000E205A096E6E00C94211DA0E2B0E0EBE3EB
:10047000F2E00C94051D69837A838B839C832D8322
:100480003E834F835887F9E0EF2EF12CEC0EFD1ED2
:10049000CE010196B7010E94B7068E010F5E1F4F75
:1004A000CE010596B8010E94B706C701B801AE019A
:1004B000475E5F4F0E94B8000E94E205A096E6E00A
:1004C0000C94211DA0E2B0E0E8E6F2E00C94F91CE7
:1004D00069837A838B839C832D833E834F835887E4
:1004E000CE010196BE01675F7F4F0E94B706CE0125
:1004F0000596BE016F5E7F4F0E94B70699859230C8
:1005000088F089898230C8F0943019F4823051F42F
:1005100004C0843029F4923081F486E091E0C6C0B2
:10052000923049F420E09A858A89981321E02A873D
:10053000CE010996BBC0823049F420E09A858A89B1
:10054000981321E02A8BCE014196B0C02D843E84C1
:100550004F8458886D887E888F88988CEE24FF247D
:100560008701AA24BB24650140E050E060E070E010
:10057000E0E0F0E0C10181709070892BE9F0E60CB9
:10058000F71C081D191D9A01AB012A0D3B1D4C1DBE
:100590005D1D80E090E0A0E0B0E0E614F7040805FF
:1005A000190520F481E090E0A0E0B0E0BA01A901D3
:1005B000480F591F6A1F7B1FAA0CBB1CCC1CDD1CDB
:1005C00097FE08C081E090E0A0E0B0E0A82AB92A38
:1005D000CA2ADB2A3196E032F10549F0660C771C15
:1005E000881C991C5694479437942794C3CFFA8556
:1005F000EA892B893C898B859C85280F391F2E5FC2
:100600003F4F17C0CA0181709070892B61F0169519
:100610000795F794E79480E090E0A0E0B0E8E82A3E
:10062000F92A0A2B1B2B76956795579547952F5FCF
:100630003F4F77FDE7CF0CC0440F551F661F771F54
:1006400017FD4160EE0CFF1C001F111F21503040B0
:10065000403090E0590790E0690790E4790760F333
:100660002B8F3C8FDB01CA018F779070A070B07028
:1006700080349105A105B10561F447FD0AC0E1147C
:10068000F1040105110529F0405C5F4F6F4F7F4F6A
:1006900040781A8EFE1711F081E08A8F4D8F5E8FA1
:1006A0006F8F78A383E0898FCE0149960E94E2057F
:1006B000A096E2E10C94151DA8E1B0E0E2E6F3E0BB
:1006C0000C94011D69837A838B839C832D833E83E5
:1006D0004F835887B9E0EB2EF12CEC0EFD1ECE01B6
:1006E0000196B7010E94B7068E010F5E1F4FCE0123
:1006F0000596B8010E94B7062985223008F47EC00D
:100700003989323010F4B8017CC08A859A898927EA
:100710008A87243011F0223031F4231709F06EC09B
:1007200066E071E06EC0343039F41D861E861F8687
:10073000188A1C861B8604C0323021F484E0898725
:10074000B7015FC02B853C858B899C89281B390BA1
:100750003C872B87ED84FE840F851889AD88BE8881
:10076000CF88D88CEA14FB040C051D0540F4EE0C70
:10077000FF1C001F111F215030403C872B8720E0B9
:1007800030E040E050E080E090E0A0E0B0E460E0E5
:1007900070E0EA14FB040C051D0540F0282B392BF2
:1007A0004A2B5B2BEA18FB080C091D09B695A79587
:1007B00097958795EE0CFF1C001F111F6F5F7F4FF1
:1007C0006F31710531F7DA01C9018F779070A07030
:1007D000B07080349105A105B10561F427FD0AC010
:1007E000E114F1040105110529F0205C3F4F4F4F42
:1007F0005F4F20782D873E874F87588BBE01675FFC
:100800007F4FCB010E94E2056896EAE00C941D1D23
:10081000A8E1B0E0EEE0F4E00C94051D69837A8372
:100820008B839C832D833E834F83588789E0E82EFA
:10083000F12CEC0EFD1ECE010196B7010E94B70609
:100840008E010F5E1F4FCE010596B8010E94B706BC
:100850008985823040F08989823028F0C701B8014B
:100860000E942F0701C08FEF6896E6E00C94211DCF
:10087000A8E1B0E0EEE3F4E00C94051D69837A830F
:100880008B839C832D833E834F83588789E0E82E9A
:10089000F12CEC0EFD1ECE010196B7010E94B706A9
:1008A0008E010F5E1F4FCE010596B8010E94B7065C
:1008B0008985823040F08989823028F0C701B801EB
:1008C0000E942F0701C081E06896E6E00C94211D8C
:1008D000A8E0B0E0EEE6F4E00C94021D9B01AC0150
:1008E00083E08983DA01C9018827B7FD83959927B9
:1008F000AA27BB27B82E211531054105510519F44A
:1009000082E089833AC08823A9F0203080E038074C
:1009100080E0480780E8580729F460E070E080E054
:100920009FEC30C0EE24FF248701E21AF30A040B87
:10093000150B02C079018A018EE1C82ED12CDC8210
:10094000CB82ED82FE820F831887C801B7010E9417
:10095000930501971816190684F4082E04C0EE0CAE
:10096000FF1C001F111F0A94D2F7ED82FE820F8335
:100970001887C81AD90ADC82CB82BA82CE010196C6
:100980000E94E2052896E9E00C941E1DACE0B0E060
:10099000ECECF4E00C94091D69837A838B839C83CF
:1009A000CE010196BE016B5F7F4F0E94B7068D811D
:1009B000823061F1823050F1843021F48E818823BD
:1009C00051F12EC02F81388537FD20C06E812F3127
:1009D00031051CF06623F9F023C08EE190E0821B04
:1009E000930B29853A854B855C8504C056954795C0
:1009F000379527958A95D2F76623B1F050954095A3
:100A0000309521953F4F4F4F5F4F0EC020E030E0B3
:100A100040E050E009C02FEF3FEF4FEF5FE704C029
:100A200020E030E040E050E8B901CA012C96E2E055
:100A30000C94251DA8E0B0E0E0E2F5E00C94011D67
:100A40007B018C01611571058105910519F482E026
:100A5000898360C083E089838EE1C82ED12CDC823B
:100A6000CB82ED82FE820F831887C801B7010E94F6
:100A70009305FC013197F7FF3BC0222733272E1B3C
:100A80003F0B57016801022E04C0D694C794B79457
:100A9000A7940A94D2F740E050E060E070E081E073
:100AA00090E0A0E0B0E004C0880F991FAA1FBB1F10
:100AB0002A95D2F70197A109B1098E219F21A02380
:100AC000B1230097A105B10521F041E050E060E0BD
:100AD00070E04A295B296C297D294D835E836F83F1
:100AE00078878EE190E08E1B9F0B9C838B8312C0D6
:100AF000309781F00E2E04C0EE0CFF1C001F111F5A
:100B00000A94D2F7ED82FE820F831887CE1ADF0A8D
:100B1000DC82CB821A82CE0101960E94E2052896E1
:100B2000EAE00C941D1DEF92FF920F931F937B013F
:100B30008C0180E0E81680E0F80681E0080780E09C
:100B4000180788F48FEFE816F1040105110531F05C
:100B500028F088E090E0A0E0B0E017C080E090E0EE
:100B6000A0E0B0E012C080E0E81680E0F80680E087
:100B7000080781E0180728F088E190E0A0E0B0E0E5
:100B800004C080E190E0A0E0B0E020E230E040E08E
:100B900050E0281B390B4A0B5B0B04C016950795D8
:100BA000F794E7948A95D2F7F701E25FFE4F8081D0
:100BB000281B310941095109C9011F910F91FF906B
:100BC000EF900895DF92EF92FF920F931F93FC0135
:100BD000E480F58006811781D1808081823048F4DD
:100BE00080E090E0A0E1B0E0E82AF92A0A2B1B2B74
:100BF000A5C0843009F49FC0823021F4EE24FF2484
:100C0000870105C0E114F1040105110519F4E0E0C4
:100C1000F0E096C0628173819FEF623879070CF033
:100C20005BC022E83FEF261B370B2A3131052CF041
:100C300020E030E040E050E02AC0B801A701022ED9
:100C400004C076956795579547950A94D2F781E049
:100C500090E0A0E0B0E004C0880F991FAA1FBB1F5E
:100C60002A95D2F70197A109B1098E219F21A023CE
:100C7000B1230097A105B10521F081E090E0A0E04B
:100C8000B0E09A01AB01282B392B4A2B5B2BDA0100
:100C9000C9018F779070A070B07080349105A10564
:100CA000B10539F427FF09C0205C3F4F4F4F5F4F1C
:100CB00004C0215C3F4F4F4F5F4FE0E0F0E0203039
:100CC000A0E03A07A0E04A07A0E45A0710F0E1E0EC
:100CD000F0E079018A0127C06038710564F5FB01F5
:100CE000E158FF4FD801C7018F779070A070B070A6
:100CF00080349105A105B10539F4E7FE0DC080E40B
:100D000090E0A0E0B0E004C08FE390E0A0E0B0E0AD
:100D1000E80EF91E0A1F1B1F17FF05C01695079541
:100D2000F794E794319687E016950795F794E79442
:100D30008A95D1F705C0EE24FF248701EFEFF0E09C
:100D40006E2F679566276795902F9F77D794DD2440
:100D5000D7948E2F8695492F462B582F5D29B701A2
:100D6000CA011F910F91FF90EF90DF900895FC0151
:100D7000DB01408151812281622F6F7770E0221F59
:100D80002227221F9381892F880F822B282F30E062
:100D9000991F9927991F11969C9311972115310539
:100DA000A9F5411551056105710511F482E037C0BF
:100DB00082E89FEF13969C938E9312979A01AB0152
:100DC00067E0220F331F441F551F6A95D1F783E058
:100DD0008C930DC0220F331F441F551F12968D9107
:100DE0009C911397019713969C938E9312972030A2
:100DF00080E0380780E0480780E4580758F31496ED
:100E00002D933D934D935C93179708952F3F310594
:100E100079F4411551056105710519F484E08C934D
:100E2000089564FF03C081E08C9312C01C9210C02F
:100E30002F57304013963C932E93129783E08C9358
:100E400087E0440F551F661F771F8A95D1F770649E
:100E500014964D935D936D937C93179708951F930C
:100E6000DC01FB019C91923008F447C08081823004
:100E700008F443C0943051F411961C91843099F5D4
:100E80008181682F70E0611B71093FC0843021F0BF
:100E9000923031F48230B9F18181882389F12DC0FB
:100EA00011961C9111978230F1F081811817D9F4B5
:100EB00012962D913C91139782819381821793070B
:100EC00094F028173907BCF014968D919D910D90E0
:100ED000BC91A02D2481358146815781281739077F
:100EE0004A075B0718F4112341F00AC082179307E1
:100EF000A407B50740F4112319F061E070E005C0C4
:100F00006FEF7FEF02C060E070E0CB011F910895AA
:100F1000CF93DF93BC018230910510F462E070E062
:100F2000A091EF02B091F002ED01E0E0F0E040E0CE
:100F300050E021C0888199818617970769F48A81DA
:100F40009B81309719F09383828304C09093F002C1
:100F50008093EF02FE0134C06817790738F4411519
:100F6000510519F08417950708F4AC01FE018A8138
:100F70009B819C01E9012097E9F641155105A9F1F2
:100F8000CA01861B970B049708F4BA01E0E0F0E071
:100F90002AC08D919C91119784179507F9F46417D5
:100FA000750781F412968D919C911397309719F0E3
:100FB0009383828304C09093F0028093EF02FD013B
:100FC00032964CC0CA01861B970BFD01E80FF91F32
:100FD0006193719302978D939C9340C0FD01828130
:100FE00093819C01D9011097A1F68091ED02909117
:100FF000EE02892B41F4809110029091110290939E
:10100000EE028093ED0240911202509113024115BD
:10101000510541F44DB75EB780910E0290910F02D9
:10102000481B590B2091ED023091EE02CA01821B40
:10103000930B8617970780F0AB014E5F5F4F8417C5
:10104000950750F0420F531F5093EE024093ED026C
:10105000F9016193719302C0E0E0F0E0CF01DF910C
:10106000CF910895CF93DF93009709F450C0EC011E
:1010700022971B821A82A091EF02B091F002109782
:1010800009F140E050E0AC17BD0708F1BB83AA832B
:10109000FE0121913191E20FF31FAE17BF0779F4E2
:1010A0008D919C911197280F391F2E5F3F4F3983E7
:1010B000288312968D919C9113979B838A83411567
:1010C000510571F4D093F002C093EF0220C0129644
:1010D0008D919C911397AD01009711F0DC01D3CF56
:1010E000FA01D383C28321913191E20FF31FCE170E
:1010F000DF0769F488819981280F391F2E5F3F4FE0
:10110000FA01318320838A819B8193838283DF91DB
:10111000CF910895A0E0B0E0E0E9F8E00C94FB1C6A
:101120006C01009729F4CB010E9488076C01C1C0B3
:101130008EEF882E8FEF982E8C0C9D1C8601060F4B
:10114000171F0815190508F4B2C0F401A081B18178
:10115000A617B707B8F0A530B10508F4AAC0CD01AD
:1011600004978617970708F4A4C01297A61BB70B1D
:10117000F801A193B193D4016D937C93CF010E94A8
:10118000320897C07B01EA1AFB0AEEEFFFEFEE0E82
:10119000FF1E36016A0E7B1EC091EF02D091F00255
:1011A00044245524AA24BB244AC0C615D705E1F51A
:1011B000488159814E155F05B8F1CA0104978E1513
:1011C0009F05B0F41296A40FB51FF401B183A0835C
:1011D0002A813B814114510431F0D20113963C9392
:1011E0002E93129766C03093F0022093EF0261C0F5
:1011F0008A819B81F80193838283425050404E192B
:101200005F09518340834114510431F0D201139698
:101210001C930E93129704C01093F0020093EF02F8
:10122000F4017183608345C088819981A816B9064D
:1012300008F45C012E018A819B819C01E9012097C1
:1012400009F0B3CF8091ED029091EE0286159705DB
:10125000E9F4A616B706D0F42091120230911302D9
:101260002115310541F42DB73EB780910E029091C2
:101270000F02281B390B02171307C8F41093EE0254
:101280000093ED02D4016D937C9313C0CB010E94B7
:101290008807EC01009759F0F40140815181B601B3
:1012A0000E948609C6010E9432086E0102C0CC2449
:1012B000DD24C601CDB7DEB7E0E10C94171D1F9306
:1012C000FC0199278827BC01E89411911032E9F3B9
:1012D000193010F01E30C8F31B3251F01D3249F4A2
:1012E000689406C00E94530A610F711D811D911DF3
:1012F000119110531A30B0F33EF49095809570958B
:1013000061957F4F8F4F9F4F1F910895FB01DC0127
:1013100002C001900D9241505040D8F708956817CF
:10132000790768F4FB01DC01E40FF51FA40FB51F7A
:1013300002C002900E9241505040D8F708950C948C
:101340008609FC018191861721F08823D9F7992716
:1013500008953197CF010895FB01DC018D91019033
:1013600080190110D9F3990B0895FB01DC0101905C
:101370000D920020E1F70895FB01DC01415050403F
:1013800030F08D910190801919F40020B9F7881B75
:10139000990B0895FB01DC014150504048F0019049
:1013A0000D920020C9F701C01D9241505040E0F756
:1013B0000895FC0181E090E00190061609F4CF0148
:1013C0000020D1F701970895FB0151915523A9F011
:1013D000BF01DC014D9145174111E1F759F4CD01F1
:1013E0000190002049F04D9140154111C9F3FB01D6
:1013F0004111EFCF81E090E001970895FB019F013B
:10140000E8944230C4F04532B4F44A3029F497FBF2
:101410001EF4909581959F4F642F77270E94E51CBD
:10142000805D8A330CF0895D8193CB010097A1F731
:1014300016F45DE251931082C9010C94A30AFA01DB
:10144000CF93FF93EF93223044F1253234F5C22F2E
:10145000E894CA3049F497FB3EF4909580957095D6
:1014600061957F4F8F4F9F4F2C2F33274427552750
:10147000FF93EF930E94C31CEF91FF91605D6A336D
:101480000CF0695D6193B901CA0160507040804001
:10149000904051F716F4CDE2C19310828F919F9145
:1014A000CF910C94A30A592F482F372F262F660F60
:1014B000771F881F991F660F771F881F991F620F5C
:1014C000731F841F951F660F771F881F991F08952C
:1014D000FA01CF93FF93EF932230CCF02532BCF486
:1014E000C22F2C2F332744275527FF93EF930E94B9
:1014F000C31CEF91FF91605D6A330CF0695D6193ED
:10150000B901CA01605070408040904051F710828C
:101510008F919F91CF910C94A30AFB019F014230C0
:1015200074F0453264F4642F77270E94E51C805DD7
:101530008A330CF0895D8193CB010097A1F710826B
:10154000C9010C94A30ADC01FC01672F7191772378
:10155000E1F7329704C07C916D9370836291AE176E
:10156000BF07C8F30895FFCF8DE061E00E943A0CF9
:1015700068EE73E080E090E00E94650B8DE060E033
:101580000E943A0C68EE73E080E090E00E94650BE8
:1015900008950F931F930E94D90B0DEC12E0C80120
:1015A00040E052EC61E070E00E94FC0D6AEF70E0F8
:1015B00080E090E00E94650BC80160E071E00E944D
:1015C00025128DE061E00E94140C0E94B40AFDCF48
:1015D0001F920F920FB60F9211242F933F938F9368
:1015E0009F93AF93BF938091400290914102A0914D
:1015F0004202B0914302309144020196A11DB11DF7
:10160000232F2D5F2D3720F02D570196A11DB11DE1
:10161000209344028093400290934102A09342029F
:10162000B093430280913C0290913D02A0913E0212
:10163000B0913F020196A11DB11D80933C02909391
:101640003D02A0933E02B0933F02BF91AF919F91A4
:101650008F913F912F910F900FBE0F901F90189573
:101660008FB7F8942091400230914102409142029C
:10167000509143028FBFB901CA0108959FB7F894F2
:1016800020913C0230913D0240913E0250913F0238
:1016900086B5A89B06C08F3F21F02F5F3F4F4F4F6D
:1016A0005F4F9FBF542F432F322F2227280F311D0A
:1016B000411D511D220F331F441F551F220F331F81
:1016C000441F551FB901CA010895EF92FF920F936D
:1016D0001F937B018C012FB7F89480913C0290916D
:1016E0003D02A0913E02B0913F0236B5A89B05C0D5
:1016F0003F3F19F00196A11DB11D2FBFE114F10468
:101700000105110509F446C0BA2FA92F982F882783
:10171000830F911DA11DB11D880F991FAA1FBB1F0B
:10172000880F991FAA1FBB1FAC013FB7F894809187
:101730003C0290913D02A0913E02B0913F0226B53D
:10174000A89B05C02F3F19F00196A11DB11D3FBFF9
:10175000BA2FA92F982F8827820F911DA11DB11D87
:10176000880F991FAA1FBB1F880F991FAA1FBB1F95
:10177000841B950B885E9340C0F20894E108F10841
:1017800001091109E114F1040105110519F048518D
:101790005C4FCBCF1F910F91FF90EF900895019771
:1017A00039F0880F991F880F991F02970197F1F759
:1017B0000895789484B5826084BD84B5816084BDC9
:1017C00085B5826085BD85B5816085BDEEE6F0E0BA
:1017D000808181608083E1E8F0E010828081826016
:1017E0008083808181608083E0E8F0E08081816097
:1017F0008083E1EBF0E0808184608083E0EBF0E0C7
:10180000808181608083EAE7F0E08081846080836A
:101810008081826080838081816080838081806814
:1018200080831092C1000895482F50E0CA01865667
:101830009F4FFC0124914A575F4FFA0184918823FE
:1018400081F0E82FF0E0EE0FFF1FE859FF4FA59160
:10185000B491662339F09FB7F8948C91822B8C93C6
:101860009FBF08959FB7F8948C91209582238C9305
:101870009FBF0895482F50E0CA0182559F4FFC0139
:101880002491CA0186569F4FFC0134914A575F4FFD
:10189000FA0194919923D9F0222341F0233049F1A0
:1018A0002430D8F42130A9F1223049F1E92FF0E0B9
:1018B000EE0FFF1FEE58FF4FA591B4919FB7F8941C
:1018C000662331F48C91309583238C939FBF0895C8
:1018D0008C91832B8C939FBFFACF2630F1F0273069
:1018E00091F0243019F7809180008F7D80938000E3
:1018F000DDCF809180008F7780938000D7CF84B533
:101900008F7D84BDD3CF8091B0008F7D8093B00058
:10191000CDCF84B58F7784BDC9CF8091B0008F774C
:101920008093B000C3CF682F70E0CB0182559F4FEA
:10193000FC012491CB0186569F4FFC0144916A57CC
:101940007F4FFB0194919923F1F0222341F0233042
:1019500051F12430E0F42130B1F1223051F1892FDE
:1019600090E0880F991F84589F4FFC01A591B49176
:101970008C9120E030E0842311F4C901089521E026
:1019800030E0C901089520E030E0C9010895263013
:10199000F1F0273091F0243011F7809180008F7D95
:1019A00080938000DCCF809180008F7780938000CF
:1019B000D6CF84B58F7D84BDD2CF8091B0008F7D8E
:1019C0008093B000CCCF84B58F7784BDC8CF809191
:1019D000B0008F778093B000C2CF08951F920F920E
:1019E0000FB60F9211242F933F934F938F939F9392
:1019F000EF93FF934091C6002091850230918602BB
:101A00002F5F3F4F2F733070809187029091880233
:101A10002817390759F0E0918502F0918602EB5BB7
:101A2000FD4F40833093860220938502FF91EF9112
:101A30009F918F914F913F912F910F900FBE0F90DB
:101A40001F901895E091D902F091DA02E05CFF4F07
:101A50008191919120813181821B930B8F739070C2
:101A6000892B11F00E94ED0C08951F920F920FB672
:101A70000F9211242F933F934F935F936F937F9314
:101A80008F939F93AF93BF93EF93FF932091C902DE
:101A90003091CA028091CB029091CC02281739076D
:101AA00031F48091C1008F7D8093C10016C0E09118
:101AB000CB02F091CC02E757FD4F40818091CB02E1
:101AC0009091CC02019660E470E00E94B01C90936B
:101AD000CC028093CB024093C600FF91EF91BF915F
:101AE000AF919F918F917F916F915F914F913F91B6
:101AF0002F910F900FBE0F901F9018958F92AF925D
:101B0000BF92CF92DF92EF92FF920F931F93DF93DA
:101B1000CF93CDB7DEB7FC011382128288EE93E03B
:101B2000A0E0B0E084839583A683B78388E192E048
:101B3000918380837587648757874687318B208B95
:101B4000138B028BF58AE48AD78AC68AB18EA08E5F
:101B5000828E8E85838F8F85848F8889858F8989F2
:101B6000868FCF91DF911F910F91FF90EF90DF90C3
:101B7000CF90BF90AF908F9008958F92AF92BF9209
:101B8000CF92DF92EF92FF920F931F93DF93CF9349
:101B9000CDB7DEB7FC011382128288EE93E0A0E09D
:101BA000B0E084839583A683B78388E192E0918334
:101BB00080837587648757874687318B208B138B8B
:101BC000028BF58AE48AD78AC68AB18EA08E828E6D
:101BD0008E85838F8F85848F8889858F8989868F6D
:101BE000CF91DF911F910F91FF90EF90DF90CF90F9
:101BF000BF90AF908F900895AF92BF92DF92EF9217
:101C0000FF920F931F93CF93DF93EC017A018B0127
:101C1000DD24403081EE580780E0680780E07807D7
:101C200011F0DD24D39491E0A92EB12CEC89FD892B
:101C3000DD2069F0C5010E8C02C0880F991F0A943F
:101C4000E2F7808360E079E08DE390E005C01082E8
:101C500060E874E88EE190E0A80197010E94C31C3F
:101C60002150304040405040569547953795279534
:101C700080E12030380720F0DD2011F0DD24D6CFC0
:101C8000E889F9893083EA89FB892083EE89FF8915
:101C9000408121E030E0C9010A8C02C0880F991F01
:101CA0000A94E2F7482B4083EE89FF894081C901FD
:101CB0000B8C02C0880F991F0A94E2F7482B4083CF
:101CC000EE89FF894081C9010C8C02C0880F991FE1
:101CD0000A94E2F7482B4083EE89FF8980810D8CBE
:101CE00002C0220F331F0A94E2F720952823208395
:101CF000DF91CF911F910F91FF90EF90DF90BF90F8
:101D0000AF900895CF93DF93DC011E968D919C9147
:101D10001F97EC01C05CDF4FFC01EE5BFF4F288199
:101D200039818081918128173907C9F75696ED913D
:101D3000FC915797408121E030E0C9015A960C9000
:101D40005A9702C0880F991F0A94E2F7809584235E
:101D500080835696ED91FC9157974081C9015B961F
:101D60000C905B9702C0880F991F0A94E2F7809548
:101D7000842380835696ED91FC9157974081C90149
:101D80005C960C905C9702C0880F991F0A94E2F74A
:101D90008095842380835696ED91FC91579780819E
:101DA0005D960C905D9702C0220F331F0A94E2F7F4
:101DB0002095282320831C96ED91FC911D97EE5BC6
:101DC000FF4F8081918192938293DF91CF9108950B
:101DD000DC011C96ED91FC911D97E05CFF4F219179
:101DE000319180819181281B390B2F733070C9018B
:101DF0000895DC011C96ED91FC911D97E05CFF4F6E
:101E000020813181E054F040DF01AE5BBF4F8D9106
:101E10009C9111972817390719F42FEF3FEF07C04E
:101E20008D919C91E80FF91F8081282F30E0C90126
:101E30000895DC011C96ED91FC911D97E05CFF4F2D
:101E400020813181E054F040DF01AE5BBF4F8D91C6
:101E50009C9111972817390719F42FEF3FEF10C005
:101E60008D919C911197E80FF91F20818D919C9184
:101E7000119701968F73907011969C938E9330E01A
:101E8000C9010895FC0186859785DC01A05CBF4FE0
:101E9000FC01EE5BFF4F2D913C9111978081918168
:101EA00028173907C1F70895CF93DF93EC01462F28
:101EB000EE85FF85E05CFF4F80819181E054F0402A
:101EC000019660E470E00E94B01C9C01DF01AE5BF3
:101ED000BF4F8D919C91119728173907D1F3E05C82
:101EE000FF4F80819181E054F040E80FF91F40835B
:101EF000EE85FF85E05CFF4F31832083EE89FF890B
:101F0000208181E090E00D8C02C0880F991F0A9417
:101F1000E2F7282B208381E090E0DF91CF910895B4
:101F20001092D0021092CF0288EE93E0A0E0B0E0D1
:101F30008093D1029093D202A093D302B093D402A3
:101F400088E192E09093CE028093CD0285E492E006
:101F50009093DA028093D90289E892E09093DC02B0
:101F60008093DB0285EC90E09093DE028093DD02AB
:101F700084EC90E09093E0028093DF0280EC90E0AC
:101F80009093E2028093E10281EC90E09093E4026E
:101F90008093E30286EC90E09093E6028093E50262
:101FA00084E08093E70283E08093E80287E08093F7
:101FB000E90285E08093EA0281E08093EB020895D4
:101FC000CF92DF92EF92FF920F931F93CF93DF9305
:101FD0007C016B018A01C0E0D0E00FC0D6016D9199
:101FE0006D01D701ED91FC910190F081E02DC701C9
:101FF0000995C80FD91F015010400115110571F73F
:10200000CE01DF91CF911F910F91FF90EF90DF9064
:10201000CF900895EF92FF920F931F93CF93DF938A
:102020007C018B01C0E0D0E0F8010F5F1F4F64918D
:10203000662359F0D701ED91FC910190F081E02DDC
:10204000C7010995C80FD91FEFCFCE01DF91CF91FE
:102050001F910F91FF90EF900895DC01ED91FC919D
:102060000190F081E02D099508959C01DB01ED912F
:10207000FC910190F081E02DCB01B9010995089503
:10208000EF92FF920F931F938C01DC01ED91FC9175
:102090000190F081E02D6DE009957C01D801ED9172
:1020A000FC910190F081E02DC8016AE009959C0146
:1020B0002E0D3F1DC9011F910F91FF90EF900895C4
:1020C000EF92FF920F931F937C010E940A108C01E4
:1020D000C7010E9440109C01200F311FC9011F91B0
:1020E0000F91FF90EF900895EF92FF920F931F933F
:1020F0007C01DC01ED91FC910190F081E02D0995CE
:102100008C01C7010E944010080F191FC8011F91C0
:102110000F91FF90EF900895EF92FF920F931F930E
:102120007C01DB01ED91FC910190F081E02DCB0170
:10213000B70109958C01C7010E944010080F191FB3
:10214000C8011F910F91FF90EF900895CF93DF93F7
:10215000DB010D900020E9F71197A61BB70BEC01EE
:10216000E881F9810280F381E02DAD010995DF91CD
:10217000CF9108954F925F927F928F929F92AF92EC
:10218000BF92CF92DF92EF92FF920F931F93DF9354
:10219000CF93CDB7DEB7A1970FB6F894DEBF0FBED1
:1021A000CDBF2C01742ECB01223008F42AE019A2F5
:1021B00031E2C32ED12CCC0EDD1E822E9924AA240E
:1021C000BB24672D752FA50194010E94C31C7901C2
:1021D0008A01C801B701A50194010E94911C472DF5
:1021E000461B0894C108D1084A3014F4405D01C070
:1021F000495CF6014083E114F1040105110521F069
:102200007E2C5F2DC801DDCFC201B6010E94A61051
:10221000A1960FB6F894DEBF0FBECDBFCF91DF9170
:102220001F910F91FF90EF90DF90CF90BF90AF90F4
:102230009F908F907F905F904F900895DC012115C3
:10224000310541F4ED91FC910190F081E02D642F76
:10225000099508950E94BA100895EF92FF920F9386
:102260001F937C010E941E118C01C7010E94401027
:102270009C01200F311FC9011F910F91FF90EF901A
:102280000895EF92FF920F931F939A017B0100E054
:1022900010E0B801A7010E941E111F910F91FF903D
:1022A000EF900895CF92DF92EF92FF920F931F93DA
:1022B0006C017B019A0100E010E0B801A7010E94C7
:1022C0001E118C01C6010E944010080F191FC80181
:1022D0001F910F91FF90EF90DF90CF900895EF92B4
:1022E000FF920F931F939A01E62EFF2400E010E067
:1022F000B801A7010E941E111F910F91FF90EF904E
:102300000895CF92DF92EF92FF920F931F936C018B
:10231000E62E9A01FF2400E010E0B801A7010E9418
:102320001E118C01C6010E944010080F191FC80120
:102330001F910F91FF90EF90DF90CF900895CF9273
:10234000DF92EF92FF920F931F93CF93DF93EC01F5
:102350006A017B012115310541F4E881F981019081
:10236000F081E02D642F09951FC02A303105D1F48A
:1023700077FF17C0E881F9810190F081E02D6DE2CF
:1023800009958C0144275527BA014C195D096E093E
:102390007F09CE012AE00E94BA109801280F391F48
:1023A00004C02AE00E94BA109C01C901DF91CF91BC
:1023B0001F910F91FF90EF90DF90CF900895EF92D3
:1023C000FF920F931F937C010E949F118C01C70104
:1023D0000E9440109C01200F311FC9011F910F91D5
:1023E000FF90EF900895EF92FF920F931F937B0160
:1023F0009A010027F7FC0095102FB801A7010E9451
:102400009F111F910F91FF90EF900895CF92DF924F
:10241000EF92FF920F931F936C017B019A010027AB
:10242000F7FC0095102FB801A7010E949F118C01A5
:10243000C6010E944010080F191FC8011F910F917B
:10244000FF90EF90DF90CF9008950E94A61008951E
:102450007F928F929F92AF92BF92CF92DF92EF9234
:10246000FF920F931F93CF93DF934C017A018B015F
:10247000722ECB01BA0120E030E040E050E00E9433
:10248000380487FD03C0C0E0D0E00EC0D401ED9158
:10249000FC910190F081E02DC4016DE20995EC0101
:1024A00017FB109517F9109520E030E040E05FE34E
:1024B000AA240BC0CA01B90120E030E040E251E497
:1024C0000E945C039B01AC01A394A71498F3C8017C
:1024D000B7010E9435025B016C010E948C007B01F8
:1024E0008C01C401B801A7012AE030E00E941E114E
:1024F000C80FD91F772039F0C40163E071E00E9452
:10250000A610C80FD91FC801B7010E941A059B0168
:10251000AC01C601B5010E94040224C020E030E0F5
:1025200040E251E40E9462027B018C010E94C604D9
:102530005B016C01CC24B7FCC094DC2CC401B60157
:10254000A5012AE030E00E949F11C80FD91FC601E3
:10255000B5010E9468049B01AC01C801B7010E944B
:1025600004027A947720D1F6CE01DF91CF911F91AA
:102570000F91FF90EF90DF90CF90BF90AF909F9022
:102580008F907F9008950E9428120895EF92FF92F5
:102590000F931F937C010E9428128C01C7010E9497
:1025A0004010080F191FC8011F910F91FF90EF9065
:1025B0000895EF92FF920F931F937C010E94A61043
:1025C0008C01C7010E944010080F191FC8011F91FC
:1025D0000F91FF90EF900895AF92BF92CF92DF924C
:1025E000EF92FF920F931F93CF93DF935C016B01E8
:1025F000EE24FF24C0E0D0E010C0D501ED91FC91A5
:1026000000811181C601BE010E946613682FC501B9
:10261000F8010995E80EF91E2196F601848195814D
:10262000C817D90750F3C701DF91CF911F910F91C0
:10263000FF90EF90DF90CF90BF90AF900895EF9212
:10264000FF920F931F937C010E94EC128C01C70133
:102650000E9440109C01200F311FC9011F910F9152
:10266000FF90EF900895FC018481958168177907A8
:1026700048F40190F081E02D309721F0E60FF71F2C
:102680008081089580E00895FC0184819581681718
:10269000790730F40190F081E02DE60FF71F4083B9
:1026A0000895FC019B01848195816817790728F4BE
:1026B000608171816115710529F41092EC026CEE54
:1026C00072E002C0620F731FCB010895FC01848188
:1026D00095816817790748F40190F081E02D3097D3
:1026E00021F0E60FF71F8081089580E00895FC0136
:1026F0000190F081E02D309729F40895861709F4B0
:102700004083319680818823C9F70895FC01808138
:102710009181009729F420E030E040E050E004C0CF
:102720000E945F099B01AC01B901CA010895CF92D3
:10273000DF92EF92FF920F931F93CF93DF936C0181
:10274000DC01ED90FC901197E114F10409F441C013
:102750001496CD91DC9115972097D9F1870102C08D
:102760000F5F1F4FF8018081992787FD90950E9488
:10277000361D892BA9F72197CE0DDF1D01C02197AA
:102780008881992787FD90950E94361D892B19F025
:10279000C017D107A0F7FE013196E01BF10BD6015F
:1027A0001596FC93EE9314972D913C9120173107C9
:1027B00028F4C901B801AF010E948609D601ED9144
:1027C000FC91119714968D919C911597E80FF91F24
:1027D0001082DF91CF911F910F91FF90EF90DF90CA
:1027E000CF900895CF93DF93FC01C081D1812097D2
:1027F00039F409C0992787FD90950E94461D899359
:1028000088818823B9F7DF91CF910895CF93DF9323
:10281000FC01C081D181209739F409C0992787FD37
:1028200090950E943E1D899388818823B9F7DF9196
:10283000CF910895EF92FF920F931F93CF93DF9361
:10284000FC01DB018617970739F124813581149645
:102850008D919C9115972817390701F5232BE1F0ED
:10286000E080F180CD91DC9113C0992787FD909590
:102870000E943E1D8C018881992787FD90950E94BA
:102880003E1D0817190751F40894E11CF11C21960C
:10289000F7018081882349F781E001C080E0DF9162
:1028A000CF911F910F91FF90EF900895AF92BF923B
:1028B000CF92DF92EF92FF920F931F93CF93DF930C
:1028C000FC015B017A01DB0114962D913C91159777
:1028D0002115310559F184819581009739F18217CD
:1028E000930720F14817590720F07C010894E1086C
:1028F000F10800811181C801CFEFDFEF6801CE0C34
:10290000DF1C10C0F501608171810E94E4099C0107
:10291000009771F0801B910BE816F90608F0EC01A6
:10292000C9010196C816D90668F702C0CFEFDFEFDC
:10293000CE01DF91CF911F910F91FF90EF90DF902B
:10294000CF90BF90AF900895FC01DB014481558189
:1029500014968D919C911597481B590BCF010E949D
:1029600056140895CF93DF93FC01DB018481958198
:102970004817590760F4C081D1816D917C91CE01D7
:10298000840F951F0E94E4099C01009719F42FEF12
:102990003FEF02C02C1B3D0BC901DF91CF91089581
:1029A00040E050E00E94B2140895DF92EF92FF924F
:1029B0000F931F93CF93DF93EC018C819D81481778
:1029C0005907C8F47A010894E11CF11CE881F981E7
:1029D000EE0DFF1DD080108208811981772767FDD9
:1029E0007095C8010E94D9099C010E0D1F1DF801A8
:1029F000D082009719F4EFEFFFEF05C0888199812D
:102A0000F901E81BF90BCF01DF91CF911F910F91D5
:102A1000FF90EF90DF900895FC0144815581415073
:102A200050400E94D5140895CF93DF93FC01848118
:102A300095814817590768F4C081D181772767FDD0
:102A40007095CE01840F951F0E94A1099C010097EB
:102A500019F42FEF3FEF02C02C1B3D0BC901DF9192
:102A6000CF91089540E050E00E94141508950F930F
:102A70001F93CF93DF93FC018B0141155105F9F0B2
:102A800061157105E1F0848195812817390718F0E7
:102A9000FB01108214C041505040EC01C21BD30B0B
:102AA0004C175D0708F4EA0160817181620F731FA2
:102AB000C801AE010E94CA09C00FD11F1882DF9160
:102AC000CF911F910F910895FC01DB012481358185
:102AD00014964D915C91159724173507A8F08081C5
:102AE0009181009789F06D917C916115710561F07C
:102AF000241B350B820F931F0E94AC099C0180E0C0
:102B0000232B19F481E0089580E00895DC01FB0196
:102B100014968D919C911597892B31F4611571054F
:102B2000A9F090E0808108C00D90BC91A02D6115A6
:102B3000710529F490E08C91882349F407C0CD01F8
:102B40000E94AC099C0190E0232B09F491E0892FAD
:102B50000895CF93DF939C01FB01EC01A881B9811B
:102B6000109729F06081718161157105D1F4C081E0
:102B7000D181209759F084819581892B39F0888102
:102B800090E022273327281B390B12C0109771F0D1
:102B9000F90184819581892B49F08C91282F30E0AF
:102BA00007C0CD010E94AC099C0102C020E030E0CA
:102BB000C901DF91CF9108950E94A915892F8095B1
:102BC000881F8827881F08950E94A91520E01816DD
:102BD00019060CF021E0822F08950E94A91520E02B
:102BE000181619060CF421E0822F08950E94A915E9
:102BF000892F881F8827881F0895FC01DB01248105
:102C0000358114968D919C9115972817390711F0ED
:102C100020E007C0CF010E94A91520E0892B09F40C
:102C200021E0822F0895FC01DB0114962D913C9147
:102C3000159784819581821B930B84179507A0F0CB
:102C400080819181009781F06D917C916115710572
:102C500059F0840F951FA9010E94BC099C0180E0D6
:102C6000232B19F481E0089580E00895FC01DB0135
:102C70002481358114968D919C91159728173907D9
:102C800010F480E00895CF0140E050E00E94131658
:102C900008950F931F93CF93DF93EC018B016F5F28
:102CA0007F4F888199810E948A08009711F480E003
:102CB00005C0998388831B830A8381E0DF91CF91CC
:102CC0001F910F9108952F923F924F925F926F92B2
:102CD0007F928F929F92AF92BF92CF92DF92EF92AC
:102CE000FF920F931F93CF93DF935C012B014A0157
:102CF000DC0114960D911C9115970115110509F42D
:102D0000D4C0FB01C480D580C114D10409F4CDC066
:102D1000DA0114966D907C9015976C187D08FC0173
:102D2000E080F1806114710491F01BC0D4016C91BA
:102D300011967C91119714964D915C9115978C2F5B
:102D40000E948609F401E480F580EC0EFD1ED2019C
:102D50006D917C91C7010E94E409EC01009731F765
:102D6000A4C077FE02C067012EC0FB012080318025
:102D7000E8013CC08E010E191F09C601B701A80168
:102D80000E9486090C0D1D1DD4016C9111967C9139
:102D9000119714964D915C911597C8010E94860970
:102DA000F401C480D580C00ED11ED2011496ED90DE
:102DB000FC901597EC0EFD1EF50184819581860D22
:102DC000971D95838483D2016D917C91C7010E94E8
:102DD000E409EC01009771F6C601B7010E94B5093C
:102DE00064C07B01EC0CFD1CC60DD71DC701B101F1
:102DF0000E94E409BC010097A1F7C017D10709F4AC
:102E000054C0F501828193818C179D0708F044C05E
:102E1000C501BE010E9449168823F1F546C0C501CF
:102E2000B201A9010E945614EC0197FD3EC0D501E4
:102E30006D917C911197F201848195818C0F9D1F7A
:102E4000680F791F14964D915C911597481B590B8B
:102E5000CB01860D971D0E948F09D50114968D9187
:102E60009C911597860D971D15969C938E9314979C
:102E7000ED91FC911197E80FF91F10822D913C9173
:102E80002C0F3D1FF4016081718144815581C9017E
:102E90000E9486099E0105C0D50114962D913C9192
:102EA00015972150304037FFBACFDF91CF911F9156
:102EB0000F91FF90EF90DF90CF90BF90AF909F90D9
:102EC0008F907F906F905F904F903F902F900895DC
:102ED000CF93DF93EC0188819981892B29F08A8136
:102EE0009B818617970760F4CE010E9449168823BC
:102EF00041F08C819D81892B19F4E881F981108240
:102F000081E0DF91CF910895EF92FF920F931F938D
:102F1000CF93DF93EC017B016C817D81E114F1049F
:102F2000C1F04115510599F08A01060F171FB8012C
:102F30000E946817882369F0888199812C813D81DE
:102F4000820F931FB7010E94B5091D830C8381E096
:102F500001C080E0DF91CF911F910F91FF90EF9022
:102F60000895EF92FF920F931F93DF93CF93CDB706
:102F7000DEB72B970FB6F894DEBF0FBECDBF7C0136
:102F8000CB01BA018E010F5F1F4FA8012AE030E08C
:102F90000E94680AF80101900020E9F73197E01BD0
:102FA000F10BC701B801AF010E9484172B960FB631
:102FB000F894DEBF0FBECDBFCF91DF911F910F916F
:102FC000FF90EF900895EF92FF920F931F93DF937E
:102FD000CF93CDB7DEB72C970FB6F894DEBF0FBEF8
:102FE000CDBF7C01CB01BA018E010F5F1F4FA8013D
:102FF0002AE030E00E941F0AF80101900020E9F762
:103000003197E01BF10BC701B801AF010E94841793
:103010002C960FB6F894DEBF0FBECDBFCF91DF91D7
:103020001F910F91FF90EF900895EF92FF920F93F1
:103030001F93DF93CF9300D000D000D0CDB7DEB781
:103040007C01CB018E010F5F1F4FB8014AE050E0B9
:103050000E948D0AF80101900020E9F73197E01BEA
:10306000F10BC701B801AF010E94841726960FB675
:10307000F894DEBF0FBECDBFCF91DF911F910F91AE
:10308000FF90EF900895EF92FF920F931F93DF93BD
:10309000CF93CDB7DEB727970FB6F894DEBF0FBE3C
:1030A000CDBF7C01CB018E010F5F1F4FB8014AE0FD
:1030B00050E00E94FE09F80101900020E9F73197E5
:1030C000E01BF10BC701B801AF010E9484172796DE
:1030D0000FB6F894DEBF0FBECDBFCF91DF911F9129
:1030E0000F91FF90EF900895EF92FF920F931F932F
:1030F000DF93CF9300D000D0CDB7DEB77C01862F11
:1031000090E08E010F5F1F4FB8014AE050E00E942F
:10311000FE09F80101900020E9F73197E01BF10B5F
:10312000C701B801AF010E9484170F900F900F9054
:103130000F90CF91DF911F910F91FF90EF90089525
:10314000DF93CF9300D0CDB7DEB769831A82BE017B
:103150006F5F7F4F41E050E00E9484170F900F9007
:10316000CF91DF9108956115710511F480E0089504
:10317000DB010D900020E9F71197A61BB70BAD01FD
:103180000E9484170895FB016081718144815581FB
:103190000E9484170895CF93DF93EC018881998171
:1031A000009711F00E943208198218821D821C8239
:1031B0001B821A82DF91CF9108950F931F93182FCE
:1031C000092F0E94B117882321F4812F902F0E948C
:1031D000CB18812F902F1F910F9108950F931F935C
:1031E000182F092F0E94E317882321F4812F902F95
:1031F0000E94CB18812F902F1F910F9108950F934C
:103200001F93182F092F0E941518882321F4812F4E
:10321000902F0E94CB18812F902F1F910F9108950E
:103220000F931F93182F092F0E944318882321F40E
:10323000812F902F0E94CB18812F902F1F910F91DB
:1032400008950F931F93182F092F0E947418882335
:1032500021F4812F902F0E94CB18812F902F1F9146
:103260000F9108950F931F93182F092F0E94A018F4
:10327000882321F4812F902F0E94CB18812F902F2B
:103280001F910F9108950F931F93182F092F611508
:10329000710561F0DB010D900020E9F71197A61B85
:1032A000B70BAD010E948417882321F4812F902F42
:1032B0000E94CB18812F902F1F910F9108950F938B
:1032C0001F93182F092FFB01608171814481558163
:1032D0000E948417882321F4812F902F0E94CB18FD
:1032E000812F902F1F910F910895EF92FF920F93CE
:1032F0001F93CF93DF93EC017B018A01BA010E94F7
:103300006817882321F4CE010E94CB1807C01D83C3
:103310000C8388819981B7010E94B509CE01DF91A4
:10332000CF911F910F91FF90EF900895CF93DF936E
:10333000EC01198218821B821A821D821C821E8255
:103340006115710551F0DB010D900020E9F711972F
:10335000A61BB70BAD010E947519DF91CF9108959F
:10336000CF93DF93EC01198218821B821A821D828F
:103370001C821E826115710551F0DB010D90002049
:10338000E9F71197A61BB70BAD010E947519DF91E4
:10339000CF9108950F931F93182F092F6115710571
:1033A00059F0DB010D900020E9F71197A61BB70B30
:1033B000AD010E94751902C00E94CB18812F902F79
:1033C0001F910F910895EF92FF920F931F93DF9338
:1033D000CF93CDB7DEB7A1970FB6F894DEBF0FBE7F
:1033E000CDBF8C01FC0111821082138212821582E2
:1033F00014821682CB01BA017E010894E11CF11CF3
:10340000A70130E00E94680AC801B7010E94CA19EA
:10341000A1960FB6F894DEBF0FBECDBFCF91DF915E
:103420001F910F91FF90EF900895EF92FF920F93ED
:103430001F93DF93CF93CDB7DEB7A1970FB6F89464
:10344000DEBF0FBECDBF8C01FC0111821082138242
:103450001282158214821682CB01BA017E01089471
:10346000E11CF11CA70130E00E94680AC801B70105
:103470000E94CA19A1960FB6F894DEBF0FBECDBF49
:10348000CF91DF911F910F91FF90EF900895EF92F0
:10349000FF920F931F93DF93CF93CDB7DEB7A29721
:1034A0000FB6F894DEBF0FBECDBF8C01FC011182B8
:1034B000108213821282158214821682CB01BA0105
:1034C0007E010894E11CF11CA70130E00E941F0A54
:1034D000C801B7010E94CA19A2960FB6F894DEBFC0
:1034E0000FBECDBFCF91DF911F910F91FF90EF9055
:1034F0000895EF92FF920F931F93DF93CF93CDB771
:10350000DEB7A2970FB6F894DEBF0FBECDBF8C0119
:10351000FC0111821082138212821582148216829B
:10352000CB01BA017E010894E11CF11CA70130E037
:103530000E941F0AC801B7010E94CA19A2960FB6BD
:10354000F894DEBF0FBECDBFCF91DF911F910F91D9
:10355000FF90EF900895EF92FF920F931F93DF93E8
:10356000CF93CDB7DEB761970FB6F894DEBF0FBE2D
:10357000CDBF8C01CB01F80111821082138212821F
:103580001582148216827E010894E11CF11CB70199
:1035900050E00E948D0AC801B7010E94CA196196C5
:1035A0000FB6F894DEBF0FBECDBFCF91DF911F9154
:1035B0000F91FF90EF900895EF92FF920F931F935A
:1035C000DF93CF93CDB7DEB761970FB6F894DEBF28
:1035D0000FBECDBF8C01CB01F80111821082138286
:1035E00012821582148216827E010894E11CF11C5D
:1035F000B70150E00E948D0AC801B7010E94CA19A4
:1036000061960FB6F894DEBF0FBECDBFCF91DF91AC
:103610001F910F91FF90EF900895EF92FF920F93FB
:103620001F93DF93CF93CDB7DEB762970FB6F894B1
:10363000DEBF0FBECDBF8C01CB01F801118210821D
:10364000138212821582148216827E010894E11C74
:10365000F11CB70150E00E94FE09C801B7010E94A9
:10366000CA1962960FB6F894DEBF0FBECDBFCF91D8
:10367000DF911F910F91FF90EF900895EF92FF92CD
:103680000F931F93DF93CF93CDB7DEB762970FB63B
:10369000F894DEBF0FBECDBF8C01CB01F8011182C3
:1036A0001082138212821582148216827E0108947F
:1036B000E11CF11CB70150E00E94FE09C801B701EE
:1036C0000E94CA1962960FB6F894DEBF0FBECDBF36
:1036D000CF91DF911F910F91FF90EF900895EF929E
:1036E000FF920F931F93DF93CF93CDB7DEB7299748
:1036F0000FB6F894DEBF0FBECDBF8C01862FF80148
:10370000118210821382128215821482168290E036
:103710007E010894E11CF11CB70150E00E948D0A63
:10372000C801B7010E94CA1929960FB6F894DEBFE6
:103730000FBECDBFCF91DF911F910F91FF90EF9002
:103740000895EF92FF920F931F93DF93CF93CDB71E
:10375000DEB729970FB6F894DEBF0FBECDBF8C0140
:10376000862FF80111821082138212821582148230
:10377000168290E07E010894E11CF11CB70150E034
:103780000E948D0AC801B7010E94CA1929960FB676
:10379000F894DEBF0FBECDBFCF91DF911F910F9187
:1037A000FF90EF900895DF93CF9300D0CDB7DEB7B1
:1037B000FC011182108213821282158214821682F9
:1037C00069831A82BE016F5F7F4F0E94CA190F90F2
:1037D0000F90CF91DF910895DF93CF9300D0CDB7B5
:1037E000DEB7FC01118210821382128215821482CC
:1037F000168269831A82BE016F5F7F4F0E94CA19C9
:103800000F900F90CF91DF910895BF92CF92DF92EA
:10381000EF92FF920F931F93CF93DF93082FB92E50
:103820006B017A01E9012417350710F4EA017901E7
:10383000802F9B2D65E071E00E949619D6011496A9
:103840008D919C9115978E159F05D0F08C179D0733
:1038500008F4EC01D601ED91FC911197EC0FFD1FDE
:10386000108110826D917C916E0D7F1D802F9B2D9C
:103870000E94CA19D601ED91FC91EC0FFD1F108337
:10388000802F9B2DDF91CF911F910F91FF90EF9093
:10389000DF90CF90BF9008950F931F938C01FB0191
:1038A000248135810E94051CC8011F910F91089544
:1038B000CF93DF93EC01FB018617970761F06081DE
:1038C00071816115710529F0448155810E94751936
:1038D00002C00E94CB18CE01DF91CF910895FC0168
:1038E00011821082138212821582148216820E9423
:1038F000581C0895FC0111821082138212821582D5
:10390000148216820E94581C0895FC0180819181C6
:103910000E9432080895FC01808191810E94320842
:103920000895629FD001739FF001829FE00DF11D09
:10393000649FE00DF11D929FF00D839FF00D749F29
:10394000F00D659FF00D9927729FB00DE11DF91FD5
:10395000639FB00DE11DF91FBD01CF011124089532
:1039600097FB092E07260AD077FD04D02ED006D06B
:1039700000201AF4709561957F4F0895F6F79095A1
:1039800081959F4F0895A1E21A2EAA1BBB1BFD0132
:103990000DC0AA1FBB1FEE1FFF1FA217B307E4072E
:1039A000F50720F0A21BB30BE40BF50B661F771F86
:1039B000881F991F1A9469F7609570958095909566
:1039C0009B01AC01BD01CF010895AA1BBB1B51E1B6
:1039D00007C0AA1FBB1FA617B70710F0A61BB70B7F
:1039E000881F991F5A95A9F780959095BC01CD0124
:1039F00008952F923F924F925F926F927F928F9293
:103A00009F92AF92BF92CF92DF92EF92FF920F936D
:103A10001F93CF93DF93CDB7DEB7CA1BDB0B0FB677
:103A2000F894DEBF0FBECDBF09942A883988488834
:103A30005F846E847D848C849B84AA84B984C884CA
:103A4000DF80EE80FD800C811B81AA81B981CE0FC1
:103A5000D11D0FB6F894DEBF0FBECDBFED010895A6
:103A6000EE0FFF1F0590F491E02D0994911116C0FF
:103A7000803219F089508550D0F70895911108953A
:103A800081548A5108F4805E855A089591110895F1
:103A900081568A5108F480528558089599278827BD
:063AA0000895F894FFCF29
:103AA6006869002E00000000000000000000000110
:103AB60002020303030304040404040404040505C6
:103AC600050505050505050505050505050506069E
:103AD6000606060606060606060606060606060680
:103AE600060606060606060606060606060607076E
:103AF6000707070707070707070707070707070750
:103B0600070707070707070707070707070707073F
:103B1600070707070707070707070707070707072F
:103B2600070707070707070707070707070708081D
:103B360008080808080808080808080808080808FF
:103B460008080808080808080808080808080808EF
:103B560008080808080808080808080808080808DF
:103B660008080808080808080808080808080808CF
:103B760008080808080808080808080808080808BF
:103B860008080808080808080808080808080808AF
:103B9600080808080808080808080808080808089F
:103BA600080808080808080808080808080820007F
:103BB600F102000000000000540FE00FE80E190F9C
:103BC600F90E420F00000000B30AE00FB30AB30A71
:0C3BD600B30AB30A00000000B30AE00FBD
:00000001FF
