:1000000027C2000047C2000045C2000043C20000F2
:1000100041C200003FC200003DC200003BC20000E0
:1000200039C2000037C2000035C2000033C20000F0
:1000300031C200002FC200002DC200002BC2000000
:1000400029C2000027C2000025C2000023C2000010
:1000500021C200001FC200001DC200000C94FA0F54
:1000600019C2000017C2000015C2000013C2000030
:1000700011C200000FC200000DC200000BC2000040
:1000800009C2000007C2000005C2000003C2000050
:1000900001C20000FFC10000FDC10000FBC1000063
:1000A000F9C10000F7C10000F5C10000F3C1000074
:1000B000F1C10000EFC10000EDC10000EBC1000084
:1000C000E9C10000E7C10000E5C10000E3C1000094
:1000D000E1C10000DFC10000DDC10000DBC10000A4
:1000E000D9C100003F11441149115311C7115D11CD
:1000F00065116D11771181118B1195119F11C71128
:10010000A911B311BD110F121212051209124B12CF
:1001100016121A122012241228122E12321236121D
:100120004B123C1240124612A31DAF1DC21DF91EF8
:10013000F91EE31DF91EF91EF91EF51DF51DF91E28
:10014000F51DF51DF51D6D1DF51DF51DF51DF51DA7
:10015000F91EF91EF91EF91EF91EF91EF91EF91EE7
:10016000F91EF91EF91EF91EF91EF91EF91EF91ED7
:10017000F91EF91EF91EF91EF91EF91EF91EF91EC7
:10018000DD1CF51DF51DF51DF91EF51D4E1D3B1D54
:10019000F51DF51DF51DF51DF51DF51DF91EF91EC5
:1001A000F91EEC17F91EF91EF91EF51DF51DF51DBA
:1001B000F51DF51DF91EF219F91EF91EC218F91EDA
:1001C000F91EF91EF91EF91EC41C301D871DF117FA
:1001D000F91E3418F91E4B1BA91BF91E0E1C081C16
:1001E0007E1A7E1A741A791A1B18021E4B188F1861
:1001F000C619D619E719D219BA19C019CB1AF91E9E
:10020000F91EF91E3A1AF91EF91EF91E141C201DBA
:10021000361DF91EF91EF91EB117A917D018F91EBF
:100220004019A41C761C181CF91EF91EAE170F1ECF
:100230000F1EFB19F91E001D0A1DEA1CFE3A763A34
:10024000823BD63A0F3BF73A823BE73AF03AE73A3D
:10025000F03A823B823B823B823B823B823B823B49
:10026000823B823B823B823B823B823B823B823BA6
:10027000823B823B823B823B823B823B823B823B96
:10028000823B823B0F3BF73A763A823BD63A823B3F
:10029000823BB23AC43AA33A943A7D3AFE3A823B60
:1002A000823B823B823B823B823B823BB23AC43AF6
:1002B000A33A943A7D3A6F3B333B823B5A3B7A3BBD
:1002C0006A3B823B603B603B603B603B823B823BE6
:1002D000823B823B823B823B823B823B823B823B36
:1002E000823B823B823B823B823B823B823B823B26
:1002F000823B823B823B823B823B823B823B7A3B1E
:100300006A3B333B823B5A3B823B823B483B513BFF
:10031000433B3E3B393B6F3B823B823B823B823BD4
:10032000823B823B823B483B513B433B3E3B393B1C
:1003300000002100240027002A002D003000330097
:1003400001010000040107010A010000220025004C
:1003500028002B002E0031003400020100000501AE
:1003600008010B01000020002300260029002C00BA
:100370002F003200000100000301060109010505FC
:100380000505070508080808020202020A0A08080B
:100390000404040401010101010101010303030339
:1003A00003030303040707070C0C0C0C0C0C0C0CC8
:1003B0000202020206060606060606060B0B0B0BD9
:1003C0000B0B0B0B010210202008081020401020FE
:1003D0004080020102010804020101020408102009
:1003E0004080804020100804020180040201804007
:1003F0002010080402010804020101020408102070
:10040000408001020408102040800000090A020810
:100410000B0C0D07060304010000000000000000A3
:1004200000000000000000000000000000000000CC
:1004300000000000000011100F000000000000008C
:1004400000000000000000000000000000000000AC
:1004500011241FBECFEFD1E2DEBFCDBF00E00CBF45
:1004600018E0A0E0B2E0EEE5F8E800E00BBF02C063
:1004700007900D92AC3EB107D9F71BBE19E0ACEE68
:10048000B8E001C01D92A132B107E1F70E94F10D61
:100490000C942D44B5CDA0E0B0E0E1E5F2E00C9481
:1004A0005043DC012B01FA019C91923008F439C1D0
:1004B000EB018881823008F433C1943069F48430D0
:1004C00009F02FC111969C9111978981981709F411
:1004D00028C1A1EFB5E025C1843009F421C18230E3
:1004E000A9F4923009F01DC19A01AD0188E0EA013A
:1004F0000990AE01E90109929E018150C1F7E20124
:10050000898111969C918923818308C1923009F4D5
:1005100007C112962D903C901397EB018A819B8125
:100520001496AD90BD90CD90DC901797EC80FD8037
:100530000E811F819101281B390BB90137FF04C0BF
:1005400066277727621B730B603271050CF061C060
:10055000121613066CF537014801062E04C0969456
:100560008794779467940A94D2F721E030E040E0D2
:1005700050E004C0220F331F441F551F6A95D2F765
:1005800021503040404050402E213F2140235123F4
:10059000211531054105510521F021E030E040E011
:1005A00050E079018A01E628F728082919293CC07A
:1005B000232BD1F1260E371E35014601062E04C02D
:1005C00096948794779467940A94D2F721E030E068
:1005D00040E050E004C0220F331F441F551F6A95AE
:1005E000D2F721503040404050402A213B214C213D
:1005F0005D21211531054105510521F021E030E053
:1006000040E050E059016A01A628B728C828D92837
:100610000BC0821593052CF01C01AA24BB24650194
:1006200003C0EE24FF24870111969C91D2011196FC
:100630008C91981709F445C0992339F0A8019701C6
:100640002A193B094C095D0906C0A60195012E191E
:100650003F09400B510B57FD08C0118233822282A3
:1006600024833583468357831DC081E08183338291
:10067000228288279927DC01821B930BA40BB50BE0
:1006800084839583A683B7830DC0220F331F441F35
:10069000551F248335834683578382819381019735
:1006A000938382832481358146815781DA01C90190
:1006B0000197A109B1098F5F9F4FAF4FBF4328F347
:1006C0000BC0918333822282EA0CFB1C0C1D1D1D82
:1006D000E482F5820683178383E080832481358159
:1006E0004681578157FF1AC0C901AA2797FDA095D7
:1006F000BA2F81709070A070B0705695479537955D
:100700002795822B932BA42BB52B84839583A683CB
:10071000B78382819381019693838283DF0101C035
:10072000D201CD01CDB7DEB7E2E10C946C43A0E27B
:10073000B0E0EDE9F3E00C945C4369837A838B834A
:100740009C832D833E834F835887E9E0EE2EF12C66
:10075000EC0EFD1ECE010196B701C0D48E010F5ED6
:100760001F4FCE010596B801B9D48A8991E0892737
:100770008A8BC701B801AE01475E5F4F8CDED9D3CB
:10078000A096E6E00C947843A0E2B0E0EAECF3E057
:100790000C945C4369837A838B839C832D833E8393
:1007A0004F835887F9E0EF2EF12CEC0EFD1ECE01A1
:1007B0000196B70193D48E010F5E1F4FCE010596AF
:1007C000B8018CD4C701B801AE01475E5F4F63DE4C
:1007D000B0D3A096E6E00C947843A0E2B0E0E3EF5B
:1007E000F3E00C94504369837A838B839C832D833D
:1007F0003E834F835887CE010196BE01675F7F4FCE
:100800006DD4CE010596BE016F5E7F4F67D499858A
:10081000923088F089898230C8F0943019F482309F
:1008200051F404C0843029F4923081F481EF95E0D2
:10083000C6C0923049F420E09A858A89981321E055
:100840002A87CE010996BBC0823049F420E09A8500
:100850008A89981321E02A8BCE014196B0C02D845D
:100860003E844F8458886D887E888F88988CEE24CB
:10087000FF248701AA24BB24650140E050E060E02A
:1008800070E0E0E0F0E0C10181709070892BE9F048
:10089000E60CF71C081D191D9A01AB012A0D3B1D22
:1008A0004C1D5D1D80E090E0A0E0B0E0E614F70490
:1008B0000805190520F481E090E0A0E0B0E0BA015D
:1008C000A901480F591F6A1F7B1FAA0CBB1CCC1C17
:1008D000DD1C97FE08C081E090E0A0E0B0E0A82A0F
:1008E000B92ACA2ADB2A3196E032F10549F0660CB2
:1008F000771C881C991C5694479437942794C3CF2F
:10090000FA85EA892B893C898B859C85280F391FBC
:100910002E5F3F4F17C0CA0181709070892B61F024
:1009200016950795F794E79480E090E0A0E0B0E892
:10093000E82AF92A0A2B1B2B769567955795479538
:100940002F5F3F4F77FDE7CF0CC0440F551F661F49
:10095000771F17FD4160EE0CFF1C001F111F215077
:100960003040403090E0590790E0690790E4790703
:1009700060F32B8F3C8FDB01CA018F779070A070E2
:10098000B07080349105A105B10561F447FD0AC03E
:10099000E114F1040105110529F0405C5F4F6F4F30
:1009A0007F4F40781A8EFE1711F081E08A8F4D8FAD
:1009B0005E8F6F8F78A383E0898FCE014996B9D27D
:1009C000A096E2E10C946C43A8E1B0E0EAEEF4E01A
:1009D0000C94584369837A838B839C832D833E8355
:1009E0004F835887B9E0EB2EF12CEC0EFD1ECE01A3
:1009F0000196B70173D38E010F5E1F4FCE0105968E
:100A0000B8016CD32985223008F47EC03989323090
:100A100010F4B8017CC08A859A8989278A87243096
:100A200011F0223031F4231709F06EC061EF75E048
:100A30006EC0343039F41D861E861F86188A1C86C7
:100A40001B8604C0323021F484E08987B7015FC07F
:100A50002B853C858B899C89281B390B3C872B87F0
:100A6000ED84FE840F851889AD88BE88CF88D88C28
:100A7000EA14FB040C051D0540F4EE0CFF1C001FDE
:100A8000111F215030403C872B8720E030E040E0B0
:100A900050E080E090E0A0E0B0E460E070E0EA14B4
:100AA000FB040C051D0540F0282B392B4A2B5B2B32
:100AB000EA18FB080C091D09B695A7959795879527
:100AC000EE0CFF1C001F111F6F5F7F4F6F31710510
:100AD00031F7DA01C9018F779070A070B07080345F
:100AE0009105A105B10561F427FD0AC0E114F104E7
:100AF0000105110529F0205C3F4F4F4F5F4F2078D3
:100B00002D873E874F87588BBE01675F7F4FCB0194
:100B100010D26896EAE00C947443A8E1B0E0E3E9EF
:100B2000F5E00C945C4369837A838B839C832D83EB
:100B30003E834F83588789E0E82EF12CEC0EFD1E92
:100B4000CE010196B701CAD28E010F5E1F4FCE01B2
:100B50000596B801C3D28985823038F08989823000
:100B600020F0C701B80132D301C081E06896E6E009
:100B70000C947843A8E1B0E0E0ECF5E00C945C4321
:100B800069837A838B839C832D833E834F8358872D
:100B900089E0E82EF12CEC0EFD1ECE010196B70186
:100BA0009DD28E010F5E1F4FCE010596B80196D2E1
:100BB0008985823038F08989823020F0C701B801F8
:100BC00005D301C081E06896E6E00C947843A8E183
:100BD000B0E0EDEEF5E00C945C4369837A838B839F
:100BE0009C832D833E834F83588789E0E82EF12C28
:100BF000EC0EFD1ECE010196B70170D28E010F5E84
:100C00001F4FCE010596B80169D28985823038F030
:100C10008989823020F0C701B801D8D201C08FEF96
:100C20006896E6E00C947843A8E1B0E0EAE1F6E0EB
:100C30000C945C4369837A838B839C832D833E83EE
:100C40004F83588789E0E82EF12CEC0EFD1ECE0173
:100C50000196B70143D28E010F5E1F4FCE0105965C
:100C6000B8013CD28985823038F08989823020F001
:100C7000C701B801ABD201C08FEF6896E6E00C94D3
:100C80007843A8E1B0E0E7E4F6E00C945C436983C4
:100C90007A838B839C832D833E834F83588789E09F
:100CA000E82EF12CEC0EFD1ECE010196B70116D2F6
:100CB0008E010F5E1F4FCE010596B8010FD28985B8
:100CC000823038F08989823020F0C701B8017ED2A5
:100CD00001C081E06896E6E00C947843A8E1B0E0BA
:100CE000E4E7F6E00C945C4369837A838B839C830E
:100CF0002D833E834F83588789E0E82EF12CEC0E3C
:100D0000FD1ECE010196B701E9D18E010F5E1F4F86
:100D1000CE010596B801E2D18985823038F0898903
:100D2000823020F0C701B80151D201C081E068963D
:100D3000E6E00C947843A8E0B0E0E1EAF6E00C9439
:100D400059439B01AC0183E08983DA01C9018827FB
:100D5000B7FD83959927AA27BB27B82E2115310502
:100D60004105510519F482E0898339C08823A9F02F
:100D7000203080E0380780E0480780E8580729F4F1
:100D800060E070E080E09FEC2EC0EE24FF2487013D
:100D9000E21AF30A040B150B02C079018A018EE1F5
:100DA000C82ED12CDC82CB82ED82FE820F83188785
:100DB000C801B7016FD001971816190684F4082EE0
:100DC00004C0EE0CFF1C001F111F0A94D2F7ED8225
:100DD000FE820F831887C81AD90ADC82CB82BA82B6
:100DE000CE010196A6D02896E9E00C947543ACE0BC
:100DF000B0E0EDEFF6E00C94604369837A838B8377
:100E00009C83CE010196BE016B5F7F4F67D18D81C0
:100E1000823061F1823050F1843021F48E81882358
:100E200051F12EC02F81388537FD20C06E812F31C2
:100E300031051CF06623F9F023C08EE190E0821B9F
:100E4000930B29853A854B855C8504C0569547955B
:100E5000379527958A95D2F76623B1F0509540953E
:100E6000309521953F4F4F4F5F4F0EC020E030E04F
:100E700040E050E009C02FEF3FEF4FEF5FE704C0C5
:100E800020E030E040E050E8B901CA012C96E2E0F1
:100E90000C947C43EF92FF920F931F937B018C0184
:100EA00080E0E81680E0F80681E0080780E0180797
:100EB00088F48FEFE816F1040105110531F028F0F0
:100EC00088E090E0A0E0B0E017C080E090E0A0E013
:100ED000B0E012C080E0E81680E0F80680E0080785
:100EE00081E0180728F088E190E0A0E0B0E004C0BD
:100EF00080E190E0A0E0B0E020E230E040E050E0AF
:100F0000281B390B4A0B5B0B04C016950795F79409
:100F1000E7948A95D2F7F701E750FA4F8081281BB2
:100F2000310941095109C9011F910F91FF90EF90BB
:100F30000895DF92EF92FF920F931F93FC01E480DC
:100F4000F58006811781D1808081823048F480E06D
:100F500090E0A0E1B0E0E82AF92A0A2B1B2BA5C0FB
:100F6000843009F49FC0823021F4EE24FF248701ED
:100F700005C0E114F1040105110519F4E0E0F0E009
:100F800096C0628173819FEF623879070CF05BC075
:100F900022E83FEF261B370B2A3131052CF020E0E9
:100FA00030E040E050E02AC0B801A701022E04C0A2
:100FB00076956795579547950A94D2F781E090E02A
:100FC000A0E0B0E004C0880F991FAA1FBB1F2A959C
:100FD000D2F70197A109B1098E219F21A023B12346
:100FE0000097A105B10521F081E090E0A0E0B0E01C
:100FF0009A01AB01282B392B4A2B5B2BDA01C90153
:101000008F779070A070B07080349105A105B10504
:1010100039F427FF09C0205C3F4F4F4F5F4F04C09A
:10102000215C3F4F4F4F5F4FE0E0F0E02030A0E009
:101030003A07A0E04A07A0E45A0710F0E1E0F0E028
:1010400079018A0127C06038710564F5FB01E15818
:10105000FF4FD801C7018F779070A070B0708034B7
:101060009105A105B10539F4E7FE0DC080E490E0DB
:10107000A0E0B0E004C08FE390E0A0E0B0E0E80EB4
:10108000F91E0A1F1B1F17FF05C016950795F79439
:10109000E794319687E016950795F794E7948A953B
:1010A000D1F705C0EE24FF248701EFEFF0E06E2FAB
:1010B000679566276795902F9F77D794DD24D794FF
:1010C0008E2F8695492F462B582F5D29B701CA01CF
:1010D0001F910F91FF90EF90DF900895FC01DB01CD
:1010E000408151812281622F6F7770E0221F222779
:1010F000221F9381892F880F822B282F30E0991F80
:101100009927991F11969C93119721153105A9F5DF
:10111000411551056105710511F482E037C082E87F
:101120009FEF13969C938E9312979A01AB0167E001
:10113000220F331F441F551F6A95D1F783E08C930C
:101140000DC0220F331F441F551F12968D919C9185
:101150001397019713969C938E931297203080E0FB
:10116000380780E0480780E4580758F314962D9319
:101170003D934D935C93179708952F3F310579F474
:10118000411551056105710519F484E08C930895AA
:1011900064FF03C081E08C9312C01C9210C02F57D3
:1011A000304013963C932E93129783E08C9387E004
:1011B000440F551F661F771F8A95D1F770641496E8
:1011C0004D935D936D937C93179708951F93DC0166
:1011D000FB019C91923008F447C08081823008F472
:1011E00043C0943051F411961C91843099F581815B
:1011F000682F70E0611B71093FC0843021F092308C
:1012000031F48230B9F18181882389F12DC01196A2
:101210001C9111978230F1F081811817D9F4129640
:101220002D913C911397828193818217930794F0BB
:1012300028173907BCF014968D919D910D90BC91A3
:10124000A02D2481358146815781281739074A0707
:101250005B0718F4112341F00AC082179307A40713
:10126000B50740F4112319F061E070E005C06FEF9D
:101270007FEF02C060E070E0CB011F910895CF9333
:10128000DF93BC018230910510F462E070E0A09120
:101290001909B0911A09ED01E0E0F0E040E050E0FA
:1012A00021C0888199818617970769F48A819B817B
:1012B000309719F09383828304C090931A09809326
:1012C0001909FE0134C06817790738F44115510532
:1012D00019F08417950708F4AC01FE018A819B81FF
:1012E0009C01E9012097E9F641155105A9F1CA01D0
:1012F000861B970B049708F4BA01E0E0F0E02AC0DF
:101300008D919C91119784179507F9F464177507CF
:1013100081F412968D919C911397309719F09383D5
:10132000828304C090931A0980931909FD013296B3
:101330004CC0CA01861B970BFD01E80FF91F619392
:10134000719302978D939C9340C0FD01828193819C
:101350009C01D9011097A1F6809117099091180965
:10136000892B41F48091FB069091FC06909318091B
:10137000809317094091FD065091FE0641155105D5
:1013800041F44DB75EB78091F9069091FA06481B7B
:10139000590B2091170930911809CA01821B930B30
:1013A0008617970780F0AB014E5F5F4F8417950754
:1013B00050F0420F531F5093180940931709F90139
:1013C0006193719302C0E0E0F0E0CF01DF91CF9133
:1013D0000895CF93DF93009709F450C0EC01229752
:1013E0001B821A82A0911909B0911A09109709F16C
:1013F00040E050E0AC17BD0708F1BB83AA83FE01B3
:1014000021913191E20FF31FAE17BF0779F48D914F
:101410009C911197280F391F2E5F3F4F39832883E6
:1014200012968D919C9113979B838A834115510548
:1014300071F4D0931A09C093190920C012968D91A6
:101440009C911397AD01009711F0DC01D3CFFA0105
:10145000D383C28321913191E20FF31FCE17DF07AF
:1014600069F488819981280F391F2E5F3F4FFA0157
:10147000318320838A819B8193838283DF91CF9103
:101480000895A0E0B0E0E7E4FAE00C9452436C0168
:10149000009721F4CB01F3DE6C01BDC08EEF882EE6
:1014A0008FEF982E8C0C9D1C8601060F171F0815B8
:1014B000190508F4AEC0F401A081B181A617B707E1
:1014C000B0F0A530B10508F4A6C0CD010497861789
:1014D000970708F4A0C01297A61BB70BF801A193B9
:1014E000B193D4016D937C93CF0173DF94C07B01E2
:1014F000EA1AFB0AEEEFFFEFEE0EFF1E36016A0E50
:101500007B1EC0911909D0911A0944245524AA249C
:10151000BB244AC0C615D705E1F5488159814E154F
:101520005F05B8F1CA0104978E159F05B0F41296B5
:10153000A40FB51FF401B183A0832A813B8141141C
:10154000510431F0D20113963C932E93129763C04D
:1015500030931A09209319095EC08A819B81F80192
:1015600093838283425050404E195F0951834083D8
:101570004114510431F0D20113961C930E9312972B
:1015800004C010931A0900931909F4017183608350
:1015900042C088819981A816B90608F45C012E0121
:1015A0008A819B819C01E901209709F0B3CF80914A
:1015B00017099091180986159705E9F4A616B7063C
:1015C000D0F42091FD063091FE062115310541F43D
:1015D0002DB73EB78091F9069091FA06281B390B7A
:1015E00002171307B0F41093180900931709D401D8
:1015F0006D937C9310C0CB0142DEEC01009749F063
:10160000F40140815181B60115D0C601E2DE6E01C0
:1016100002C0CC24DD24C601CDB7DEB7E0E10C94D6
:101620006E43FB01DC0102C005900D924150504019
:10163000D8F70895FB01DC0102C001900D924150E2
:101640005040D8F70895DC0101C06D9341505040DF
:10165000E0F70895FB01DC018D91019080190110E4
:10166000D9F3990B0895FC0101900020E9F78095CA
:1016700090958E0F9F1F0895A0E0B0E0E2E4FBE09C
:101680000C946043FE0136966191719180911D0921
:1016900090911E09AF0104D02096E2E00C947C43A7
:1016A000ABE0B0E0E6E5FBE00C9450433C012B01DD
:1016B0005A01FC0117821682838181FD03C06FEFFE
:1016C0007FEFB9C19AE0892E1E010894211C311CBC
:1016D000F3012381F20123FD859123FF81912F01E5
:1016E000882309F4A5C1853239F423FD859123FFB0
:1016F00081912F01853221F490E0B301B7D1E8CF79
:10170000982FFF24EE249924FFE1FF15D0F09B329F
:1017100069F09C3228F4903259F0933291F40EC063
:101720009D3249F0903369F441E024C052E0F52A3B
:1017300084E0F82A28C098E0F92A25C0E0E1FE2AD2
:1017400022C0F7FC29C0892F80538A3070F4F6FE3E
:1017500005C0989C902C1124980E15C0E89CE02C94
:101760001124E80EF0E2FF2A0EC09E3229F4F6FCA6
:101770005FC140E4F42A07C09C3619F450E8F52A0A
:1017800002C0983649F4F20123FD959123FF91910F
:101790002F01992309F0B8CF892F8554833018F091
:1017A0008052833038F444E050E0A40EB51E5FE36D
:1017B00059830FC0933631F0933779F0933509F0A0
:1017C00052C01FC0F5018081898342E050E0A40E21
:1017D000B51E610101E010E011C0F501C080D180AB
:1017E000F6FC03C06FEF7FEF02C0692D70E042E0AE
:1017F00050E0A40EB51EC6012ED18C015FE7F52284
:1018000013C0F501C080D180F6FC03C06FEF7FEFFD
:1018100002C0692D70E042E050E0A40EB51EC60182
:101820000FD18C0150E8F52AF3FE06C018C080E203
:1018300090E0B3011BD1EA948E2D90E008171907B0
:10184000B0F30DC0F601F7FC8591F7FE81916F01B1
:1018500090E0B3010BD1E110EA9401501040011562
:10186000110581F7E2C0943611F0993661F5F7FE63
:1018700008C0F501208131814281538184E090E0EC
:101880000AC0F501808191819C01442737FD409574
:10189000542F82E090E0A80EB91E9FE6F92257FF70
:1018A00009C050954095309521953F4F4F4F5F4F60
:1018B000E0E8FE2ACA01B901A1012AE030E002D124
:1018C000D82ED2183FC0953729F41F2D1F7E2AE04D
:1018D00030E01DC01F2D197F9F3661F0903720F436
:1018E000983509F0A5C00FC0903739F0983709F046
:1018F0009FC004C028E030E00AC0106114FD1460ED
:1019000020E130E004C014FD166020E132E017FF52
:1019100008C0F501608171818281938144E050E0CB
:1019200008C0F50180819181BC0180E090E042E037
:1019300050E0A40EB51EA101C5D0D82ED2188FE755
:10194000F82EF122F6FE0BC05EEFF522D91438F422
:10195000F4FE07C0F2FC05C08FEEF82202C01D2D78
:1019600001C0192DF4FE0DC0FE01ED0DF11D8081A9
:10197000803319F499EEF92208C01F5FF2FE05C00A
:1019800003C08F2D867809F01F5F0F2DF3FC13C065
:10199000F0FE0EC01E1510F09D2C0AC09D2C9E0C52
:1019A000911A1E2D05C080E290E0B3015FD01F5F49
:1019B0001E15C8F304C01E1510F4E11A01C0EE2470
:1019C00004FF0EC080E390E0B30150D002FF1BC0C3
:1019D00001FD03C088E790E00EC088E590E00BC0F1
:1019E000802F867881F001FF02C08BE201C080E287
:1019F000F7FC8DE290E0B30139D005C080E390E0C0
:101A0000B30134D09A94D914C8F3DA94F101ED0DEE
:101A1000F11D808190E0B30129D0DD20B1F705C030
:101A200080E290E0B30122D0EA94EE20C9F750CED4
:101A3000F30166817781CB012B96E2E10C946C4334
:101A4000FC010590615070400110D8F78095909589
:101A50008E0F9F1F0895FC0161507040019001108E
:101A6000D8F7809590958E0F9F1F08950F931F9321
:101A7000CF93DF938C01EB018B8181FF1BC082FF31
:101A80000DC02E813F818C819D812817390764F418
:101A9000E881F9810193F983E88306C0E885F98537
:101AA000802F1995892B31F48E819F8101969F8318
:101AB0008E8302C00FEF1FEFC801DF91CF911F91FE
:101AC0000F910895FA01AA27283051F1203181F1B0
:101AD000E8946F936E7F6E5F7F4F8F4F9F4FAF4F36
:101AE000B1E03ED0B4E03CD0670F781F891F9A1F49
:101AF000A11D680F791F8A1F911DA11D6A0F711DFD
:101B0000811D911DA11D20D009F468943F912AE008
:101B1000269F11243019305D3193DEF6CF010895F0
:101B2000462F4770405D4193B3E00FD0C9F7F6CF21
:101B3000462F4F70405D4A3318F0495D31FD4052E9
:101B4000419302D0A9F7EACFB4E0A695979587957F
:101B500077956795BA95C9F700976105710508955E
:101B60009B01AC010A2E069457954795379527950A
:101B7000BA95C9F7620F731F841F951FA01D0895A2
:101B8000982F8091C00085FFFCCF9093C6000895E8
:101B900088E18093C1001092C50088E08093C40062
:101BA0000895A2E0B0E0E7EDFDE00C9460432091E1
:101BB000170930911809CE0101962115310519F444
:101BC0008152994002C0821B930B9A838983898139
:101BD0009A812296E2E00C947C43D2DF80E090E090
:101BE000089598D2D5DF8DEE9DE09093F50880930F
:101BF000F4081092F7081092F60882E08093EF083C
:101C00001092F9081092F8088CEE98E090931E0953
:101C100080931D09C6DF00D00F9220E032E0EDB7BF
:101C2000FEB7328321839483838326DD0F900F9048
:101C30000F900F9080E090E00E94F121EC014ED0D7
:101C4000B0DF00D00F9229E032E0EDB7FEB732836B
:101C500021839483838310DD0F900F900F900F905A
:101C60008FEF96E06BEE71E00E942D3EBC01CE013D
:101C700040E00E94AB2195DF00D00F9222E132E0DC
:101C8000EDB7FEB73283218394838383F5DC0F9015
:101C90000F900F900F90CE016BE172E040E050E0AA
:101CA00020E030E00E942E1F7CDF00D00F9221E266
:101CB00032E0EDB7FEB73283218394838383DCDC8B
:101CC0000F900F900F900F90CE016AE272E040E00B
:101CD00050E020E030E00E942E1FF6CFAF92BF927E
:101CE000CF92DF92EF92FF920F931F935C018FE2EE
:101CF000C82E82E0D82EC6010E944D220E94C02824
:101D0000F82EE92E67E372E047EC5FE00E94932B28
:101D10008F2D9E2D6FE372E041EB5FE00E94932BCD
:101D20008F2D9E2D6BE472E045E75FE00E94932BC0
:101D30008F2D9E2D68E572E04FE55FE00E94932BAA
:101D40008F2D9E2D63E672E04BE25FE00E94932BA5
:101D50008F2D9E2D6FE672E04FE05FE00E94932B87
:101D600085E792E00E944D220E9489278C0160E065
:101D700070E080E090E00E945C27AC018F2D9E2DEA
:101D8000B8010E945B2B8BE792E00E944D220E94DB
:101D900089278C0161E070E080E090E00E945C2780
:101DA000AC018F2D9E2DB8010E945B2B82E892E042
:101DB0000E944D220E9489278C0160E070E080E043
:101DC00090E00E945C27AC018F2D9E2DB8010E94EF
:101DD0005B2B86E892E00E944D220E9489278C01AD
:101DE00061E070E080E090E00E945C27AC018F2D04
:101DF0009E2DB8010E945B2BC6010E944D220E94BD
:101E00008927BC01C5014F2D5E2D7FD51F910F91F4
:101E1000FF90EF90DF90CF90BF90AF900895CB01EF
:101E200060E070E00E945523FC0180818B3621F434
:101E3000838194819C01F9018081893649F4638111
:101E4000748185819681655070408040904040D17A
:101E50008EE40C9407230F931F93CF93DF93162FD9
:101E6000072F862F972F60E070E00E945523EC012A
:101E7000812F902F61E070E00E945523FC01888142
:101E80008B3621F48B819C819C01E90180818B360A
:101E900021F4838194819C01F9018881893639F488
:101EA0008081893621F4638174818B81C9D18EE46C
:101EB0000E940723DF91CF911F910F910895CB01CD
:101EC00060E070E00E945523FC018081893619F0A2
:101ED00020E030E003C083817FD19C01B9018827D5
:101EE00077FD8095982F0C945C270F931F93CF93C9
:101EF000DF93EB01ED81FE818281938102974CF1AA
:101F0000CB0160E070E00E9455238C01CE0161E0BE
:101F100070E00E945523FC01D8018C918B3639F476
:101F200013968C91139714969C919C018901808142
:101F30008B3621F4838194819C01F901D8018C9125
:101F4000893639F48081893621F413968C91638126
:101F5000A3D28EE40E940723DF91CF911F910F91AE
:101F60000895CB0160E070E00E945523FC01808160
:101F7000893619F020E030E003C08381BFD29C0194
:101F8000B901882777FD8095982F0C945C270F93D3
:101F90001F93CF93DF93162F072F862F972F60E085
:101FA00070E00E945523EC01812F902F61E070E0DA
:101FB0000E945523FC0188818B3621F48B819C8102
:101FC0009C01E90180818B3621F4838194819C01FD
:101FD000F9018881893631F48081893619F48B8141
:101FE0006381E2D18EE40E940723DF91CF911F919C
:101FF0000F9108951F920F920FB60F9211242F93F5
:102000003F938F939F93AF93BF938091FE089091DE
:10201000FF08A0910009B0910109309102090196D1
:10202000A11DB11D232F2D5F2D3720F02D570196B7
:10203000A11DB11D209302098093FE089093FF0813
:10204000A0930009B09301098091FA089091FB08D0
:10205000A091FC08B091FD080196A11DB11D8093CF
:10206000FA089093FB08A093FC08B093FD08BF9179
:10207000AF919F918F913F912F910F900FBE0F9035
:102080001F9018959FB7F8942091FA083091FB089B
:102090004091FC085091FD0886B5A89B06C08F3F73
:1020A00021F02F5F3F4F4F4F5F4F9FBF542F432F64
:1020B000322F2227280F311D411D511D82E0220F92
:1020C000331F441F551F8A95D1F7B901CA010895DE
:1020D000EF92FF920F931F93CF93DF937B018C01BD
:1020E000D1DFEB010DC0CEDF6C1B7D0B685E734052
:1020F000D0F30894E108F10801091109C851DC4F37
:10210000E114F1040105110571F7CDB7DEB7E6E082
:102110000C947843789484B5826084BD84B58160E2
:1021200084BD85B5826085BD85B5816085BDEEE6DF
:10213000F0E0808181608083E1E8F0E010828081BE
:1021400082608083808181608083E0E8F0E080812C
:1021500081608083E1EBF0E0808184608083E0EB4C
:10216000F0E0808181608083E1E9F0E0808182603D
:102170008083808181608083E0E9F0E080818160FC
:102180008083E1EAF0E080818260808380818160E9
:102190008083E0EAF0E0808181608083E1E2F1E029
:1021A000808182608083808181608083E0E2F1E0D1
:1021B000808181608083EAE7F0E0808184608083B1
:1021C000808182608083808181608083808180685B
:1021D00080831092C1000895382F863308F036535B
:1021E00020917B00832F86958695869590E081705F
:1021F000907043E0880F991F4A95E1F7277F282BBD
:1022000020937B0037708091EB088295880F880FB0
:10221000807C832B80937C0080917A008064809303
:102220007A0080917A0086FDFCCF20917800409161
:102230007900942F80E030E0282B392BC9010895D4
:102240001F93CF93DF93182FEB0161E0ADD0209760
:1022500009F4A0C0CF3FD10509F49FC0E12FF0E001
:10226000E65FFB4FE4918E2F90E0FC013197E13166
:10227000F10508F08CC0EE58FF4F0C94874384B5ED
:10228000806884BDC7BD8CC084B5806284BDC8BD74
:1022900087C080918000806880938000D0938900FF
:1022A000C09388007DC08091800080628093800010
:1022B000D0938B00C0938A0073C08091B000806877
:1022C0008093B000C093B3006BC08091B000806277
:1022D0008093B000C093B40063C080919000806888
:1022E00080939000D0939900C093980059C080913A
:1022F0009000806280939000D0939B00C0939A00DE
:102300004FC080919000886080939000D0939D0092
:10231000C0939C0045C08091A00080688093A0007D
:10232000D093A900C093A8003BC08091A000806218
:102330008093A000D093AB00C093AA0031C08091DD
:10234000A00088608093A000D093AD00C093AC0043
:1023500027C080912001806880932001D0932901BB
:10236000C09328011DC080912001806280932001CC
:10237000D0932B01C0932A0113C080912001886063
:1023800080932001D0932D01C0932C0109C0C03847
:10239000D1051CF4812F60E002C0812F61E07CD068
:1023A000DF91CF911F910895482F50E0CA018C53BF
:1023B0009C4FFC01249142585C4FFA018491882380
:1023C000C1F0E82FF0E0EE0FFF1FE05DFC4FA5919C
:1023D000B491662341F49FB7F8948C9120958223A1
:1023E0008C939FBF08959FB7F8948C91822B8C9308
:1023F0009FBF089590E0FC013197E131F10508F0AD
:102400004AC0ED57FF4F0C948743809180008F772F
:1024100003C0809180008F7D80938000089584B5F3
:102420008F7702C084B58F7D84BD08958091B00000
:102430008F7703C08091B0008F7D8093B0000895A6
:10244000809190008F7707C0809190008F7D03C0AE
:1024500080919000877F8093900008958091A000E4
:102460008F7707C08091A0008F7D03C08091A0006E
:10247000877F8093A0000895809120018F7703C00B
:10248000809120018F7D809320010895809120010B
:10249000877F809320010895FF920F931F93F62E5C
:1024A000482F50E0CA01865F9B4FFC012491CA016E
:1024B0008C539C4FFC01149142585C4FFA010491DB
:1024C0000023C1F0222311F0822F94DFE02FF0E0EF
:1024D000EE0FFF1FE65BFC4FA591B4919FB7F894F8
:1024E000FF2021F48C911095812302C08C91812BC7
:1024F0008C939FBF1F910F91FF9008950F931F938F
:10250000482F50E0CA01865F9B4FFC012491CA010D
:102510008C539C4FFC01049142585C4FFA0114917A
:10252000112319F420E030E014C0222311F0822F8F
:1025300061DF812F90E0880F991F8C599C4FFC011F
:10254000A591B4918C9120E030E0802311F021E03E
:1025500030E0C9011F910F910895FB010380F481C0
:10256000E02DBA01A90119950895FC01828193819A
:102570000C944126FC01828193810C948323A0E07A
:10258000B0E0E5ECF2E10C9456437C015B014A01BA
:10259000DB0151960D911C9152970E94A42B6C0166
:1025A00082E6F6018083B482A382C5010E94A63E22
:1025B000D60118961C921E92179716961C921E9280
:1025C0001597F801858196811A969C938E93199799
:1025D00012961C921E9211970E946134D6011C968D
:1025E0009C938E931B97F70180819181B6010E9485
:1025F000383481149104A1F1C0E0D0E027C0C401B7
:10260000BE010E9455237C01D50157968D919C9166
:102610005897BE010E945523FC018081F50107896E
:10262000108D8B3669F0C801BE010E945523B70199
:102630000E943229AC01C801BE010E94152405C0C8
:10264000C801BE01A7010E9456292196D401159602
:10265000ED91FC91169782819381C817D9077CF27E
:10266000C601CDB7DEB7ECE00C947243A0E0B0E059
:10267000ECE3F3E10C9450431C016B013A01290196
:102680000E94A42B7C0182E6D7018C9318961C92A1
:102690001E92179716961C921E92159712961C92D0
:1026A0001E9211970E946134F70194878387D601A7
:1026B0001396ED91FC91149701891289D701149614
:1026C000FC93EE931397CF010E94A63EF8018581FB
:1026D0009681D7011A969C938E9319976114710471
:1026E00009F488C0D3011596ED91FC91169782816B
:1026F0009381D6011396ED91FC9114978580968075
:10270000881599050CF44C01C0E0D0E02EC0C3013F
:10271000BE010E9455235C01D6011396ED91FC91F8
:1027200014978789908DBE010E945523FC018081FA
:10273000D6011396ED91FC9114978B3679F00789A9
:10274000108DC801BE010E945523B5010E94322997
:10275000AC01C801BE010E94152406C08789908D76
:10276000BE01A5010E9456292196C815D9057CF203
:10277000D3011596ED91FC91169722813381D601F4
:102780001396ED91FC91149785819681821793079A
:102790008CF55901A81AB90A80E090E00E949C27A4
:1027A0008C01C0E0D0E013C0BE01680D791DC301EB
:1027B0000E945523FC0180818B3621F48381948112
:1027C0009C01F901C801BF010E940B272196CA157F
:1027D000DB0554F3D6011396ED91FC9114976781B4
:1027E000708585819681680F791F8789908DA801F2
:1027F0000E9456294114510409F1C0E0D0E014C0F0
:10280000C201BE010E945523FC01D60113968D9191
:102810009C9114976581768143815481FC0187895D
:10282000908D0E94B5292196D2011596ED91FC91CB
:10283000169782819381C817D90714F3D60113968E
:10284000ED91FC911497858585FF0DC00E9432277C
:10285000182F092FB101A7010E94C040212F302F4E
:10286000C9019C0108C0F10180819181B7010E94DA
:10287000383420E030E0C901CDB7DEB7E2E10C9496
:102880006C43A0E0B0E0E7E4F4E10C9458436C0141
:10289000EB018A0159014115510511F07A0107C078
:1028A00080E090E00E949C277C010E94A63E4D8122
:1028B0005E81C70160E070E00E94E126EB81FC814F
:1028C0008081863631F4C601BF01A7019501CEDEB5
:1028D0000AC0833419F0C0E0D0E006C0C601BF01D1
:1028E000A70195013ADEEC010115110519F4C701A4
:1028F0000E94BA3ECE01CDB7DEB7EAE00C94744335
:10290000FC01828193810C942A26FC0182819381AF
:102910000C948829A4E0B0E0E0E9F4E10C94504381
:102920001C01DC018D919C910E9437333C01FC011C
:1029300043805480D2018C91833609F049C3D2017F
:102940005196ED91FC91529743815481F301278177
:102950003085818592852817390714F00C94051F5E
:10296000FA01E20FF31F10812F5F3F4FD30118963A
:102970003C932E9317971F3509F400C2103680F54B
:10298000143409F4D6C11534B0F4133009F46EC10F
:10299000143038F4113009F43BC1123008F049C149
:1029A00030C1153009F49AC1153008F48BC11930C3
:1029B000D9F50C94291F1635D9F1173548F410357F
:1029C00009F430C1133509F443C0163469F5D6C192
:1029D000173509F423C1812F8A55843028F5CEC1DB
:1029E0001F3780F41C3708F0C9C1153730F414368E
:1029F00008F0C4C1812F815614C0812F88578330BD
:102A000098F4BCC1103940F41C3808F0B7C1812FCC
:102A10008258893048F4B2C1103909F49CC1812F21
:102A20008259823008F4AAC1AA24BB246501B8C126
:102A30002F5F3F4FF30130872783838594850E9462
:102A4000DD338C010E94A63E0E940A400C94241F94
:102A5000D3011B968D919C911C970E94DD33182FFA
:102A6000092FD3011396ED91FC9114972585368596
:102A70004785508931FF16C0F101808191810E9404
:102A8000DD33D3011396ED91FC91149785859685DE
:102A9000A785B08991609D7F85879687A787B08B32
:102AA0000C94291F30FF6BC0F101808191810E943D
:102AB000DD33D3011B968D919C911C970E94DD33D1
:102AC0008C010E9466286C018BE892E00E944D22E6
:102AD0000E948927F82EE92E0E94A63ED80113965F
:102AE000ED91FC9114978789908D6F2D7E2D0E941A
:102AF00041265C01D8011396ED91FC9114978789CA
:102B0000908D6F2D7E2D40E050E00E94B5298F2DD5
:102B10009E2D0E94BA3EC5010E94A63EF101808111
:102B200091810E944E34882359F4D1018D919C915A
:102B30000E943733FC0183859485B6010E943834A6
:102B400086E992E00E944D220E948927F82EE92E04
:102B50000E94A63EC1016F2D7E2DA601950100E0C9
:102B600010E00E94811F8C010E94A63EC8010E94B5
:102B7000BA3E8F2D9E2D0E94BA3EC5011BC0D101C9
:102B80006D917C9127FF1AC0CB010E94DD33F201C9
:102B9000838194810E944D220E948927182F092F3A
:102BA000C101612F702FACDE812F902F0E94A63EB5
:102BB000812F902F0E94BA3E0C94291FCB010E94B6
:102BC000DD33D1018D919C910E944E34882369F4AC
:102BD000F101808191810E943733DC011B968D9138
:102BE0009C911C97612F702FB2C0812F902F0E9453
:102BF000A63E0E940A40812F902F9C0189010C94CF
:102C0000241FF30181859285908787830C94291F67
:102C1000D3011B968D919C911C9707C0F101808177
:102C2000918103C0D1018D919C910E94DD330C9460
:102C3000291FF301838594850E9437338C01D301CA
:102C40001B968D919C911C970E945033BC01F301FF
:102C5000838594850E948233D3011B968D919C912C
:102C60001C97B8010E9496330C94291FF3018385A9
:102C700094850E9437338C01D3011B968D919C91D2
:102C80001C970E9450337C01F301838594850E9438
:102C900069336C01D3011B968D919C911C97B701F0
:102CA0000E948233F30183859485B6010E94963396
:102CB000D3011B968D919C911C97B8010E94AA3359
:102CC0000C94291FF301838594850E943733BC013E
:102CD000D3011B968D919C911C9739C0F30183857C
:102CE00094850E9437338C01D3011B968D919C9162
:102CF0001C970E9450337C01F3018385948562E028
:102D000070E00E940934D3011B968D919C911C9711
:102D1000B8010E948233C8010E94A63EF301838558
:102D20009485B7010E949633C7010E94A63E0C9479
:102D3000291FD3011B968D919C911C970E94DD3316
:102D4000B1010E94DA42BC01F301838594850E949F
:102D500038340C94291FFA01E20FF31F818162813C
:102D60000E94FF22D30117968D919C91189702968D
:102D700018969C938E9317970C94291FFA01E20FD3
:102D8000F31F808161810E94FF225C01CC24B7FC8B
:102D9000C094DC2CF301878190850296908787830D
:102DA0001F3509F470C0103660F51C3309F491C06A
:102DB0001D33A8F41E3168F4133108F064C01A30D2
:102DC00008F447C01D3008F447C01F3009F041C067
:102DD00043C0163309F47DC01633D8F154C0103502
:102DE00048F41B3408F04FC0143408F44CC01534B8
:102DF00081F532C01A3581F11C3571F1143549F570
:102E00002BC0143790F4123738F51D3638F41B36C2
:102E1000D0F5113609F11A36E1F41EC01D36E1F085
:102E2000812F8F568230A8F417C01938A9F01A38AC
:102E300038F4143889F0163879F01D3751F40CC085
:102E4000133928F4113940F41F3819F405C0133927
:102E5000D1F08824992414C0D3011B968D919C91A4
:102E60001C970E94DD334C01FC0180818B3641F4BC
:102E7000D40113968C91139714969C919C0149014F
:102E80001C821B8223C0F301838594850E94DD335D
:102E90004C01D3011B968D919C911C970E94DD33B0
:102EA0009C838B83F40180818B3621F48381948110
:102EB0009C014901AB81BC818C918B3639F4EB814B
:102EC000FC81838194819C013C832B83EE24FF242D
:102ED00034C0D3011B968D919C911C970E94DD33C9
:102EE0004C01F301838594850E94DD339C838B83A1
:102EF000D3011B968D919C911C970E94DD337C0120
:102F0000F40180818B3621F4838194819C014901F5
:102F1000AB81BC818C918B3641F413968C911397C5
:102F200014969C919C013C832B83F70180818B3606
:102F300021F4838194819C017901812F90E0FC012F
:102F40003A97EA38F10508F054C7EC56FF4F0C9455
:102F5000874300E010E08824992474C688249924CB
:102F60006BC6D3011B968D919C911C970E94DD33FB
:102F70008C01FC0180818B3621F4838194819C013A
:102F80008901F2E0AF16B104C104D10494F0D30179
:102F90001B968D919C911C970E94DD33B2E0AB167D
:102FA000B104C104D10429F0F301838594850E9402
:102FB000DD33D1011896ED91FC911997309719F0F6
:102FC000C101B80119958EE40E9407230E94A63E14
:102FD0008EE40E94072337C78DED97E30E944F28A8
:102FE00017C6D3011B968D919C911C970E94373375
:102FF000FC018081823519F0E0E0F0E009C0F301C6
:10300000838594850E943733B1010E944142FC01BF
:103010008081D3011B962D913C911C978E3449F4ED
:10302000C9010E94DD33F301878190858A0D9B1DC4
:1030300058C2C90187C4D20155968D919C9156976B
:10304000B5010E945523FC0180818B3621F48381D8
:1030500094819C01F901C401BF010E94F727BC01C2
:10306000009709F0D6C5C5C6D20155968D919C91A1
:103070005697B5010E945523FC0180818B3621F4BF
:10308000838194819C01F901C401BF014B815C8162
:103090000E94012AAEC6F20185899689B5010E9477
:1030A00055237C01DC018C918B3639F413968C917D
:1030B000139714969C919C017901C101B70155DACF
:1030C000BC0180910309909104096817790709F000
:1030D000A0C5D1011696ED91FC911797309709F490
:1030E00088C6D70113966D917C911497C1011995EB
:1030F0008C01009709F47DC6F30183859485B8019E
:103100000E943834C101B701A801FFDBC101B80139
:1031100040E050E020E030E032DAC80168C6D20179
:1031200055968D919C915697B5010E945523FC01AF
:1031300080818B3621F4838194819C01F901D40133
:103140008C918336C1F46381748155968D919C91E5
:1031500056970E94E324BC01BFEF8F3F9B0709F401
:1031600048C6F401858996890E945523BC010097C1
:1031700009F042C53EC6863209F03BC6F30183859D
:10318000948576C1D40113968D919C9114970E94D9
:103190004D220E948927BC01C101A401B6DB29C6CA
:1031A00085011070BB27D7FCBA95AD2D9C2D8B2DBA
:1031B000AFEFAA2EB12CA822B9220115110519F4DE
:1031C000CC24DD241EC0C8010E949C276C01EE2483
:1031D000FF24F301838594850E94DD33FC01808107
:1031E0008B3621F4838194819C01F901C601B701DA
:1031F000AF010E9415240894E11CF11CE016F106B1
:1032000044F3A114B10419F4442455241FC080E0F0
:1032100090E00E949C272C01EE24FF24D3011B96F2
:103220008D919C911C970E94DD338C01F301838565
:1032300094850E94DD33BC01C201A8010E94B5291A
:103240000894E11CF11CEA14FB0444F3C401B60128
:10325000A20120E030E00E94092ABC01D3011B96A4
:103260008D919C911C970E943834C6010E94A63E05
:10327000C2010E94A63EC6010E94BA3EC201B7C565
:1032800085011070BB27D7FCBA95AD2D9C2D8B2DD9
:10329000EFEFAE2EB12CA822B922F30183859485DD
:1032A0000E94DD332C010115110519F4CC24DD2415
:1032B00020C0C8010E949C276C01EE24FF24D3018A
:1032C0001B968D919C911C970E94DD33FC0180819F
:1032D0008B3621F4838194819C01F901C601B701E9
:1032E000AF010E9415240894E11CF11CE016F106C0
:1032F00034F3A114B10419F41C821B8221C080E0B4
:1033000090E00E949C279C838B83EE24FF24F30192
:10331000838594850E94DD338C01D3011B968D91AA
:103320009C911C970E94DD33BC018B819C81A8017C
:103330000E94B5290894E11CF11CEA14FB043CF33B
:10334000C401B6014B815C8192010E94092ABC0133
:10335000F301838594850E943834C6010E94A63EFD
:103360008B819C810E94A63EC6010E94BA3E8B8141
:103370009C813DC5D4018C91863409F03AC512C0B8
:10338000D4018C91843509F034C50CC0D301179653
:103390008D919C9118978A0D9B1D18969C938E93E6
:1033A000179727C5F301B086A78223C5D4018C9156
:1033B000863409F01EC5F30183859485B4010E940B
:1033C0003834D3011896BC92AE92179712C5F40107
:1033D0008081843509F00DC5D3011896BC92AE9258
:1033E000179742C0F3018385948561E00E94F4330E
:1033F0000E940A40FEC40E94A42B8C01D3011796A0
:103400008D919C911897F80196838583548243820D
:10341000C2010E94A63ED30117968D919C911897E8
:10342000F8019087878317968D919C9118978A0D44
:103430009B1D928781871282118282E680830E947F
:103440006134D8011C969C938E931B97F101808167
:103450009181B8010E943834D80119968D919C91C0
:103460001A97F301908787831B968D919C911C97E7
:10347000B401D2C30E94A42B8C01D30117968D9165
:103480009C911897F8019683858354824382C201E8
:103490000E94A63ED30117968D919C911897F80132
:1034A0009087878317968D919C9118978A0D9B1D05
:1034B000928781871282118282E680830E94613422
:1034C000D8011C969C938E931B97F101808191816A
:1034D000B8010E943834D80119968D919C911A97A1
:1034E000F3019087878385C480E090E00E949C2749
:1034F00082C380E090E00E949C278AC380E090E035
:103500000E949C277C018824992424C0D3011B9607
:103510000D911C911C97C8010E942D3361E070E051
:103520006A197B09680D791D680F791FC8010E940F
:103530000B33FC018081823531F4CF01B101A70149
:103540000E94964204C0C701BF010E940B27089445
:10355000811C911CC401AA2797FDA095BA2F8A153A
:103560009B05AC05BD0594F200E010E005C0C90163
:103570000E94DD330F5F1F4FC801AA2797FDA0955A
:10358000BA2FF301238534858A159B05AC05BD054B
:1035900074F3C9011DC2D2015596ED91FC91569765
:1035A0000580F681E02DC501880F991F0190F081FB
:1035B000E02DE80FF91FE080F180F70180818B3664
:1035C00011F4E580F680C101B7010E94B5128C01AB
:1035D00080910309909104090817190709F054C054
:1035E000CC24DD2449C0D10112968D919C91139772
:1035F000B6010E9483235C01FC0180818336C9F5FA
:10360000D70113966D917C911497858996890E94B4
:10361000E324BC01BFEF8F3F9B0731F0F5018589A3
:1036200096890E9455238C01809103099091040989
:103630000817190749F5D70113966D917C911497D6
:10364000F5018789908D0E94E324BC01FFEF8F3F35
:103650009F0741F0D50157968D919C9158970E94F4
:1036600055238C01809103099091040908171907CB
:1036700059F40894C11CD11CF10182819381FAD7BD
:10368000C816D9060CF4AFCFD3011B968D919C912F
:103690001C97B801C1C2D2015596ED91FC91569785
:1036A0000580F681E02DC501880F991F0190F081FA
:1036B000E02DE80FF91F00811181F80180818B3620
:1036C00011F405811681EE24FF243AC0D10112962F
:1036D0008D919C911397B7010E9483236C01FC018B
:1036E0008081833651F5D80113966D917C911497A2
:1036F000858996890E94E324BC01BFEF8F3F9B0719
:1037000021F0F6018589968914C0D80113966D9130
:103710007C911497F6018789908D0E94E324BC0167
:10372000FFEF8F3F9F0749F0D60157968D919C91EF
:103730005897A4010E9456295CC30894E11CF11C0F
:10374000F1018281938196D7E816F9060CF4BECF79
:1037500050C3D2015596ED91FC9156970580F681A4
:10376000E02DC501880F991F0190F081E02DE80F31
:10377000F91F00811181F80180818B3611F40581D8
:103780001681EE24FF243BC0D10112968D919C91AD
:103790001397B701B8D76C01FC018081833661F5BE
:1037A000D80113966D917C911497858996890E9412
:1037B000E324BC01BFEF8F3F9B0731F0F601858901
:1037C000968940E050E0B6CFD80113966D917C9178
:1037D0001497F6018789908D0E94E324BC01FFEFC6
:1037E0008F3F9F0749F0D60157968D919C9158972E
:1037F00040E050E00E9456290894E11CF11CF101C0
:103800008281938137D7E816F9060CF4BDCFF1C257
:10381000D20155968D919C91569779C0F20183897A
:103820009489B50142D7E7C1F2018789908D6FC0B5
:10383000F201838D948D1ED7AA2797FDA095BA2FEC
:10384000F201E38CF48CA816B906CA06DB06BCF4B8
:10385000C701B5012AD7FC018081D2015B96ED90AA
:10386000FC905C978B3649F0C701B5011ED7B401B7
:103870000E943229AC01C7019EC0C701EFC0F2010E
:10388000018D128D6501C701F5D6B501681B790B55
:10389000C8010BD7FC018081D2015B96ED90FC90B2
:1038A0005C978B36B9F0C701E5D67C01F201018D3A
:1038B000128D838D948DDED6B501681B790BC801FE
:1038C000F4D6B4010E943229AC01CE18DF08C80139
:1038D000B601FAC0D20159960D911C915A97C701B1
:1038E000C9D6C81AD90AC801B60123CFF201838DFF
:1038F000948DC0D6AA2797FDA095BA2FF201E38C2C
:10390000F48CA816B906CA06DB061CF4C701B5017B
:103910000BC0D20159960D911C915A97C701AAD696
:10392000B501681B790BC801C0D6FC0180818B36BC
:1039300021F4838194819C01F901D3011B968D911F
:103940009C911C97BF0168C1F201838D948D92D622
:10395000AA2797FDA095BA2FF201E38CF48CA81644
:10396000B906CA06DB061CF4C701B5010BC0D201BB
:1039700059960D911C915A97C7017CD6B501681BC9
:10398000790BC80192D644C1D20155968D919C9174
:103990005697B5018AD6FC018081F2010589168906
:1039A0008B3609F45AC0C801B5017FD6B4010E9414
:1039B0003229AC01C801B50187C0C701B4014B81F0
:1039C0005C810E94B529D3011B968D919C911C9717
:1039D000B70122C1662777276A197B09F30183851E
:1039E00094850E940B33FC0180818B3621F4838106
:1039F00094819C01F901CF01B4014B815C816AC0C3
:103A0000662777276A197B09D3011B968D919C91B4
:103A10001C9707C0662777276A197B09F3018385FE
:103A200094850E940B33FC0180818B3621F48381C5
:103A300094819C01F901CF01B4010E940B27D9C1E7
:103A4000D20157968D919C915897B5012ED6FC01C5
:103A50008081F2010789108DA3CFC801B50169CE1D
:103A6000D20155968D919C91569703C0F20187899A
:103A7000908DB50111C0D4018C91893619F060E0A8
:103A800070E003C0F40163817481AB81BC818C91CF
:103A9000883209F0AEC1CD0186D6ABC1F401908168
:103AA000993619F060E070E005C0D40113966D916D
:103AB0007C911497EB81FC818081883209F099C157
:103AC000993621F4CF01A701B0D693C18B819C8197
:103AD000B401A7010E94B5298CC1D4019C919936EB
:103AE00019F060E070E003C0F40163817481AB8180
:103AF000BC818C91883209F07CC1993611F4CD01DA
:103B000041CF8B819C81B4010E94412681C08501F7
:103B100015C0D4018C91853789F4D4011396ED91A9
:103B2000FC911497E00FF11F808199D40E9489279E
:103B3000BC01F301838594850E9438340150104004
:103B400017FFE7CF56C1D4018C91893609F051C1D6
:103B500013966D917D918D919C91169743C0D401E0
:103B60008C91893609F045C113966D917D918D91A7
:103B70009C91169790958095709561957F4F8F4F8A
:103B80009F4F30C0D4018C91893661F413968D918A
:103B90009D910D90BC91A02D0097A105B10581F0DC
:103BA00086E40FC0843511F486E403C0863419F42A
:103BB00084E52DD520C08E3419F0803309F019C169
:103BC00084E525D525C0D4018C91893609F011C131
:103BD00013966D917D918D919C911697609570953E
:103BE000809590950E945C2713C0C4016B817C81F5
:103BF000412F0E94C739BC01D3011B968D919C9126
:103C00001C970AC0C4016B817C814A2D0E945238E6
:103C1000BC01F301838594850E943834EAC0D30146
:103C20001B968D919C911C970E94DD334C011E3890
:103C300019F000E010E006C0F301838594850E942E
:103C4000DD338C014FEF442E512C4A205B20BB27E3
:103C5000D7FCBA95AD2D9C2D8B2D9C0130703A83ED
:103C600029834114510431F40115110519F4CC24B0
:103C7000DD2407C080E090E00E949C276C010E9438
:103C8000A63E89819A81892B31F48114910419F41B
:103C9000EE24FF2427C080E090E00E949C277C0156
:103CA0005C010E94A63E81149104E1F01C821B82FB
:103CB0000DC0C4016B817C81F8D4BC01C5010E9498
:103CC0000B27AB81BC811196BC83AB83D4011596C5
:103CD000ED91FC91169782819381EB81FC81E8172D
:103CE000F9073CF30115110519F0AA24BB240DC0F6
:103CF000AA24BB242CC0C801B501D7D4BC01C6017D
:103D00000E940B270894A11CB11CD8011596ED91B7
:103D1000FC91169782819381A816B90664F3E8CFC7
:103D2000F301838594850E94DD338C01D3011B96BA
:103D30008D919C911C970E94DD33B8010E94392B14
:103D4000BC01C7010E940B270894A11CB11CE9818A
:103D5000FA81AE16BF0624F3AA24BB2419C0D301EE
:103D60001B960D911C911C97C8010E942D33B50123
:103D7000641975096F5F7F4F680F791FC8010E9432
:103D80000B33BC01C6010E940B270894A11CB11C77
:103D9000A414B50424F300E010E005C0C9010E949A
:103DA000DD330F5F1F4FF30123853485041515059F
:103DB000ACF3C9010E94DD33FC0180818B3621F414
:103DC000838194819C01F901C101BF01A601970182
:103DD00049D2BC01009739F0D3011B968D919C917B
:103DE0001C970E943834C6010E94BA3EC7010E9447
:103DF000BA3E0E940A40D1011A96ED91FC911B97A0
:103E0000309749F1C101199526C0F3018385948546
:103E10000E944E34D1016D917C91882319F0CB0121
:103E20000C941516CB010E94DD33F3018385948534
:103E30000E94DD33182F092F0E94A63E0E940A40DF
:103E4000212F302FC9018C01C8012496E2E10C9486
:103E50006C430E940A4000E010E0F6CFA0E0B0E022
:103E6000E4E3FFE10C9456437C016B015A014901E4
:103E70000091030910910409C0E0D0E01CC0C70103
:103E8000BE010E94BA12FC018081833661F4C70131
:103E9000BE010E94BA12DC0155968D919C915697F5
:103EA000B6014BD58C018091030990910409081744
:103EB000190771F42196D7011296ED91FC91139791
:103EC0000580F681E02D82819381C817D907BCF265
:103ED000F8018081863619F020E030E00CC0C7017F
:103EE000B801A50194010E943613C7010E948A14EB
:103EF0009C010097D1F3C901CDB7DEB7ECE00C947B
:103F00007243A0E0B0E0E7E8FFE10C9454437C0189
:103F1000742E652E69014801842F952FD9D6EC01A6
:103F2000009709F471C08091030990910409C817A2
:103F3000D90709F469C0C114D10429F0C816D906FB
:103F400011F0560106C080E090E0F6D75C010E94B7
:103F5000A63EC50160E070E0472D562D32D7D7014F
:103F6000ED91FC910190F081E02D02811381888117
:103F7000863681F5C701BE01A50194010E94361362
:103F800020E030E00BC0C7010E948A14D701ED91F8
:103F9000FC910190F081E02D22813381892B19F46D
:103FA0000217130781F7F701808191810E9437334F
:103FB000DC011B968D919C911C970E94DD338C0136
:103FC000EB81FC818789908D60E070E040E050E0FB
:103FD0002CD40CC0833419F000E010E007C0C701F6
:103FE000BE01A50194010E94AD128C01C114D1043F
:103FF00039F08091030990910409C816D90631F46B
:10400000C5010E94BA3E02C000E010E0C801CDB771
:10401000DEB7EEE00C9470434F925F927F928F92E6
:104020009F92AF92BF92CF92DF92EF92FF920F9347
:104030001F93CF93DF935C016B014A012901DB01E0
:104040001396ED91FC9114970189128901151105C0
:10405000C9F10E94A42BEC0182E68883F6018381DA
:1040600094819C838B830E94A63E18861F821E82A9
:104070001D82D80115968D919C9116979A878987F4
:104080001A8219820E9461349C878B87F501808196
:104090009181BE010E9438348B859C85B6010E94B7
:1040A00038348114910409F443C0D6011396ED917C
:1040B000FC9114978789908D60E070E0A4010E94C4
:1040C000562936C0CB010E946628EC01F50180819B
:1040D00091810E944E34882359F4D5018D919C9191
:1040E0000E943733FC0183859485BE010E943834D9
:1040F00086E992E0D2D10DD7F82EE92EC5016F2DB9
:104100007E2DAE01940100E010E0FBDE8C010E94E8
:10411000A63EC8010E94BA3E8F2D9E2D0E94A63E4B
:104120008F2D9E2D0E94BA3E0E940A40C0E0D0E032
:10413000D60115967C9015971696DC90072D1D2DAF
:10414000EE24FF2426C0C701880F991FD8011596B9
:10415000ED91FC9116970190F081E02DE80FF91F89
:1041600020813181D9011396ED91FC9114978585B9
:104170009685A785B08992609E7F85879687A78759
:10418000B08BC501B901A401920146DF0894E11C7E
:10419000F11C872D9D2D6ED2E816F906A4F2CE01F2
:1041A000DF91CF911F910F91FF90EF90DF90CF9013
:1041B000BF90AF909F908F907F905F904F900895A9
:1041C000A0E0B0E0E6EEF0E20C945A438C01EB0183
:1041D0007A01690161157105E9F188818336D9F0A9
:1041E000843638F48334F1F08D3441F0863291F521
:1041F0000CC0863639F1853769F51BC0C801BE0190
:10420000A70196010E94411423C0C801BE01A70165
:10421000960102DF1FC0C801BE01A70196010E94DE
:10422000BF1218C0C801BE01A70196010E94AD12BD
:104230000FC06B817C81C8010E94B512009711F0FC
:10424000EC01CBCFC801BE01A70196010E94361335
:104250009C0102C020E030E0C901CDB7DEB7E8E044
:104260000C947643A0E0B0E0E8E3F1E20C945A430A
:104270007C01FB01EA016901309761F1808185379A
:1042800069F4C701BF010E94B512FC0180910309C6
:1042900090910409E817F90779F71CC0833439F4C1
:1042A000C701BF01AE0196018BDF9C0115C0CF0194
:1042B0000E94A82B8C010E94A63EC701B801AE0146
:1042C00096017EDFF82EE92EC8010E94BA3E2F2DFE
:1042D0003E2D02C020E030E0C901CDB7DEB7E8E0F6
:1042E0000C947643A0E0B0E0E8E7F1E20C94584388
:1042F0007C01EB016A0159018881833621F08EE44B
:1043000086D19C0122C08FE992E0C7D002D6182F37
:10431000092F0E94A63E88EA92E0BFD0FAD5AC01F0
:104320008D899E89612F702F0E94B529812F902F32
:104330000E94BA3EC701BE01A601950141DFC70137
:104340000E948A149C010097D1F3C901CDB7DEB752
:10435000EAE00C947443A0E0B0E0E1EBF1E20C94ED
:1043600059437C018B01B42ECB010E94C53B8823AD
:1043700061F1C8010E943A3CEC0188EA92E08DD0DC
:10438000C8D5D82EC92EC7016D2D7C2DAE010E9437
:104390008514CE0160E00E94D92CC701BE0140E027
:1043A00050E020E030E09EDF009711F00E94BA3E1E
:1043B000BB2071F0CE010E94BA3EC7016D2D7C2D4D
:1043C0000E948014C8010E94D23BC0E0D0E003C02C
:1043D000C8010E94D23BCE01CDB7DEB7E9E00C9414
:1043E00075430F931F93CF93DF938C0182E190E08D
:1043F0000E943F09EC011D861C861F861E860E94B6
:1044000061349983888380E090E096D59B838A838A
:104410000E94A63E198A188A1D821C821986188657
:104420001B861A861F821E82CE010E942340D3D68D
:104430000E945E3ECE010E941A360115110549F018
:1044400088EA92E02AD065D5BC01CE01A8010E947D
:104450008514CE01DF91CF911F910F910895FF92A6
:104460000F931F93182F82E090E00E943F09082FBE
:10447000F92E60E070E042E050E00E94230B802FB4
:104480009F2D612F70E041E050E00E94230B802FB0
:104490009F2D1F910F91FF900895EF92FF920F9320
:1044A0001F938C010E94330B01960E943F09F82E46
:1044B000E92EC8010E94330BAC014F5F5F4F8F2D77
:1044C0009E2D60E070E00E94230BC8010E94330B18
:1044D000AC018F2D9E2DB8010E941A0B8F2D9E2DA1
:1044E0001F910F91FF90EF900895A0E0B0E0EBE7EF
:1044F000F2E20C945A437C016B01009741F4611580
:10450000710519F4C0E0D0E03CC0CB0103C06115D7
:10451000710519F4C2DFEC0134C00E94330B8C0129
:10452000C6010E94330B080F191FC80101960E9493
:104530003F09EC01C7010E94330B8C01C6010E94A8
:10454000330B080F191F0F5F1F4FCE0160E070E0A3
:10455000A8010E94230BC7010E94330BAC01CE01BE
:10456000B7010E941A0BC7010E94330B8C01C601D0
:104570000E94330BAC01CE01800F911FB6010E9447
:104580001A0BCE01CDB7DEB7E8E00C9476436F92FC
:104590007F928F929F92AF92BF92CF92DF92EF92D3
:1045A000FF920F931F933B014C0159016A019C013B
:1045B000EE24FF2487010BC0C9019301A4010E94CE
:1045C00016439C010894E11CF11C011D111DD6012C
:1045D000C5010197A109B109E816F9060A071B07E9
:1045E0005CF3C9011F910F91FF90EF90DF90CF9086
:1045F000BF90AF909F908F907F906F900895562FAF
:1046000040E0282F30E0242B352BC9010895863453
:10461000E9F0873438F4803379F08F3309F18E3242
:1046200021F519C08E3419F08435F9F40AC080914F
:104630000509909106090895809103099091040954
:1046400008958091070990910809089580910909BA
:1046500090910A09089580910B0990910C09089591
:1046600080910D0990910E09089580910D09909106
:104670000E090895FC01009759F08081883241F4B9
:104680000580F681E02D309719F02281338102C038
:1046900020E030E0C9010895FC01009729F08081F5
:1046A000883211F41482138208950F931F93CF93CD
:1046B000DF93FC01EB01009769F08081883251F4AF
:1046C00005811681D80112968D919C9113976817D8
:1046D00079072CF080910309909104090FC077FFAE
:1046E00004C0CF01C7DFC80FD91FCC0FDD1FD80111
:1046F000ED91FC91EC0FFD1F80819181DF91CF91B5
:104700001F910F910895DC01009781F08C91883200
:1047100069F41596ED91FC911697309739F08281E6
:1047200093816817790714F477FF05C08091030916
:10473000909104090895CD01B8DFFC018381948133
:104740000895DC01009719F08C91883229F080914E
:10475000030990910409089513962D913C911497A3
:104760001596ED91FC911697828193812817390750
:104770008CF4C901019614969C938E93139701971C
:10478000880F991F0190F081E02DE80FF91F8081BB
:104790009181089514961C921E921397809103099B
:1047A000909104090895EF92FF920F931F93CF9376
:1047B000DF938C01EB01009799F1DC018C91883239
:1047C00079F51596ED90FC901697F701828193810B
:1047D000681779072CF577FF04C0C8014BDFC80FB5
:1047E000D91FCC0FDD1FD701ED91FC91EC0FFD1F00
:1047F000808191810097A1F00E94BA3E80910309C7
:1048000090910409D8011596ED91FC9116970190AD
:10481000F081E02DEC0FFD1F918380830E94A63E66
:10482000CDB7DEB7E6E00C947843EF92FF920F939A
:104830001F93CF93DF93FC01EB018A010097B9F13D
:1048400080818832A1F5E580F680D70112968D919E
:104850009C9113976817790754F577FF04C0CF012F
:1048600009DFC80FD91FCC0FDD1FD701ED91FC91D7
:10487000EC0FFD1FC081D1810115110559F0809108
:104880000309909104090817190721F01183008387
:10489000C80106C080910309909104099183808327
:1048A0000E94A63E209719F0CE010E94BA3ECDB7D5
:1048B000DEB7E6E00C947843EF92FF920F931F93DC
:1048C000CF93DF937C01009799F1DC018C918832C2
:1048D00079F515968D919C911697892B49F100E0F9
:1048E00010E01CC0C801880F991F0190F081E02DD5
:1048F000E80FF91FC081D181209771F088818B3634
:1049000059F48D819E81918380838D819E810E9447
:10491000A63ECE010E94BA3E0F5F1F4FD7011596EB
:10492000ED91FC9116978281938108171907D4F2B3
:10493000CDB7DEB7E6E00C947843A0E0B0E0E3EA60
:10494000F4E20C945A43FC016B01009791F18081D1
:10495000883279F5E580F680E114F10451F1C0E088
:10496000D0E021C0CE01880F991FD701ED91FC91B5
:10497000E80FF91F0190F081E02D309799F08081C8
:104980008B3681F4A581B681038114818C918537A2
:1049900049F413968D919C911497B6010E942A0BAD
:1049A000892B59F02196F70182819381C817D90785
:1049B000CCF20091030910910409C801CDB7DEB70C
:1049C000E8E00C947643EF92FF920F931F93CF93FE
:1049D000DF93FC017B01009799F18081883281F59A
:1049E000058116810115110559F1C0E0D0E022C002
:1049F000CE01880F991FD801ED91FC91E80FF91FA6
:104A00000190F081E02D3097A1F0DF0180818B369D
:104A100021F4858196819C01D9018C91853749F4D7
:104A200013968D919C911497B7010E942A0B892BA4
:104A300049F02196F80182819381C817D907C4F201
:104A4000CFEFDFEFCE01CDB7DEB7E6E00C947843D1
:104A5000FF920F931F93CF93DF938C01EB0100978D
:104A600029F460E0CD2B09F064C064C061157105C4
:104A700009F45FC0FC0190818881981709F059C042
:104A80009736D9F1983628F4903361F09E3441F48A
:104A900009C09B3649F0953709F442C09936E9F0D0
:104AA0006FEF48C060E046C06D817E81F80185816E
:104AB0009681CEDF882319F480E090E038C06B81C6
:104AC0007C81F80183819481C3DF90E0882309F41D
:104AD00091E081E09827892F2AC060E0F8012381C6
:104AE0003481458156818B819C81AD81BE8128179F
:104AF00039074A075B07E9F41DC0FF24F801638109
:104B00007481858196812B813C814D815E810E94DB
:104B10008D05882311F4FF24F39461E06F250AC00A
:104B20006B817C81F801838194810E942A0B682F1C
:104B300001C061E0862FCDB7DEB7E5E00C94794384
:104B4000EF92FF920F931F93CF93DF938C017B0122
:104B5000009799F1DC018C91883279F515968D9149
:104B60009C911697892B49F16115710531F1C0E0CF
:104B7000D0E019C0CE01880F991F0190F081E02D7F
:104B8000E80FF91F0190F081E02D309729F0808126
:104B90008B3611F0CF0102C083819481B70158DFB9
:104BA000882369F02196D8011596ED91FC9116970E
:104BB00082819381C817D907ECF2CFEFDFEFCE01E6
:104BC000CDB7DEB7E6E00C947843EF92FF920F93F7
:104BD0001F93CF93DF938C017B01009799F1DC0148
:104BE0008C91883279F515968D919C911697892B29
:104BF00049F16115710531F1C0E0D0E019C0CE0175
:104C0000880F991F0190F081E02DE80FF91F0190A6
:104C1000F081E02D309759F080818B3611F0CF0173
:104C200002C085819681B70113DF882369F0219640
:104C3000D8011596ED91FC91169782819381C81742
:104C4000D907ECF2CFEFDFEFCE01CDB7DEB7E6E06C
:104C50000C947843CF93DF93EC01009779F088812F
:104C6000883261F46115710549F0CE01AEDFBC01F7
:104C70008FEF6F3F780711F0CE0195DDDF91CF9177
:104C80000895CF93DF93EC01A0DFBC018FEF6F3F5E
:104C9000780749F0CE0109DDFC0180818B3619F4DB
:104CA0008381948104C08091030990910409DF916C
:104CB000CF910895FC01209103099091040980810E
:104CC0008A3221F487819085DCDF282F822F089596
:104CD000A0E0B0E0EEE6F6E20C9458438C016B01E4
:104CE000C0910309D0910409D8018C91863209F052
:104CF0004BC01396ED91FC91149785899689B60166
:104D0000C0DFEC010097A9F080910309909104099C
:104D1000C817D90741F02881263609F44CC023343E
:104D200009F449C0EC01209721F0C817D90709F010
:104D300042C0F801A580B6808501EE24FF241EC084
:104D4000D8011596ED91FC911697C701880F991F10
:104D50000190F081E02DE80FF91F80819181B6016B
:104D6000B7DFEC01009739F08091030990910409B5
:104D7000C817D90701F50894E11CF11CC5017ADCBC
:104D8000E816F906ECF217C08A32A9F4F801858119
:104D90009681B60176DFEC01009739F08091030926
:104DA00090910409C817D90731F4D80113960D91D1
:104DB0001C91149795CFCE01CDB7DEB7EAE00C94E5
:104DC0007443EF92FF920F931F93CF93DF93EC0105
:104DD0007B018A010097D1F088818832B9F44115AE
:104DE0005105A1F08D819E81892B39F480E090E0FE
:104DF00060E00E94F0359E838D838D819E81B70196
:104E0000A8010E94A335C8010E94A63ECDB7DEB717
:104E1000E6E00C9478430F931F93CF93DF93EC015C
:104E20008B010097B1F08881883299F48D819E8141
:104E3000892B39F480E090E060E00E94F0359E8399
:104E40008D838D819E81B8010E946E35C8010E94BC
:104E5000A63EDF91CF911F910F91089589E090E0D8
:104E60000C943F09FBDFFC0182E5808310861782EA
:104E70001482138212821182CF01089587E090E09C
:104E80000C943F09EF92FF920F931F937B018C01CB
:104E9000F5DFFC0187E6808312821182E382F482CF
:104EA00005831683CF011F910F91FF90EF90089516
:104EB00087E090E00C943F09EF92FF920F931F93CD
:104EC0007B018C01F5DFFC0189E68083128211826F
:104ED000E382F48205831683CF011F910F91FF9027
:104EE000EF90089585E090E00C943F090F931F9395
:104EF0008C01F8DFFC0184E7808312821182148325
:104F00000383CF011F910F91089585E090E00C94E9
:104F10003F090F931F938C01F8DFFC0185E7808325
:104F20001282118214830383CF011F910F91089580
:104F300087E090E00C943F09EF92FF920F931F934C
:104F40008C01F6DF7C0188E2F701808312821182F6
:104F500014821382C80161E00E94F035F701968344
:104F60008583C7011F910F91FF90EF90089587E00F
:104F700090E00C943F09EF92FF920F931F938C01E6
:104F80007B01F5DFFC0183E78083128211821483A9
:104F90000383F682E582CF011F910F91FF90EF907E
:104FA000089587E090E00C943F09CF92DF92EF9252
:104FB000FF920F931F937C016B01F3DF8C018DE453
:104FC000F8018083F482E382C7010E94A63EF801C3
:104FD00012821182D682C582C6010E94A63EC801F5
:104FE0001F910F91FF90EF90DF90CF9008950F9356
:104FF0001F93CF93DF93EC018B01209719F00115DC
:10500000110529F420910309309104093EC08881DB
:10501000833619F48D899E8906C0863239F4EB8176
:10502000FC8185899689B8012CDE1FC08A3259F52A
:10503000CE01B8013FDE9C01009739F08091030951
:10504000909104092817390791F4CE01B80140DE88
:105050009C01009799F08091030990910409281709
:10506000390729F0C901BE01A0DF9C010EC0809163
:105070000309909104092817390739F48B819C8121
:105080009C01E901BACF20E030E0C901DF91CF9166
:105090001F910F91089585E090E00C943F090F93C4
:1050A0001F938C01F8DFFC0183E480831483038366
:1050B00012821182CF011F910F91089585E090E037
:1050C0000C943F0989E090E00C943F09EF92FF9225
:1050D0000F931F937C01F6DF8C018AE2F801808335
:1050E000F482E38212821182C7010E94A63E80E010
:1050F00090E022DFF801858396830E94A63E80E03F
:1051000090E01ADFF801878390870E94A63EC801CD
:105110001F910F91FF90EF90089587E090E00C941D
:105120003F09CF92DF92EF92FF920F931F937C0182
:105130006B01F3DF8C0186E2F8018083F482E38265
:1051400012821182D682C582C7010E94A63EC60184
:105150000E94A63EF70185859685A785B089916056
:1051600085879687A787B08BC8011F910F91FF9005
:10517000EF90DF90CF9008958DE190E00C943F097F
:105180000F931F938C01F8DFFC0183E68083148367
:105190000383168215821086178212861186148662
:1051A0001386158616861786108A128A118A148A23
:1051B000138A108E178A128E118E148E138E168AF1
:1051C000158A12821182CF011F910F91089583E0F9
:1051D00090E00C943F090F931F93F9DFFC0190932B
:1051E00004098093030980E3808301E010E01283C7
:1051F0000183EDDFFC0190930609809305098EE49D
:10520000808312830183E3DFFC019093080980937C
:10521000070984E5808312830183D9DFFC01909321
:105220000A098093090986E4808312830183CFDF12
:10523000FC0190930C0980930B098EE2808312830A
:105240000183C5DFFC0190930E0980930D098FE364
:105250008083128301831F910F91089587E090E06E
:105260000C943F09EF92FF920F931F93CF93DF931C
:105270008C017B01F3DFEC018BE688831A821982B3
:105280001E830D83C8010E94A63EE114F10431F093
:10529000FC82EB82C7010E94A63E02C01C821B82D8
:1052A000CE01CDB7DEB7E6E00C947843EF92FF92E3
:1052B0000F931F93CF93DF937C018B01EA018FEF54
:1052C0006F3F780701F1C701F0D9FC0180818B366F
:1052D00099F403811481209731F0D483C383CE01E4
:1052E0000E94A63E02C0148213820115110559F0D6
:1052F000C8010E94BA3E07C0CF01BE01B3DFAC01B6
:10530000C701B80192DACDB7DEB7E6E00C94784376
:10531000EF92FF920F931F93CF93DF93EC018B01DA
:105320007A010097E9F088818832D1F4611571051E
:10533000B9F08D819E81892B39F480E090E060E0A6
:105340000E94F0359E838D83C801B7018BDF8C01ED
:105350008D819E81B8010E946E35C8010E94A63ED3
:10536000CDB7DEB7E6E00C947843A0E0B0E0EBEB1D
:10537000F9E20C945A438C017B016A01009709F40D
:105380003BC0FC0180818832B9F561157105A1F13E
:10539000C8011BDCEC01FFEF8F3F9F0749F1C801FB
:1053A000BE0183D9FC0180818B36D1F4C381D481C5
:1053B000C114D10469F08091030990910409C816C1
:1053C000D90631F0D482C382C6010E94A63E02C033
:1053D00014821382209781F0CE010E94BA3E0CC045
:1053E000CF01B6013FDFAC01C801BE011EDA04C027
:1053F000C801B701A6018CDFCDB7DEB7E8E00C9499
:105400007643FC0180818A3219F487819085ADCF83
:105410000895A4E0B0E0EFE0FAE20C9450434C01B0
:105420003B012A013A83298349DE1C0186E6D1012A
:105430008C9312961C921E92119714969C928E92A7
:105440001397C4010E94A63EF4010789108DC8017C
:1054500011D9181619060CF071C06114710421F4E9
:105460004114510409F46AC0C80126DA61147104B8
:1054700009F444C0D4011596AD90BC9016971C82D7
:105480001B822FC0F401E788F08C0894A108B108B2
:1054900065012B813C81C21AD30A0894A11CB11C5E
:1054A000C701B60102D98C01DC018C918B3661F009
:1054B000C3016B817C81F9D8BC01C801D3DEAC018A
:1054C000C701B601B2D908C0C3016B817C81EDD898
:1054D000AC01C701B601EADEEB81FC813196FC83A9
:1054E000EB83D3011596ED91FC9116978281938100
:1054F000EB81FC81E817F9070CF4C4CF4114510487
:10550000E9F000E010E010C0C201B801CED8FC0103
:105510006581768143815481D40157968D919C9108
:10552000589723DF0F5F1F4FD2011596ED91FC9125
:105530001697828193810817190734F3E981FA815C
:10554000EF2BB9F000E010E00EC089819A81B8011C
:10555000ACD8AC01D40159968D919C915A97B80161
:1055600064D90F5F1F4F89819A8184D80817190762
:1055700064F3C1012496E2E10C946C43EF92FF9234
:105580000F931F938C016ADE7C018BE6F701808309
:105590001282118216830583C8010E94A63EF7017C
:1055A00014821382C7011F910F91FF90EF9008950D
:1055B000A0E0B0E0EEEDFAE20C945A437C010097D3
:1055C00009F452C0DC018C91883209F04DC0159667
:1055D000ED91FC911697309709F446C08281938132
:1055E000892B09F441C0CC24DD2434C08601000F8E
:1055F000111FC081D181C00FD11FE881F98130977F
:1056000031F180818B3619F1CF01B8DF998388831E
:10561000D7011596ED91FC9116970190F081E02D40
:10562000E00FF11F808191810E94A63ED70115965F
:10563000ED91FC9116970190F081E02DE00FF11FA4
:105640000190F081E02D858196810E94BA3E0894F8
:10565000C11CD11CD7011596ED91FC911697828142
:105660009381C816D90614F2CDB7DEB7E8E00C94E2
:105670007643CF92DF92EF92FF920F931F937C01BC
:105680006B01ECDD8C018BE6F801808312821182C4
:10569000F682E582C7010E94A63EF801D482C38249
:1056A000C6010E94A63EC8011F910F91FF90EF9086
:1056B000DF90CF900895EF92FF920F931F93CF93B7
:1056C000DF938B017A01EC0189859A8501969A878F
:1056D00089878D899E89892B39F480E090E02CDCC4
:1056E0008D8B9E8B0E94A63EC801B701C2DFBC0114
:1056F0008D899E8990DBCDB7DEB7E6E00C947843C8
:10570000EF92FF920F931F938C01CB017A010E94BD
:105710004D22FFDBBC01C801A701CDDF1F910F9116
:10572000FF90EF900895EF92FF920F931F938C01DB
:105730007B01CA01B4DCAC01C801B701E1DF1F91F4
:105740000F91FF90EF9008958DE090E00C943F0949
:10575000EF92FF920F931F93CF93DF93EC0100978B
:1057600009F41FC1F88083E6F81609F4BEC08F154E
:1057700040F1E6E4FE1609F441C0EF15B8F0F0E39D
:10578000FF16E1F1FF1568F088E2F81609F48CC005
:10579000EAE2FE1609F483C0F6E2FF1609F001C141
:1057A00077C083E4F81609F0FCC06EC0EEE4FE1684
:1057B00029F1F4E5FF1611F18DE4F81609F0F1C0B6
:1057C0005CC0EBE6FE1609F449C0EF1558F0F7E6A9
:1057D000FF16F1F089E6F816A9F0E6E6FE1609F0E4
:1057E000E0C0D4C0F4E7FF1609F443C085E7F8161B
:1057F000A9F0E3E7FE1609F0D4C016C08F2D0E9471
:10580000072350C06B817C818D819E8155DB4AC00E
:105810006B817C818D819E8135DB44C08B819C8135
:105820000E944D2276DB3EC08D819E810E943F0901
:10583000182F092F4D815E8160E070E00E94230BDC
:105840006B817C814D815E81812F902F0E941A0B8C
:105850006D817E81812F902F8EDB24C08D819E8172
:1058600077DF8C018B819C8173DFBC01C80101DF74
:1058700019C08B819C813ADB15C08B819C8168DFCC
:105880006D817E8192DB0EC08B819C8108DC0AC019
:105890008B819C815DDF6D817E8143DC03C08B81C8
:1058A0009C8114DC8C017FC0CE010E943A2344DB32
:1058B000F82EE92E00E010E00DC0CE01B8010E94E4
:1058C000552346DFAC018F2D9E2DB8010E94152473
:1058D0000F5F1F4FCE010E943A23081719076CF380
:1058E0008F2D9E2D9C0189015EC046DC8C01FC0140
:1058F000F082128211828B819C810E944D22F801DC
:10590000948383838D819E81968385838F819885FF
:105910009087878389859A85928781878B859C85E7
:10592000948783878D859E85AF85B889858796877F
:10593000A787B08B89899A89928B818B0E94A63E1A
:105940008B899C89F801948B838B0E94A63E8F895A
:10595000988DFEDEF801908F878B0E94A63E898D80
:105960009A8DF801928F818F0E94A63E8B8D9C8D1F
:10597000F801948F838F0E94A63E8D899E89E8DE70
:10598000F801968B858B0E94A63E0DC08B819C8171
:10599000DFDE60E070E040E050E020E030E039DD44
:1059A00081CF00E010E0C801CDB7DEB7E6E00C948F
:1059B0007843A0E0B0E0EFEDFCE20C945A438C0198
:1059C000E62E0115110509F421C6FF240FC00F9220
:1059D0000F9281EB92E0ADB7BEB712969C938E9377
:1059E00011970E943C0BF3940F900F90FE1478F3E4
:1059F00000D000D0EDB7FEB7319683EB92E0ADB7A3
:105A0000BEB712969C938E931197D80111968D91E3
:105A10009C91129793838283158304830E943C0B8D
:105A2000F80120818DB79EB706960FB6F8949EBFF9
:105A30000FBE8DBF243509F44FC1253540F5233401
:105A400009F40AC2243498F42A3209F4E7C42B3248
:105A500038F4263209F404C5283209F0C2C54DC213
:105A60002E3209F434C1203309F0BBC53FC12D34B7
:105A700009F443C52E3420F4263409F0B2C531C1EF
:105A80002E3409F438C1223509F0ABC511C12936CD
:105A900009F44CC12A3680F4233609F4EDC22436C9
:105AA00020F4223609F09DC517C0263609F478C1C6
:105AB000273609F096C524C1233709F4E2C12437FB
:105AC00020F42B3609F08DC551C1243709F437C5B0
:105AD000253709F086C5C5C10F920F928CEB92E075
