:1000000013C3000033C3000031C300002FC300003E
:100010002DC300002BC3000029C3000027C300002C
:1000200025C3000023C3000021C300001FC300003C
:100030001DC300001BC3000019C3000017C300004C
:1000400015C3000013C3000011C300000FC300005C
:100050000DC300000BC3000009C300000C94001185
:1000600005C3000003C3000001C30000FFC200007D
:10007000FDC20000FBC20000F9C20000F7C2000090
:10008000F5C20000F3C20000F1C20000EFC20000A0
:10009000EDC20000EBC20000E9C20000E7C20000B0
:1000A000E5C20000E3C20000E1C20000DFC20000C0
:1000B000DDC20000DBC20000D9C20000D7C20000D0
:1000C000D5C20000D3C20000D1C20000CFC20000E0
:1000D000CDC20000CBC20000C9C20000C7C20000F0
:1000E000C5C2000045124A124F125912CD126312B6
:1000F0006B1273127D12871291129B12A512CD12F0
:10010000AF12B912C312151318130B130F13511397
:100110001C13201326132A132E13341338133C13E5
:100120005113421346134C13AA1EB61EC91E0020BB
:100130000020EA1E002000200020FC1EFC1E0020E3
:10014000FC1EFC1EFC1E741EFC1EFC1EFC1EFC1E67
:10015000002000200020002000200020002000209F
:10016000002000200020002000200020002000208F
:10017000002000200020002000200020002000207F
:10018000E41DFC1EFC1EFC1E0020FC1E551E421E13
:10019000FC1EFC1EFC1EFC1EFC1EFC1E0020002083
:1001A0000020F218002000200020FC1EFC1EFC1E77
:1001B000FC1EFC1E0020F81A00200020C819002098
:1001C0000020002000200020CB1D371E8E1EF718B7
:1001D00000203A190020521CB01C0020151D0F1DD4
:1001E000841B841B7A1B7F1B2119091F5119951928
:1001F000CC1ADC1AED1AD81AC01AC61AD11B002064
:1002000000200020401B0020002000201B1D271E76
:100210003D1E002000200020B718AF18D61900207E
:10022000461AAB1D7D1D1F1D00200020B418161F8F
:10023000161F011B0020071E111EF11DD3354B3563
:100240005736AB35E435CC355736BC35C535BC35BE
:10025000C5355736573657365736573657365736C9
:100260005736573657365736573657365736573626
:100270005736573657365736573657365736573616
:1002800057365736E435CC354B355736AB355736C0
:10029000573687359935783569355235D3355736E0
:1002A0005736573657365736573657368735993576
:1002B0007835693552354436083657362F364F363D
:1002C0003F36573635363536353635365736573666
:1002D00057365736573657365736573657365736B6
:1002E00057365736573657365736573657365736A6
:1002F00057365736573657365736573657364F369E
:100300003F36083657362F36573657361D3626367F
:10031000183613360E364436573657365736573654
:100320005736573657361D362636183613360E369C
:100330006C0C0D0A9CD5534F6300000000000000B8
:1003400000000000000200000040000000732200D6
:1003500000006400006401006C00005A00006402A8
:10036000008400005A01006403008400005A020067
:1003700064010053280400000069000000004E637F
:10038000000000000000000000000000030000006A
:100390004300000073110000007400006401007449
:1003A0000100830200016400005328020000004E97
:1003B000690D0000002802000000750700000070B1
:1003C000696E4D6F646575060000004F55545055B9
:1003D0005428000000002800000000280000000051
:1003E00075000000007505000000736574757003EA
:1003F0000000007302000000000163000000000024
:100400000000000000000003000000430000007333
:1004100032000000740000640100740100830200D7
:100420000174020064020083010001740000640191
:10043000007403008302000174020064020083015F
:1004400000016400005328030000004E690D000005
:100450000069E80300002804000000750C0000009B
:100460006469676974616C5772697465750400002A
:100470000048494748750500000064656C6179755E
:10048000030000004C4F5728000000002800000027
:100490000028000000007500000000750400000046
:1004A0006C6F6F7007000000730800000000010D02
:1004B000010A010D0128030000007507000000611A
:1004C000726475696E6F75050000007365747570F0
:1004D00075040000006C6F6F702800000000280099
:1004E00000000028000000007500000000750800F2
:1004F00000003C6D6F64756C653E01000000730484
:100500000000000C02090404000021002400270060
:100510002A002D0030003300010100000401070112
:100520000A0100002200250028002B002E003100C7
:10053000340002010000050108010B010000200049
:100540002300260029002C002F00320000010000AB
:100550000301060109010505050507050808080846
:10056000020202020A0A080804040404010101014B
:100570000101010103030303030303030407070746
:100580000C0C0C0C0C0C0C0C0202020206060606EB
:10059000060606060B0B0B0B0B0B0B0B01021020B8
:1005A00020080810204010204080020102010804A9
:1005B000020101020408102040808040201008043D
:1005C0000201800402018040201008040201080496
:1005D00002010102040810204080010204081020DA
:1005E00040800000090A02080B0C0D0706030401F5
:1005F00000000000000000000000000000000000FB
:1006000000000000000000000000000000001110C9
:100610000F000000000000000000000000000000CB
:10062000000000000000000011241FBECFEFD1E247
:10063000DEBFCDBF00E00CBF14E0A0E0B2E0EEEF03
:10064000FDE700E00BBF02C007900D92A430B10798
:10065000D9F71BBE14E0A4E0B4E001C01D92A93399
:10066000B107E1F70E94DD0E0C94FD3EC9CCA0E07D
:10067000B0E0EDE3F3E00C94203EDC012B01FA0145
:100680009C91923008F439C1EB018881823008F4E2
:1006900033C1943069F4843009F02FC111969C91D4
:1006A00011978981981709F428C1A4EFB2E025C1F8
:1006B000843009F421C18230A9F4923009F01DC1BF
:1006C0009A01AD0188E0EA010990AE01E9010992C1
:1006D0009E018150C1F7E201898111969C91892385
:1006E000818308C1923009F407C112962D903C9085
:1006F0001397EB018A819B811496AD90BD90CD90AC
:10070000DC901797EC80FD800E811F819101281BE2
:10071000390BB90137FF04C066277727621B730BBB
:10072000603271050CF061C0121613066CF53701CA
:100730004801062E04C096948794779467940A948F
:10074000D2F721E030E040E050E004C0220F331F38
:10075000441F551F6A95D2F7215030404040504009
:100760002E213F21402351232115310541055105FB
:1007700021F021E030E040E050E079018A01E628F4
:10078000F728082919293CC0232BD1F1260E371E42
:1007900035014601062E04C0969487947794679499
:1007A0000A94D2F721E030E040E050E004C0220F8C
:1007B000331F441F551F6A95D2F7215030404040E7
:1007C00050402A213B214C215D2121153105410555
:1007D000510521F021E030E040E050E059016A018C
:1007E000A628B728C828D9280BC0821593052CF055
:1007F0001C01AA24BB24650103C0EE24FF24870149
:1008000011969C91D20111968C91981709F445C0CC
:10081000992339F0A80197012A193B094C095D0970
:1008200006C0A60195012E193F09400B510B57FD3B
:1008300008C0118233822282248335834683578302
:100840001DC081E081833382228288279927DC01C1
:10085000821B930BA40BB50B84839583A683B7836C
:100860000DC0220F331F441F551F24833583468339
:100870005783828193810197938382832481358179
:1008800046815781DA01C9010197A109B1098F5F3A
:100890009F4FAF4FBF4328F30BC091833382228217
:1008A000EA0CFB1C0C1D1D1DE482F58206831783D8
:1008B00083E08083248135814681578157FF1AC0A8
:1008C000C901AA2797FDA095BA2F81709070A070DA
:1008D000B0705695479537952795822B932BA42B6F
:1008E000B52B84839583A683B783828193810196F8
:1008F00093838283DF0101C0D201CD01CDB7DEB782
:10090000E2E10C943C3EA0E2B0E0E9E8F4E00C94B3
:100910002C3E69837A838B839C832D833E834F8314
:100920005887E9E0EE2EF12CEC0EFD1ECE0101966B
:10093000B701C0D48E010F5E1F4FCE010596B801DE
:10094000B9D48A8991E089278A8BC701B801AE01A1
:10095000475E5F4F8CDED9D3A096E6E00C94483E0C
:10096000A0E2B0E0E6EBF4E00C942C3E69837A83DD
:100970008B839C832D833E834F835887F9E0EF2E32
:10098000F12CEC0EFD1ECE010196B70193D48E0121
:100990000F5E1F4FCE010596B8018CD4C701B80178
:1009A000AE01475E5F4F63DEB0D3A096E6E00C94E5
:1009B000483EA0E2B0E0EFEDF4E00C94203E698305
:1009C0007A838B839C832D833E834F835887CE010C
:1009D0000196BE01675F7F4F6DD4CE010596BE01C3
:1009E0006F5E7F4F67D49985923088F08989823015
:1009F000C8F0943019F4823051F404C0843029F4E2
:100A0000923081F484EF92E0C6C0923049F420E045
:100A10009A858A89981321E02A87CE010996BBC05E
:100A2000823049F420E09A858A89981321E02A8B44
:100A3000CE014196B0C02D843E844F8458886D8885
:100A40007E888F88988CEE24FF248701AA24BB24FB
:100A5000650140E050E060E070E0E0E0F0E0C101FE
:100A600081709070892BE9F0E60CF71C081D191DA8
:100A70009A01AB012A0D3B1D4C1D5D1D80E090E0ED
:100A8000A0E0B0E0E614F7040805190520F481E0C1
:100A900090E0A0E0B0E0BA01A901480F591F6A1F19
:100AA0007B1FAA0CBB1CCC1CDD1C97FE08C081E080
:100AB00090E0A0E0B0E0A82AB92ACA2ADB2A319641
:100AC000E032F10549F0660C771C881C991C56949D
:100AD000479437942794C3CFFA85EA892B893C89B8
:100AE0008B859C85280F391F2E5F3F4F17C0CA0189
:100AF00081709070892B61F016950795F794E794B3
:100B000080E090E0A0E0B0E8E82AF92A0A2B1B2B4D
:100B100076956795579547952F5F3F4F77FDE7CFC0
:100B20000CC0440F551F661F771F17FD4160EE0C68
:100B3000FF1C001F111F21503040403090E059072A
:100B400090E0690790E4790760F32B8F3C8FDB011D
:100B5000CA018F779070A070B07080349105A105A4
:100B6000B10561F447FD0AC0E114F1040105110566
:100B700029F0405C5F4F6F4F7F4F40781A8EFE1711
:100B800011F081E08A8F4D8F5E8F6F8F78A383E0A5
:100B9000898FCE014996B9D2A096E2E10C943C3EF1
:100BA000A8E1B0E0E6EDF5E00C94283E69837A8395
:100BB0008B839C832D833E834F835887B9E0EB2E34
:100BC000F12CEC0EFD1ECE010196B70173D38E0100
:100BD0000F5E1F4FCE010596B8016CD329852230D8
:100BE00008F47EC03989323010F4B8017CC08A859F
:100BF0009A8989278A87243011F0223031F423170B
:100C000009F06EC064EF72E06EC0343039F41D86B6
:100C10001E861F86188A1C861B8604C0323021F46B
:100C200084E08987B7015FC02B853C858B899C89CF
:100C3000281B390B3C872B87ED84FE840F85188990
:100C4000AD88BE88CF88D88CEA14FB040C051D053E
:100C500040F4EE0CFF1C001F111F215030403C8758
:100C60002B8720E030E040E050E080E090E0A0E022
:100C7000B0E460E070E0EA14FB040C051D0540F0F0
:100C8000282B392B4A2B5B2BEA18FB080C091D0972
:100C9000B695A79597958795EE0CFF1C001F111F21
:100CA0006F5F7F4F6F31710531F7DA01C9018F77BF
:100CB0009070A070B07080349105A105B10561F409
:100CC00027FD0AC0E114F1040105110529F0205C9B
:100CD0003F4F4F4F5F4F20782D873E874F87588B70
:100CE000BE01675F7F4FCB0110D26896EAE00C949B
:100CF000443EA8E1B0E0EFE7F6E00C942C3E6983B7
:100D00007A838B839C832D833E834F83588789E02E
:100D1000E82EF12CEC0EFD1ECE010196B701CAD2D1
:100D20008E010F5E1F4FCE010596B801C3D2898593
:100D3000823038F08989823020F0C701B80132D37F
:100D400001C081E06896E6E00C94483EA8E1B0E07E
:100D5000ECEAF6E00C942C3E69837A838B839C83C7
:100D60002D833E834F83588789E0E82EF12CEC0ECB
:100D7000FD1ECE010196B7019DD28E010F5E1F4F61
:100D8000CE010596B80196D28985823038F08989DE
:100D9000823020F0C701B80105D301C081E0689618
:100DA000E6E00C94483EA8E1B0E0E9EDF6E00C94F2
:100DB0002C3E69837A838B839C832D833E834F8370
:100DC000588789E0E82EF12CEC0EFD1ECE0101962D
:100DD000B70170D28E010F5E1F4FCE010596B8018C
:100DE00069D28985823038F08989823020F0C70144
:100DF000B801D8D201C08FEF6896E6E00C94483E67
:100E0000A8E1B0E0E6E0F7E00C942C3E69837A8339
:100E10008B839C832D833E834F83588789E0E82E04
:100E2000F12CEC0EFD1ECE010196B70143D28E01CE
:100E30000F5E1F4FCE010596B8013CD289858230E6
:100E400038F08989823020F0C701B801ABD201C0E7
:100E50008FEF6896E6E00C94483EA8E1B0E0E3E34B
:100E6000F7E00C942C3E69837A838B839C832D83DB
:100E70003E834F83588789E0E82EF12CEC0EFD1E4F
:100E8000CE010196B70116D28E010F5E1F4FCE0123
:100E90000596B8010FD28985823038F08989823071
:100EA00020F0C701B8017ED201C081E06896E6E07B
:100EB0000C94483EA8E1B0E0E0E6F7E00C942C3E4C
:100EC00069837A838B839C832D833E834F835887EA
:100ED00089E0E82EF12CEC0EFD1ECE010196B70143
:100EE000E9D18E010F5E1F4FCE010596B801E2D108
:100EF0008985823038F08989823020F0C701B801B5
:100F000051D201C081E06896E6E00C94483EA8E02A
:100F1000B0E0EDE8F7E00C94293E9B01AC0183E0E2
:100F20008983DA01C9018827B7FD83959927AA2704
:100F3000BB27B82E211531054105510519F482E072
:100F4000898339C08823A9F0203080E0380780E009
:100F5000480780E8580729F460E070E080E09FECE3
:100F60002EC0EE24FF248701E21AF30A040B150BAE
:100F700002C079018A018EE1C82ED12CDC82CB829D
:100F8000ED82FE820F831887C801B7016FD00197E9
:100F90001816190684F4082E04C0EE0CFF1C001F5E
:100FA000111F0A94D2F7ED82FE820F831887C81AA8
:100FB000D90ADC82CB82BA82CE010196A6D02896CD
:100FC000E9E00C94453EACE0B0E0E9EEF7E00C94CB
:100FD000303E69837A838B839C83CE010196BE0168
:100FE0006B5F7F4F67D18D81823061F1823050F12C
:100FF000843021F48E81882351F12EC02F813885D1
:1010000037FD20C06E812F3131051CF06623F9F0C9
:1010100023C08EE190E0821B930B29853A854B8596
:101020005C8504C056954795379527958A95D2F7E4
:101030006623B1F050954095309521953F4F4F4F25
:101040005F4F0EC020E030E040E050E009C02FEFDD
:101050003FEF4FEF5FE704C020E030E040E050E8B2
:10106000B901CA012C96E2E00C944C3EEF92FF923B
:101070000F931F937B018C0180E0E81680E0F80657
:1010800081E0080780E0180788F48FEFE816F10484
:101090000105110531F028F088E090E0A0E0B0E013
:1010A00017C080E090E0A0E0B0E012C080E0E81659
:1010B00080E0F80680E0080781E0180728F088E162
:1010C00090E0A0E0B0E004C080E190E0A0E0B0E0FB
:1010D00020E230E040E050E0281B390B4A0B5B0B6C
:1010E00004C016950795F794E7948A95D2F7F7010F
:1010F000E450FD4F8081281B310941095109C90184
:101100001F910F91FF90EF900895DF92EF92FF9261
:101110000F931F93FC01E480F58006811781D18035
:101120008081823048F480E090E0A0E1B0E0E82ADD
:10113000F92A0A2B1B2BA5C0843009F49FC08230EA
:1011400021F4EE24FF24870105C0E114F104010518
:10115000110519F4E0E0F0E096C0628173819FEF21
:10116000623879070CF05BC022E83FEF261B370B93
:101170002A3131052CF020E030E040E050E02AC078
:10118000B801A701022E04C076956795579547953B
:101190000A94D2F781E090E0A0E0B0E004C0880FAC
:1011A000991FAA1FBB1F2A95D2F70197A109B10960
:1011B0008E219F21A023B1230097A105B10521F025
:1011C00081E090E0A0E0B0E09A01AB01282B392B40
:1011D0004A2B5B2BDA01C9018F779070A070B07039
:1011E00080349105A105B10539F427FF09C0205CC1
:1011F0003F4F4F4F5F4F04C0215C3F4F4F4F5F4FFA
:10120000E0E0F0E02030A0E03A07A0E04A07A0E4E8
:101210005A0710F0E1E0F0E079018A0127C0603858
:10122000710564F5FB01E158FF4FD801C7018F77C5
:101230009070A070B07080349105A105B10539F4AB
:10124000E7FE0DC080E490E0A0E0B0E004C08FE3D2
:1012500090E0A0E0B0E0E80EF91E0A1F1B1F17FF88
:1012600005C016950795F794E794319687E0169593
:101270000795F794E7948A95D1F705C0EE24FF24EB
:101280008701EFEFF0E06E2F679566276795902F47
:101290009F77D794DD24D7948E2F8695492F462BA0
:1012A000582F5D29B701CA011F910F91FF90EF9050
:1012B000DF900895FC01DB01408151812281622F82
:1012C0006F7770E0221F2227221F9381892F880FBA
:1012D000822B282F30E0991F9927991F11969C93F4
:1012E000119721153105A9F54115510561057105C4
:1012F00011F482E037C082E89FEF13969C938E939F
:1013000012979A01AB0167E0220F331F441F551F4C
:101310006A95D1F783E08C930DC0220F331F441FD1
:10132000551F12968D919C911397019713969C933C
:101330008E931297203080E0380780E0480780E4E1
:10134000580758F314962D933D934D935C9317973C
:1013500008952F3F310579F4411551056105710557
:1013600019F484E08C93089564FF03C081E08C93AA
:1013700012C01C9210C02F57304013963C932E93EE
:10138000129783E08C9387E0440F551F661F771FE9
:101390008A95D1F7706414964D935D936D937C9309
:1013A000179708951F93DC01FB019C91923008F47C
:1013B00047C08081823008F443C0943051F41196C4
:1013C0001C91843099F58181682F70E0611B71094F
:1013D0003FC0843021F0923031F48230B9F1818104
:1013E000882389F12DC011961C9111978230F1F05C
:1013F00081811817D9F412962D913C91139782810F
:1014000093818217930794F028173907BCF014963C
:101410008D919D910D90BC91A02D248135814681A7
:101420005781281739074A075B0718F4112341F041
:101430000AC082179307A407B50740F4112319F0D7
:1014400061E070E005C06FEF7FEF02C060E070E028
:10145000CB011F910895CF93DF93BC01823091059A
:1014600010F462E070E0A0913104B0913204ED011B
:10147000E0E0F0E040E050E021C0888199818617EB
:10148000970769F48A819B81309719F0938382834F
:1014900004C09093320480933104FE0134C0681775
:1014A000790738F44115510519F08417950708F4A8
:1014B000AC01FE018A819B819C01E9012097E9F63C
:1014C00041155105A9F1CA01861B970B049708F431
:1014D000BA01E0E0F0E02AC08D919C911197841749
:1014E0009507F9F46417750781F412968D919C9114
:1014F0001397309719F09383828304C0909332043A
:1015000080933104FD0132964CC0CA01861B970BB3
:10151000FD01E80FF91F6193719302978D939C93DE
:1015200040C0FD01828193819C01D9011097A1F6F1
:1015300080912F0490913004892B41F48091FE0317
:101540009091FF039093300480932F044091000406
:10155000509101044115510541F44DB75EB780919A
:10156000FC039091FD03481B590B20912F043091EF
:101570003004CA01821B930B8617970780F0AB01DA
:101580004E5F5F4F8417950750F0420F531F5093E3
:10159000300440932F04F9016193719302C0E0E09D
:1015A000F0E0CF01DF91CF910895CF93DF930097C3
:1015B00009F450C0EC0122971B821A82A0913104D9
:1015C000B0913204109709F140E050E0AC17BD072C
:1015D00008F1BB83AA83FE0121913191E20FF31F31
:1015E000AE17BF0779F48D919C911197280F391F81
:1015F0002E5F3F4F3983288312968D919C911397CC
:101600009B838A834115510571F4D0933204C093B2
:10161000310420C012968D919C911397AD010097D3
:1016200011F0DC01D3CFFA01D383C2832191319130
:10163000E20FF31FCE17DF0769F488819981280F25
:10164000391F2E5F3F4FFA01318320838A819B81AE
:1016500093838283DF91CF910895A0E0B0E0E3E32C
:10166000FBE00C94223E6C01009721F4CB01F3DEE9
:101670006C01BDC08EEF882E8FEF982E8C0C9D1CB8
:101680008601060F171F0815190508F4AEC0F401EE
:10169000A081B181A617B707B0F0A530B10508F455
:1016A000A6C0CD0104978617970708F4A0C012972B
:1016B000A61BB70BF801A193B193D4016D937C9352
:1016C000CF0173DF94C07B01EA1AFB0AEEEFFFEF54
:1016D000EE0EFF1E36016A0E7B1EC0913104D091C2
:1016E000320444245524AA24BB244AC0C615D70575
:1016F000E1F5488159814E155F05B8F1CA0104979B
:101700008E159F05B0F41296A40FB51FF401B18396
:10171000A0832A813B814114510431F0D2011396F8
:101720003C932E93129763C030933204209331047C
:101730005EC08A819B81F80193838283425050402E
:101740004E195F09518340834114510431F0D20195
:1017500013961C930E93129704C0109332040093B7
:101760003104F4017183608342C088819981A81695
:10177000B90608F45C012E018A819B819C01E90174
:10178000209709F0B3CF80912F04909130048615F3
:101790009705E9F4A616B706D0F42091000430911D
:1017A00001042115310541F42DB73EB78091FC03AA
:1017B0009091FD03281B390B02171307B0F4109307
:1017C000300400932F04D4016D937C9310C0CB019F
:1017D00042DEEC01009749F0F40140815181B601ED
:1017E00015D0C601E2DE6E0102C0CC24DD24C601A4
:1017F000CDB7DEB7E0E10C943E3EFB01DC0102C058
:1018000005900D9241505040D8F70895FB01DC013E
:1018100002C001900D9241505040D8F70895DC016C
:1018200001C06D9341505040E0F70895FB01DC0189
:101830008D91019080190110D9F3990B0895FC0145
:1018400001900020E9F7809590958E0F9F1F0895D5
:10185000A0E0B0E0EEE2FCE00C94303EFE013696F3
:10186000619171918091350490913604AF0104D05B
:101870002096E2E00C944C3EABE0B0E0E2E4FCE009
:101880000C94203E3C012B015A01FC011782168268
:10189000838181FD03C06FEF7FEFB9C19AE0892E8C
:1018A0001E010894211C311CF3012381F20123FD48
:1018B000859123FF81912F01882309F4A5C18532E9
:1018C00039F423FD859123FF81912F01853221F485
:1018D00090E0B301B7D1E8CF982FFF24EE249924EC
:1018E000FFE1FF15D0F09B3269F09C3228F4903272
:1018F00059F0933291F40EC09D3249F0903369F45F
:1019000041E024C052E0F52A84E0F82A28C098E09B
:10191000F92A25C0E0E1FE2A22C0F7FC29C0892F60
:1019200080538A3070F4F6FE05C0989C902C1124E8
:10193000980E15C0E89CE02C1124E80EF0E2FF2A76
:101940000EC09E3229F4F6FC5FC140E4F42A07C0C1
:101950009C3619F450E8F52A02C0983649F4F20191
:1019600023FD959123FF91912F01992309F0B8CF81
:10197000892F8554833018F08052833038F444E046
:1019800050E0A40EB51E5FE359830FC0933631F0CB
:10199000933779F0933509F052C01FC0F50180816B
:1019A000898342E050E0A40EB51E610101E010E021
:1019B00011C0F501C080D180F6FC03C06FEF7FEF4E
:1019C00002C0692D70E042E050E0A40EB51EC601D1
:1019D0002ED18C015FE7F52213C0F501C080D180C4
:1019E000F6FC03C06FEF7FEF02C0692D70E042E0AC
:1019F00050E0A40EB51EC6010FD18C0150E8F52AA7
:101A0000F3FE06C018C080E290E0B3011BD1EA9457
:101A10008E2D90E008171907B0F30DC0F601F7FC02
:101A20008591F7FE81916F0190E0B3010BD1E11038
:101A3000EA94015010400115110581F7E2C0943677
:101A400011F0993661F5F7FE08C0F501208131816A
:101A50004281538184E090E00AC0F5018081918148
:101A60009C01442737FD4095542F82E090E0A80E5A
:101A7000B91E9FE6F92257FF09C050954095309551
:101A800021953F4F4F4F5F4FE0E8FE2ACA01B90151
:101A9000A1012AE030E002D1D82ED2183FC09537FC
:101AA00029F41F2D1F7E2AE030E01DC01F2D197F55
:101AB0009F3661F0903720F4983509F0A5C00FC02B
:101AC000903739F0983709F09FC004C028E030E023
:101AD0000AC0106114FD146020E130E004C014FD60
:101AE000166020E132E017FF08C0F50160817181C6
:101AF0008281938144E050E008C0F50180819181AA
:101B0000BC0180E090E042E050E0A40EB51EA101CF
:101B1000C5D0D82ED2188FE7F82EF122F6FE0BC0D2
:101B20005EEFF522D91438F4F4FE07C0F2FC05C0CC
:101B30008FEEF82202C01D2D01C0192DF4FE0DC03C
:101B4000FE01ED0DF11D8081803319F499EEF9222B
:101B500008C01F5FF2FE05C003C08F2D867809F014
:101B60001F5F0F2DF3FC13C0F0FE0EC01E1510F00A
:101B70009D2C0AC09D2C9E0C911A1E2D05C080E242
:101B800090E0B3015FD01F5F1E15C8F304C01E159F
:101B900010F4E11A01C0EE2404FF0EC080E390E0CF
:101BA000B30150D002FF1BC001FD03C088E790E0E5
:101BB0000EC088E590E00BC0802F867881F001FF91
:101BC00002C08BE201C080E2F7FC8DE290E0B3013D
:101BD00039D005C080E390E0B30134D09A94D91491
:101BE000C8F3DA94F101ED0DF11D808190E0B301AD
:101BF00029D0DD20B1F705C080E290E0B30122D00A
:101C0000EA94EE20C9F750CEF30166817781CB01CB
:101C10002B96E2E10C943C3EFC0105906150704033
:101C20000110D8F7809590958E0F9F1F0895FC01A5
:101C30006150704001900110D8F7809590958E0FFB
:101C40009F1F08950F931F93CF93DF938C01EB0198
:101C50008B8181FF1BC082FF0DC02E813F818C8153
:101C60009D812817390764F4E881F9810193F9838C
:101C7000E88306C0E885F985802F1995892B31F412
:101C80008E819F8101969F838E8302C00FEF1FEF8D
:101C9000C801DF91CF911F910F910895FA01AA27F2
:101CA000283051F1203181F1E8946F936E7F6E5F9F
:101CB0007F4F8F4F9F4FAF4FB1E03ED0B4E03CD04D
:101CC000670F781F891F9A1FA11D680F791F8A1F30
:101CD000911DA11D6A0F711D811D911DA11D20D097
:101CE00009F468943F912AE0269F11243019305D51
:101CF0003193DEF6CF010895462F4770405D419342
:101D0000B3E00FD0C9F7F6CF462F4F70405D4A338E
:101D100018F0495D31FD4052419302D0A9F7EACF56
:101D2000B4E0A6959795879577956795BA95C9F785
:101D300000976105710508959B01AC010A2E069478
:101D40005795479537952795BA95C9F7620F731F31
:101D5000841F951FA01D0895982F8091C00085FFB6
:101D6000FCCF9093C600089588E18093C100109243
:101D7000C50088E08093C4000895A2E0B0E0E3ECE1
:101D8000FEE00C94303E20912F0430913004CE01BF
:101D900001962115310519F48953944002C0821B24
:101DA000930B9A83898389819A812296E2E00C942D
:101DB0004C3ED2DF80E090E00895B2D2D5DF89EDCD
:101DC0009EE090930D0480930C0410920F041092E7
:101DD0000E0482E080930704109211041092100404
:101DE00084E094E09093360480933504C6DF00D0FD
:101DF0000F9220E032E0EDB7FEB732832183948367
:101E0000838326DD0F900F900F900F9080E090E07D
:101E10000E9400238C015CD0B0DF00D00F9229E03B
:101E200032E0EDB7FEB7328321839483838310DDE4
:101E30000F900F900F900F9080E393E067ED71E0AB
:101E40000E94FD38BC01C80140E00E94B22295DF2B
:101E500000D00F9222E132E0EDB7FEB7328321834A
:101E600094838383F5DC0F900F900F900F90C8013F
:101E70006BE172E040E050E020E030E00E9435206D
:101E80007CDF00D00F9221E232E0EDB7FEB7328363
:101E9000218394838383DCDCC0E0D0E00F900F903B
:101EA0000F900F90C8016AE272E040E050E020E03D
:101EB00030E00E94352000D00F928FE292E0EDB723
:101EC000FEB792838183D483C383C2DC2196E6CF9D
:101ED000AF92BF92CF92DF92EF92FF920F931F9338
:101EE0005C018AE3C82E82E0D82EC6010E945C23E2
:101EF0000E94CF29F82EE92E62E472E04DEC50E109
:101F00000E94A02C8F2D9E2D6AE472E047EB50E1D9
:101F10000E94A02C8F2D9E2D66E572E04BE750E1CC
:101F20000E94A02C8F2D9E2D63E672E045E650E1C5
:101F30000E94A02C8F2D9E2D6EE672E04FE350E1A3
:101F40000E94A02C8F2D9E2D6AE772E049E050E19F
:101F50000E94A02C80E892E00E945C230E949828B6
:101F60008C0160E070E080E090E00E946B28AC01A2
:101F70008F2D9E2DB8010E94682C86E892E00E9469
:101F80005C230E9498288C0161E070E080E090E082
:101F90000E946B28AC018F2D9E2DB8010E94682CE9
:101FA0008DE892E00E945C230E9498288C0160E0FA
:101FB00070E080E090E00E946B28AC018F2D9E2D98
:101FC000B8010E94682C81E992E00E945C230E9483
:101FD00098288C0161E070E080E090E00E946B281E
:101FE000AC018F2D9E2DB8010E94682CC6010E9465
:101FF0005C230E949828BC01C5014F2D5E2D8BD516
:102000001F910F91FF90EF90DF90CF90BF90AF9016
:102010000895CF93DF93CB0160E070E00E946424C9
:10202000EC0188818B3621F48B819C819C01E90134
:1020300088818936F1F400D000D086E992E0EDB7CE
:10204000FEB7928381838B819C81AD81BE81838326
:102050009483A583B683FCDB8DB79EB706960FB637
:10206000F8949EBF0FBE8DBF6B817C818D819E8158
:1020700035D18EE40E941624DF91CF9108950F93FD
:102080001F93CF93DF93162F072F862F972F60E094
:1020900070E00E946424EC01812F902F61E070E0D9
:1020A0000E946424FC018881893639F48081893654
:1020B00021F4638174818B81C9D18EE40E9416243E
:1020C000DF91CF911F910F910895CB0160E070E0F7
:1020D0000E946424FC018081893619F020E030E000
:1020E00003C083817FD19C01B901882777FD80954A
:1020F000982F0C946B280F931F93CF93DF93EB01D2
:10210000ED81FE818281938102974CF1CB0160E0E9
:1021100070E00E9464248C01CE0161E070E00E94B6
:102120006424FC01D8018C918B3639F413968C9180
:10213000139714969C919C01890180818B3621F420
:10214000838194819C01F901D8018C91893639F4FD
:102150008081893621F413968C916381A3D28EE419
:102160000E941624DF91CF911F910F910895CB010A
:1021700060E070E00E946424FC018081893619F0DF
:1021800020E030E003C08381BFD29C01B9018827E1
:1021900077FD8095982F0C946B280F931F93CF9306
:1021A000DF93162F072F862F972F60E070E00E9495
:1021B0006424EC01812F902F61E070E00E94642480
:1021C000FC0188818B3621F48B819C819C01E90183
:1021D00080818B3621F4838194819C01F90188816F
:1021E000893631F48081893619F48B816381E2D19B
:1021F0008EE40E941624DF91CF911F910F910895D4
:102200001F920F920FB60F9211242F933F938F932B
:102210009F93AF93BF938091160490911704A09160
:102220001804B091190430911A040196A11DB11D32
:10223000232F2D5F2D3720F02D570196A11DB11DA5
:1022400020931A048093160490931704A093180403
:10225000B09319048091120490911304A091140476
:10226000B09115040196A11DB11D809312049093A5
:102270001304A0931404B0931504BF91AF919F91E0
:102280008F913F912F910F900FBE0F901F90189537
:102290009FB7F894209112043091130440911404D4
:1022A0005091150486B5A89B06C08F3F21F02F5F83
:1022B0003F4F4F4F5F4F9FBF542F432F322F222747
:1022C000280F311D411D511D82E0220F331F441F75
:1022D000551F8A95D1F7B901CA010895EF92FF926F
:1022E0000F931F93CF93DF937B018C01D1DFEB0121
:1022F0000DC0CEDF6C1B7D0B685E7340D0F308947D
:10230000E108F10801091109C851DC4FE114F10499
:102310000105110571F7CDB7DEB7E6E00C94483E34
:10232000789484B5826084BD84B5816084BD85B5B0
:10233000826085BD85B5816085BDEEE6F0E0808177
:1023400081608083E1E8F0E0108280818260808398
:10235000808181608083E0E8F0E08081816080831B
:10236000E1EBF0E0808184608083E0EBF0E080814D
:1023700081608083E1E9F0E08081826080838081F8
:1023800081608083E0E9F0E0808181608083E1EA20
:10239000F0E0808182608083808181608083E0EAD8
:1023A000F0E0808181608083E1E2F1E08081826001
:1023B0008083808181608083E0E2F1E080818160C0
:1023C0008083EAE7F0E0808184608083808182609E
:1023D0008083808181608083808180688083109287
:1023E000C1000895382F863308F0365320917B00C2
:1023F000832F86958695869590E08170907043E056
:10240000880F991F4A95E1F7277F282B20937B009F
:102410003770809102048295880F880F807C832B0F
:1024200080937C0080917A00806480937A00809110
:102430007A0086FDFCCF2091780040917900942F9E
:1024400080E030E0282B392BC90108951F93CF93EA
:10245000DF93182FEB0161E0ADD0209709F4A0C005
:10246000CF3FD10509F49FC0E12FF0E0EE51FA4FC4
:10247000E4918E2F90E0FC013197E131F10508F0F5
:102480008CC0EE58FF4F0C94573E84B5806884BDD5
:10249000C7BD8CC084B5806284BDC8BD87C0809133
:1024A0008000806880938000D0938900C09388006A
:1024B0007DC080918000806280938000D0938B00EB
:1024C000C0938A0073C08091B00080688093B00090
:1024D000C093B3006BC08091B00080628093B00065
:1024E000C093B40063C08091900080688093900096
:1024F000D0939900C093980059C080919000806259
:1025000080939000D0939B00C0939A004FC080911D
:102510009000886080939000D0939D00C0939C00B1
:1025200045C08091A00080688093A000D093A9004E
:10253000C093A8003BC08091A00080628093A0005F
:10254000D093AB00C093AA0031C08091A0008860F6
:102550008093A000D093AD00C093AC0027C08091C1
:102560002001806880932001D0932901C093280125
:102570001DC080912001806280932001D0932B01A7
:10258000C0932A0113C080912001886080932001AC
:10259000D0932D01C0932C0109C0C038D1051CF483
:1025A000812F60E002C0812F61E07CD0DF91CF916C
:1025B0001F910895482F50E0CA0184569A4FFC019C
:1025C00024914A5A5A4FFA0184918823C1F0E82F86
:1025D000F0E0EE0FFF1FE85FFA4FA591B49166237C
:1025E00041F49FB7F8948C91209582238C939FBFE0
:1025F00008959FB7F8948C91822B8C939FBF089578
:1026000090E0FC013197E131F10508F04AC0ED5747
:10261000FF4F0C94573E809180008F7703C08091CC
:1026200080008F7D80938000089584B58F7702C0ED
:1026300084B58F7D84BD08958091B0008F7703C0ED
:102640008091B0008F7D8093B000089580919000BC
:102650008F7707C0809190008F7D03C0809190009C
:10266000877F8093900008958091A0008F7707C0A6
:102670008091A0008F7D03C08091A000877F809310
:10268000A0000895809120018F7703C080912001E0
:102690008F7D80932001089580912001877F809312
:1026A00020010895FF920F931F93F62E482F50E0BC
:1026B000CA018E519A4FFC012491CA0184569A4F47
:1026C000FC0114914A5A5A4FFA0104910023C1F0B7
:1026D000222311F0822F94DFE02FF0E0EE0FFF1F96
:1026E000EE5DFA4FA591B4919FB7F894FF2021F4C5
:1026F0008C911095812302C08C91812B8C939FBF6C
:102700001F910F91FF9008950F931F93482F50E052
:10271000CA018E519A4FFC012491CA0184569A4FE6
:10272000FC0104914A5A5A4FFA011491112319F4E9
:1027300020E030E014C0222311F0822F61DF812FCE
:1027400090E0880F991F845C9A4FFC01A591B49189
:102750008C9120E030E0802311F021E030E0C901CD
:102760001F910F910895FB010380F481E02DBA01C0
:10277000A90119950895FC01828193810C94502739
:10278000FC01828193810C949224A0E0B0E0EBECF8
:10279000F3E10C94263E7C015B014A01DB0151967A
:1027A0000D911C9152970E94B12C6C0182E6F601AA
:1027B0008083B482A382C5010E947639D60118961F
:1027C0001C921E92179716961C921E921597F8014E
:1027D000858196811A969C938E93199712961C92D6
:1027E0001E9211970E943C2FD6011C969C938E93AB
:1027F0001B97F70180819181B6010E94132F8114EC
:102800009104A1F1C0E0D0E027C0C401BE010E9444
:1028100064247C01D50157968D919C915897BE01F7
:102820000E946424FC018081F5010789108D8B369C
:1028300069F0C801BE010E946424B7010E94412AC8
:10284000AC01C801BE010E94242505C0C801BE011B
:10285000A7010E94652A2196D4011596ED91FC915D
:10286000169782819381C817D9077CF2C601CDB72C
:10287000DEB7ECE00C94423EA0E0B0E0E2E4F4E12C
:102880000C94203E1C016B013A0129010E94B12CDD
:102890007C0182E6D7018C9318961C921E921797A2
:1028A00016961C921E92159712961C921E921197C4
:1028B0000E943C2FF70194878387D6011396ED91F0
:1028C000FC91149701891289D7011496FC93EE9319
:1028D0001397CF010E947639F80185819681D7013F
:1028E0001A969C938E9319976114710409F488C009
:1028F000D3011596ED91FC91169782819381D601B3
:102900001396ED91FC911497858096808815990512
:102910000CF44C01C0E0D0E02EC0C301BE010E9407
:1029200064245C01D6011396ED91FC91149787897C
:10293000908DBE010E946424FC018081D601139613
:10294000ED91FC9114978B3679F00789108DC801B1
:10295000BE010E946424B5010E94412AAC01C80155
:10296000BE010E94242506C08789908DBE01A50165
:102970000E94652A2196C815D9057CF2D3011596C7
:10298000ED91FC91169722813381D6011396ED913A
:10299000FC91149785819681821793078CF55901D4
:1029A000A81AB90A80E090E00E94AB288C01C0E030
:1029B000D0E013C0BE01680D791DC3010E946424DC
:1029C000FC0180818B3621F4838194819C01F90183
:1029D000C801BF010E941A282196CA15DB0554F3CD
:1029E000D6011396ED91FC911497678170858581CE
:1029F0009681680F791F8789908DA8010E94652AAA
:102A00004114510409F1C0E0D0E014C0C201BE017C
:102A10000E946424FC01D60113968D919C91149719
:102A20006581768143815481FC018789908D0E9464
:102A3000C22A2196D2011596ED91FC9116978281BA
:102A40009381C817D90714F3D6011396ED91FC9121
:102A50001497858585FF0DC00E944128182F092FE6
:102A6000B101A7010E94903B212F302FC9019C0189
:102A700008C0F10180819181B7010E94132F20E0ED
:102A800030E0C901CDB7DEB7E2E10C943C3EA0E0F6
:102A9000B0E0EDE4F5E10C94283E6C01EB018A0115
:102AA00059014115510511F07A0107C080E090E00D
:102AB0000E94AB287C010E9476394D815E81C7015E
:102AC00060E070E00E94F027EB81FC818081863617
:102AD00031F4C601BF01A7019501CEDE0AC08334DF
:102AE00019F0C0E0D0E006C0C601BF01A701950102
:102AF0003ADEEC010115110519F4C7010E948A396B
:102B0000CE01CDB7DEB7EAE00C94443EFC018281F1
:102B100093810C943927FC01828193810C94972A2C
:102B2000A4E0B0E0E6E9F5E10C94203E1C01DC01F4
:102B30008D919C910E94122E3C01FC014380548097
:102B4000D2018C91833609F049C3D2015196ED919F
:102B5000FC91529743815481F3012781308581850F
:102B600092852817390714F00C940C20FA01E20F13
:102B7000F31F10812F5F3F4FD30118963C932E9384
:102B800017971F3509F400C2103680F5143409F484
:102B9000D6C11534B0F4133009F46EC1143038F4D2
:102BA000113009F43BC1123008F049C130C1153071
:102BB00009F49AC1153008F48BC11930D9F50C9479
:102BC00030201635D9F1173548F4103509F430C1E5
:102BD000133509F443C0163469F5D6C1173509F425
:102BE00023C1812F8A55843028F5CEC11F3780F448
:102BF0001C3708F0C9C1153730F4143608F0C4C1C9
:102C0000812F815614C0812F8857833098F4BCC11E
:102C1000103940F41C3808F0B7C1812F8258893030
:102C200048F4B2C1103909F49CC1812F8259823015
:102C300008F4AAC1AA24BB246501B8C12F5F3F4F85
:102C4000F30130872783838594850E94B82E8C01F9
:102C50000E9476390E94DA3A0C942B20D3011B96FD
:102C60008D919C911C970E94B82E182F092FD3018B
:102C70001396ED91FC9114972585368547855089EB
:102C800031FF16C0F101808191810E94B82ED301DD
:102C90001396ED91FC91149785859685A785B0894B
:102CA00091609D7F85879687A787B08B0C94302095
:102CB00030FF6BC0F101808191810E94B82ED30159
:102CC0001B968D919C911C970E94B82E8C010E949E
:102CD00075296C0181EA92E00E945C230E94982889
:102CE000F82EE92E0E947639D8011396ED91FC91C9
:102CF00014978789908D6F2D7E2D0E9450275C013F
:102D0000D8011396ED91FC9114978789908D6F2DC2
:102D10007E2D40E050E00E94C22A8F2D9E2D0E9401
:102D20008A39C5010E947639F101808191810E9422
:102D3000292F882359F4D1018D919C910E94122E44
:102D4000FC0183859485B6010E94132F8CEA92E0E2
:102D50000E945C230E949828F82EE92E0E94763962
:102D6000C1016F2D7E2DA601950100E010E00E94AB
:102D700088208C010E947639C8010E948A398F2DE3
:102D80009E2D0E948A39C5011BC0D1016D917C9195
:102D900027FF1AC0CB010E94B82EF20183819481D3
:102DA0000E945C230E949828182F092FC101612FCF
:102DB000702FACDE812F902F0E947639812F902FBB
:102DC0000E948A390C943020CB010E94B82ED10188
:102DD0008D919C910E94292F882369F4F1018081B3
:102DE00091810E94122EDC011B968D919C911C9763
:102DF000612F702FB2C0812F902F0E9476390E94D0
:102E0000DA3A812F902F9C0189010C942B20F30139
:102E100081859285908787830C943020D3011B96FF
:102E20008D919C911C9707C0F1018081918103C015
:102E3000D1018D919C910E94B82E0C943020F30109
:102E4000838594850E94122E8C01D3011B968D914F
:102E50009C911C970E942B2EBC01F30183859485C5
:102E60000E945D2ED3011B968D919C911C97B801F9
:102E70000E94712E0C943020F301838594850E946A
:102E8000122E8C01D3011B968D919C911C970E9450
:102E90002B2E7C01F301838594850E94442E6C01C6
:102EA000D3011B968D919C911C97B7010E945D2EBA
:102EB000F30183859485B6010E94712ED3011B9680
:102EC0008D919C911C97B8010E94852E0C94302006
:102ED000F301838594850E94122EBC01D3011B96B9
:102EE0008D919C911C9739C0F301838594850E9434
:102EF000122E8C01D3011B968D919C911C970E94E0
:102F00002B2E7C01F3018385948562E070E00E94A2
:102F1000E42ED3011B968D919C911C97B8010E94C1
:102F20005D2EC8010E947639F30183859485B7012F
:102F30000E94712EC7010E9476390C943020D30173
:102F40001B968D919C911C970E94B82EB1010E94F6
:102F5000AA3DBC01F301838594850E94132F0C9434
:102F60003020FA01E20FF31F818162810E940E245A
:102F7000D30117968D919C911897029618969C9361
:102F80008E9317970C943020FA01E20FF31F808183
:102F900061810E940E245C01CC24B7FCC094DC2C1F
:102FA000F301878190850296908787831F3509F406
:102FB00070C0103660F51C3309F491C01D33A8F4BD
:102FC0001E3168F4133108F064C01A3008F447C0A9
:102FD0001D3008F447C01F3009F041C043C016330C
:102FE00009F47DC01633D8F154C0103548F41B34B1
:102FF00008F04FC0143408F44CC0153481F532C0C9
:103000001A3581F11C3571F1143549F52BC014378F
:1030100090F4123738F51D3638F41B36D0F51136DA
:1030200009F11A36E1F41EC01D36E1F0812F8F56EA
:103030008230A8F417C01938A9F01A3838F41438B7
:1030400089F0163879F01D3751F40CC0133928F483
:10305000113940F41F3819F405C01339D1F0882410
:10306000992414C0D3011B968D919C911C970E94AA
:10307000B82E4C01FC0180818B3641F4D4011396AB
:103080008C91139714969C919C0149011C821B8280
:1030900023C0F301838594850E94B82E4C01D3018F
:1030A0001B968D919C911C970E94B82E9C838B83BC
:1030B000F40180818B3621F4838194819C01490144
:1030C000AB81BC818C918B3639F4EB81FC8183819F
:1030D00094819C013C832B83EE24FF2434C0D301D4
:1030E0001B968D919C911C970E94B82E4C01F30168
:1030F000838594850E94B82E9C838B83D3011B9675
:103100008D919C911C970E94B82E7C01F4018081C6
:103110008B3621F4838194819C014901AB81BC8170
:103120008C918B3641F413968C91139714969C9145
:103130009C013C832B83F70180818B3621F48381B2
:1031400094819C017901812F90E0FC013A97EA3843
:10315000F10508F055C7EC56FF4F0C94573E00E0C0
:1031600010E08824992475C6882499246CC6D3015C
:103170001B968D919C911C970E94B82E8C01FC018E
:1031800080818B3621F4838194819C018901F2E056
:10319000AF16B104C104D10494F0D3011B968D91F4
:1031A0009C911C970E94B82EB2E0AB16B104C104EA
:1031B000D10429F0F301838594850E94B82ED101B2
:1031C0001896ED91FC911997309719F0C101B8014B
:1031D00019958EE40E9416240E9476398EE40E948E
:1031E000162438C782EB92E30E945E2918C6D301E9
:1031F0001B968D919C911C970E94122EFC01808140
:10320000823519F0E0E0F0E009C0F3018385948590
:103210000E94122EB1010E94113DFC018081D30158
:103220001B962D913C911C978E3449F4C9010E9444
:10323000B82EF301878190858A0D9B1D58C2C90164
:1032400088C4D20155968D919C915697B5010E94E4
:103250006424FC0180818B3621F4838194819C015C
:10326000F901C401BF010E940629BC01009709F0C1
:10327000D7C5C6C6D20155968D919C915697B5017A
:103280000E946424FC0180818B3621F48381948127
:103290009C01F901C401BF014B815C810E940E2B8E
:1032A000AFC6F20185899689B5010E9464247C012C
:1032B000DC018C918B3639F413968C91139714960C
:1032C0009C919C017901C101B70155DABC01809143
:1032D0001B0490911C046817790709F0A1C5D1015E
:1032E0001696ED91FC911797309709F489C6D7018E
:1032F00013966D917C911497C10119958C010097DB
:1033000009F47EC6F30183859485B8010E94132FCA
:10331000C101B701A801FFDBC101B80140E050E0E5
:1033200020E030E032DAC80169C6D20155968D91AD
:103330009C915697B5010E946424FC0180818B36D4
:1033400021F4838194819C01F901D4018C9183360D
:10335000C1F46381748155968D919C9156970E941A
:10336000F225BC01BFEF8F3F9B0709F449C6F4016A
:10337000858996890E946424BC01009709F043C5A1
:103380003FC6863209F03CC6F3018385948576C139
:10339000D40113968D919C9114970E945C230E94F6
:1033A0009828BC01C101A401B6DB2AC685011070B2
:1033B000BB27D7FCBA95AD2D9C2D8B2DAFEFAA2E38
:1033C000B12CA822B9220115110519F4CC24DD2451
:1033D0001EC0C8010E94AB286C01EE24FF24F3013B
:1033E000838594850E94B82EFC0180818B3621F460
:1033F000838194819C01F901C601B701AF010E944C
:1034000024250894E11CF11CE016F10644F3A114F4
:10341000B10419F4442455241FC080E090E00E94B8
:10342000AB282C01EE24FF24D3011B968D919C9197
:103430001C970E94B82E8C01F301838594850E940D
:10344000B82EBC01C201A8010E94C22A0894E11C46
:10345000F11CEA14FB0444F3C401B601A20120E00C
:1034600030E00E94162BBC01D3011B968D919C91DC
:103470001C970E94132FC6010E947639C2010E9438
:103480007639C6010E948A39C201B8C5850110701B
:10349000BB27D7FCBA95AD2D9C2D8B2DEFEFAE2E13
:1034A000B12CA822B922F301838594850E94B82EFD
:1034B0002C010115110519F4CC24DD2420C0C8010C
:1034C0000E94AB286C01EE24FF24D3011B968D9142
:1034D0009C911C970E94B82EFC0180818B3621F4B0
:1034E000838194819C01F901C601B701AF010E945B
:1034F00024250894E11CF11CE016F10634F3A11414
:10350000B10419F41C821B8221C080E090E00E946B
:10351000AB289C838B83EE24FF24F3018385948561
:103520000E94B82E8C01D3011B968D919C911C9703
:103530000E94B82EBC018B819C81A8010E94C22AE6
:103540000894E11CF11CEA14FB043CF3C401B6012D
:103550004B815C8192010E94162BBC01F301838593
:1035600094850E94132FC6010E9476398B819C811D
:103570000E947639C6010E948A398B819C813EC5A2
:10358000D4018C91863409F03BC512C0D4018C91D2
:10359000843509F035C50CC0D30117968D919C91E7
:1035A00018978A0D9B1D18969C938E93179728C584
:1035B000F301B086A78224C5D4018C91863409F02A
:1035C0001FC5F30183859485B4010E94132FD30195
:1035D0001896BC92AE92179713C5F401808184357A
:1035E00009F00EC5D3011896BC92AE92179742C04F
:1035F000F3018385948561E00E94CF2E0E94DA3A20
:10360000FFC40E94B12C8C01D30117968D919C911F
:103610001897F8019683858354824382C2010E94E1
:103620007639D30117968D919C911897F801908760
:10363000878317968D919C9118978A0D9B1D928771
:1036400081871282118282E680830E943C2FD801FA
:103650001C969C938E931B97F10180819181B801F8
:103660000E94132FD80119968D919C911A97F301FE
:10367000908787831B968D919C911C97B401D3C32F
:103680000E94B12C8C01D30117968D919C911897B3
:10369000F8019683858354824382C2010E94763961
:1036A000D30117968D919C911897F8019087878385
:1036B00017968D919C9118978A0D9B1D92878187F3
:1036C0001282118282E680830E943C2FD8011C96D0
:1036D0009C938E931B97F10180819181B8010E9488
:1036E000132FD80119968D919C911A97F301908709
:1036F000878386C480E090E00E94AB2883C380E08B
:1037000090E00E94AB288BC380E090E00E94AB2841
:103710007C018824992424C0D3011B960D911C910F
:103720001C97C8010E94082E61E070E06A197B09AD
:10373000680D791D680F791FC8010E94E62DFC01F4
:103740008081823531F4CF01B101A7010E94663D2D
:1037500004C0C701BF010E941A280894811C911C53
:10376000C401AA2797FDA095BA2F8A159B05AC0521
:10377000BD0594F200E010E005C0C9010E94B82E1A
:103780000F5F1F4FC801AA2797FDA095BA2FF3011D
:10379000238534858A159B05AC05BD0574F3C901E5
:1037A0001EC2D2015596ED91FC9156970580F68187
:1037B000E02DC501880F991F0190F081E02DE80FE1
:1037C000F91FE080F180F70180818B3611F4E580EC
:1037D000F680C101B7010E94BB138C0180911B04CC
:1037E00090911C040817190709F055C0CC24DD245A
:1037F00049C0D10112968D919C911397B6010E94F8
:1038000092245C01FC0180818336C9F5D7011396AF
:103810006D917C911497858996890E94F225BC014F
:10382000BFEF8F3F9B0731F0F501858996890E9494
:1038300064248C0180911B0490911C0408171907C3
:1038400051F5D70113966D917C911497F5018789F5
:10385000908D0E94F225BC01FFEF8F3F9F0741F042
:10386000D50157968D919C9158970E9464248C01A4
:1038700080911B0490911C040817190761F40894A7
:10388000C11CD11CF101828193810E944924C81678
:10389000D9060CF4AECFD3011B968D919C911C9749
:1038A000B801C1C2D2015596ED91FC9156970580A1
:1038B000F681E02DC501880F991F0190F081E02D60
:1038C000E80FF91F00811181F80180818B3611F416
:1038D00005811681EE24FF243AC0D10112968D9104
:1038E0009C911397B7010E9492246C01FC01808186
:1038F000833651F5D80113966D917C911497858983
:1039000096890E94F225BC01BFEF8F3F9B0721F0F3
:10391000F6018589968914C0D80113966D917C9122
:103920001497F6018789908D0E94F225BC01FFEF64
:103930008F3F9F0749F0D60157968D919C915897DC
:10394000A4010E94652A5CC30894E11CF11CF101EA
:10395000828193819ED7E816F9060CF4BECF50C33E
:10396000D2015596ED91FC9156970580F681E02D98
:10397000C501880F991F0190F081E02DE80FF91F14
:1039800000811181F80180818B3611F40581168147
:10399000EE24FF243BC0D10112968D919C91139788
:1039A000B701C0D76C01FC018081833661F5D80175
:1039B00013966D917C911497858996890E94F225C2
:1039C000BC01BFEF8F3F9B0731F0F60185899689D7
:1039D00040E050E0B6CFD80113966D917C911497DA
:1039E000F6018789908D0E94F225BC01FFEF8F3F81
:1039F0009F0749F0D60157968D919C91589740E0CA
:103A000050E00E94652A0894E11CF11CF1018281BA
:103A100093813FD7E816F9060CF4BDCFF1C2D2016D
:103A200055968D919C91569779C0F201838994891E
:103A3000B5014AD7E7C1F2018789908D6FC0F201C5
:103A4000838D948D26D7AA2797FDA095BA2FF201D2
:103A5000E38CF48CA816B906CA06DB06BCF4C701D1
:103A6000B50132D7FC018081D2015B96ED90FC90CC
:103A70005C978B3649F0C701B50126D7B4010E9487
:103A8000412AAC01C7019EC0C701EFC0F201018D00
:103A9000128D6501C701FDD6B501681B790BC80100
:103AA00013D7FC018081D2015B96ED90FC905C976E
:103AB0008B36B9F0C701EDD67C01F201018D128D74
:103AC000838D948DE6D6B501681B790BC801FCD6B1
:103AD000B4010E94412AAC01CE18DF08C801B6012A
:103AE000FAC0D20159960D911C915A97C701D1D6AF
:103AF000C81AD90AC801B60123CFF201838D948D6B
:103B0000C8D6AA2797FDA095BA2FF201E38CF48CB2
:103B1000A816B906CA06DB061CF4C701B5010BC01E
:103B2000D20159960D911C915A97C701B2D6B50191
:103B3000681B790BC801C8D6FC0180818B3621F443
:103B4000838194819C01F901D3011B968D919C91F5
:103B50001C97BF0168C1F201838D948D9AD6AA2764
:103B600097FDA095BA2FF201E38CF48CA816B90644
:103B7000CA06DB061CF4C701B5010BC0D201599679
:103B80000D911C915A97C70184D6B501681B790B1A
:103B9000C8019AD644C1D20155968D919C915697F1
:103BA000B50192D6FC018081F201058916898B3618
:103BB00009F45AC0C801B50187D6B4010E94412A50
:103BC000AC01C801B50187C0C701B4014B815C815C
:103BD0000E94C22AD3011B968D919C911C97B7011C
:103BE00022C1662777276A197B09F30183859485AB
:103BF0000E94E62DFC0180818B3621F48381948123
:103C00009C01F901CF01B4014B815C816AC0662738
:103C100077276A197B09D3011B968D919C911C977C
:103C200007C0662777276A197B09F3018385948586
:103C30000E94E62DFC0180818B3621F483819481E2
:103C40009C01F901CF01B4010E941A28D9C1D20107
:103C500057968D919C915897B50136D6FC0180817D
:103C6000F2010789108DA3CFC801B50169CED20139
:103C700055968D919C91569703C0F2018789908D3E
:103C8000B50111C0D4018C91893619F060E070E063
:103C900003C0F40163817481AB81BC818C91883253
:103CA00009F0AEC1CD018ED6ABC1F4019081993639
:103CB00019F060E070E005C0D40113966D917C911D
:103CC0001497EB81FC818081883209F099C1993683
:103CD00021F4CF01A701B8D693C18B819C81B40197
:103CE000A7010E94C22A8CC1D4019C91993619F077
:103CF00060E070E003C0F40163817481AB81BC813A
:103D00008C91883209F07CC1993611F4CD0141CFF4
:103D10008B819C81B4010E94502781C0850115C010
:103D2000D4018C91853789F4D4011396ED91FC91DF
:103D30001497E00FF11F8081A1D40E949828BC0144
:103D4000F301838594850E94132F0150104017FFC3
:103D5000E7CF56C1D4018C91893609F051C1139631
:103D60006D917D918D919C91169743C0D4018C915A
:103D7000893609F045C113966D917D918D919C9185
:103D8000169790958095709561957F4F8F4F9F4FB7
:103D900030C0D4018C91893661F413968D919D9138
:103DA0000D90BC91A02D0097A105B10581F086E48E
:103DB0000FC0843511F486E403C0863419F484E519
:103DC00035D520C08E3419F0803309F019C184E54F
:103DD0002DD525C0D4018C91893609F011C11396D7
:103DE0006D917D918D919C911697609570958095C0
:103DF00090950E946B2813C0C4016B817C81412F78
:103E00000E949C34BC01D3011B968D919C911C9700
:103E10000AC0C4016B817C814A2D0E942733BC01FA
:103E2000F301838594850E94132FEAC0D3011B966A
:103E30008D919C911C970E94B82E4C011E3819F050
:103E400000E010E006C0F301838594850E94B82E3F
:103E50008C014FEF442E512C4A205B20BB27D7FC0E
:103E6000BA95AD2D9C2D8B2D9C0130703A83298302
:103E70004114510431F40115110519F4CC24DD2449
:103E800007C080E090E00E94AB286C010E94763968
:103E900089819A81892B31F48114910419F4EE24DB
:103EA000FF2427C080E090E00E94AB287C015C01E9
:103EB0000E94763981149104E1F01C821B820DC0AE
:103EC000C4016B817C8100D5BC01C5010E941A2808
:103ED000AB81BC811196BC83AB83D4011596ED9167
:103EE000FC91169782819381EB81FC81E817F90799
:103EF0003CF30115110519F0AA24BB240DC0AA2416
:103F0000BB242CC0C801B501DFD4BC01C6010E948E
:103F10001A280894A11CB11CD8011596ED91FC91AA
:103F2000169782819381A816B90664F3E8CFF3014E
:103F3000838594850E94B82E8C01D3011B968D91A8
:103F40009C911C970E94B82EB8010E94462CBC017F
:103F5000C7010E941A280894A11CB11CE981FA81AA
:103F6000AE16BF0624F3AA24BB2419C0D3011B96A6
:103F70000D911C911C97C8010E94082EB50164196F
:103F800075096F5F7F4F680F791FC8010E94E62D8A
:103F9000BC01C6010E941A280894A11CB11CA414DB
:103FA000B50424F300E010E005C0C9010E94B82E5A
:103FB0000F5F1F4FF3012385348504151505ACF3FE
:103FC000C9010E94B82EFC0180818B3621F48381C7
:103FD00094819C01F901C101BF01A601970149D259
:103FE000BC01009739F0D3011B968D919C911C97D1
:103FF0000E94132FC6010E948A39C7010E948A3984
:104000000E94DA3AD1011A96ED91FC911B973097F4
:1040100049F1C101199526C0F301838594850E9459
:10402000292FD1016D917C91882319F0CB010C943B
:104030001B17CB010E94B82EF301838594850E9443
:10404000B82E182F092F0E9476390E94DA3A212FB4
:10405000302FC9018C01C8012496E2E10C943C3E4A
:104060000E94DA3A00E010E0F6CFA0E0B0E0EBE327
:10407000F0E20C94263E7C016B015A01490100914B
:104080001B0410911C04C0E0D0E01CC0C701BE019D
:104090000E94C013FC018081833661F4C701BE0118
:1040A0000E94C013DC0155968D919C915697B601E4
:1040B00053D58C0180911B0490911C04081719079B
:1040C00071F42196D7011296ED91FC91139705801A
:1040D000F681E02D82819381C817D907BCF2F801DF
:1040E0008081863619F020E030E00CC0C701B801AD
:1040F000A50194010E943C14C7010E9490159C01E7
:104100000097D1F3C901CDB7DEB7ECE00C94423E85
:10411000A0E0B0E0EEE8F0E20C94243E7C01742EC6
:10412000652E69014801842F952FE1D6EC01009797
:1041300009F471C080911B0490911C04C817D90721
:1041400009F469C0C114D10429F0C816D90611F0C8
:10415000560106C080E090E0FED75C010E947639EF
:10416000C50160E070E0472D562D3AD7D701ED919B
:10417000FC910190F081E02D0281138188818636C7
:1041800081F5C701BE01A50194010E943C1420E005
:1041900030E00BC0C7010E949015D701ED91FC9152
:1041A0000190F081E02D22813381892B19F40217CF
:1041B000130781F7F701808191810E94122EDC01A3
:1041C0001B968D919C911C970E94B82E8C01EB81BF
:1041D000FC818789908D60E070E040E050E034D44D
:1041E0000CC0833419F000E010E007C0C701BE0125
:1041F000A50194010E94B3138C01C114D10439F0BC
:1042000080911B0490911C04C816D90631F4C50195
:104210000E948A3902C000E010E0C801CDB7DEB7C5
:10422000EEE00C94403E4F925F927F928F929F926D
:10423000AF92BF92CF92DF92EF92FF920F931F93B4
:10424000CF93DF935C016B014A012901DB011396D7
:10425000ED91FC9114970189128901151105C9F19D
:104260000E94B12CEC0182E68883F601838194815F
:104270009C838B830E94763918861F821E821D8242
:10428000D80115968D919C9116979A8789871A82E5
:1042900019820E943C2F9C878B87F5018081918138
:1042A000BE010E94132F8B859C85B6010E94132F9F
:1042B0008114910409F443C0D6011396ED91FC9149
:1042C00014978789908D60E070E0A4010E94652AB0
:1042D00036C0CB010E947529EC01F50180819181E6
:1042E0000E94292F882359F4D5018D919C910E9419
:1042F000122EFC0183859485BE010E94132F8CEA47
:1043000092E0DAD115D7F82EE92EC5016F2D7E2D5A
:10431000AE01940100E010E0FBDE8C010E947639D2
:10432000C8010E948A398F2D9E2D0E9476398F2DCB
:104330009E2D0E948A390E94DA3AC0E0D0E0D60170
:1043400015967C9015971696DC90072D1D2DEE2462
:10435000FF2426C0C701880F991FD8011596ED913B
:10436000FC9116970190F081E02DE80FF91F208154
:104370003181D9011396ED91FC911497858596852D
:10438000A785B08992609E7F85879687A787B08B27
:10439000C501B901A401920146DF0894E11CF11C9A
:1043A000872D9D2D76D2E816F906A4F2CE01DF9175
:1043B000CF911F910F91FF90EF90DF90CF90BF9022
:1043C000AF909F908F907F905F904F900895A0E066
:1043D000B0E0EDEEF1E20C942A3E8C01EB017A01A3
:1043E000690161157105E9F188818336D9F0843658
:1043F00038F48334F1F08D3441F0863291F50CC0FD
:10440000863639F1853769F51BC0C801BE01A701A1
:1044100096010E94471523C0C801BE01A70196015D
:1044200002DF1FC0C801BE01A70196010E94C5138B
:1044300018C0C801BE01A70196010E94B3130FC0A6
:104440006B817C81C8010E94BB13009711F0EC01C5
:10445000CBCFC801BE01A70196010E943C149C016C
:1044600002C020E030E0C901CDB7DEB7E8E00C942F
:10447000463EA0E0B0E0EFE3F2E20C942A3E7C017D
:10448000FB01EA016901309761F18081853769F4A8
:10449000C701BF010E94BB13FC0180911B049091D6
:1044A0001C04E817F90779F71CC0833439F4C701F5
:1044B000BF01AE0196018BDF9C0115C0CF010E94A8
:1044C000B52C8C010E947639C701B801AE01960166
:1044D0007EDFF82EE92EC8010E948A392F2D3E2D4D
:1044E00002C020E030E0C901CDB7DEB7E8E00C94AF
:1044F000463EA0E0B0E0EFE7F2E20C94283E7C01FB
:10450000EB016A0159018881833621F08EE48ED156
:104510009C0122C085EB92E0CFD00AD6182F092F3C
:104520000E9476398EEB92E0C7D002D6AC018D891D
:104530009E89612F702F0E94C22A812F902F0E9486
:104540008A39C701BE01A601950141DFC7010E945A
:1045500090159C010097D1F3C901CDB7DEB7EAE011
:104560000C94443EA0E0B0E0E8EBF2E20C94293E6B
:104570007C018B01B42ECB010E949A368823C1F5B1
:10458000C8010E94C1366C567C408D409A4081F52E
:10459000C8010E94C136C8010E940F37EC018EEBA2
:1045A00092E08AD0C5D5D82EC92EC7016D2D7C2D9D
:1045B000AE010E948B15C701BE0140E050E020E033
:1045C00030E097DF009711F00E948A39BB2061F03C
:1045D000CE010E948A39C7016D2D7C2D0E9486155F
:1045E000C8010E94A73604C0C8010E94A73602C0B5
:1045F000C0E0D0E0CE01CDB7DEB7E9E00C94453E97
:104600000F931F93CF93DF938C0182E190E00E9480
:104610002B0AEC011D861C861F861E860E943C2FDD
:104620009983888380E090E096D59B838A830E945B
:104630007639198A188A1D821C82198618861B866B
:104640001A861F821E82CE010E94F33AD3D60E94A0
:104650002E39CE010E94F5300115110549F08EEB7F
:1046600092E02AD065D5BC01CE01A8010E948B152D
:10467000CE01DF91CF911F910F910895FF920F937B
:104680001F93182F82E090E00E942B0A082FF92E2A
:1046900060E070E042E050E00E940F0C802F9F2D00
:1046A000612F70E041E050E00E940F0C802F9F2DA1
:1046B0001F910F91FF900895EF92FF920F931F9318
:1046C0008C010E941F0C01960E942B0AF82EE92EE5
:1046D000C8010E941F0CAC014F5F5F4F8F2D9E2DB4
:1046E00060E070E00E940F0CC8010E941F0CAC013A
:1046F0008F2D9E2DB8010E94060C8F2D9E2D1F918F
:104700000F91FF90EF900895A0E0B0E0EAE8F3E2A7
:104710000C942A3E7C016B01009741F461157105F0
:1047200019F4C0E0D0E03CC0CB0103C061157105B5
:1047300019F4C2DFEC0134C00E941F0C8C01C601C9
:104740000E941F0C080F191FC80101960E942B0A16
:10475000EC01C7010E941F0C8C01C6010E941F0CB6
:10476000080F191F0F5F1F4FCE0160E070E0A80116
:104770000E940F0CC7010E941F0CAC01CE01B701B3
:104780000E94060CC7010E941F0C8C01C6010E94EA
:104790001F0CAC01CE01800F911FB6010E94060CC8
:1047A000CE01CDB7DEB7E8E00C94463E6F927F9223
:1047B0008F929F92AF92BF92CF92DF92EF92FF9231
:1047C0000F931F933B014C0159016A019C01EE2498
:1047D000FF2487010BC0C9019301A4010E94E63D9B
:1047E0009C010894E11CF11C011D111DD601C5019D
:1047F0000197A109B109E816F9060A071B075CF33E
:10480000C9011F910F91FF90EF90DF90CF90BF9063
:10481000AF909F908F907F906F900895562F40E0BB
:10482000282F30E0242B352BC90108958634E9F078
:10483000873438F4803379F08F3309F18E3221F5E3
:1048400019C08E3419F08435F9F40AC080911D0422
:1048500090911E04089580911B0490911C0408956A
:1048600080911F04909120040895809121049091DB
:104870002204089580912304909124040895809146
:104880002504909126040895809125049091260492
:104890000895FC01009759F08081883241F4058029
:1048A000F681E02D309719F02281338102C020E09B
:1048B00030E0C9010895FC01009729F08081883219
:1048C00011F41482138208950F931F93CF93DF93F3
:1048D000FC01EB01009769F08081883251F4058179
:1048E0001681D80112968D919C91139768177907BC
:1048F0002CF080911B0490911C040FC077FF04C022
:10490000CF01C7DFC80FD91FCC0FDD1FD801ED9134
:10491000FC91EC0FFD1F80819181DF91CF911F9160
:104920000F910895DC01009781F08C91883269F431
:104930001596ED91FC911697309739F0828193810D
:104940006817790714F477FF05C080911B049091D4
:104950001C040895CD01B8DFFC0183819481089582
:10496000DC01009719F08C91883229F080911B04AA
:1049700090911C04089513962D913C9114971596CF
:10498000ED91FC91169782819381281739078CF459
:10499000C901019614969C938E9313970197880FE3
:1049A000991F0190F081E02DE80FF91F808191811E
:1049B000089514961C921E92139780911B04909157
:1049C0001C040895EF92FF920F931F93CF93DF93F0
:1049D0008C01EB01009799F1DC018C91883279F51B
:1049E0001596ED90FC901697F701828193816817D8
:1049F00079072CF577FF04C0C8014BDFC80FD91F1A
:104A0000CC0FDD1FD701ED91FC91EC0FFD1F8081D4
:104A100091810097A1F00E948A3980911B049091A6
:104A20001C04D8011596ED91FC9116970190F08128
:104A3000E02DEC0FFD1F918380830E947639CDB766
:104A4000DEB7E6E00C94483EEF92FF920F931F937F
:104A5000CF93DF93FC01EB018A010097B9F18081CC
:104A60008832A1F5E580F680D70112968D919C9150
:104A700013976817790754F577FF04C0CF0109DF52
:104A8000C80FD91FCC0FDD1FD701ED91FC91EC0FA2
:104A9000FD1FC081D1810115110559F080911B04C2
:104AA00090911C040817190721F011830083C80195
:104AB00006C080911B0490911C04918380830E9406
:104AC0007639209719F0CE010E948A39CDB7DEB72A
:104AD000E6E00C94483EEF92FF920F931F93CF9322
:104AE000DF937C01009799F1DC018C91883279F594
:104AF00015968D919C911697892B49F100E010E055
:104B00001CC0C801880F991F0190F081E02DE80FAB
:104B1000F91FC081D181209771F088818B3659F4BB
:104B20008D819E81918380838D819E810E947639C3
:104B3000CE010E948A390F5F1F4FD7011596ED9164
:104B4000FC9116978281938108171907D4F2CDB78B
:104B5000DEB7E6E00C94483EA0E0B0E0E2EBF5E220
:104B60000C942A3EFC016B01009791F18081883200
:104B700079F5E580F680E114F10451F1C0E0D0E070
:104B800021C0CE01880F991FD701ED91FC91E80F4C
:104B9000F91F0190F081E02D309799F080818B36DC
:104BA00081F4A581B681038114818C91853749F404
:104BB00013968D919C911497B6010E94160C892B27
:104BC00059F02196F70182819381C817D907CCF259
:104BD00000911B0410911C04C801CDB7DEB7E8E0BA
:104BE0000C94463EEF92FF920F931F93CF93DF9367
:104BF000FC017B01009799F18081883281F5058164
:104C000016810115110559F1C0E0D0E022C0CE0196
:104C1000880F991FD801ED91FC91E80FF91F0190C1
:104C2000F081E02D3097A1F0DF0180818B3621F4F7
:104C3000858196819C01D9018C91853749F4139621
:104C40008D919C911497B7010E94160C892B49F005
:104C50002196F80182819381C817D907C4F2CFEF5A
:104C6000DFEFCE01CDB7DEB7E6E00C94483EFF9211
:104C70000F931F93CF93DF938C01EB01009729F4DF
:104C800060E0CD2B09F064C064C06115710509F4C2
:104C90005FC0FC0190818881981709F059C0973650
:104CA000D9F1983628F4903361F09E3441F409C06C
:104CB0009B3649F0953709F442C09936E9F06FEF19
:104CC00048C060E046C06D817E81F8018581968193
:104CD000CEDF882319F480E090E038C06B817C81BE
:104CE000F80183819481C3DF90E0882309F491E087
:104CF00081E09827892F2AC060E0F8012381348160
:104D0000458156818B819C81AD81BE8128173907F1
:104D10004A075B07E9F41DC0FF24F8016381748131
:104D2000858196812B813C814D815E810E9479062F
:104D3000882311F4FF24F39461E06F250AC06B818E
:104D40007C81F801838194810E94160C682F01C038
:104D500061E0862FCDB7DEB7E5E00C94493EEF92D7
:104D6000FF920F931F93CF93DF938C017B010097EA
:104D700099F1DC018C91883279F515968D919C9191
:104D80001697892B49F16115710531F1C0E0D0E02A
:104D900019C0CE01880F991F0190F081E02DE80F16
:104DA000F91F0190F081E02D309729F080818B363A
:104DB00011F0CF0102C083819481B70158DF8823AD
:104DC00069F02196D8011596ED91FC911697828194
:104DD0009381C817D907ECF2CFEFDFEFCE01CDB743
:104DE000DEB7E6E00C94483EEF92FF920F931F93DC
:104DF000CF93DF938C017B01009799F1DC018C91BB
:104E0000883279F515968D919C911697892B49F1E9
:104E10006115710531F1C0E0D0E019C0CE01880FF5
:104E2000991F0190F081E02DE80FF91F0190F081AA
:104E3000E02D309759F080818B3611F0CF0102C000
:104E400085819681B70113DF882369F02196D80107
:104E50001596ED91FC91169782819381C817D90719
:104E6000ECF2CFEFDFEFCE01CDB7DEB7E6E00C948A
:104E7000483ECF93DF93EC01009779F08881883228
:104E800061F46115710549F0CE01AEDFBC018FEF11
:104E90006F3F780711F0CE0195DDDF91CF91089536
:104EA000CF93DF93EC01A0DFBC018FEF6F3F78075A
:104EB00049F0CE0109DDFC0180818B3619F4838134
:104EC000948104C080911B0490911C04DF91CF91C8
:104ED0000895FC0120911B0490911C0480818A326A
:104EE00021F487819085DCDF282F822F0895A0E0B0
:104EF000B0E0EDE7F7E20C94283E8C016B01C09125
:104F00001B04D0911C04D8018C91863209F04BC04F
:104F10001396ED91FC91149785899689B601C0DFAF
:104F2000EC010097A9F080911B0490911C04C81714
:104F3000D90741F02881263609F44CC0233409F4FE
:104F400049C0EC01209721F0C817D90709F042C0E9
:104F5000F801A580B6808501EE24FF241EC0D8018B
:104F60001596ED91FC911697C701880F991F019036
:104F7000F081E02DE80FF91F80819181B601B7DF44
:104F8000EC01009739F080911B0490911C04C81724
:104F9000D90701F50894E11CF11CC5017ADCE8167B
:104FA000F906ECF217C08A32A9F4F80185819681DE
:104FB000B60176DFEC01009739F080911B049091E7
:104FC0001C04C817D90731F4D80113960D911C9110
:104FD000149795CFCE01CDB7DEB7EAE00C94443EEE
:104FE000EF92FF920F931F93CF93DF93EC017B011E
:104FF0008A010097D1F088818832B9F441155105B2
:10500000A1F08D819E81892B39F480E090E060E0F1
:105010000E94CB309E838D838D819E81B701A80134
:105020000E947E30C8010E947639CDB7DEB7E6E037
:105030000C94483E0F931F93CF93DF93EC018B01A9
:105040000097B1F08881883299F48D819E81892BF7
:1050500039F480E090E060E00E94CB309E838D8345
:105060008D819E81B8010E944930C8010E94763925
:10507000DF91CF911F910F91089589E090E00C94FA
:105080002B0AFBDFFC0182E58083108617821482E5
:10509000138212821182CF01089587E090E00C9470
:1050A0002B0AEF92FF920F931F937B018C01F5DF88
:1050B000FC0187E6808312821182E382F4820583F9
:1050C0001683CF011F910F91FF90EF90089587E015
:1050D00090E00C942B0AEF92FF920F931F937B01A9
:1050E0008C01F5DFFC0189E6808312821182E38264
:1050F000F48205831683CF011F910F91FF90EF90EB
:10510000089585E090E00C942B0A0F931F938C0177
:10511000F8DFFC0184E78083128211821483038309
:10512000CF011F910F91089585E090E00C942B0A18
:105130000F931F938C01F8DFFC0185E780831282B7
:10514000118214830383CF011F910F91089587E08B
:1051500090E00C942B0AEF92FF920F931F938C0117
:10516000F6DF7C0188E2F7018083128211821482CB
:105170001382C80161E00E94CB30F70196838583DA
:10518000C7011F910F91FF90EF90089587E090E085
:105190000C942B0AEF92FF920F931F938C017B01CB
:1051A000F5DFFC0183E7808312821182148303837D
:1051B000F682E582CF011F910F91FF90EF90089545
:1051C00087E090E00C942B0ACF92DF92EF92FF924F
:1051D0000F931F937C016B01F3DF8C018DE4F801C9
:1051E0008083F482E382C7010E947639F80112823B
:1051F0001182D682C582C6010E947639C8011F91EC
:105200000F91FF90EF90DF90CF9008950F931F9331
:10521000CF93DF93EC018B01209719F00115110555
:1052200029F420911B0430911C043EC088818336F0
:1052300019F48D899E8906C0863239F4EB81FC8190
:1052400085899689B8012CDE1FC08A3259F5CE01B6
:10525000B8013FDE9C01009739F080911B049091CA
:105260001C042817390791F4CE01B80140DE9C01D7
:10527000009799F080911B0490911C04281739071E
:1052800029F0C901BE01A0DF9C010EC080911B0462
:1052900090911C042817390739F48B819C819C015B
:1052A000E901BACF20E030E0C901DF91CF911F9131
:1052B0000F91089585E090E00C942B0A0F931F93B3
:1052C0008C01F8DFFC0183E4808314830383128262
:1052D0001182CF011F910F91089585E090E00C9409
:1052E0002B0A89E090E00C942B0AEF92FF920F9327
:1052F0001F937C01F6DF8C018AE2F8018083F4823F
:10530000E38212821182C7010E94763980E090E028
:1053100022DFF801858396830E94763980E090E051
:105320001ADFF801878390870E947639C8011F91A0
:105330000F91FF90EF90089587E090E00C942B0A76
:10534000CF92DF92EF92FF920F931F937C016B013C
:10535000F3DF8C0186E2F8018083F482E38212821B
:105360001182D682C582C7010E947639C6010E9489
:105370007639F70185859685A785B08991608587FF
:105380009687A787B08BC8011F910F91FF90EF9070
:10539000DF90CF9008958DE190E00C942B0A0F934D
:1053A0001F938C01F8DFFC0183E680831483038361
:1053B000168215821086178212861186148613862D
:1053C000158616861786108A128A118A148A138AFD
:1053D000108E178A128E118E148E138E168A158ACD
:1053E00012821182CF011F910F91089583E090E006
:1053F0000C942B0A0F931F93F9DFFC0190931C046C
:1054000080931B0480E3808301E010E0128301831A
:10541000EDDFFC0190931E0480931D048EE48083D5
:1054200012830183E3DFFC019093200480931F0427
:1054300084E5808312830183D9DFFC0190932204E9
:105440008093210486E4808312830183CFDFFC01F3
:1054500090932404809323048EE28083128301833B
:10546000C5DFFC0190932604809325048FE380839D
:10547000128301831F910F91089587E090E00C94AF
:105480002B0AEF92FF920F931F93CF93DF938C0120
:105490007B01F3DFEC018BE688831A8219821E837D
:1054A0000D83C8010E947639E114F10431F0FC82C9
:1054B000EB82C7010E94763902C01C821B82CE019A
:1054C000CDB7DEB7E6E00C94483EEF92FF920F9323
:1054D0001F93CF93DF937C018B01EA018FEF6F3F26
:1054E000780701F1C701F0D9FC0180818B3699F46E
:1054F00003811481209731F0D483C383CE010E94AD
:10550000763902C0148213820115110559F0C801C1
:105510000E948A3907C0CF01BE01B3DFAC01C701C9
:10552000B80192DACDB7DEB7E6E00C94483EEF92D0
:10553000FF920F931F93CF93DF93EC018B017A01BE
:105540000097D9F088818832C1F461157105A9F0FE
:105550008D819E81892B31F480E090E060E01BD644
:105560009E838D83C801B7018CDF8C018D819E8164
:10557000B8018FD5C8010E947639CDB7DEB7E6E015
:105580000C94483EA0E0B0E0E8ECFAE20C942A3E2D
:105590008C017B016A01009709F43BC0FC0180810A
:1055A0008832B9F561157105A1F1C8011DDCEC0166
:1055B000FFEF8F3F9F0749F1C801BE0185D9FC016C
:1055C00080818B36D1F4C381D481C114D10469F0B8
:1055D00080911B0490911C04C816D90631F0D48226
:1055E000C382C6010E94763902C0148213822097BA
:1055F00081F0CE010E948A390CC0CF01B60141DF93
:10560000AC01C801BE0120DA04C0C801B701A6017F
:105610008EDFCDB7DEB7E8E00C94463EFC0180811A
:105620008A3219F487819085ADCF0895A4E0B0E067
:10563000ECE1FBE20C94203E4C013B012A013A8351
:1056400029834BDE1C0186E6D1018C9312961C92B5
:105650001E92119714969C928E921397C4010E94E9
:105660007639F4010789108DC80113D91816190667
:105670000CF071C06114710421F44114510409F457
:105680006AC0C80128DA6114710409F444C0D40165
:105690001596AD90BC9016971C821B822FC0F4010A
:1056A000E788F08C0894A108B10865012B813C8142
:1056B000C21AD30A0894A11CB11CC701B60104D9AF
:1056C0008C01DC018C918B3661F0C3016B817C8194
:1056D000FBD8BC01C801D5DEAC01C701B601B4D905
:1056E00008C0C3016B817C81EFD8AC01C701B60152
:1056F000ECDEEB81FC813196FC83EB83D3011596C4
:10570000ED91FC91169782819381EB81FC81E817E2
:10571000F9070CF4C4CF41145104E9F000E010E0A3
:1057200010C0C201B801D0D8FC01658176814381E7
:105730005481D40157968D919C91589723DF0F5F28
:105740001F4FD2011596ED91FC911697828193819E
:105750000817190734F3E981FA81EF2BB9F000E05B
:1057600010E00EC089819A81B801AED8AC01D40195
:1057700059968D919C915A97B80166D90F5F1F4F2A
:1057800089819A8186D80817190764F3C101249684
:10579000E2E10C943C3EEF92FF920F931F938C0139
:1057A0006CDE7C018BE6F701808312821182168306
:1057B0000583C8010E947639F70114821382C7015C
:1057C0001F910F91FF90EF900895A0E0B0E0EBEEF5
:1057D000FBE20C942A3E7C01009709F452C0DC01E4
:1057E0008C91883209F04DC01596ED91FC91169779
:1057F000309709F446C082819381892B09F441C016
:10580000CC24DD2434C08601000F111FC081D1815A
:10581000C00FD11FE881F981309731F180818B363B
:1058200019F1CF01B8DF99838883D7011596ED91DF
:10583000FC9116970190F081E02DE00FF11F80811F
:1058400091810E947639D7011596ED91FC911697BA
:105850000190F081E02DE00FF11F0190F081E02D2B
:10586000858196810E948A390894C11CD11CD70178
:105870001596ED91FC91169782819381C816D906F1
:1058800014F2CDB7DEB7E8E00C94463ECF92DF923B
:10589000EF92FF920F931F937C016B01EEDD8C0161
:1058A0008BE6F801808312821182F682E582C701BD
:1058B0000E947639F801D482C382C6010E947639EB
:1058C000C8011F910F91FF90EF90DF90CF90089546
:1058D000EF92FF920F931F93CF93DF938B017A0187
:1058E000EC0189859A8501969A8789878D899E8999
:1058F000892B39F480E090E02EDC8D8B9E8B0E940A
:105900007639C801B701C2DFBC018D899E8992DB5F
:10591000CDB7DEB7E6E00C94483EEF92FF920F93CE
:105920001F938C01CB017A010E945C2301DCBC0136
:10593000C801A701CDDF1F910F91FF90EF9008954F
:10594000EF92FF920F931F938C017B01CA01B6DC8B
:10595000AC01C801B701E1DF1F910F91FF90EF90FB
:1059600008958DE090E00C942B0AEF92FF920F9334
:105970001F93CF93DF93EC01009709F41FC1F880C8
:1059800083E6F81609F4BEC08F1540F1E6E4FE1672
:1059900009F441C0EF15B8F0F0E3FF16E1F1FF158F
:1059A00068F088E2F81609F48CC0EAE2FE1609F401
:1059B00083C0F6E2FF1609F001C177C083E4F81650
:1059C00009F0FCC06EC0EEE4FE1629F1F4E5FF1606
:1059D00011F18DE4F81609F0F1C05CC0EBE6FE169B
:1059E00009F449C0EF1558F0F7E6FF16F1F089E623
:1059F000F816A9F0E6E6FE1609F0E0C0D4C0F4E718
:105A0000FF1609F443C085E7F816A9F0E3E7FE1690
:105A100009F0D4C016C08F2D0E94162450C06B818F
:105A20007C818D819E8157DB4AC06B817C818D8119
:105A30009E8137DB44C08B819C810E945C2378DB94
:105A40003EC08D819E810E942B0A182F092F4D8107
:105A50005E8160E070E00E940F0C6B817C814D8163
:105A60005E81812F902F0E94060C6D817E81812F97
:105A7000902F90DB24C08D819E8177DF8C018B81FC
:105A80009C8173DFBC01C80101DF19C08B819C813F
:105A90003CDB15C08B819C8168DF6D817E8194DB4E
:105AA0000EC08B819C810ADC0AC08B819C815DDFEA
:105AB0006D817E8145DC03C08B819C8116DC8C016D
:105AC0007FC0CE010E94492446DBF82EE92E00E07B
:105AD00010E00DC0CE01B8010E94642446DFAC0185
