:1000000013C3000033C3000031C300002FC300003E
:100010002DC300002BC3000029C3000027C300002C
:1000200025C3000023C3000021C300001FC300003C
:100030001DC300001BC3000019C3000017C300004C
:1000400015C3000013C3000011C300000FC300005C
:100050000DC300000BC3000009C300000C9429115C
:1000600005C3000003C3000001C30000FFC200007D
:10007000FDC20000FBC20000F9C20000F7C2000090
:10008000F5C20000F3C20000F1C20000EFC20000A0
:10009000EDC20000EBC20000E9C20000E7C20000B0
:1000A000E5C20000E3C20000E1C20000DFC20000C0
:1000B000DDC20000DBC20000D9C20000D7C20000D0
:1000C000D5C20000D3C20000D1C20000CFC20000E0
:1000D000CDC20000CBC20000C9C20000C7C20000F0
:1000E000C5C200006E12731278128212F6128C12C0
:1000F00094129C12A612B012BA12C412CE12F612A8
:10010000D812E212EC123E134113341338137A134F
:10011000451349134F13531357135D13611365139D
:100120007A136B136F137513D31EDF1EF21E292073
:100130002920131F292029202920251F251F292098
:10014000251F251F251F9D1E251F251F251F251F18
:100150002920292029202920292029202920292057
:100160002920292029202920292029202920292047
:100170002920292029202920292029202920292037
:100180000D1E251F251F251F2920251F7E1E6B1EC6
:10019000251F251F251F251F251F251F2920292035
:1001A00029201B19292029202920251F251F251F2B
:1001B000251F251F2920211B29202920F11929204D
:1001C0002920292029202920F41D601EB71E20196E
:1001D0002920631929207B1CD91C29203E1D381D8C
:1001E000AD1BAD1BA31BA81B4A19321F7A19BE19E0
:1001F000F51A051B161B011BE91AEF1AFA1B292019
:1002000029202920691B292029202920441D501E2E
:10021000661E292029202920E018D818FF19292036
:100220006F1AD41DA61D481D29202920DD183F1F47
:100230003F1F2A1B2920301E3A1E1A1E363CAE3B99
:10024000BA3C0E3C473C2F3CBA3C1F3C283C1F3C70
:10025000283CBA3CBA3CBA3CBA3CBA3CBA3CBA3C80
:10026000BA3CBA3CBA3CBA3CBA3CBA3CBA3CBA3CDE
:10027000BA3CBA3CBA3CBA3CBA3CBA3CBA3CBA3CCE
:10028000BA3CBA3C473C2F3CAE3BBA3C0E3CBA3C75
:10029000BA3CEA3BFC3BDB3BCC3BB53B363CBA3C97
:1002A000BA3CBA3CBA3CBA3CBA3CBA3CEA3BFC3B2E
:1002B000DB3BCC3BB53BA73C6B3CBA3C923CB23CF5
:1002C000A23CBA3C983C983C983C983CBA3CBA3C1E
:1002D000BA3CBA3CBA3CBA3CBA3CBA3CBA3CBA3C6E
:1002E000BA3CBA3CBA3CBA3CBA3CBA3CBA3CBA3C5E
:1002F000BA3CBA3CBA3CBA3CBA3CBA3CBA3CB23C56
:10030000A23C6B3CBA3C923CBA3CBA3C803C893C37
:100310007B3C763C713CA73CBA3CBA3CBA3CBA3C0C
:10032000BA3CBA3CBA3C803C893C7B3C763C713C54
:100330006C0C0D0A9CD5534F6300000000000000B8
:1003400000000000000200000040000000732200D6
:1003500000006400006401006C00005A00006402A8
:10036000008400005A01006403008400005A020067
:1003700064010053280400000069000000004E637F
:10038000000000000000000000000000030000006A
:100390004300000073110000007400006401007449
:1003A0000100830200016400005328020000004E97
:1003B000690D0000002802000000750700000070B1
:1003C000696E4D6F646575060000004F55545055B9
:1003D0005428000000002800000000280000000051
:1003E00075000000007505000000736574757003EA
:1003F0000000007302000000000163000000000024
:100400000000000000000003000000430000007333
:1004100032000000740000640100740100830200D7
:100420000174020064020083010001740000640191
:10043000007403008302000174020064020083015F
:1004400000016400005328030000004E690D000005
:100450000069E80300002804000000750C0000009B
:100460006469676974616C5772697465750400002A
:100470000048494748750500000064656C6179755E
:10048000030000004C4F5728000000002800000027
:100490000028000000007500000000750400000046
:1004A0006C6F6F7007000000730800000000010D02
:1004B000010A010D0128030000007507000000611A
:1004C000726475696E6F75050000007365747570F0
:1004D00075040000006C6F6F702800000000280099
:1004E00000000028000000007500000000750800F2
:1004F00000003C6D6F64756C653E01000000730484
:100500000000000C02090404000021002400270060
:100510002A002D0030003300010100000401070112
:100520000A0100002200250028002B002E003100C7
:10053000340002010000050108010B010000200049
:100540002300260029002C002F00320000010000AB
:100550000301060109010505050507050808080846
:10056000020202020A0A080804040404010101014B
:100570000101010103030303030303030407070746
:100580000C0C0C0C0C0C0C0C0202020206060606EB
:10059000060606060B0B0B0B0B0B0B0B01021020B8
:1005A00020080810204010204080020102010804A9
:1005B000020101020408102040808040201008043D
:1005C0000201800402018040201008040201080496
:1005D00002010102040810204080010204081020DA
:1005E00040800000090A02080B0C0D0706030401F5
:1005F00000000000000000000000000000000000FB
:1006000000000000000000000000000000001110C9
:100610000F000000000000000000000000000000CB
:10062000000000000000000011241FBECFEFD1E247
:10063000DEBFCDBF00E00CBF17E0A0E0B2E0E4ED0C
:10064000FAE800E00BBF02C007900D92A832B10794
:10065000D9F71BBE17E0A8E2B7E001C01D92AD3587
:10066000B107E1F70E94DD0E0C946845C9CCA0E00B
:10067000B0E0EDE3F3E00C948B44DC012B01FA01D4
:100680009C91923008F439C1EB018881823008F4E2
:1006900033C1943069F4843009F02FC111969C91D4
:1006A00011978981981709F428C1A9E1B6E025C1FD
:1006B000843009F421C18230A9F4923009F01DC1BF
:1006C0009A01AD0188E0EA010990AE01E9010992C1
:1006D0009E018150C1F7E201898111969C91892385
:1006E000818308C1923009F407C112962D903C9085
:1006F0001397EB018A819B811496AD90BD90CD90AC
:10070000DC901797EC80FD800E811F819101281BE2
:10071000390BB90137FF04C066277727621B730BBB
:10072000603271050CF061C0121613066CF53701CA
:100730004801062E04C096948794779467940A948F
:10074000D2F721E030E040E050E004C0220F331F38
:10075000441F551F6A95D2F7215030404040504009
:100760002E213F21402351232115310541055105FB
:1007700021F021E030E040E050E079018A01E628F4
:10078000F728082919293CC0232BD1F1260E371E42
:1007900035014601062E04C0969487947794679499
:1007A0000A94D2F721E030E040E050E004C0220F8C
:1007B000331F441F551F6A95D2F7215030404040E7
:1007C00050402A213B214C215D2121153105410555
:1007D000510521F021E030E040E050E059016A018C
:1007E000A628B728C828D9280BC0821593052CF055
:1007F0001C01AA24BB24650103C0EE24FF24870149
:1008000011969C91D20111968C91981709F445C0CC
:10081000992339F0A80197012A193B094C095D0970
:1008200006C0A60195012E193F09400B510B57FD3B
:1008300008C0118233822282248335834683578302
:100840001DC081E081833382228288279927DC01C1
:10085000821B930BA40BB50B84839583A683B7836C
:100860000DC0220F331F441F551F24833583468339
:100870005783828193810197938382832481358179
:1008800046815781DA01C9010197A109B1098F5F3A
:100890009F4FAF4FBF4328F30BC091833382228217
:1008A000EA0CFB1C0C1D1D1DE482F58206831783D8
:1008B00083E08083248135814681578157FF1AC0A8
:1008C000C901AA2797FDA095BA2F81709070A070DA
:1008D000B0705695479537952795822B932BA42B6F
:1008E000B52B84839583A683B783828193810196F8
:1008F00093838283DF0101C0D201CD01CDB7DEB782
:10090000E2E10C94A744A0E2B0E0E9E8F4E00C9442
:10091000974469837A838B839C832D833E834F83A3
:100920005887E9E0EE2EF12CEC0EFD1ECE0101966B
:10093000B701C0D48E010F5E1F4FCE010596B801DE
:10094000B9D48A8991E089278A8BC701B801AE01A1
:10095000475E5F4F8CDED9D3A096E6E00C94B3449B
:10096000A0E2B0E0E6EBF4E00C94974469837A836C
:100970008B839C832D833E834F835887F9E0EF2E32
:10098000F12CEC0EFD1ECE010196B70193D48E0121
:100990000F5E1F4FCE010596B8018CD4C701B80178
:1009A000AE01475E5F4F63DEB0D3A096E6E00C94E5
:1009B000B344A0E2B0E0EFEDF4E00C948B44698323
:1009C0007A838B839C832D833E834F835887CE010C
:1009D0000196BE01675F7F4F6DD4CE010596BE01C3
:1009E0006F5E7F4F67D49985923088F08989823015
:1009F000C8F0943019F4823051F404C0843029F4E2
:100A0000923081F489E196E0C6C0923049F420E04A
:100A10009A858A89981321E02A87CE010996BBC05E
:100A2000823049F420E09A858A89981321E02A8B44
:100A3000CE014196B0C02D843E844F8458886D8885
:100A40007E888F88988CEE24FF248701AA24BB24FB
:100A5000650140E050E060E070E0E0E0F0E0C101FE
:100A600081709070892BE9F0E60CF71C081D191DA8
:100A70009A01AB012A0D3B1D4C1D5D1D80E090E0ED
:100A8000A0E0B0E0E614F7040805190520F481E0C1
:100A900090E0A0E0B0E0BA01A901480F591F6A1F19
:100AA0007B1FAA0CBB1CCC1CDD1C97FE08C081E080
:100AB00090E0A0E0B0E0A82AB92ACA2ADB2A319641
:100AC000E032F10549F0660C771C881C991C56949D
:100AD000479437942794C3CFFA85EA892B893C89B8
:100AE0008B859C85280F391F2E5F3F4F17C0CA0189
:100AF00081709070892B61F016950795F794E794B3
:100B000080E090E0A0E0B0E8E82AF92A0A2B1B2B4D
:100B100076956795579547952F5F3F4F77FDE7CFC0
:100B20000CC0440F551F661F771F17FD4160EE0C68
:100B3000FF1C001F111F21503040403090E059072A
:100B400090E0690790E4790760F32B8F3C8FDB011D
:100B5000CA018F779070A070B07080349105A105A4
:100B6000B10561F447FD0AC0E114F1040105110566
:100B700029F0405C5F4F6F4F7F4F40781A8EFE1711
:100B800011F081E08A8F4D8F5E8F6F8F78A383E0A5
:100B9000898FCE014996B9D2A096E2E10C94A74480
:100BA000A8E1B0E0E6EDF5E00C94934469837A8324
:100BB0008B839C832D833E834F835887B9E0EB2E34
:100BC000F12CEC0EFD1ECE010196B70173D38E0100
:100BD0000F5E1F4FCE010596B8016CD329852230D8
:100BE00008F47EC03989323010F4B8017CC08A859F
:100BF0009A8989278A87243011F0223031F423170B
:100C000009F06EC069E176E06EC0343039F41D86BB
:100C10001E861F86188A1C861B8604C0323021F46B
:100C200084E08987B7015FC02B853C858B899C89CF
:100C3000281B390B3C872B87ED84FE840F85188990
:100C4000AD88BE88CF88D88CEA14FB040C051D053E
:100C500040F4EE0CFF1C001F111F215030403C8758
:100C60002B8720E030E040E050E080E090E0A0E022
:100C7000B0E460E070E0EA14FB040C051D0540F0F0
:100C8000282B392B4A2B5B2BEA18FB080C091D0972
:100C9000B695A79597958795EE0CFF1C001F111F21
:100CA0006F5F7F4F6F31710531F7DA01C9018F77BF
:100CB0009070A070B07080349105A105B10561F409
:100CC00027FD0AC0E114F1040105110529F0205C9B
:100CD0003F4F4F4F5F4F20782D873E874F87588B70
:100CE000BE01675F7F4FCB0110D26896EAE00C949B
:100CF000AF44A8E1B0E0EFE7F6E00C9497446983D5
:100D00007A838B839C832D833E834F83588789E02E
:100D1000E82EF12CEC0EFD1ECE010196B701CAD2D1
:100D20008E010F5E1F4FCE010596B801C3D2898593
:100D3000823038F08989823020F0C701B80132D37F
:100D400001C081E06896E6E00C94B344A8E1B0E00D
:100D5000ECEAF6E00C94974469837A838B839C8356
:100D60002D833E834F83588789E0E82EF12CEC0ECB
:100D7000FD1ECE010196B7019DD28E010F5E1F4F61
:100D8000CE010596B80196D28985823038F08989DE
:100D9000823020F0C701B80105D301C081E0689618
:100DA000E6E00C94B344A8E1B0E0E9EDF6E00C9481
:100DB000974469837A838B839C832D833E834F83FF
:100DC000588789E0E82EF12CEC0EFD1ECE0101962D
:100DD000B70170D28E010F5E1F4FCE010596B8018C
:100DE00069D28985823038F08989823020F0C70144
:100DF000B801D8D201C08FEF6896E6E00C94B344F6
:100E0000A8E1B0E0E6E0F7E00C94974469837A83C8
:100E10008B839C832D833E834F83588789E0E82E04
:100E2000F12CEC0EFD1ECE010196B70143D28E01CE
:100E30000F5E1F4FCE010596B8013CD289858230E6
:100E400038F08989823020F0C701B801ABD201C0E7
:100E50008FEF6896E6E00C94B344A8E1B0E0E3E3DA
:100E6000F7E00C94974469837A838B839C832D836A
:100E70003E834F83588789E0E82EF12CEC0EFD1E4F
:100E8000CE010196B70116D28E010F5E1F4FCE0123
:100E90000596B8010FD28985823038F08989823071
:100EA00020F0C701B8017ED201C081E06896E6E07B
:100EB0000C94B344A8E1B0E0E0E6F7E00C9497446A
:100EC00069837A838B839C832D833E834F835887EA
:100ED00089E0E82EF12CEC0EFD1ECE010196B70143
:100EE000E9D18E010F5E1F4FCE010596B801E2D108
:100EF0008985823038F08989823020F0C701B801B5
:100F000051D201C081E06896E6E00C94B344A8E0B9
:100F1000B0E0EDE8F7E00C9494449B01AC0183E071
:100F20008983DA01C9018827B7FD83959927AA2704
:100F3000BB27B82E211531054105510519F482E072
:100F4000898339C08823A9F0203080E0380780E009
:100F5000480780E8580729F460E070E080E09FECE3
:100F60002EC0EE24FF248701E21AF30A040B150BAE
:100F700002C079018A018EE1C82ED12CDC82CB829D
:100F8000ED82FE820F831887C801B7016FD00197E9
:100F90001816190684F4082E04C0EE0CFF1C001F5E
:100FA000111F0A94D2F7ED82FE820F831887C81AA8
:100FB000D90ADC82CB82BA82CE010196A6D02896CD
:100FC000E9E00C94B044ACE0B0E0E9EEF7E00C945A
:100FD0009B4469837A838B839C83CE010196BE01F7
:100FE0006B5F7F4F67D18D81823061F1823050F12C
:100FF000843021F48E81882351F12EC02F813885D1
:1010000037FD20C06E812F3131051CF06623F9F0C9
:1010100023C08EE190E0821B930B29853A854B8596
:101020005C8504C056954795379527958A95D2F7E4
:101030006623B1F050954095309521953F4F4F4F25
:101040005F4F0EC020E030E040E050E009C02FEFDD
:101050003FEF4FEF5FE704C020E030E040E050E8B2
:10106000B901CA012C96E2E00C94B744EF92FF92CA
:101070000F931F937B018C0180E0E81680E0F80657
:1010800081E0080780E0180788F48FEFE816F10484
:101090000105110531F028F088E090E0A0E0B0E013
:1010A00017C080E090E0A0E0B0E012C080E0E81659
:1010B00080E0F80680E0080781E0180728F088E162
:1010C00090E0A0E0B0E004C080E190E0A0E0B0E0FB
:1010D00020E230E040E050E0281B390B4A0B5B0B6C
:1010E00004C016950795F794E7948A95D2F7F7010F
:1010F000EF5DF94F8081281B310941095109C90170
:101100001F910F91FF90EF900895DF92EF92FF9261
:101110000F931F93FC01E480F58006811781D18035
:101120008081823048F480E090E0A0E1B0E0E82ADD
:10113000F92A0A2B1B2BA5C0843009F49FC08230EA
:1011400021F4EE24FF24870105C0E114F104010518
:10115000110519F4E0E0F0E096C0628173819FEF21
:10116000623879070CF05BC022E83FEF261B370B93
:101170002A3131052CF020E030E040E050E02AC078
:10118000B801A701022E04C076956795579547953B
:101190000A94D2F781E090E0A0E0B0E004C0880FAC
:1011A000991FAA1FBB1F2A95D2F70197A109B10960
:1011B0008E219F21A023B1230097A105B10521F025
:1011C00081E090E0A0E0B0E09A01AB01282B392B40
:1011D0004A2B5B2BDA01C9018F779070A070B07039
:1011E00080349105A105B10539F427FF09C0205CC1
:1011F0003F4F4F4F5F4F04C0215C3F4F4F4F5F4FFA
:10120000E0E0F0E02030A0E03A07A0E04A07A0E4E8
:101210005A0710F0E1E0F0E079018A0127C0603858
:10122000710564F5FB01E158FF4FD801C7018F77C5
:101230009070A070B07080349105A105B10539F4AB
:10124000E7FE0DC080E490E0A0E0B0E004C08FE3D2
:1012500090E0A0E0B0E0E80EF91E0A1F1B1F17FF88
:1012600005C016950795F794E794319687E0169593
:101270000795F794E7948A95D1F705C0EE24FF24EB
:101280008701EFEFF0E06E2F679566276795902F47
:101290009F77D794DD24D7948E2F8695492F462BA0
:1012A000582F5D29B701CA011F910F91FF90EF9050
:1012B000DF900895FC01DB01408151812281622F82
:1012C0006F7770E0221F2227221F9381892F880FBA
:1012D000822B282F30E0991F9927991F11969C93F4
:1012E000119721153105A9F54115510561057105C4
:1012F00011F482E037C082E89FEF13969C938E939F
:1013000012979A01AB0167E0220F331F441F551F4C
:101310006A95D1F783E08C930DC0220F331F441FD1
:10132000551F12968D919C911397019713969C933C
:101330008E931297203080E0380780E0480780E4E1
:10134000580758F314962D933D934D935C9317973C
:1013500008952F3F310579F4411551056105710557
:1013600019F484E08C93089564FF03C081E08C93AA
:1013700012C01C9210C02F57304013963C932E93EE
:10138000129783E08C9387E0440F551F661F771FE9
:101390008A95D1F7706414964D935D936D937C9309
:1013A000179708951F93DC01FB019C91923008F47C
:1013B00047C08081823008F443C0943051F41196C4
:1013C0001C91843099F58181682F70E0611B71094F
:1013D0003FC0843021F0923031F48230B9F1818104
:1013E000882389F12DC011961C9111978230F1F05C
:1013F00081811817D9F412962D913C91139782810F
:1014000093818217930794F028173907BCF014963C
:101410008D919D910D90BC91A02D248135814681A7
:101420005781281739074A075B0718F4112341F041
:101430000AC082179307A407B50740F4112319F0D7
:1014400061E070E005C06FEF7FEF02C060E070E028
:10145000CB011F910895CF93DF93BC01823091059A
:1014600010F462E070E0A0915507B0915607ED01CD
:10147000E0E0F0E040E050E021C0888199818617EB
:10148000970769F48A819B81309719F0938382834F
:1014900004C09093560780935507FE0134C0681727
:1014A000790738F44115510519F08417950708F4A8
:1014B000AC01FE018A819B819C01E9012097E9F63C
:1014C00041155105A9F1CA01861B970B049708F431
:1014D000BA01E0E0F0E02AC08D919C911197841749
:1014E0009507F9F46417750781F412968D919C9114
:1014F0001397309719F09383828304C09093560713
:1015000080935507FD0132964CC0CA01861B970B8C
:10151000FD01E80FF91F6193719302978D939C93DE
:1015200040C0FD01828193819C01D9011097A1F6F1
:101530008091530790915407892B41F480912307A0
:101540009091240790935407809353074091250767
:10155000509126074115510541F44DB75EB7809172
:10156000210790912207481B590B20915307309176
:101570005407CA01821B930B8617970780F0AB01B3
:101580004E5F5F4F8417950750F0420F531F5093E3
:10159000540740935307F9016193719302C0E0E04F
:1015A000F0E0CF01DF91CF910895CF93DF930097C3
:1015B00009F450C0EC0122971B821A82A0915507B2
:1015C000B0915607109709F140E050E0AC17BD0705
:1015D00008F1BB83AA83FE0121913191E20FF31F31
:1015E000AE17BF0779F48D919C911197280F391F81
:1015F0002E5F3F4F3983288312968D919C911397CC
:101600009B838A834115510571F4D0935607C0938B
:10161000550720C012968D919C911397AD010097AC
:1016200011F0DC01D3CFFA01D383C2832191319130
:10163000E20FF31FCE17DF0769F488819981280F25
:10164000391F2E5F3F4FFA01318320838A819B81AE
:1016500093838283DF91CF910895A0E0B0E0E3E32C
:10166000FBE00C948D446C01009721F4CB01F3DE78
:101670006C01BDC08EEF882E8FEF982E8C0C9D1CB8
:101680008601060F171F0815190508F4AEC0F401EE
:10169000A081B181A617B707B0F0A530B10508F455
:1016A000A6C0CD0104978617970708F4A0C012972B
:1016B000A61BB70BF801A193B193D4016D937C9352
:1016C000CF0173DF94C07B01EA1AFB0AEEEFFFEF54
:1016D000EE0EFF1E36016A0E7B1EC0915507D0919B
:1016E000560744245524AA24BB244AC0C615D7054E
:1016F000E1F5488159814E155F05B8F1CA0104979B
:101700008E159F05B0F41296A40FB51FF401B18396
:10171000A0832A813B814114510431F0D2011396F8
:101720003C932E93129763C030935607209355072E
:101730005EC08A819B81F80193838283425050402E
:101740004E195F09518340834114510431F0D20195
:1017500013961C930E93129704C010935607009390
:101760005507F4017183608342C088819981A8166E
:10177000B90608F45C012E018A819B819C01E90174
:10178000209709F0B3CF80915307909154078615A5
:101790009705E9F4A616B706D0F4209125073091F5
:1017A00026072115310541F42DB73EB78091210759
:1017B00090912207281B390B02171307B0F41093DE
:1017C000540700935307D4016D937C9310C0CB0151
:1017D00042DEEC01009749F0F40140815181B601ED
:1017E00015D0C601E2DE6E0102C0CC24DD24C601A4
:1017F000CDB7DEB7E0E10C94A944FB01DC0102C0E7
:1018000005900D9241505040D8F70895FB01DC013E
:1018100002C001900D9241505040D8F70895DC016C
:1018200001C06D9341505040E0F70895FB01DC0189
:101830008D91019080190110D9F3990B0895FC0145
:1018400001900020E9F7809590958E0F9F1F0895D5
:10185000A0E0B0E0EEE2FCE00C949B44FE01369682
:10186000619171918091590790915A07AF0104D00D
:101870002096E2E00C94B744ABE0B0E0E2E4FCE098
:101880000C948B443C012B015A01FC0117821682F7
:10189000838181FD03C06FEF7FEFB9C19AE0892E8C
:1018A0001E010894211C311CF3012381F20123FD48
:1018B000859123FF81912F01882309F4A5C18532E9
:1018C00039F423FD859123FF81912F01853221F485
:1018D00090E0B301B7D1E8CF982FFF24EE249924EC
:1018E000FFE1FF15D0F09B3269F09C3228F4903272
:1018F00059F0933291F40EC09D3249F0903369F45F
:1019000041E024C052E0F52A84E0F82A28C098E09B
:10191000F92A25C0E0E1FE2A22C0F7FC29C0892F60
:1019200080538A3070F4F6FE05C0989C902C1124E8
:10193000980E15C0E89CE02C1124E80EF0E2FF2A76
:101940000EC09E3229F4F6FC5FC140E4F42A07C0C1
:101950009C3619F450E8F52A02C0983649F4F20191
:1019600023FD959123FF91912F01992309F0B8CF81
:10197000892F8554833018F08052833038F444E046
:1019800050E0A40EB51E5FE359830FC0933631F0CB
:10199000933779F0933509F052C01FC0F50180816B
:1019A000898342E050E0A40EB51E610101E010E021
:1019B00011C0F501C080D180F6FC03C06FEF7FEF4E
:1019C00002C0692D70E042E050E0A40EB51EC601D1
:1019D0002ED18C015FE7F52213C0F501C080D180C4
:1019E000F6FC03C06FEF7FEF02C0692D70E042E0AC
:1019F00050E0A40EB51EC6010FD18C0150E8F52AA7
:101A0000F3FE06C018C080E290E0B3011BD1EA9457
:101A10008E2D90E008171907B0F30DC0F601F7FC02
:101A20008591F7FE81916F0190E0B3010BD1E11038
:101A3000EA94015010400115110581F7E2C0943677
:101A400011F0993661F5F7FE08C0F501208131816A
:101A50004281538184E090E00AC0F5018081918148
:101A60009C01442737FD4095542F82E090E0A80E5A
:101A7000B91E9FE6F92257FF09C050954095309551
:101A800021953F4F4F4F5F4FE0E8FE2ACA01B90151
:101A9000A1012AE030E002D1D82ED2183FC09537FC
:101AA00029F41F2D1F7E2AE030E01DC01F2D197F55
:101AB0009F3661F0903720F4983509F0A5C00FC02B
:101AC000903739F0983709F09FC004C028E030E023
:101AD0000AC0106114FD146020E130E004C014FD60
:101AE000166020E132E017FF08C0F50160817181C6
:101AF0008281938144E050E008C0F50180819181AA
:101B0000BC0180E090E042E050E0A40EB51EA101CF
:101B1000C5D0D82ED2188FE7F82EF122F6FE0BC0D2
:101B20005EEFF522D91438F4F4FE07C0F2FC05C0CC
:101B30008FEEF82202C01D2D01C0192DF4FE0DC03C
:101B4000FE01ED0DF11D8081803319F499EEF9222B
:101B500008C01F5FF2FE05C003C08F2D867809F014
:101B60001F5F0F2DF3FC13C0F0FE0EC01E1510F00A
:101B70009D2C0AC09D2C9E0C911A1E2D05C080E242
:101B800090E0B3015FD01F5F1E15C8F304C01E159F
:101B900010F4E11A01C0EE2404FF0EC080E390E0CF
:101BA000B30150D002FF1BC001FD03C088E790E0E5
:101BB0000EC088E590E00BC0802F867881F001FF91
:101BC00002C08BE201C080E2F7FC8DE290E0B3013D
:101BD00039D005C080E390E0B30134D09A94D91491
:101BE000C8F3DA94F101ED0DF11D808190E0B301AD
:101BF00029D0DD20B1F705C080E290E0B30122D00A
:101C0000EA94EE20C9F750CEF30166817781CB01CB
:101C10002B96E2E10C94A744FC01059061507040C2
:101C20000110D8F7809590958E0F9F1F0895FC01A5
:101C30006150704001900110D8F7809590958E0FFB
:101C40009F1F08950F931F93CF93DF938C01EB0198
:101C50008B8181FF1BC082FF0DC02E813F818C8153
:101C60009D812817390764F4E881F9810193F9838C
:101C7000E88306C0E885F985802F1995892B31F412
:101C80008E819F8101969F838E8302C00FEF1FEF8D
:101C9000C801DF91CF911F910F910895FA01AA27F2
:101CA000283051F1203181F1E8946F936E7F6E5F9F
:101CB0007F4F8F4F9F4FAF4FB1E03ED0B4E03CD04D
:101CC000670F781F891F9A1FA11D680F791F8A1F30
:101CD000911DA11D6A0F711D811D911DA11D20D097
:101CE00009F468943F912AE0269F11243019305D51
:101CF0003193DEF6CF010895462F4770405D419342
:101D0000B3E00FD0C9F7F6CF462F4F70405D4A338E
:101D100018F0495D31FD4052419302D0A9F7EACF56
:101D2000B4E0A6959795879577956795BA95C9F785
:101D300000976105710508959B01AC010A2E069478
:101D40005795479537952795BA95C9F7620F731F31
:101D5000841F951FA01D0895982F8091C00085FFB6
:101D6000FCCF9093C600089588E18093C100109243
:101D7000C50088E08093C4000895A2E0B0E0E3ECE1
:101D8000FEE00C949B442091530730915407CE0100
:101D900001962115310519F48D55974002C0821B1B
:101DA000930B9A83898389819A812296E2E00C942D
:101DB000B744D2DF80E090E00895DBD2D5DF89ED33
:101DC0009EE0909331078093300710923307109272
:101DD000320782E080932B07109235071092340768
:101DE00088E297E090935A0780935907C6DF00D0A6
:101DF0000F9220E032E0EDB7FEB732832183948367
:101E0000838326DD0F900F900F900F9080E090E07D
:101E10000E9429238C015CD0B0DF00D00F9229E012
:101E200032E0EDB7FEB7328321839483838310DDE4
:101E30000F900F900F900F9080E393E067ED71E0AB
:101E40000E94683FBC01C80140E00E94DB2295DF90
:101E500000D00F9222E132E0EDB7FEB7328321834A
:101E600094838383F5DC0F900F900F900F90C8013F
:101E70006BE172E040E050E020E030E00E945E2044
:101E80007CDF00D00F9221E232E0EDB7FEB7328363
:101E9000218394838383DCDCC0E0D0E00F900F903B
:101EA0000F900F90C8016AE272E040E050E020E03D
:101EB00030E00E945E2000D00F928FE292E0EDB7FA
:101EC000FEB792838183D483C383C2DC2196E6CF9D
:101ED000AF92BF92CF92DF92EF92FF920F931F9338
:101EE0005C018AE3C82E82E0D82EC6010E948523B9
:101EF0000E94F829F82EE92E62E472E046EF50E1E4
:101F00000E94CB2C8F2D9E2D6AE472E040EE50E1B2
:101F10000E94CB2C8F2D9E2D66E572E04BE750E1A1
:101F20000E94CB2C8F2D9E2D63E672E045E650E19A
:101F30000E94CB2C8F2D9E2D6EE672E04FE350E178
:101F40000E94CB2C8F2D9E2D6AE772E049E050E174
:101F50000E94CB2C80E892E00E9485230E94C12839
:101F60008C0160E070E080E090E00E949428AC0179
:101F70008F2D9E2DB8010E94932C86E892E00E943E
:101F800085230E94C1288C0161E070E080E090E030
:101F90000E949428AC018F2D9E2DB8010E94932C95
:101FA0008DE892E00E9485230E94C1288C0160E0A8
:101FB00070E080E090E00E949428AC018F2D9E2D6F
:101FC000B8010E94932C81E992E00E9485230E942F
:101FD000C1288C0161E070E080E090E00E949428CC
:101FE000AC018F2D9E2DB8010E94932CC6010E943A
:101FF00085230E94C128BC01C5014F2D5E2DB4D59B
:102000001F910F91FF90EF90DF90CF90BF90AF9016
:102010000895CF93DF93CB0160E070E00E948D24A0
:10202000EC0188818B3621F48B819C819C01E90134
:1020300088818936F1F400D000D086E992E0EDB7CE
:10204000FEB7928381838B819C81AD81BE81838326
:102050009483A583B683FCDB8DB79EB706960FB637
:10206000F8949EBF0FBE8DBF6B817C818D819E8158
:102070005ED18EE40E943F24DF91CF9108950F93AB
:102080001F93CF93DF93162F072F862F972F60E094
:1020900070E00E948D24EC01812F902F61E070E0B0
:1020A0000E948D24FC018881893639F4808189362B
:1020B00021F4638174818B81F2D18EE40E943F24EC
:1020C000DF91CF911F910F910895CB0160E070E0F7
:1020D0000E948D24FC018081893619F020E030E0D7
:1020E00003C08381A8D19C01B901882777FD809521
:1020F000982F0C9494280F931F93CF93DF93EB01A9
:10210000ED81FE818281938102970CF451C0CB0155
:1021100060E070E00E948D248C01CE0161E070E0EF
:102120000E948D24EC01F80180818B3621F483819B
:1021300094819C01890188818B3621F48B819C815B
:102140009C01E901F8018081893691F58881893601
:1021500079F500D000D081EA92E0EDB7FEB7928326
:102160008183F80183819481A581B681EDB7FEB7A3
:1021700083839483A583B6836BDB8AEA92E0EDB711
:10218000FEB7928381838B819C81AD81BE818383E5
:102190009483A583B6835CDB8DB79EB706960FB696
:1021A000F8949EBF0FBE8DBFF80183816B81A3D2CF
:1021B0008EE40E943F24DF91CF911F910F910895EB
:1021C000CB0160E070E00E948D24FC0180818936A3
:1021D00019F020E030E003C08381BFD29C01B90137
:1021E000882777FD8095982F0C9494280F931F9340
:1021F000CF93DF93162F072F862F972F60E070E085
:102200000E948D24EC01812F902F61E070E00E94EC
:102210008D24FC0188818B3621F48B819C819C016B
:10222000E90180818B3621F4838194819C01F9013D
:102230008881893631F48081893619F48B816381F4
:10224000E2D18EE40E943F24DF91CF911F910F9144
:1022500008951F920F920FB60F9211242F933F9360
:102260008F939F93AF93BF9380913A0790913B07D1
:10227000A0913C07B0913D0730913E070196A11D0A
:10228000B11D232F2D5F2D3720F02D570196A11D55
:10229000B11D20933E0780933A0790933B07A0938C
:1022A0003C07B0933D078091360790913707A09186
:1022B0003807B09139070196A11DB11D80933607EB
:1022C00090933707A0933807B0933907BF91AF9128
:1022D0009F918F913F912F910F900FBE0F901F9064
:1022E00018959FB7F89420913607309137074091A1
:1022F00038075091390786B5A89B06C08F3F21F05B
:102300002F5F3F4F4F4F5F4F9FBF542F432F322FB1
:102310002227280F311D411D511D82E0220F331F3E
:10232000441F551F8A95D1F7B901CA010895EF924C
:10233000FF920F931F93CF93DF937B018C01D1DF2B
:10234000EB010DC0CEDF6C1B7D0B685E7340D0F3DC
:102350000894E108F10801091109C851DC4FE114A2
:10236000F1040105110571F7CDB7DEB7E6E00C9475
:10237000B344789484B5826084BD84B5816084BDA3
:1023800085B5826085BD85B5816085BDEEE6F0E0EE
:10239000808181608083E1E8F0E01082808182604A
:1023A0008083808181608083E0E8F0E080818160CB
:1023B0008083E1EBF0E0808184608083E0EBF0E0FB
:1023C000808181608083E1E9F0E0808182608083A8
:1023D000808181608083E0E9F0E08081816080839A
:1023E000E1EAF0E080818260808380818160808387
:1023F000E0EAF0E0808181608083E1E2F1E08081C9
:1024000082608083808181608083E0E2F1E080816E
:1024100081608083EAE7F0E080818460808380814E
:1024200082608083808181608083808180688083F6
:102430001092C1000895382F863308F0365320914A
:102440007B00832F86958695869590E081709070AD
:1024500043E0880F991F4A95E1F7277F282B2093A7
:102460007B003770809127078295880F880F807CCA
:10247000832B80937C0080917A00806480937A0023
:1024800080917A0086FDFCCF209178004091790000
:10249000942F80E030E0282B392BC90108951F9339
:1024A000CF93DF93182FEB0161E0ADD0209709F4B3
:1024B000A0C0CF3FD10509F49FC0E12FF0E0EE515D
:1024C000FA4FE4918E2F90E0FC013197E131F10554
:1024D00008F08CC0EE58FF4F0C94C24484B580685D
:1024E00084BDC7BD8CC084B5806284BDC8BD87C0B3
:1024F00080918000806880938000D0938900C09391
:1025000088007DC080918000806280938000D0939D
:102510008B00C0938A0073C08091B0008068809364
:10252000B000C093B3006BC08091B0008062809314
:10253000B000C093B40063C0809190008068809325
:102540009000D0939900C093980059C0809190005A
:10255000806280939000D0939B00C0939A004FC0FC
:1025600080919000886080939000D0939D00C093EC
:102570009C0045C08091A00080688093A000D0930B
:10258000A900C093A8003BC08091A0008062809306
:10259000A000D093AB00C093AA0031C08091A000EE
:1025A00088608093A000D093AD00C093AC0027C09A
:1025B00080912001806880932001D0932901C093ED
:1025C00028011DC080912001806280932001D0935A
:1025D0002B01C0932A0113C0809120018860809351
:1025E0002001D0932D01C0932C0109C0C038D10522
:1025F0001CF4812F60E002C0812F61E07CD0DF916C
:10260000CF911F910895482F50E0CA0184569A4FE8
:10261000FC0124914A5A5A4FFA0184918823C1F04F
:10262000E82FF0E0EE0FFF1FE85FFA4FA591B4919D
:10263000662341F49FB7F8948C91209582238C9364
:102640009FBF08959FB7F8948C91822B8C939FBF66
:10265000089590E0FC013197E131F10508F04AC09E
:10266000ED57FF4F0C94C244809180008F7703C0D8
:10267000809180008F7D80938000089584B58F774E
:1026800002C084B58F7D84BD08958091B0008F779E
:1026900003C08091B0008F7D8093B0000895809139
:1026A00090008F7707C0809190008F7D03C080914C
:1026B0009000877F8093900008958091A0008F778D
:1026C00007C08091A0008F7D03C08091A000877F0C
:1026D0008093A0000895809120018F7703C080919E
:1026E00020018F7D80932001089580912001877FB4
:1026F000809320010895FF920F931F93F62E482F89
:1027000050E0CA018E519A4FFC012491CA018456AF
:102710009A4FFC0114914A5A5A4FFA01049100232E
:10272000C1F0222311F0822F94DFE02FF0E0EE0FB2
:10273000FF1FEE5DFA4FA591B4919FB7F894FF206B
:1027400021F48C911095812302C08C91812B8C9364
:102750009FBF1F910F91FF9008950F931F93482FD4
:1027600050E0CA018E519A4FFC012491CA0184564F
:102770009A4FFC0104914A5A5A4FFA0114911123BD
:1027800019F420E030E014C0222311F0822F61DF21
:10279000812F90E0880F991F845C9A4FFC01A591CE
:1027A000B4918C9120E030E0802311F021E030E002
:1027B000C9011F910F910895FB010380F481E02D61
:1027C000BA01A90119950895FC01828193810C94A5
:1027D0007927FC01828193810C94BB24A0E0B0E0B6
:1027E000E4EFF3E10C9491447C015B014A01DB01CD
:1027F00051960D911C9152970E94DC2C6C0182E63F
:10280000F6018083B482A382C5010E94E13FD60114
:1028100018961C921E92179716961C921E92159748
:10282000F801858196811A969C938E93199712963A
:102830001C921E9211970E949935D6011C969C936A
:102840008E931B97F70180819181B6010E947035AC
:1028500081149104A1F1C0E0D0E027C0C401BE0101
:102860000E948D247C01D50157968D919C9158979B
:10287000BE010E948D24FC018081F5010789108D25
:102880008B3669F0C801BE010E948D24B7010E94F9
:102890006A2AAC01C801BE010E944D2505C0C801CD
:1028A000BE01A7010E948E2A2196D4011596ED91B2
:1028B000FC91169782819381C817D9077CF2C601D3
:1028C000CDB7DEB7ECE00C94AD44A0E0B0E0EBE6B1
:1028D000F4E10C948B441C016B013A0129010E9424
:1028E000DC2C7C0182E6D7018C9318961C921E92F8
:1028F000179716961C921E92159712961C921E926E
:1029000011970E949935F70194878387D601139612
:10291000ED91FC91149701891289D7011496FC93CB
:10292000EE931397CF010E94E13FF80185819681D4
:10293000D7011A969C938E9319976114710409F428
:1029400088C0D3011596ED91FC91169782819381F1
:10295000D6011396ED91FC91149785809680881589
:1029600099050CF44C01C0E0D0E02EC0C301BE01BB
:102970000E948D245C01D6011396ED91FC91149771
:102980008789908DBE010E948D24FC018081D60133
:102990001396ED91FC9114978B3679F00789108D81
:1029A000C801BE010E948D24B5010E946A2AAC01B3
:1029B000C801BE010E944D2506C08789908DBE01C9
:1029C000A5010E948E2A2196C815D9057CF2D30153
:1029D0001596ED91FC91169722813381D6011396BD
:1029E000ED91FC91149785819681821793078CF560
:1029F0005901A81AB90A80E090E00E94D4288C01FD
:102A0000C0E0D0E013C0BE01680D791DC3010E9473
:102A10008D24FC0180818B3621F4838194819C017B
:102A2000F901C801BF010E9443282196CA15DB05A0
:102A300054F3D6011396ED91FC911497678170853C
:102A400085819681680F791F8789908DA8010E94E2
:102A50008E2A4114510409F1C0E0D0E014C0C20133
:102A6000BE010E948D24FC01D60113968D919C918C
:102A700014976581768143815481FC018789908D0B
:102A80000E94ED2A2196D2011596ED91FC911697A0
:102A900082819381C817D90714F3D6011396ED915B
:102AA000FC911497858585FF0DC00E946A28182F18
:102AB000092FB101A7010E94FB41212F302FC9012D
:102AC0009C0108C0F10180819181B7010E9470359D
:102AD00020E030E0C901CDB7DEB7E2E10C94A744B5
:102AE000A0E0B0E0E6E7F5E10C9493446C01EB0163
:102AF0008A0159014115510511F07A0107C080E0A2
:102B000090E00E94D4287C010E94E13F4D815E81CB
:102B1000C70160E070E00E941928EB81FC81808190
:102B2000863631F4C601BF01A7019501CEDE0AC089
:102B3000833419F0C0E0D0E006C0C601BF01A70190
:102B400095013ADEEC010115110519F4C7010E9447
:102B5000F53FCE01CDB7DEB7EAE00C94AF44FC01FF
:102B6000828193810C946227FC01828193810C9471
:102B7000C02AA4E0B0E0EFEBF5E10C948B441C011B
:102B8000DC018D919C910E946F343C01FC014380DB
:102B90005480D2018C91833609F049C3D2015196F9
:102BA000ED91FC91529743815481F3012781308547
:102BB000818592852817390714F00C943520FA0185
:102BC000E20FF31F10812F5F3F4FD30118963C9304
:102BD0002E9317971F3509F400C2103680F5143470
:102BE00009F4D6C11534B0F4133009F46EC11430B1
:102BF00038F4113009F43BC1123008F049C130C13A
:102C0000153009F49AC1153008F48BC11930D9F583
:102C10000C9459201635D9F1173548F4103509F4BC
:102C200030C1133509F443C0163469F5D6C11735E0
:102C300009F423C1812F8A55843028F5CEC11F376E
:102C400080F41C3708F0C9C1153730F4143608F089
:102C5000C4C1812F815614C0812F8857833098F4C6
:102C6000BCC1103940F41C3808F0B7C1812F82581C
:102C7000893048F4B2C1103909F49CC1812F8259BE
:102C8000823008F4AAC1AA24BB246501B8C12F5F11
:102C90003F4FF30130872783838594850E94153544
:102CA0008C010E94E13F0E9445410C945420D301C5
:102CB0001B968D919C911C970E941535182F092FFA
:102CC000D3011396ED91FC911497258536854785A0
:102CD000508931FF16C0F101808191810E94153524
:102CE000D3011396ED91FC91149785859685A78560
:102CF000B08991609D7F85879687A787B08B0C945C
:102D0000592030FF6BC0F101808191810E941535FF
:102D1000D3011B968D919C911C970E9415358C01B7
:102D20000E949E296C0183EB92E00E9485230E9401
:102D3000C128F82EE92E0E94E13FD8011396ED91AB
:102D4000FC9114978789908D6F2D7E2D0E94792795
:102D50005C01D8011396ED91FC9114978789908DB1
:102D60006F2D7E2D40E050E00E94ED2A8F2D9E2D8C
:102D70000E94F53FC5010E94E13FF10180819181F0
:102D80000E948635882359F4D1018D919C910E942F
:102D90006F34FC0183859485B6010E9470358EEBFB
:102DA00092E00E9485230E94C128F82EE92E0E94FD
:102DB000E13FC1016F2D7E2DA601950100E010E0DD
:102DC0000E94B1208C010E94E13FC8010E94F53FA2
:102DD0008F2D9E2D0E94F53FC5011BC0D1016D9125
:102DE0007C9127FF1AC0CB010E941535F201838127
:102DF00094810E9485230E94C128182F092FC101A8
:102E0000612F702FACDE812F902F0E94E13F812F28
:102E1000902F0E94F53F0C945920CB010E9415354C
:102E2000D1018D919C910E948635882369F4F1012E
:102E3000808191810E946F34DC011B968D919C9161
:102E40001C97612F702FB2C0812F902F0E94E13FFD
:102E50000E944541812F902F9C0189010C945420A0
:102E6000F30181859285908787830C945920D30143
:102E70001B968D919C911C9707C0F10180819181D7
:102E800003C0D1018D919C910E9415350C9459205D
:102E9000F301838594850E946F348C01D3011B96C6
:102EA0008D919C911C970E948834BC01F30183850D
:102EB00094850E94BA34D3011B968D919C911C97E6
:102EC000B8010E94CE340C945920F3018385948577
:102ED0000E946F348C01D3011B968D919C911C979D
:102EE0000E9488347C01F301838594850E94A1347B
:102EF0006C01D3011B968D919C911C97B7010E9488
:102F0000BA34F30183859485B6010E94CE34D3018F
:102F10001B968D919C911C97B8010E94E2340C94F1
:102F20005920F301838594850E946F34BC01D3013D
:102F30001B968D919C911C9739C0F30183859485D4
:102F40000E946F348C01D3011B968D919C911C972C
:102F50000E9488347C01F3018385948562E070E0EF
:102F60000E944135D3011B968D919C911C97B8010D
:102F70000E94BA34C8010E94E13FF3018385948521
:102F8000B7010E94CE34C7010E94E13F0C94592042
:102F9000D3011B968D919C911C970E941535B10110
:102FA0000E941544BC01F301838594850E9470350D
:102FB0000C945920FA01E20FF31F818162810E9473
:102FC0003724D30117968D919C91189702961896E5
:102FD0009C938E9317970C945920FA01E20FF31FDC
:102FE000808161810E9437245C01CC24B7FCC094AD
:102FF000DC2CF301878190850296908787831F35AB
:1030000009F470C0103660F51C3309F491C01D330B
:10301000A8F41E3168F4133108F064C01A3008F4C3
:1030200047C01D3008F447C01F3009F041C043C0FD
:10303000163309F47DC01633D8F154C0103548F466
:103040001B3408F04FC0143408F44CC0153481F51B
:1030500032C01A3581F11C3571F1143549F52BC098
:10306000143790F4123738F51D3638F41B36D0F586
:10307000113609F11A36E1F41EC01D36E1F0812F38
:103080008F568230A8F417C01938A9F01A3838F4CE
:10309000143889F0163879F01D3751F40CC0133903
:1030A00028F4113940F41F3819F405C01339D1F050
:1030B0008824992414C0D3011B968D919C911C9750
:1030C0000E9415354C01FC0180818B3641F4D401FE
:1030D00013968C91139714969C919C0149011C8224
:1030E0001B8223C0F301838594850E9415354C0112
:1030F000D3011B968D919C911C970E9415359C8342
:103100008B83F40180818B3621F4838194819C012F
:103110004901AB81BC818C918B3639F4EB81FC8108
:10312000838194819C013C832B83EE24FF2434C053
:10313000D3011B968D919C911C970E9415354C01D3
:10314000F301838594850E9415359C838B83D3017D
:103150001B968D919C911C970E9415357C01F40162
:1031600080818B3621F4838194819C014901AB815C
:10317000BC818C918B3641F413968C9113971496E5
:103180009C919C013C832B83F70180818B3621F439
:10319000838194819C017901812F90E0FC013A9711
:1031A000EA38F10508F055C7EC56FF4F0C94C244BD
:1031B00000E010E08824992475C6882499246CC600
:1031C000D3011B968D919C911C970E9415358C0103
:1031D000FC0180818B3621F4838194819C018901DB
:1031E000F2E0AF16B104C104D10494F0D3011B96F0
:1031F0008D919C911C970E941535B2E0AB16B104DD
:10320000C104D10429F0F301838594850E9415350A
:10321000D1011896ED91FC911997309719F0C101E1
:10322000B80119958EE40E943F240E94E13F8EE48C
:103230000E943F2438C785E199E30E94872918C678
:10324000D3011B968D919C911C970E946F34FC01B9
:103250008081823519F0E0E0F0E009C0F301838558
:1032600094850E946F34B1010E947C43FC018081EF
:10327000D3011B962D913C911C978E3449F4C901C2
:103280000E941535F301878190858A0D9B1D58C2D8
:10329000C90188C4D20155968D919C915697B5016C
:1032A0000E948D24FC0180818B3621F483819481DE
:1032B0009C01F901C401BF010E942F29BC010097A4
:1032C00009F0D7C5C6C6D20155968D919C915697E7
:1032D000B5010E948D24FC0180818B3621F483810D
:1032E00094819C01F901C401BF014B815C810E9462
:1032F000392BAFC6F20185899689B5010E948D24CC
:103300007C01DC018C918B3639F413968C911397E8
:1033100014969C919C017901C101B70155DABC0159
:1033200080913F07909140076817790709F0A1C580
:10333000D1011696ED91FC911797309709F489C643
:10334000D70113966D917C911497C10119958C0149
:10335000009709F47EC6F30183859485B8010E9425
:103360007035C101B701A801FFDBC101B80140E020
:1033700050E020E030E032DAC80169C6D20155964B
:103380008D919C915697B5010E948D24FC018081FE
:103390008B3621F4838194819C01F901D4018C91B5
:1033A0008336C1F46381748155968D919C915697B3
:1033B0000E941B26BC01BFEF8F3F9B0709F449C643
:1033C000F401858996890E948D24BC01009709F03B
:1033D00043C53FC6863209F03CC6F3018385948518
:1033E00076C1D40113968D919C9114970E948523E8
:1033F0000E94C128BC01C101A401B6DB2AC6850117
:103400001070BB27D7FCBA95AD2D9C2D8B2DAFEF3F
:10341000AA2EB12CA822B9220115110519F4CC2429
:10342000DD241EC0C8010E94D4286C01EE24FF24B4
:10343000F301838594850E941535FC0180818B36CC
:1034400021F4838194819C01F901C601B701AF0188
:103450000E944D250894E11CF11CE016F10644F38E
:10346000A114B10419F4442455241FC080E090E055
:103470000E94D4282C01EE24FF24D3011B968D91A9
:103480009C911C970E9415358C01F30183859485CE
:103490000E941535BC01C201A8010E94ED2A0894C2
:1034A000E11CF11CEA14FB0444F3C401B601A201BF
:1034B00020E030E00E94412BBC01D3011B968D918E
:1034C0009C911C970E947035C6010E94E13FC20189
:1034D0000E94E13FC6010E94F53FC201B8C58501C7
:1034E0001070BB27D7FCBA95AD2D9C2D8B2DEFEF1F
:1034F000AE2EB12CA822B922F301838594850E94B7
:1035000015352C010115110519F4CC24DD2420C03A
:10351000C8010E94D4286C01EE24FF24D3011B961D
:103520008D919C911C970E941535FC0180818B36F2
:1035300021F4838194819C01F901C601B701AF0197
:103540000E944D250894E11CF11CE016F10634F3AD
:10355000A114B10419F41C821B8221C080E090E008
:103560000E94D4289C838B83EE24FF24F30183855F
:1035700094850E9415358C01D3011B968D919C91E9
:103580001C970E941535BC018B819C81A8010E946B
:10359000ED2A0894E11CF11CEA14FB043CF3C4017D
:1035A000B6014B815C8192010E94412BBC01F30169
:1035B000838594850E947035C6010E94E13F8B810E
:1035C0009C810E94E13FC6010E94F53F8B819C8156
:1035D0003EC5D4018C91863409F03BC512C0D4019C
:1035E0008C91843509F035C50CC0D30117968D91A7
:1035F0009C9118978A0D9B1D18969C938E931797F4
:1036000028C5F301B086A78224C5D4018C918634E5
:1036100009F01FC5F30183859485B4010E947035BC
:10362000D3011896BC92AE92179713C5F40180810E
:10363000843509F00EC5D3011896BC92AE92179747
:1036400042C0F3018385948561E00E942C350E947D
:103650004541FFC40E94DC2C8C01D30117968D914B
:103660009C911897F8019683858354824382C20106
:103670000E94E13FD30117968D919C911897F80114
:103680009087878317968D919C9118978A0D9B1D23
:10369000928781871282118282E680830E94993507
:1036A000D8011C969C938E931B97F1018081918188
:1036B000B8010E947035D80119968D919C911A9786
:1036C000F301908787831B968D919C911C97B40181
:1036D000D3C30E94DC2C8C01D30117968D919C9151
:1036E0001897F8019683858354824382C2010E9411
:1036F000E13FD30117968D919C911897F80190871F
:10370000878317968D919C9118978A0D9B1D9287A0
:1037100081871282118282E680830E949935D801C6
:103720001C969C938E931B97F10180819181B80127
:103730000E947035D80119968D919C911A97F301CA
:103740009087878386C480E090E00E94D42883C35A
:1037500080E090E00E94D4288BC380E090E00E943B
:10376000D4287C018824992424C0D3011B960D9170
:103770001C911C97C8010E94653461E070E06A19D1
:103780007B09680D791D680F791FC8010E944334B9
:10379000FC018081823531F4CF01B101A7010E9483
:1037A000D14304C0C701BF010E9443280894811C73
:1037B000911CC401AA2797FDA095BA2F8A159B05D5
:1037C000AC05BD0594F200E010E005C0C9010E94FF
:1037D00015350F5F1F4FC801AA2797FDA095BA2F77
:1037E000F301238534858A159B05AC05BD0574F36B
:1037F000C9011EC2D2015596ED91FC9156970580E4
:10380000F681E02DC501880F991F0190F081E02D10
:10381000E80FF91FE080F180F70180818B3611F409
:10382000E580F680C101B7010E94E4138C0180910C
:103830003F07909140070817190709F055C0CC249D
:10384000DD2449C0D10112968D919C911397B60148
:103850000E94BB245C01FC0180818336C9F5D7013D
:1038600013966D917C911497858996890E941B26E9
:10387000BC01BFEF8F3F9B0731F0F5018589968929
:103880000E948D248C0180913F079091400708177A
:10389000190751F5D70113966D917C911497F50195
:1038A0008789908D0E941B26BC01FFEF8F3F9F07E9
:1038B00041F0D50157968D919C9158970E948D2487
:1038C0008C0180913F07909140070817190761F418
:1038D0000894C11CD11CF101828193810E94722441
:1038E000C816D9060CF4AECFD3011B968D919C91CE
:1038F0001C97B801C1C2D2015596ED91FC91569723
:103900000580F681E02DC501880F991F0190F08197
:10391000E02DE80FF91F00811181F80180818B36BD
:1039200011F405811681EE24FF243AC0D1011296CC
:103930008D919C911397B7010E94BB246C01FC01EF
:103940008081833651F5D80113966D917C9114973F
:10395000858996890E941B26BC01BFEF8F3F9B077C
:1039600021F0F6018589968914C0D80113966D91CE
:103970007C911497F6018789908D0E941B26BC01CB
:10398000FFEF8F3F9F0749F0D60157968D919C918D
:103990005897A4010E948E2A5CC30894E11CF11C74
:1039A000F101828193819ED7E816F9060CF4BECF0F
:1039B00050C3D2015596ED91FC9156970580F68142
:1039C000E02DC501880F991F0190F081E02DE80FCF
:1039D000F91F00811181F80180818B3611F4058176
:1039E0001681EE24FF243BC0D10112968D919C914B
:1039F0001397B701C0D76C01FC018081833661F554
:103A0000D80113966D917C911497858996890E94AF
:103A10001B26BC01BFEF8F3F9B0731F0F601858964
:103A2000968940E050E0B6CFD80113966D917C9115
:103A30001497F6018789908D0E941B26BC01FFEF29
:103A40008F3F9F0749F0D60157968D919C915897CB
:103A500040E050E00E948E2A0894E11CF11CF10124
:103A6000828193813FD7E816F9060CF4BDCFF1C2ED
:103A7000D20155968D919C91569779C0F201838918
:103A80009489B5014AD7E7C1F2018789908D6FC04B
:103A9000F201838D948D26D7AA2797FDA095BA2F82
:103AA000F201E38CF48CA816B906CA06DB06BCF456
:103AB000C701B50132D7FC018081D2015B96ED9040
:103AC000FC905C978B3649F0C701B50126D7B4014D
:103AD0000E946A2AAC01C7019EC0C701EFC0F20173
:103AE000018D128D6501C701FDD6B501681B790BEB
:103AF000C80113D7FC018081D2015B96ED90FC9048
:103B00005C978B36B9F0C701EDD67C01F201018DCF
:103B1000128D838D948DE6D6B501681B790BC80193
:103B2000FCD6B4010E946A2AAC01CE18DF08C80195
:103B3000B601FAC0D20159960D911C915A97C7014E
:103B4000D1D6C81AD90AC801B60123CFF201838D94
:103B5000948DC8D6AA2797FDA095BA2FF201E38CC1
:103B6000F48CA816B906CA06DB061CF4C701B50119
:103B70000BC0D20159960D911C915A97C701B2D62C
:103B8000B501681B790BC801C8D6FC0180818B3652
:103B900021F4838194819C01F901D3011B968D91BD
:103BA0009C911C97BF0168C1F201838D948D9AD6B8
:103BB000AA2797FDA095BA2FF201E38CF48CA816E2
:103BC000B906CA06DB061CF4C701B5010BC0D20159
:103BD00059960D911C915A97C70184D6B501681B5F
:103BE000790BC8019AD644C1D20155968D919C910A
:103BF0005697B50192D6FC018081F201058916899C
:103C00008B3609F45AC0C801B50187D6B4010E94A9
:103C10006A2AAC01C801B50187C0C701B4014B8154
:103C20005C810E94ED2AD3011B968D919C911C977B
:103C3000B70122C1662777276A197B09F3018385BB
:103C400094850E944334FC0180818B3621F483816A
:103C500094819C01F901CF01B4014B815C816AC060
:103C6000662777276A197B09D3011B968D919C9152
:103C70001C9707C0662777276A197B09F30183859C
:103C800094850E944334FC0180818B3621F483812A
:103C900094819C01F901CF01B4010E944328D9C14C
:103CA000D20157968D919C915897B50136D6FC015B
:103CB0008081F2010789108DA3CFC801B50169CEBB
:103CC000D20155968D919C91569703C0F201878938
:103CD000908DB50111C0D4018C91893619F060E046
:103CE00070E003C0F40163817481AB81BC818C916D
:103CF000883209F0AEC1CD018ED6ABC1F4019081FE
:103D0000993619F060E070E005C0D40113966D910A
:103D10007C911497EB81FC818081883209F099C1F4
:103D2000993621F4CF01A701B8D693C18B819C812C
:103D3000B401A7010E94ED2A8CC1D4019C9199364F
:103D400019F060E070E003C0F40163817481AB811D
:103D5000BC818C91883209F07CC1993611F4CD0177
:103D600041CF8B819C81B4010E94792781C085015C
:103D700015C0D4018C91853789F4D4011396ED9147
:103D8000FC911497E00FF11F8081A1D40E94C128FB
:103D9000BC01F301838594850E9470350150104069
:103DA00017FFE7CF56C1D4018C91893609F051C174
:103DB00013966D917D918D919C91169743C0D4017E
:103DC0008C91893609F045C113966D917D918D9145
:103DD0009C91169790958095709561957F4F8F4F28
:103DE0009F4F30C0D4018C91893661F413968D9128
:103DF0009D910D90BC91A02D0097A105B10581F07A
:103E000086E40FC0843511F486E403C0863419F4C7
:103E100084E535D520C08E3419F0803309F019C1FE
:103E200084E52DD525C0D4018C91893609F011C1C6
:103E300013966D917D918D919C91169760957095DB
:103E4000809590950E94942813C0C4016B817C8159
:103E5000412F0E94FF3ABC01D3011B968D919C918A
:103E60001C970AC0C4016B817C814A2D0E948A394B
:103E7000BC01F301838594850E947035EAC0D301AB
:103E80001B968D919C911C970E9415354C011E38F4
:103E900019F000E010E006C0F301838594850E94CC
:103EA00015358C014FEF442E512C4A205B20BB2747
:103EB000D7FCBA95AD2D9C2D8B2D9C0130703A838B
:103EC00029834114510431F40115110519F4CC244E
:103ED000DD2407C080E090E00E94D4286C010E949D
:103EE000E13F89819A81892B31F48114910419F47D
:103EF000EE24FF2427C080E090E00E94D4287C01BB
:103F00005C010E94E13F81149104E1F01C821B825C
:103F10000DC0C4016B817C8100D5BC01C5010E942C
:103F20004328AB81BC811196BC83AB83D401159629
:103F3000ED91FC91169782819381EB81FC81E817CA
:103F4000F9073CF30115110519F0AA24BB240DC093
:103F5000AA24BB242CC0C801B501DFD4BC01C60112
:103F60000E9443280894A11CB11CD8011596ED911C
:103F7000FC91169782819381A816B90664F3E8CF65
:103F8000F301838594850E9415358C01D3011B961E
:103F90008D919C911C970E941535B8010E94712C3F
:103FA000BC01C7010E9443280894A11CB11CE981EF
:103FB000FA81AE16BF0624F3AA24BB2419C0D3018C
:103FC0001B960D911C911C97C8010E946534B50188
:103FD000641975096F5F7F4F680F791FC8010E94D0
:103FE0004334BC01C6010E9443280894A11CB11CA3
:103FF000A414B50424F300E010E005C0C9010E9438
:1040000015350F5F1F4FF301238534850415150502
:10401000ACF3C9010E941535FC0180818B3621F477
:10402000838194819C01F901C101BF01A60197011F
:1040300049D2BC01009739F0D3011B968D919C9118
:104040001C970E947035C6010E94F53FC7010E946F
:10405000F53F0E944541D1011A96ED91FC911B97C5
:10406000309749F1C101199526C0F30183859485E4
:104070000E948635D1016D917C91882319F0CB0186
:104080000C944417CB010E941535F3018385948568
:104090000E941535182F092F0E94E13F0E944541CB
:1040A000212F302FC9018C01C8012496E2E10C9424
:1040B000A7440E94454100E010E0F6CFA0E0B0E048
:1040C000E4E6F0E20C9491447C016B015A01490151
:1040D00000913F0710914007C0E0D0E01CC0C7012D
:1040E000BE010E94E913FC018081833661F4C7019F
:1040F000BE010E94E913DC0155968D919C91569763
:10410000B60153D58C0180913F0790914007081765
:10411000190771F42196D7011296ED91FC9113972E
:104120000580F681E02D82819381C817D907BCF202
:10413000F8018081863619F020E030E00CC0C7011C
:10414000B801A50194010E946514C7010E94B91528
:104150009C010097D1F3C901CDB7DEB7ECE00C9418
:10416000AD44A0E0B0E0E7EBF0E20C948F447C01BA
:10417000742E652E69014801842F952FE1D6EC013C
:10418000009709F471C080913F0790914007C817CC
:10419000D90709F469C0C114D10429F0C816D90699
:1041A00011F0560106C080E090E0FED75C010E944D
:1041B000E13FC50160E070E0472D562D3AD7D701A9
:1041C000ED91FC910190F081E02D028113818881B5
:1041D000863681F5C701BE01A50194010E946514D0
:1041E00020E030E00BC0C7010E94B915D701ED9166
:1041F000FC910190F081E02D22813381892B19F40B
:104200000217130781F7F701808191810E946F34B3
:10421000DC011B968D919C911C970E9415358C0199
:10422000EB81FC818789908D60E070E040E050E098
:1042300034D40CC0833419F000E010E007C0C7018B
:10424000BE01A50194010E94DC138C01C114D104AC
:1042500039F080913F0790914007C816D90631F494
:10426000C5010E94F53F02C000E010E0C801CDB7D3
:10427000DEB7EEE00C94AB444F925F927F928F9248
:104280009F92AF92BF92CF92DF92EF92FF920F93E5
:104290001F93CF93DF935C016B014A012901DB017E
:1042A0001396ED91FC91149701891289011511055E
:1042B000C9F10E94DC2CEC0182E68883F60183813F
:1042C00094819C838B830E94E13F18861F821E820B
:1042D0001D82D80115968D919C9116979A87898792
:1042E0001A8219820E9499359C878B87F5018081FB
:1042F0009181BE010E9470358B859C85B6010E941C
:1043000070358114910409F443C0D6011396ED91E0
:10431000FC9114978789908D60E070E0A4010E9461
:104320008E2A36C0CB010E949E29EC01F5018081C6
:1043300091810E948635882359F4D5018D919C91F5
:104340000E946F34FC0183859485BE010E94703504
:104350008EEB92E0DAD115D7F82EE92EC5016F2D3C
:104360007E2DAE01940100E010E0FBDE8C010E9486
:10437000E13FC8010E94F53F8F2D9E2D0E94E13F35
:104380008F2D9E2D0E94F53F0E944541C0E0D0E058
:10439000D60115967C9015971696DC90072D1D2D4D
:1043A000EE24FF2426C0C701880F991FD801159657
:1043B000ED91FC9116970190F081E02DE80FF91F27
:1043C00020813181D9011396ED91FC911497858557
:1043D0009685A785B08992609E7F85879687A787F7
:1043E000B08BC501B901A401920146DF0894E11C1C
:1043F000F11C872D9D2D76D2E816F906A4F2CE0188
:10440000DF91CF911F910F91FF90EF90DF90CF90B0
:10441000BF90AF909F908F907F905F904F90089546
:10442000A0E0B0E0E6E1F2E20C9495448C01EB01EF
:104430007A01690161157105E9F188818336D9F046
:10444000843638F48334F1F08D3441F0863291F5BE
:104450000CC0863639F1853769F51BC0C801BE012D
:10446000A70196010E94701523C0C801BE01A701D3
:10447000960102DF1FC0C801BE01A70196010E947C
:10448000EE1318C0C801BE01A70196010E94DC13FB
:104490000FC06B817C81C8010E94E413009711F06A
:1044A000EC01CBCFC801BE01A70196010E946514A3
:1044B0009C0102C020E030E0C901CDB7DEB7E8E0E2
:1044C0000C94B144A0E0B0E0E8E6F2E20C9495442C
:1044D0007C01FB01EA016901309761F18081853738
:1044E00069F4C701BF010E94E413FC0180913F07FA
:1044F00090914007E817F90779F71CC0833439F425
:10450000C701BF01AE0196018BDF9C0115C0CF0131
:104510000E94E02C8C010E94E13FC701B801AE016E
:1045200096017EDFF82EE92EC8010E94F53F2F2D5F
:104530003E2D02C020E030E0C901CDB7DEB7E8E093
:104540000C94B144A0E0B0E0E8EAF2E20C949344A9
:104550007C01EB016A0159018881833621F08EE4E8
:104560008ED19C0122C087EC92E0CFD00AD6182FC2
:10457000092F0E94E13F80ED92E0C7D002D6AC0146
:104580008D899E89612F702F0E94ED2A812F902F97
:104590000E94F53FC701BE01A601950141DFC70199
:1045A0000E94B9159C010097D1F3C901CDB7DEB7C0
:1045B000EAE00C94AF44A0E0B0E0E1EEF2E20C944B
:1045C00094447C018B01B42ECB010E94FD3C8823D6
:1045D000C1F5C8010E94243D6C567C408D409A4034
:1045E00081F5C8010E94243DC8010E94723DEC0182
:1045F00080ED92E08AD0C5D5D82EC92EC7016D2D89
:104600007C2DAE010E94B415C701BE0140E050E010
:1046100020E030E097DF009711F00E94F53FBB20CB
:1046200061F0CE010E94F53FC7016D2D7C2D0E94E7
:10463000AF15C8010E940A3D04C0C8010E940A3D8E
:1046400002C0C0E0D0E0CE01CDB7DEB7E9E00C9407
:10465000B0440F931F93CF93DF938C0182E190E0DE
:104660000E942B0AEC011D861C861F861E860E9456
:1046700099359983888380E090E096D59B838A83DF
:104680000E94E13F198A188A1D821C8219861886A9
:104690001B861A861F821E82CE010E945E41D3D6DF
:1046A0000E94993FCE010E9452370115110549F031
:1046B00080ED92E02AD065D5BC01CE01A8010E9410
:1046C000B415CE01DF91CF911F910F910895FF9204
:1046D0000F931F93182F82E090E00E942B0A082F5F
:1046E000F92E60E070E042E050E00E940F0C802F55
:1046F0009F2D612F70E041E050E00E940F0C802F51
:104700009F2D1F910F91FF900895EF92FF920F93AD
:104710001F938C010E941F0C01960E942B0AF82EF9
:10472000E92EC8010E941F0CAC014F5F5F4F8F2D17
:104730009E2D60E070E00E940F0CC8010E941F0CCB
:10474000AC018F2D9E2DB8010E94060C8F2D9E2D41
:104750001F910F91FF90EF900895A0E0B0E0E3EB80
:10476000F3E20C9495447C016B01009741F46115D0
:10477000710519F4C0E0D0E03CC0CB0103C0611565
:10478000710519F4C2DFEC0134C00E941F0C8C01CA
:10479000C6010E941F0C080F191FC80101960E9434
:1047A0002B0AEC01C7010E941F0C8C01C6010E945C
:1047B0001F0C080F191F0F5F1F4FCE0160E070E044
:1047C000A8010E940F0CC7010E941F0CAC01CE0172
:1047D000B7010E94060CC7010E941F0C8C01C60184
:1047E0000E941F0CAC01CE01800F911FB6010E94E8
:1047F000060CCE01CDB7DEB7E8E00C94B1446F9261
:104800007F928F929F92AF92BF92CF92DF92EF9260
:10481000FF920F931F933B014C0159016A019C01C8
:10482000EE24FF2487010BC0C9019301A4010E945B
:1048300051449C010894E11CF11C011D111DD6017D
:10484000C5010197A109B109E816F9060A071B0776
:104850005CF3C9011F910F91FF90EF90DF90CF9013
:10486000BF90AF909F908F907F906F900895562F3C
:1048700040E0282F30E0242B352BC90108958634E1
:10488000E9F0873438F4803379F08F3309F18E32D0
:1048900021F519C08E3419F08435F9F40AC08091DD
:1048A000410790914207089580913F0790914007FA
:1048B000089580914307909144070895809145079A
:1048C0009091460708958091470790914807089571
:1048D0008091490790914A070895809149079091E6
:1048E0004A070895FC01009759F08081883241F40D
:1048F0000580F681E02D309719F02281338102C0C6
:1049000020E030E0C9010895FC01009729F0808182
:10491000883211F41482138208950F931F93CF935A
:10492000DF93FC01EB01009769F08081883251F43C
:1049300005811681D80112968D919C911397681765
:1049400079072CF080913F07909140070FC077FFC7
:1049500004C0CF01C7DFC80FD91FCC0FDD1FD8019E
:10496000ED91FC91EC0FFD1F80819181DF91CF9142
:104970001F910F910895DC01009781F08C9188328E
:1049800069F41596ED91FC911697309739F0828174
:1049900093816817790714F477FF05C080913F076A
:1049A000909140070895CD01B8DFFC018381948187
:1049B0000895DC01009719F08C91883229F08091DC
:1049C0003F0790914007089513962D913C911497BD
:1049D0001596ED91FC9116978281938128173907DE
:1049E0008CF4C901019614969C938E9313970197AA
:1049F000880F991F0190F081E02DE80FF91F808149
:104A00009181089514961C921E92139780913F07EE
:104A1000909140070895EF92FF920F931F93CF93C9
:104A2000DF938C01EB01009799F1DC018C918832C6
:104A300079F51596ED90FC901697F7018281938198
:104A4000681779072CF577FF04C0C8014BDFC80F42
:104A5000D91FCC0FDD1FD701ED91FC91EC0FFD1F8D
:104A6000808191810097A1F00E94F53F80913F07DE
:104A700090914007D8011596ED91FC911697019001
:104A8000F081E02DEC0FFD1F918380830E94E13FB8
:104A9000CDB7DEB7E6E00C94B344EF92FF920F93EC
:104AA0001F93CF93DF93FC01EB018A010097B9F1CB
:104AB00080818832A1F5E580F680D70112968D912C
:104AC0009C9113976817790754F577FF04C0CF01BD
:104AD00009DFC80FD91FCC0FDD1FD701ED91FC9165
:104AE000EC0FFD1FC081D1810115110559F0809196
:104AF0003F07909140070817190721F011830083A1
:104B0000C80106C080913F07909140079183808340
:104B10000E94E13F209719F0CE010E94F53FCDB7EA
:104B2000DEB7E6E00C94B344EF92FF920F931F932D
:104B3000CF93DF937C01009799F1DC018C9188324F
:104B400079F515968D919C911697892B49F100E086
:104B500010E01CC0C801880F991F0190F081E02D62
:104B6000E80FF91FC081D181209771F088818B36C1
:104B700059F48D819E81918380838D819E810E94D5
:104B8000E13FCE010E94F53F0F5F1F4FD701159601
:104B9000ED91FC9116978281938108171907D4F241
:104BA000CDB7DEB7E6E00C94B344A0E0B0E0EBEDA7
:104BB000F5E20C949544FC016B01009791F1808122
:104BC000883279F5E580F680E114F10451F1C0E016
:104BD000D0E021C0CE01880F991FD701ED91FC9143
:104BE000E80FF91F0190F081E02D309799F0808156
:104BF0008B3681F4A581B681038114818C91853730
:104C000049F413968D919C911497B6010E94160C4D
:104C1000892B59F02196F70182819381C817D90712
:104C2000CCF200913F0710914007C801CDB7DEB725
:104C3000E8E00C94B144EF92FF920F931F93CF934F
:104C4000DF93FC017B01009799F18081883281F527
:104C5000058116810115110559F1C0E0D0E022C08F
:104C6000CE01880F991FD801ED91FC91E80FF91F33
:104C70000190F081E02D3097A1F0DF0180818B362B
:104C800021F4858196819C01D9018C91853749F465
:104C900013968D919C911497B7010E94160C892B45
:104CA00049F02196F80182819381C817D907C4F28F
:104CB000CFEFDFEFCE01CDB7DEB7E6E00C94B34423
:104CC000FF920F931F93CF93DF938C01EB0100971B
:104CD00029F460E0CD2B09F064C064C06115710552
:104CE00009F45FC0FC0190818881981709F059C0D0
:104CF0009736D9F1983628F4903361F09E3441F418
:104D000009C09B3649F0953709F442C09936E9F05D
:104D10006FEF48C060E046C06D817E81F8018581FB
:104D20009681CEDF882319F480E090E038C06B8153
:104D30007C81F80183819481C3DF90E0882309F4AA
:104D400091E081E09827892F2AC060E0F801238153
:104D50003481458156818B819C81AD81BE8128172C
:104D600039074A075B07E9F41DC0FF24F801638196
:104D70007481858196812B813C814D815E810E9469
:104D80007906882311F4FF24F39461E06F250AC0AB
:104D90006B817C81F801838194810E94160C682FBD
:104DA00001C061E0862FCDB7DEB7E5E00C94B444D6
:104DB000EF92FF920F931F93CF93DF938C017B01B0
:104DC000009799F1DC018C91883279F515968D91D7
:104DD0009C911697892B49F16115710531F1C0E05D
:104DE000D0E019C0CE01880F991F0190F081E02D0D
:104DF000E80FF91F0190F081E02D309729F08081B4
:104E00008B3611F0CF0102C083819481B70158DF46
:104E1000882369F02196D8011596ED91FC9116979B
:104E200082819381C817D907ECF2CFEFDFEFCE0173
:104E3000CDB7DEB7E6E00C94B344EF92FF920F9348
:104E40001F93CF93DF938C017B01009799F1DC01D5
:104E50008C91883279F515968D919C911697892BB6
:104E600049F16115710531F1C0E0D0E019C0CE0102
:104E7000880F991F0190F081E02DE80FF91F019034
:104E8000F081E02D309759F080818B3611F0CF0101
:104E900002C085819681B70113DF882369F02196CE
:104EA000D8011596ED91FC91169782819381C817D0
:104EB000D907ECF2CFEFDFEFCE01CDB7DEB7E6E0FA
:104EC0000C94B344CF93DF93EC01009779F0888181
:104ED000883261F46115710549F0CE01AEDFBC0185
:104EE0008FEF6F3F780711F0CE0195DDDF91CF9105
:104EF0000895CF93DF93EC01A0DFBC018FEF6F3FEC
:104F0000780749F0CE0109DDFC0180818B3619F468
:104F10008381948104C080913F0790914007DF9185
:104F2000CF910895FC0120913F0790914007808127
:104F30008A3221F487819085DCDF282F822F089523
:104F4000A0E0B0E0E6EAF7E20C9493448C016B0138
:104F5000C0913F07D0914007D8018C91863209F06B
:104F60004BC01396ED91FC91149785899689B601F3
:104F7000C0DFEC010097A9F080913F0790914007B6
:104F8000C817D90741F02881263609F44CC02334CC
:104F900009F449C0EC01209721F0C817D90709F09E
:104FA00042C0F801A580B6808501EE24FF241EC012
:104FB000D8011596ED91FC911697C701880F991F9E
:104FC0000190F081E02DE80FF91F80819181B601F9
:104FD000B7DFEC01009739F080913F0790914007CF
:104FE000C817D90701F50894E11CF11CC5017ADC4A
:104FF000E816F906ECF217C08A32A9F4F8018581A7
:105000009681B60176DFEC01009739F080913F0779
:1050100090914007C817D90731F4D80113960D9124
:105020001C91149795CFCE01CDB7DEB7EAE00C9472
:10503000AF44EF92FF920F931F93CF93DF93EC0156
:105040007B018A010097D1F088818832B9F441153B
:105050005105A1F08D819E81892B39F480E090E08B
:1050600060E00E9428379E838D838D819E81B701E9
:10507000A8010E94DB36C8010E94E13FCDB7DEB730
:10508000E6E00C94B3440F931F93CF93DF93EC01AE
:105090008B010097B1F08881883299F48D819E81CF
:1050A000892B39F480E090E060E00E9428379E83ED
:1050B0008D838D819E81B8010E94A636C8010E9411
:1050C000E13FDF91CF911F910F91089589E090E02A
:1050D0000C942B0AFBDFFC0182E58083108617828B
:1050E0001482138212821182CF01089587E090E02A
:1050F0000C942B0AEF92FF920F931F937B018C016C
:10510000F5DFFC0187E6808312821182E382F4825C
:1051100005831683CF011F910F91FF90EF900895A3
:1051200087E090E00C942B0AEF92FF920F931F936D
:105130007B018C01F5DFFC0189E6808312821182FC
:10514000E382F48205831683CF011F910F91FF90B4
:10515000EF90089585E090E00C942B0A0F931F9335
:105160008C01F8DFFC0184E78083128211821483B2
:105170000383CF011F910F91089585E090E00C9477
:105180002B0A0F931F938C01F8DFFC0185E78083C6
:105190001282118214830383CF011F910F9108950E
:1051A00087E090E00C942B0AEF92FF920F931F93ED
:1051B0008C01F6DF7C0188E2F70180831282118284
:1051C00014821382C80161E00E942837F701968398
:1051D0008583C7011F910F91FF90EF90089587E09D
:1051E00090E00C942B0AEF92FF920F931F938C0187
:1051F0007B01F5DFFC0183E7808312821182148337
:105200000383F682E582CF011F910F91FF90EF900B
:10521000089587E090E00C942B0ACF92DF92EF92F2
:10522000FF920F931F937C016B01F3DF8C018DE4E0
:10523000F8018083F482E382C7010E94E13FF80114
:1052400012821182D682C582C6010E94E13FC80146
:105250001F910F91FF90EF90DF90CF9008950F93E3
:105260001F93CF93DF93EC018B01209719F0011569
:10527000110529F420913F07309140073EC08881F5
:10528000833619F48D899E8906C0863239F4EB8104
:10529000FC8185899689B8012CDE1FC08A3259F5B8
:1052A000CE01B8013FDE9C01009739F080913F07A5
:1052B000909140072817390791F4CE01B80140DEDC
:1052C0009C01009799F080913F0790914007281723
:1052D000390729F0C901BE01A0DF9C010EC08091F1
:1052E0003F07909140072817390739F48B819C813B
:1052F0009C01E901BACF20E030E0C901DF91CF91F4
:105300001F910F91089585E090E00C942B0A0F9364
:105310001F938C01F8DFFC0183E4808314830383F3
:1053200012821182CF011F910F91089585E090E0C4
:105330000C942B0A89E090E00C942B0AEF92FF92D8
:105340000F931F937C01F6DF8C018AE2F8018083C2
:10535000F482E38212821182C7010E94E13F80E061
:1053600090E022DFF801858396830E94E13F80E090
:1053700090E01ADFF801878390870E94E13FC8011F
:105380001F910F91FF90EF90089587E090E00C94AB
:105390002B0ACF92DF92EF92FF920F931F937C0123
:1053A0006B01F3DF8C0186E2F8018083F482E382F3
:1053B00012821182D682C582C7010E94E13FC601D6
:1053C0000E94E13FF70185859685A785B0899160A8
:1053D00085879687A787B08BC8011F910F91FF9093
:1053E000EF90DF90CF9008958DE190E00C942B0A20
:1053F0000F931F938C01F8DFFC0183E680831483F5
:1054000003831682158210861782128611861486EF
:105410001386158616861786108A128A118A148AB0
:10542000138A108E178A128E118E148E138E168A7E
:10543000158A12821182CF011F910F91089583E086
:1054400090E00C942B0A0F931F93F9DFFC019093CB
:10545000400780933F0780E3808301E010E01283E0
:105460000183EDDFFC0190934207809341078EE4B6
:10547000808312830183E3DFFC01909344078093D0
:10548000430784E5808312830183D9DFFC01909375
:1054900046078093450786E4808312830183CFDF2C
:1054A000FC0190934807809347078EE28083128324
:1054B0000183C5DFFC0190934A07809349078FE37E
:1054C0008083128301831F910F91089587E090E0FC
:1054D0000C942B0AEF92FF920F931F93CF93DF93BD
:1054E0008C017B01F3DFEC018BE688831A82198241
:1054F0001E830D83C8010E94E13FE114F10431F0E5
:10550000FC82EB82C7010E94E13F02C01C821B8229
:10551000CE01CDB7DEB7E6E00C94B344EF92FF9234
:105520000F931F93CF93DF937C018B01EA018FEFE1
:105530006F3F780701F1C701F0D9FC0180818B36FC
:1055400099F403811481209731F0D483C383CE0171
:105550000E94E13F02C0148213820115110559F027
:10556000C8010E94F53F07C0CF01BE01B3DFAC0107
:10557000C701B80192DACDB7DEB7E6E00C94B344C8
:10558000EF92FF920F931F93CF93DF93EC018B0168
:105590007A010097E9F088818832D1F461157105AC
:1055A000B9F08D819E81892B39F480E090E060E034
:1055B0000E9428379E838D83C801B7018BDF8C0141
:1055C0008D819E81B8010E94A636C8010E94E13FEC
:1055D000CDB7DEB7E6E00C94B344A0E0B0E0E3EF73
:1055E000FAE20C9495448C017B016A01009709F45E
:1055F0003BC0FC0180818832B9F561157105A1F1CC
:10560000C8011BDCEC01FFEF8F3F9F0749F1C80188
:10561000BE0183D9FC0180818B36D1F4C381D48152
:10562000C114D10469F080913F0790914007C816DA
:10563000D90631F0D482C382C6010E94E13F02C084
:1056400014821382209781F0CE010E94F53F0CC096
:10565000CF01B6013FDFAC01C801BE011EDA04C0B4
:10566000C801B701A6018CDFCDB7DEB7E8E00C9426
:10567000B144FC0180818A3219F487819085ADCFD5
:105680000895A4E0B0E0E7E4FBE20C948B444C0105
:105690003B012A013A83298349DE1C0186E6D101B8
:1056A0008C9312961C921E92119714969C928E9235
:1056B0001397C4010E94E13FF4010789108DC801CE
:1056C00011D9181619060CF071C06114710421F477
:1056D0004114510409F46AC0C80126DA6114710446
:1056E00009F444C0D4011596AD90BC9016971C8265
:1056F0001B822FC0F401E788F08C0894A108B10840
:1057000065012B813C81C21AD30A0894A11CB11CEB
:10571000C701B60102D98C01DC018C918B3661F096
:10572000C3016B817C81F9D8BC01C801D3DEAC0117
:10573000C701B601B2D908C0C3016B817C81EDD825
:10574000AC01C701B601EADEEB81FC813196FC8336
:10575000EB83D3011596ED91FC911697828193818D
:10576000EB81FC81E817F9070CF4C4CF4114510414
:10577000E9F000E010E010C0C201B801CED8FC0191
:105780006581768143815481D40157968D919C9196
:10579000589723DF0F5F1F4FD2011596ED91FC91B3
:1057A0001697828193810817190734F3E981FA81EA
:1057B000EF2BB9F000E010E00EC089819A81B801AA
:1057C000ACD8AC01D40159968D919C915A97B801EF
:1057D00064D90F5F1F4F89819A8184D808171907F0
:1057E00064F3C1012496E2E10C94A744EF92FF9286
:1057F0000F931F938C016ADE7C018BE6F701808397
:105800001282118216830583C8010E94E13FF701CD
:1058100014821382C7011F910F91FF90EF9008959A
:10582000A0E0B0E0E6E1FCE20C9495447C01009736
:1058300009F452C0DC018C91883209F04DC01596F4
:10584000ED91FC911697309709F446C082819381BF
:10585000892B09F441C0CC24DD2434C08601000F1B
:10586000111FC081D181C00FD11FE881F98130970C
:1058700031F180818B3619F1CF01B8DF99838883AC
:10588000D7011596ED91FC9116970190F081E02DCE
:10589000E00FF11F808191810E94E13FD7011596B1
:1058A000ED91FC9116970190F081E02DE00FF11F32
:1058B0000190F081E02D858196810E94F53F08944A
:1058C000C11CD11CD7011596ED91FC9116978281D0
:1058D0009381C816D90614F2CDB7DEB7E8E00C9470
:1058E000B144CF92DF92EF92FF920F931F937C010E
:1058F0006B01ECDD8C018BE6F80180831282118252
:10590000F682E582C7010E94E13FF801D482C3829A
:10591000C6010E94E13FC8011F910F91FF90EF90D7
:10592000DF90CF900895EF92FF920F931F93CF9344
:10593000DF938B017A01EC0189859A8501969A871C
:1059400089878D899E89892B39F480E090E02CDC51
:105950008D8B9E8B0E94E13FC801B701C2DFBC0165
:105960008D899E8990DBCDB7DEB7E6E00C94B34419
:10597000EF92FF920F931F938C01CB017A010E944B
:105980008523FFDBBC01C801A701CDDF1F910F916B
:10599000FF90EF900895EF92FF920F931F938C0169
:1059A0007B01CA01B4DCAC01C801B701E1DF1F9182
:1059B0000F91FF90EF9008958DE090E00C942B0AEA
:1059C000EF92FF920F931F93CF93DF93EC01009719
:1059D00009F41FC1F88083E6F81609F4BEC08F15DC
:1059E00040F1E6E4FE1609F441C0EF15B8F0F0E32B
:1059F000FF16E1F1FF1568F088E2F81609F48CC093
:105A0000EAE2FE1609F483C0F6E2FF1609F001C1CE
:105A100077C083E4F81609F0FCC06EC0EEE4FE1611
:105A200029F1F4E5FF1611F18DE4F81609F0F1C043
:105A30005CC0EBE6FE1609F449C0EF1558F0F7E636
:105A4000FF16F1F089E6F816A9F0E6E6FE1609F071
:105A5000E0C0D4C0F4E7FF1609F443C085E7F816A8
:105A6000A9F0E3E7FE1609F0D4C016C08F2D0E94FE
:105A70003F2450C06B817C818D819E8155DB4AC063
:105A80006B817C818D819E8135DB44C08B819C81C3
:105A90000E94852376DB3EC08D819E810E942B0A69
:105AA000182F092F4D815E8160E070E00E940F0C7D
:105AB0006B817C814D815E81812F902F0E94060C2D
:105AC0006D817E81812F902F8EDB24C08D819E8100
:105AD00077DF8C018B819C8173DFBC01C80101DF02
