:1000000027C2000047C2000045C2000043C20000F2
:1000100041C200003FC200003DC200003BC20000E0
:1000200039C2000037C2000035C2000033C20000F0
:1000300031C200002FC200002DC200002BC2000000
:1000400029C2000027C2000025C2000023C2000010
:1000500021C200001FC200001DC200000C945810F5
:1000600019C2000017C2000015C2000013C2000030
:1000700011C200000FC200000DC200000BC2000040
:1000800009C2000007C2000005C2000003C2000050
:1000900001C20000FFC10000FDC10000FBC1000063
:1000A000F9C10000F7C10000F5C10000F3C1000074
:1000B000F1C10000EFC10000EDC10000EBC1000084
:1000C000E9C10000E7C10000E5C10000E3C1000094
:1000D000E1C10000DFC10000DDC10000DBC10000A4
:1000E000D9C100009D11A211A711B1112512BB1198
:1000F000C311CB11D511DF11E911F311FD11251237
:10010000071211121B126D12701263126712A912DC
:10011000741278127E12821286128C12901294122D
:10012000A9129A129E12A412011E0D1E201E571F04
:10013000571F411E571F571F571F531E531E571F30
:10014000531E531E531ECB1D531E531E531E531EB0
:10015000571F571F571F571F571F571F571F571FEF
:10016000571F571F571F571F571F571F571F571FDF
:10017000571F571F571F571F571F571F571F571FCF
:100180003B1D531E531E531E571F531EAC1D991D5E
:10019000531E531E531E531E531E531E571F571FCD
:1001A000571F4A18571F571F571F531E531E531EC2
:1001B000531E531E571F501A571F571F2019571FE2
:1001C000571F571F571F571F221D8E1DE51D4F1804
:1001D000571F9218571FA91B071C571F6C1C661C22
:1001E000DC1ADC1AD21AD71A7918601EA918ED1871
:1001F000241A341A451A301A181A1E1A291B571FA6
:10020000571F571F981A571F571F571F721C7E1DC5
:10021000941D571F571F571F0F1807182E19571FC8
:100220009E19021DD41C761C571F571F0C186D1EDB
:100230006D1E591A571F5E1D681D481D7E35F63408
:10024000023656358F357735023667357035673566
:100250007035023602360236023602360236023671
:1002600002360236023602360236023602360236CE
:1002700002360236023602360236023602360236BE
:10028000023602368F357735F63402365635023669
:1002900002363235443523351435FD347E35023689
:1002A000023602360236023602360236323544351E
:1002B00023351435FD34EF35B3350236DA35FA35EA
:1002C000EA350236E035E035E035E0350236023613
:1002D000023602360236023602360236023602365E
:1002E000023602360236023602360236023602364E
:1002F0000236023602360236023602360236FA3547
:10030000EA35B3350236DA3502360236C835D1352C
:10031000C335BE35B935EF35023602360236023600
:10032000023602360236C835D135C335BE35B93549
:1003300000002100240027002A002D003000330097
:1003400001010000040107010A010000220025004C
:1003500028002B002E0031003400020100000501AE
:1003600008010B01000020002300260029002C00BA
:100370002F003200000100000301060109010505FC
:100380000505070508080808020202020A0A08080B
:100390000404040401010101010101010303030339
:1003A00003030303040707070C0C0C0C0C0C0C0CC8
:1003B0000202020206060606060606060B0B0B0BD9
:1003C0000B0B0B0B010210202008081020401020FE
:1003D0004080020102010804020101020408102009
:1003E0004080804020100804020180040201804007
:1003F0002010080402010804020101020408102070
:10040000408001020408102040800000090A020810
:100410000B0C0D07060304010000000000000000A3
:1004200000000000000000000000000000000000CC
:1004300000000000000011100F000000000000008C
:1004400000000000000000000000000000000000AC
:1004500011241FBECFEFD1E2DEBFCDBF00E00CBF45
:1004600016E0A0E0B2E0EEE5FDE700E00BBF02C061
:1004700007900D92AA33B107D9F71BBE16E0AAE385
:10048000B6E001C01D92AF36B107E1F70E94F10D51
:100490000C94AD3EB5CDA0E0B0E0E1E5F2E00C9407
:1004A000D03DDC012B01FA019C91923008F439C156
:1004B000EB018881823008F433C1943069F48430D0
:1004C00009F02FC111969C9111978981981709F411
:1004D00028C1AEE3B3E025C1843009F421C18230E4
:1004E000A9F4923009F01DC19A01AD0188E0EA013A
:1004F0000990AE01E90109929E018150C1F7E20124
:10050000898111969C918923818308C1923009F4D5
:1005100007C112962D903C901397EB018A819B8125
:100520001496AD90BD90CD90DC901797EC80FD8037
:100530000E811F819101281B390BB90137FF04C0BF
:1005400066277727621B730B603271050CF061C060
:10055000121613066CF537014801062E04C0969456
:100560008794779467940A94D2F721E030E040E0D2
:1005700050E004C0220F331F441F551F6A95D2F765
:1005800021503040404050402E213F2140235123F4
:10059000211531054105510521F021E030E040E011
:1005A00050E079018A01E628F728082919293CC07A
:1005B000232BD1F1260E371E35014601062E04C02D
:1005C00096948794779467940A94D2F721E030E068
:1005D00040E050E004C0220F331F441F551F6A95AE
:1005E000D2F721503040404050402A213B214C213D
:1005F0005D21211531054105510521F021E030E053
:1006000040E050E059016A01A628B728C828D92837
:100610000BC0821593052CF01C01AA24BB24650194
:1006200003C0EE24FF24870111969C91D2011196FC
:100630008C91981709F445C0992339F0A8019701C6
:100640002A193B094C095D0906C0A60195012E191E
:100650003F09400B510B57FD08C0118233822282A3
:1006600024833583468357831DC081E08183338291
:10067000228288279927DC01821B930BA40BB50BE0
:1006800084839583A683B7830DC0220F331F441F35
:10069000551F248335834683578382819381019735
:1006A000938382832481358146815781DA01C90190
:1006B0000197A109B1098F5F9F4FAF4FBF4328F347
:1006C0000BC0918333822282EA0CFB1C0C1D1D1D82
:1006D000E482F5820683178383E080832481358159
:1006E0004681578157FF1AC0C901AA2797FDA095D7
:1006F000BA2F81709070A070B0705695479537955D
:100700002795822B932BA42BB52B84839583A683CB
:10071000B78382819381019693838283DF0101C035
:10072000D201CD01CDB7DEB7E2E10C94EC3DA0E201
:10073000B0E0EDE9F3E00C94DC3D69837A838B83D0
:100740009C832D833E834F835887E9E0EE2EF12C66
:10075000EC0EFD1ECE010196B701C0D48E010F5ED6
:100760001F4FCE010596B801B9D48A8991E0892737
:100770008A8BC701B801AE01475E5F4F8CDED9D3CB
:10078000A096E6E00C94F83DA0E2B0E0EAECF3E0DD
:100790000C94DC3D69837A838B839C832D833E8319
:1007A0004F835887F9E0EF2EF12CEC0EFD1ECE01A1
:1007B0000196B70193D48E010F5E1F4FCE010596AF
:1007C000B8018CD4C701B801AE01475E5F4F63DE4C
:1007D000B0D3A096E6E00C94F83DA0E2B0E0E3EFE1
:1007E000F3E00C94D03D69837A838B839C832D83C3
:1007F0003E834F835887CE010196BE01675F7F4FCE
:100800006DD4CE010596BE016F5E7F4F67D499858A
:10081000923088F089898230C8F0943019F482309F
:1008200051F404C0843029F4923081F48EE393E0D3
:10083000C6C0923049F420E09A858A89981321E055
:100840002A87CE010996BBC0823049F420E09A8500
:100850008A89981321E02A8BCE014196B0C02D845D
:100860003E844F8458886D887E888F88988CEE24CB
:10087000FF248701AA24BB24650140E050E060E02A
:1008800070E0E0E0F0E0C10181709070892BE9F048
:10089000E60CF71C081D191D9A01AB012A0D3B1D22
:1008A0004C1D5D1D80E090E0A0E0B0E0E614F70490
:1008B0000805190520F481E090E0A0E0B0E0BA015D
:1008C000A901480F591F6A1F7B1FAA0CBB1CCC1C17
:1008D000DD1C97FE08C081E090E0A0E0B0E0A82A0F
:1008E000B92ACA2ADB2A3196E032F10549F0660CB2
:1008F000771C881C991C5694479437942794C3CF2F
:10090000FA85EA892B893C898B859C85280F391FBC
:100910002E5F3F4F17C0CA0181709070892B61F024
:1009200016950795F794E79480E090E0A0E0B0E892
:10093000E82AF92A0A2B1B2B769567955795479538
:100940002F5F3F4F77FDE7CF0CC0440F551F661F49
:10095000771F17FD4160EE0CFF1C001F111F215077
:100960003040403090E0590790E0690790E4790703
:1009700060F32B8F3C8FDB01CA018F779070A070E2
:10098000B07080349105A105B10561F447FD0AC03E
:10099000E114F1040105110529F0405C5F4F6F4F30
:1009A0007F4F40781A8EFE1711F081E08A8F4D8FAD
:1009B0005E8F6F8F78A383E0898FCE014996B9D27D
:1009C000A096E2E10C94EC3DA8E1B0E0EAEEF4E0A0
:1009D0000C94D83D69837A838B839C832D833E83DB
:1009E0004F835887B9E0EB2EF12CEC0EFD1ECE01A3
:1009F0000196B70173D38E010F5E1F4FCE0105968E
:100A0000B8016CD32985223008F47EC03989323090
:100A100010F4B8017CC08A859A8989278A87243096
:100A200011F0223031F4231709F06EC06EE373E049
:100A30006EC0343039F41D861E861F86188A1C86C7
:100A40001B8604C0323021F484E08987B7015FC07F
:100A50002B853C858B899C89281B390B3C872B87F0
:100A6000ED84FE840F851889AD88BE88CF88D88C28
:100A7000EA14FB040C051D0540F4EE0CFF1C001FDE
:100A8000111F215030403C872B8720E030E040E0B0
:100A900050E080E090E0A0E0B0E460E070E0EA14B4
:100AA000FB040C051D0540F0282B392B4A2B5B2B32
:100AB000EA18FB080C091D09B695A7959795879527
:100AC000EE0CFF1C001F111F6F5F7F4F6F31710510
:100AD00031F7DA01C9018F779070A070B07080345F
:100AE0009105A105B10561F427FD0AC0E114F104E7
:100AF0000105110529F0205C3F4F4F4F5F4F2078D3
:100B00002D873E874F87588BBE01675F7F4FCB0194
:100B100010D26896EAE00C94F43DA8E1B0E0E3E975
:100B2000F5E00C94DC3D69837A838B839C832D8371
:100B30003E834F83588789E0E82EF12CEC0EFD1E92
:100B4000CE010196B701CAD28E010F5E1F4FCE01B2
:100B50000596B801C3D28985823038F08989823000
:100B600020F0C701B80132D301C081E06896E6E009
:100B70000C94F83DA8E1B0E0E0ECF5E00C94DC3D2D
:100B800069837A838B839C832D833E834F8358872D
:100B900089E0E82EF12CEC0EFD1ECE010196B70186
:100BA0009DD28E010F5E1F4FCE010596B80196D2E1
:100BB0008985823038F08989823020F0C701B801F8
:100BC00005D301C081E06896E6E00C94F83DA8E109
:100BD000B0E0EDEEF5E00C94DC3D69837A838B8325
:100BE0009C832D833E834F83588789E0E82EF12C28
:100BF000EC0EFD1ECE010196B70170D28E010F5E84
:100C00001F4FCE010596B80169D28985823038F030
:100C10008989823020F0C701B801D8D201C08FEF96
:100C20006896E6E00C94F83DA8E1B0E0EAE1F6E071
:100C30000C94DC3D69837A838B839C832D833E8374
:100C40004F83588789E0E82EF12CEC0EFD1ECE0173
:100C50000196B70143D28E010F5E1F4FCE0105965C
:100C6000B8013CD28985823038F08989823020F001
:100C7000C701B801ABD201C08FEF6896E6E00C94D3
:100C8000F83DA8E1B0E0E7E4F6E00C94DC3D6983D0
:100C90007A838B839C832D833E834F83588789E09F
:100CA000E82EF12CEC0EFD1ECE010196B70116D2F6
:100CB0008E010F5E1F4FCE010596B8010FD28985B8
:100CC000823038F08989823020F0C701B8017ED2A5
:100CD00001C081E06896E6E00C94F83DA8E1B0E040
:100CE000E4E7F6E00C94DC3D69837A838B839C8394
:100CF0002D833E834F83588789E0E82EF12CEC0E3C
:100D0000FD1ECE010196B701E9D18E010F5E1F4F86
:100D1000CE010596B801E2D18985823038F0898903
:100D2000823020F0C701B80151D201C081E068963D
:100D3000E6E00C94F83DA8E0B0E0E1EAF6E00C94BF
:100D4000D93D9B01AC0183E08983DA01C901882781
:100D5000B7FD83959927AA27BB27B82E2115310502
:100D60004105510519F482E0898339C08823A9F02F
:100D7000203080E0380780E0480780E8580729F4F1
:100D800060E070E080E09FEC2EC0EE24FF2487013D
:100D9000E21AF30A040B150B02C079018A018EE1F5
:100DA000C82ED12CDC82CB82ED82FE820F83188785
:100DB000C801B7016FD001971816190684F4082EE0
:100DC00004C0EE0CFF1C001F111F0A94D2F7ED8225
:100DD000FE820F831887C81AD90ADC82CB82BA82B6
:100DE000CE010196A6D02896E9E00C94F53DACE042
:100DF000B0E0EDEFF6E00C94E03D69837A838B83FD
:100E00009C83CE010196BE016B5F7F4F67D18D81C0
:100E1000823061F1823050F1843021F48E81882358
:100E200051F12EC02F81388537FD20C06E812F31C2
:100E300031051CF06623F9F023C08EE190E0821B9F
:100E4000930B29853A854B855C8504C0569547955B
:100E5000379527958A95D2F76623B1F0509540953E
:100E6000309521953F4F4F4F5F4F0EC020E030E04F
:100E700040E050E009C02FEF3FEF4FEF5FE704C0C5
:100E800020E030E040E050E8B901CA012C96E2E0F1
:100E90000C94FC3DEF92FF920F931F937B018C010A
:100EA00080E0E81680E0F80681E0080780E0180797
:100EB00088F48FEFE816F1040105110531F028F0F0
:100EC00088E090E0A0E0B0E017C080E090E0A0E013
:100ED000B0E012C080E0E81680E0F80680E0080785
:100EE00081E0180728F088E190E0A0E0B0E004C0BD
:100EF00080E190E0A0E0B0E020E230E040E050E0AF
:100F0000281B390B4A0B5B0B04C016950795F79409
:100F1000E7948A95D2F7F701EA5BFC4F8081281BA2
:100F2000310941095109C9011F910F91FF90EF90BB
:100F30000895DF92EF92FF920F931F93FC01E480DC
:100F4000F58006811781D1808081823048F480E06D
:100F500090E0A0E1B0E0E82AF92A0A2B1B2BA5C0FB
:100F6000843009F49FC0823021F4EE24FF248701ED
:100F700005C0E114F1040105110519F4E0E0F0E009
:100F800096C0628173819FEF623879070CF05BC075
:100F900022E83FEF261B370B2A3131052CF020E0E9
:100FA00030E040E050E02AC0B801A701022E04C0A2
:100FB00076956795579547950A94D2F781E090E02A
:100FC000A0E0B0E004C0880F991FAA1FBB1F2A959C
:100FD000D2F70197A109B1098E219F21A023B12346
:100FE0000097A105B10521F081E090E0A0E0B0E01C
:100FF0009A01AB01282B392B4A2B5B2BDA01C90153
:101000008F779070A070B07080349105A105B10504
:1010100039F427FF09C0205C3F4F4F4F5F4F04C09A
:10102000215C3F4F4F4F5F4FE0E0F0E02030A0E009
:101030003A07A0E04A07A0E45A0710F0E1E0F0E028
:1010400079018A0127C06038710564F5FB01E15818
:10105000FF4FD801C7018F779070A070B0708034B7
:101060009105A105B10539F4E7FE0DC080E490E0DB
:10107000A0E0B0E004C08FE390E0A0E0B0E0E80EB4
:10108000F91E0A1F1B1F17FF05C016950795F79439
:10109000E794319687E016950795F794E7948A953B
:1010A000D1F705C0EE24FF248701EFEFF0E06E2FAB
:1010B000679566276795902F9F77D794DD24D794FF
:1010C0008E2F8695492F462B582F5D29B701CA01CF
:1010D0001F910F91FF90EF90DF900895FC01DB01CD
:1010E000408151812281622F6F7770E0221F222779
:1010F000221F9381892F880F822B282F30E0991F80
:101100009927991F11969C93119721153105A9F5DF
:10111000411551056105710511F482E037C082E87F
:101120009FEF13969C938E9312979A01AB0167E001
:10113000220F331F441F551F6A95D1F783E08C930C
:101140000DC0220F331F441F551F12968D919C9185
:101150001397019713969C938E931297203080E0FB
:10116000380780E0480780E4580758F314962D9319
:101170003D934D935C93179708952F3F310579F474
:10118000411551056105710519F484E08C930895AA
:1011900064FF03C081E08C9312C01C9210C02F57D3
:1011A000304013963C932E93129783E08C9387E004
:1011B000440F551F661F771F8A95D1F770641496E8
:1011C0004D935D936D937C93179708951F93DC0166
:1011D000FB019C91923008F447C08081823008F472
:1011E00043C0943051F411961C91843099F581815B
:1011F000682F70E0611B71093FC0843021F092308C
:1012000031F48230B9F18181882389F12DC01196A2
:101210001C9111978230F1F081811817D9F4129640
:101220002D913C911397828193818217930794F0BB
:1012300028173907BCF014968D919D910D90BC91A3
:10124000A02D2481358146815781281739074A0707
:101250005B0718F4112341F00AC082179307A40713
:10126000B50740F4112319F061E070E005C06FEF9D
:101270007FEF02C060E070E0CB011F910895CF9333
:10128000DF93BC018230910510F462E070E0A09120
:101290006706B0916806ED01E0E0F0E040E050E064
:1012A00021C0888199818617970769F48A819B817B
:1012B000309719F09383828304C0909368068093DB
:1012C0006706FE0134C06817790738F441155105E7
:1012D00019F08417950708F4AC01FE018A819B81FF
:1012E0009C01E9012097E9F641155105A9F1CA01D0
:1012F000861B970B049708F4BA01E0E0F0E02AC0DF
:101300008D919C91119784179507F9F464177507CF
:1013100081F412968D919C911397309719F09383D5
:10132000828304C09093680680936706FD0132961D
:101330004CC0CA01861B970BFD01E80FF91F619392
:10134000719302978D939C9340C0FD01828193819C
:101350009C01D9011097A1F68091650690916606CF
:10136000892B41F48091480490914904909366063A
:101370008093650640914A0450914B0441155105F4
:1013800041F44DB75EB78091460490914704481BE5
:10139000590B2091650630916606CA01821B930B9A
:1013A0008617970780F0AB014E5F5F4F8417950754
:1013B00050F0420F531F5093660640936506F901A3
:1013C0006193719302C0E0E0F0E0CF01DF91CF9133
:1013D0000895CF93DF93009709F450C0EC01229752
:1013E0001B821A82A0916706B0916806109709F1D6
:1013F00040E050E0AC17BD0708F1BB83AA83FE01B3
:1014000021913191E20FF31FAE17BF0779F48D914F
:101410009C911197280F391F2E5F3F4F39832883E6
:1014200012968D919C9113979B838A834115510548
:1014300071F4D0936806C093670620C012968D9110
:101440009C911397AD01009711F0DC01D3CFFA0105
:10145000D383C28321913191E20FF31FCE17DF07AF
:1014600069F488819981280F391F2E5F3F4FFA0157
:10147000318320838A819B8193838283DF91CF9103
:101480000895A0E0B0E0E7E4FAE00C94D23D6C01EE
:10149000009721F4CB01F3DE6C01BDC08EEF882EE6
:1014A0008FEF982E8C0C9D1C8601060F171F0815B8
:1014B000190508F4AEC0F401A081B181A617B707E1
:1014C000B0F0A530B10508F4A6C0CD010497861789
:1014D000970708F4A0C01297A61BB70BF801A193B9
:1014E000B193D4016D937C93CF0173DF94C07B01E2
:1014F000EA1AFB0AEEEFFFEFEE0EFF1E36016A0E50
:101500007B1EC0916706D091680644245524AA2406
:10151000BB244AC0C615D705E1F5488159814E154F
:101520005F05B8F1CA0104978E159F05B0F41296B5
:10153000A40FB51FF401B183A0832A813B8141141C
:10154000510431F0D20113963C932E93129763C04D
:1015500030936806209367065EC08A819B81F801FC
:1015600093838283425050404E195F0951834083D8
:101570004114510431F0D20113961C930E9312972B
:1015800004C01093680600936706F40171836083BA
:1015900042C088819981A816B90608F45C012E0121
:1015A0008A819B819C01E901209709F0B3CF80914A
:1015B00065069091660686159705E9F4A616B706A6
:1015C000D0F420914A0430914B042115310541F4A7
:1015D0002DB73EB78091460490914704281B390BE4
:1015E00002171307B0F41093660600936506D40142
:1015F0006D937C9310C0CB0142DEEC01009749F063
:10160000F40140815181B60115D0C601E2DE6E01C0
:1016100002C0CC24DD24C601CDB7DEB7E0E10C94D6
:10162000EE3DFB01DC0102C005900D92415050409F
:10163000D8F70895FB01DC0102C001900D924150E2
:101640005040D8F70895DC0101C06D9341505040DF
:10165000E0F70895FB01DC018D91019080190110E4
:10166000D9F3990B0895FC0101900020E9F78095CA
:1016700090958E0F9F1F0895A0E0B0E0E2E4FBE09C
:101680000C94E03DFE0136966191719180916B065C
:1016900090916C06AF0104D02096E2E00C94FC3DE2
:1016A000ABE0B0E0E6E5FBE00C94D03D3C012B0163
:1016B0005A01FC0117821682838181FD03C06FEFFE
:1016C0007FEFB9C19AE0892E1E010894211C311CBC
:1016D000F3012381F20123FD859123FF81912F01E5
:1016E000882309F4A5C1853239F423FD859123FFB0
:1016F00081912F01853221F490E0B301B7D1E8CF79
:10170000982FFF24EE249924FFE1FF15D0F09B329F
:1017100069F09C3228F4903259F0933291F40EC063
:101720009D3249F0903369F441E024C052E0F52A3B
:1017300084E0F82A28C098E0F92A25C0E0E1FE2AD2
:1017400022C0F7FC29C0892F80538A3070F4F6FE3E
:1017500005C0989C902C1124980E15C0E89CE02C94
:101760001124E80EF0E2FF2A0EC09E3229F4F6FCA6
:101770005FC140E4F42A07C09C3619F450E8F52A0A
:1017800002C0983649F4F20123FD959123FF91910F
:101790002F01992309F0B8CF892F8554833018F091
:1017A0008052833038F444E050E0A40EB51E5FE36D
:1017B00059830FC0933631F0933779F0933509F0A0
:1017C00052C01FC0F5018081898342E050E0A40E21
:1017D000B51E610101E010E011C0F501C080D180AB
:1017E000F6FC03C06FEF7FEF02C0692D70E042E0AE
:1017F00050E0A40EB51EC6012ED18C015FE7F52284
:1018000013C0F501C080D180F6FC03C06FEF7FEFFD
:1018100002C0692D70E042E050E0A40EB51EC60182
:101820000FD18C0150E8F52AF3FE06C018C080E203
:1018300090E0B3011BD1EA948E2D90E008171907B0
:10184000B0F30DC0F601F7FC8591F7FE81916F01B1
:1018500090E0B3010BD1E110EA9401501040011562
:10186000110581F7E2C0943611F0993661F5F7FE63
:1018700008C0F501208131814281538184E090E0EC
:101880000AC0F501808191819C01442737FD409574
:10189000542F82E090E0A80EB91E9FE6F92257FF70
:1018A00009C050954095309521953F4F4F4F5F4F60
:1018B000E0E8FE2ACA01B901A1012AE030E002D124
:1018C000D82ED2183FC0953729F41F2D1F7E2AE04D
:1018D00030E01DC01F2D197F9F3661F0903720F436
:1018E000983509F0A5C00FC0903739F0983709F046
:1018F0009FC004C028E030E00AC0106114FD1460ED
:1019000020E130E004C014FD166020E132E017FF52
:1019100008C0F501608171818281938144E050E0CB
:1019200008C0F50180819181BC0180E090E042E037
:1019300050E0A40EB51EA101C5D0D82ED2188FE755
:10194000F82EF122F6FE0BC05EEFF522D91438F422
:10195000F4FE07C0F2FC05C08FEEF82202C01D2D78
:1019600001C0192DF4FE0DC0FE01ED0DF11D8081A9
:10197000803319F499EEF92208C01F5FF2FE05C00A
:1019800003C08F2D867809F01F5F0F2DF3FC13C065
:10199000F0FE0EC01E1510F09D2C0AC09D2C9E0C52
:1019A000911A1E2D05C080E290E0B3015FD01F5F49
:1019B0001E15C8F304C01E1510F4E11A01C0EE2470
:1019C00004FF0EC080E390E0B30150D002FF1BC0C3
:1019D00001FD03C088E790E00EC088E590E00BC0F1
:1019E000802F867881F001FF02C08BE201C080E287
:1019F000F7FC8DE290E0B30139D005C080E390E0C0
:101A0000B30134D09A94D914C8F3DA94F101ED0DEE
:101A1000F11D808190E0B30129D0DD20B1F705C030
:101A200080E290E0B30122D0EA94EE20C9F750CED4
:101A3000F30166817781CB012B96E2E10C94EC3DBA
:101A4000FC010590615070400110D8F78095909589
:101A50008E0F9F1F0895FC0161507040019001108E
:101A6000D8F7809590958E0F9F1F08950F931F9321
:101A7000CF93DF938C01EB018B8181FF1BC082FF31
:101A80000DC02E813F818C819D812817390764F418
:101A9000E881F9810193F983E88306C0E885F98537
:101AA000802F1995892B31F48E819F8101969F8318
:101AB0008E8302C00FEF1FEFC801DF91CF911F91FE
:101AC0000F910895FA01AA27283051F1203181F1B0
:101AD000E8946F936E7F6E5F7F4F8F4F9F4FAF4F36
:101AE000B1E03ED0B4E03CD0670F781F891F9A1F49
:101AF000A11D680F791F8A1F911DA11D6A0F711DFD
:101B0000811D911DA11D20D009F468943F912AE008
:101B1000269F11243019305D3193DEF6CF010895F0
:101B2000462F4770405D4193B3E00FD0C9F7F6CF21
:101B3000462F4F70405D4A3318F0495D31FD4052E9
:101B4000419302D0A9F7EACFB4E0A695979587957F
:101B500077956795BA95C9F700976105710508955E
:101B60009B01AC010A2E069457954795379527950A
:101B7000BA95C9F7620F731F841F951FA01D0895A2
:101B8000982F8091C00085FFFCCF9093C6000895E8
:101B900088E18093C1001092C50088E08093C40062
:101BA0000895A2E0B0E0E7EDFDE00C94E03D209167
:101BB000650630916606CE0101962115310519F4AE
:101BC0008F56964002C0821B930B9A83898389812A
:101BD0009A812296E2E00C94FC3DD2DF80E090E016
:101BE0000895F6D2D5DF8DEE9DE090934306809365
:101BF0004206109245061092440682E080933D060C
:101C000010924706109246068AE396E090936C067F
:101C100080936B06C6DF00D00F9220E032E0ADB7B4
:101C2000BEB712963C932E93119714969C938E9365
:101C3000139722DD0F900F900F900F9080E090E0AF
:101C40000E944A226C0195D0ACDF00D00F9229E0AF
:101C500032E0EDB7FEB732832183948383830CDDBA
:101C60000F900F900F900F908CE494E06BEE71E06A
:101C70000E94AD38BC01C60140E00E94082291DFFD
:101C800000D00F9222E132E0ADB7BEB712963C937E
:101C90002E93119714969C938E931397EDDC0F90CF
:101CA0000F900F900F90C6016BE172E040E050E0A2
:101CB00020E030E00E948C1F74DF00D00F9221E200
:101CC00032E0EDB7FEB73283218394838383D4DC83
:101CD00000E010E00F900F900F900F90C6016AE2A5
:101CE00072E040E050E020E030E00E948C1F0F5F87
:101CF0001F4F57DF00D000D0EDB7FEB731962FE26F
:101D000032E0ADB7BEB712963C932E9311979383F2
:101D1000828315830483B0DCC0E4D0E0FF24F39415
:101D2000EDB7FEB736960FB6F894FEBF0FBEEDBF07
:101D3000CE01A5DA0097A1F400D00F9280E492E0E2
:101D4000ADB7BEB712969C938E9311971496DC9301
:101D5000CE93139791DC0F900F900F900F9001C0CE
:101D600038DBF394B4E0BF1508F4B8CFCC0FDD1F17
:101D7000DFCFAF92BF92CF92DF92EF92FF920F939D
:101D80001F935C0185E6C82E82E0D82EC6010E9412
:101D9000A6220E941929F82EE92E6DE672E045E28E
:101DA00050E10E94EA2B8F2D9E2D65E772E04FE0F7
:101DB00050E10E94EA2B8F2D9E2D61E872E043EDE9
:101DC0005FE00E94EA2B8F2D9E2D6EE872E04DEBB6
:101DD0005FE00E94EA2B8F2D9E2D69E972E046E7B5
:101DE0005FE00E94EA2B8F2D9E2D65EA72E04AE5A6
:101DF0005FE00E94EA2B8BEA92E00E94A6220E94FA
:101E0000E2278C0160E070E080E090E00E94B5275E
:101E1000AC018F2D9E2DB8010E94B22B81EB92E078
:101E20000E94A6220E94E2278C0161E070E080E01F
:101E300090E00E94B527AC018F2D9E2DB8010E9425
:101E4000B22B88EB92E00E94A6220E94E2278C012E
:101E500060E070E080E090E00E94B527AC018F2D3B
:101E60009E2DB8010E94B22B8CEB92E00E94A6221C
:101E70000E94E2278C0161E070E080E090E00E9427
:101E8000B527AC018F2D9E2DB8010E94B22BC60143
:101E90000E94A6220E94E227BC01C5014F2D5E2DA3
:101EA00092D51F910F91FF90EF90DF90CF90BF9050
:101EB000AF900895CB0160E070E00E94AE23FC017A
:101EC00080818B3621F4838194819C01F90180818A
:101ED000893649F4638174818581968165507040AB
:101EE0008040904053D18EE40C946023EF92FF9297
:101EF0000F931F93CF93DF93162F072F862F972FC4
:101F000060E070E00E94AE237C01812F902F61E0A1
:101F100070E00E94AE23EC01F70180818B3621F442
:101F2000838194819C01790188818B3621F48B8196
:101F30009C819C01E90100D00F9281EC92E0EDB709
:101F4000FEB792838183D483C38396DB0F900F9077
:101F50000F900F90F7018081893639F48881893696
:101F600021F46B817C818381C9D18EE40E9460233E
:101F7000CDB7DEB7E6E00C94F83DCB0160E070E051
:101F80000E94AE23FC018081893619F020E030E008
:101F900003C083817FD19C01B901882777FD80959B
:101FA000982F0C94B5270F931F93CF93DF93EB01DA
:101FB000ED81FE818281938102974CF1CB0160E03B
:101FC00070E00E94AE238C01CE0161E070E00E94BF
:101FD000AE23FC01D8018C918B3639F413968C9189
:101FE000139714969C919C01890180818B3621F472
:101FF000838194819C01F901D8018C91893639F44F
:102000008081893621F413968C916381A3D28EE46A
:102010000E946023DF91CF911F910F910895CB0112
:1020200060E070E00E94AE23FC018081893619F0E7
:1020300020E030E003C08381BFD29C01B901882732
:1020400077FD8095982F0C94B5270F931F93CF930E
:10205000DF93162F072F862F972F60E070E00E94E6
:10206000AE23EC01812F902F61E070E00E94AE233F
:10207000FC0188818B3621F48B819C819C01E901D4
:1020800080818B3621F4838194819C01F9018881C0
:10209000893631F48081893619F48B816381E2D1EC
:1020A0008EE40E946023DF91CF911F910F910895DC
:1020B0001F920F920FB60F9211242F933F938F937D
:1020C0009F93AF93BF9380914C0690914D06A09142
:1020D0004E06B0914F06309150060196A11DB11DDC
:1020E000232F2D5F2D3720F02D570196A11DB11DF7
:1020F0002093500680934C0690934D06A0934E0675
:10210000B0934F068091480690914906A0914A06E7
:10211000B0914B060196A11DB11D80934806909386
:102120004906A0934A06B0934B06BF91AF919F9189
:102130008F913F912F910F900FBE0F901F90189588
:102140009FB7F894209148063091490640914A067D
:1021500050914B0686B5A89B06C08F3F21F02F5F9C
:102160003F4F4F4F5F4F9FBF542F432F322F222798
:10217000280F311D411D511D82E0220F331F441FC6
:10218000551F8A95D1F7B901CA010895EF92FF92C0
:102190000F931F93CF93DF937B018C01D1DFEB0172
:1021A0000DC0CEDF6C1B7D0B685E7340D0F30894CE
:1021B000E108F10801091109C851DC4FE114F104EB
:1021C0000105110571F7CDB7DEB7E6E00C94F83DD7
:1021D000789484B5826084BD84B5816084BD85B502
:1021E000826085BD85B5816085BDEEE6F0E08081C9
:1021F00081608083E1E8F0E01082808182608083EA
:10220000808181608083E0E8F0E08081816080836C
:10221000E1EBF0E0808184608083E0EBF0E080819E
:1022200081608083E1E9F0E0808182608083808149
:1022300081608083E0E9F0E0808181608083E1EA71
:10224000F0E0808182608083808181608083E0EA29
:10225000F0E0808181608083E1E2F1E08081826052
:102260008083808181608083E0E2F1E08081816011
:102270008083EAE7F0E080818460808380818260EF
:1022800080838081816080838081806880831092D8
:10229000C1000895382F863308F0365320917B0013
:1022A000832F86958695869590E08170907043E0A7
:1022B000880F991F4A95E1F7277F282B20937B00F1
:1022C0003770809138068295880F880F807C832B29
:1022D00080937C0080917A00806480937A00809162
:1022E0007A0086FDFCCF2091780040917900942FF0
:1022F00080E030E0282B392BC90108951F93CF933C
:10230000DF93182FEB0161E0ADD0209709F4A0C056
:10231000CF3FD10509F49FC0E12FF0E0E65FFB4F0E
:10232000E4918E2F90E0FC013197E131F10508F046
:102330008CC0EE58FF4F0C94073E84B5806884BD76
:10234000C7BD8CC084B5806284BDC8BD87C0809184
:102350008000806880938000D0938900C0938800BB
:102360007DC080918000806280938000D0938B003C
:10237000C0938A0073C08091B00080688093B000E1
:10238000C093B3006BC08091B00080628093B000B6
:10239000C093B40063C080919000806880939000E7
:1023A000D0939900C093980059C0809190008062AA
:1023B00080939000D0939B00C0939A004FC080916F
:1023C0009000886080939000D0939D00C0939C0003
:1023D00045C08091A00080688093A000D093A900A0
:1023E000C093A8003BC08091A00080628093A000B1
:1023F000D093AB00C093AA0031C08091A000886048
:102400008093A000D093AD00C093AC0027C0809112
:102410002001806880932001D0932901C093280176
:102420001DC080912001806280932001D0932B01F8
:10243000C0932A0113C080912001886080932001FD
:10244000D0932D01C0932C0109C0C038D1051CF4D4
:10245000812F60E002C0812F61E07CD0DF91CF91BD
:102460001F910895482F50E0CA018C539C4FFC01E6
:10247000249142585C4FFA0184918823C1F0E82FDF
:10248000F0E0EE0FFF1FE05DFC4FA591B4916623D5
:1024900041F49FB7F8948C91209582238C939FBF31
:1024A00008959FB7F8948C91822B8C939FBF0895C9
:1024B00090E0FC013197E131F10508F04AC0ED5799
:1024C000FF4F0C94073E809180008F7703C080916E
:1024D00080008F7D80938000089584B58F7702C03F
:1024E00084B58F7D84BD08958091B0008F7703C03F
:1024F0008091B0008F7D8093B0000895809190000E
:102500008F7707C0809190008F7D03C080919000ED
:10251000877F8093900008958091A0008F7707C0F7
:102520008091A0008F7D03C08091A000877F809361
:10253000A0000895809120018F7703C08091200131
:102540008F7D80932001089580912001877F809363
:1025500020010895FF920F931F93F62E482F50E00D
:10256000CA01865F9B4FFC012491CA018C539C4F8A
:10257000FC01149142585C4FFA0104910023C1F010
:10258000222311F0822F94DFE02FF0E0EE0FFF1FE7
:10259000E65BFC4FA591B4919FB7F894FF2021F41E
:1025A0008C911095812302C08C91812B8C939FBFBD
:1025B0001F910F91FF9008950F931F93482F50E0A4
:1025C000CA01865F9B4FFC012491CA018C539C4F2A
:1025D000FC01049142585C4FFA011491112319F443
:1025E00020E030E014C0222311F0822F61DF812F20
:1025F00090E0880F991F8C599C4FFC01A591B491D4
:102600008C9120E030E0802311F021E030E0C9011E
:102610001F910F910895FB010380F481E02DBA0111
:10262000A90119950895FC01828193810C949A2641
:10263000FC01828193810C94DC23A0E0B0E0E3E212
:10264000F3E10C94D63D7C015B014A01DB0151961C
:102650000D911C9152970E94FB2B6C0182E6F601B2
:102660008083B482A382C5010E942639D6011896C0
:102670001C921E92179716961C921E921597F8019F
:10268000858196811A969C938E93199712961C9227
:102690001E9211970E94862ED6011C969C938E93B3
:1026A0001B97F70180819181B6010E945D2E8114F4
:1026B0009104A1F1C0E0D0E027C0C401BE010E9496
:1026C000AE237C01D50157968D919C915897BE0100
:1026D0000E94AE23FC018081F5010789108D8B36A5
:1026E00069F0C801BE010E94AE23B7010E948B2988
:1026F000AC01C801BE010E946E2405C0C801BE0124
:10270000A7010E94AF292196D4011596ED91FC9165
:10271000169782819381C817D9077CF2C601CDB77D
:10272000DEB7ECE00C94F23DA0E0B0E0EAE9F3E1C2
:102730000C94D03D1C016B013A0129010E94FB2B36
:102740007C0182E6D7018C9318961C921E921797F3
:1027500016961C921E92159712961C921E92119715
:102760000E94862EF70194878387D6011396ED91F8
:10277000FC91149701891289D7011496FC93EE936A
:102780001397CF010E942639F80185819681D701E0
:102790001A969C938E9319976114710409F488C05A
:1027A000D3011596ED91FC91169782819381D60104
:1027B0001396ED91FC911497858096808815990564
:1027C0000CF44C01C0E0D0E02EC0C301BE010E9459
:1027D000AE235C01D6011396ED91FC911497878985
:1027E000908DBE010E94AE23FC018081D60113961C
:1027F000ED91FC9114978B3679F00789108DC80103
:10280000BE010E94AE23B5010E948B29AC01C80114
:10281000BE010E946E2406C08789908DBE01A5016D
:102820000E94AF292196C815D9057CF2D3011596CF
:10283000ED91FC91169722813381D6011396ED918B
:10284000FC91149785819681821793078CF5590125
:10285000A81AB90A80E090E00E94F5278C01C0E038
:10286000D0E013C0BE01680D791DC3010E94AE23E4
:10287000FC0180818B3621F4838194819C01F901D4
:10288000C801BF010E9464272196CA15DB0554F3D5
:10289000D6011396ED91FC9114976781708585811F
:1028A0009681680F791F8789908DA8010E94AF29B2
:1028B0004114510409F1C0E0D0E014C0C201BE01CE
:1028C0000E94AE23FC01D60113968D919C91149722
:1028D0006581768143815481FC018789908D0E94B6
:1028E0000C2A2196D2011596ED91FC9116978281C2
:1028F0009381C817D90714F3D6011396ED91FC9173
:102900001497858585FF0DC00E948B27182F092FEE
:10291000B101A7010E94403B212F302FC9019C012A
:1029200008C0F10180819181B7010E945D2E20E0F5
:1029300030E0C901CDB7DEB7E2E10C94EC3DA0E098
:10294000B0E0E5EAF4E10C94D83D6C01EB018A01BA
:1029500059014115510511F07A0107C080E090E05E
:102960000E94F5277C010E9426394D815E81C701B6
:1029700060E070E00E943A27EB81FC81808186361E
:1029800031F4C601BF01A7019501CEDE0AC0833430
:1029900019F0C0E0D0E006C0C601BF01A701950153
:1029A0003ADEEC010115110519F4C7010E943A390C
:1029B000CE01CDB7DEB7EAE00C94F43DFC01828194
:1029C00093810C948326FC01828193810C94E129EC
:1029D000A4E0B0E0EEEEF4E10C94D03D1C01DC018B
:1029E0008D919C910E945C2D3C01FC0143805480A0
:1029F000D2018C91833609F049C3D2015196ED91F1
:102A0000FC91529743815481F30127813085818560
:102A100092852817390714F00C94631FFA01E20F0E
:102A2000F31F10812F5F3F4FD30118963C932E93D5
:102A300017971F3509F400C2103680F5143409F4D5
:102A4000D6C11534B0F4133009F46EC1143038F423
:102A5000113009F43BC1123008F049C130C11530C2
:102A600009F49AC1153008F48BC11930D9F50C94CA
:102A7000871F1635D9F1173548F4103509F430C1E0
:102A8000133509F443C0163469F5D6C1173509F476
:102A900023C1812F8A55843028F5CEC11F3780F499
:102AA0001C3708F0C9C1153730F4143608F0C4C11A
:102AB000812F815614C0812F8857833098F4BCC170
:102AC000103940F41C3808F0B7C1812F8258893082
:102AD00048F4B2C1103909F49CC1812F8259823067
:102AE00008F4AAC1AA24BB246501B8C12F5F3F4FD7
:102AF000F30130872783838594850E94022E8C0101
:102B00000E9426390E948A3A0C94821FD3011B9698
:102B10008D919C911C970E94022E182F092FD30192
:102B20001396ED91FC91149725853685478550893C
:102B300031FF16C0F101808191810E94022ED301E4
:102B40001396ED91FC91149785859685A785B0899C
:102B500091609D7F85879687A787B08B0C94871F90
:102B600030FF6BC0F101808191810E94022ED30160
:102B70001B968D919C911C970E94022E8C010E94A5
:102B8000BF286C0189EC92E00E94A6220E94E227F5
:102B9000F82EE92E0E942639D8011396ED91FC916A
:102BA00014978789908D6F2D7E2D0E949A265C0147
:102BB000D8011396ED91FC9114978789908D6F2D14
:102BC0007E2D40E050E00E940C2A8F2D9E2D0E9409
:102BD0003A39C5010E942639F101808191810E9414
:102BE000732E882359F4D1018D919C910E945C2D04
:102BF000FC0183859485B6010E945D2E84ED92E0F0
:102C00000E94A6220E94E227F82EE92E0E94263971
:102C1000C1016F2D7E2DA601950100E010E00E94FC
:102C2000DF1F8C010E942639C8010E943A398F2D7E
:102C30009E2D0E943A39C5011BC0D1016D917C9136
:102C400027FF1AC0CB010E94022EF20183819481DA
:102C50000E94A6220E94E227182F092FC101612F8E
:102C6000702FACDE812F902F0E942639812F902F5C
:102C70000E943A390C94871FCB010E94022ED10189
:102C80008D919C910E94732E882369F4F1018081BB
:102C900091810E945C2DDC011B968D919C911C976B
:102CA000612F702FB2C0812F902F0E9426390E9471
:102CB0008A3A812F902F9C0189010C94821FF30185
:102CC00081859285908787830C94871FD3011B96FB
:102CD0008D919C911C9707C0F1018081918103C067
:102CE000D1018D919C910E94022E0C94871FF301BB
:102CF000838594850E945C2D8C01D3011B968D9158
:102D00009C911C970E94752DBC01F30183859485CD
:102D10000E94A72DD3011B968D919C911C97B80101
:102D20000E94BB2D0C94871FF301838594850E941C
:102D30005C2D8C01D3011B968D919C911C970E9458
:102D4000752D7C01F301838594850E948E2D6C0185
:102D5000D3011B968D919C911C97B7010E94A72DC2
:102D6000F30183859485B6010E94BB2DD3011B9688
:102D70008D919C911C97B8010E94CF2D0C94871FB8
:102D8000F301838594850E945C2DBC01D3011B96C1
:102D90008D919C911C9739C0F301838594850E9485
:102DA0005C2D8C01D3011B968D919C911C970E94E8
:102DB000752D7C01F3018385948562E070E00E94AB
:102DC0002E2ED3011B968D919C911C97B8010E94C9
:102DD000A72DC8010E942639F30183859485B70188
:102DE0000E94BB2DC7010E9426390C94871FD30176
:102DF0001B968D919C911C970E94022EB1010E94FE
:102E00005A3DBC01F301838594850E945D2E0C948C
:102E1000871FFA01E20FF31F818162810E9458230C
:102E2000D30117968D919C911897029618969C93B2
:102E30008E9317970C94871FFA01E20FF31F80817E
:102E400061810E9458235C01CC24B7FCC094DC2C27
:102E5000F301878190850296908787831F3509F457
:102E600070C0103660F51C3309F491C01D33A8F40E
:102E70001E3168F4133108F064C01A3008F447C0FA
:102E80001D3008F447C01F3009F041C043C016335D
:102E900009F47DC01633D8F154C0103548F41B3402
:102EA00008F04FC0143408F44CC0153481F532C01A
:102EB0001A3581F11C3571F1143549F52BC01437E1
:102EC00090F4123738F51D3638F41B36D0F511362C
:102ED00009F11A36E1F41EC01D36E1F0812F8F563C
:102EE0008230A8F417C01938A9F01A3838F4143809
:102EF00089F0163879F01D3751F40CC0133928F4D5
:102F0000113940F41F3819F405C01339D1F0882461
:102F1000992414C0D3011B968D919C911C970E94FB
:102F2000022E4C01FC0180818B3641F4D4011396B2
:102F30008C91139714969C919C0149011C821B82D1
:102F400023C0F301838594850E94022E4C01D30196
:102F50001B968D919C911C970E94022E9C838B83C3
:102F6000F40180818B3621F4838194819C01490195
:102F7000AB81BC818C918B3639F4EB81FC818381F0
:102F800094819C013C832B83EE24FF2434C0D30125
:102F90001B968D919C911C970E94022E4C01F3016F
:102FA000838594850E94022E9C838B83D3011B967C
:102FB0008D919C911C970E94022E7C01F4018081CE
:102FC0008B3621F4838194819C014901AB81BC81C2
:102FD0008C918B3641F413968C91139714969C9197
:102FE0009C013C832B83F70180818B3621F4838104
:102FF00094819C017901812F90E0FC013A97EA3895
:10300000F10508F054C7EC56FF4F0C94073E00E062
:1030100010E08824992474C6882499246BC6D301AF
:103020001B968D919C911C970E94022E8C01FC0195
:1030300080818B3621F4838194819C018901F2E0A7
:10304000AF16B104C104D10494F0D3011B968D9145
:103050009C911C970E94022EB2E0AB16B104C104F1
:10306000D10429F0F301838594850E94022ED101B9
:103070001896ED91FC911997309719F0C101B8019C
:1030800019958EE40E9460230E9426398EE40E94E6
:10309000602337C78DE592E30E94A82817C6D301A5
:1030A0001B968D919C911C970E945C2DFC01808148
:1030B000823519F0E0E0F0E009C0F30183859485E2
:1030C0000E945C2DB1010E94C13CFC018081D301B2
:1030D0001B962D913C911C978E3449F4C9010E9496
:1030E000022EF301878190858A0D9B1D58C2C9016C
:1030F00087C4D20155968D919C915697B5010E9437
:10310000AE23FC0180818B3621F4838194819C0164
:10311000F901C401BF010E945028BC01009709F0C9
:10312000D6C5C5C6D20155968D919C915697B501CD
:103130000E94AE23FC0180818B3621F4838194812F
:103140009C01F901C401BF014B815C810E94582A96
:10315000AEC6F20185899689B5010E94AE237C0135
:10316000DC018C918B3639F413968C91139714965D
:103170009C919C017901C101B70155DABC01809194
:103180005106909152066817790709F0A0C5D10140
:103190001696ED91FC911797309709F488C6D701E0
:1031A00013966D917C911497C10119958C0100972C
:1031B00009F47DC6F30183859485B8010E945D2ED4
:1031C000C101B701A801FFDBC101B80140E050E037
:1031D00020E030E032DAC80168C6D20155968D9100
:1031E0009C915697B5010E94AE23FC0180818B36DD
:1031F00021F4838194819C01F901D4018C9183365F
:10320000C1F46381748155968D919C9156970E946B
:103210003C25BC01BFEF8F3F9B0709F448C6F40172
:10322000858996890E94AE23BC01009709F042C5AA
:103230003EC6863209F03BC6F3018385948576C18C
:10324000D40113968D919C9114970E94A6220E94FE
:10325000E227BC01C101A401B6DB29C685011070BB
:10326000BB27D7FCBA95AD2D9C2D8B2DAFEFAA2E89
:10327000B12CA822B9220115110519F4CC24DD24A2
:103280001EC0C8010E94F5276C01EE24FF24F30143
:10329000838594850E94022EFC0180818B3621F467
:1032A000838194819C01F901C601B701AF010E949D
:1032B0006E240894E11CF11CE016F10644F3A114FD
:1032C000B10419F4442455241FC080E090E00E940A
:1032D000F5272C01EE24FF24D3011B968D919C91A0
:1032E0001C970E94022E8C01F301838594850E9415
:1032F000022EBC01C201A8010E940C2A0894E11C04
:10330000F11CEA14FB0444F3C401B601A20120E05D
:1033100030E00E94602ABC01D3011B968D919C91E4
:103320001C970E945D2EC6010E942639C2010E9490
:103330002639C6010E943A39C201B7C5850110700D
:10334000BB27D7FCBA95AD2D9C2D8B2DEFEFAE2E64
:10335000B12CA822B922F301838594850E94022E04
:103360002C010115110519F4CC24DD2420C0C8015D
:103370000E94F5276C01EE24FF24D3011B968D914A
:103380009C911C970E94022EFC0180818B3621F4B7
:10339000838194819C01F901C601B701AF010E94AC
:1033A0006E240894E11CF11CE016F10634F3A1141C
:1033B000B10419F41C821B8221C080E090E00E94BD
:1033C000F5279C838B83EE24FF24F301838594856A
:1033D0000E94022E8C01D3011B968D919C911C970B
:1033E0000E94022EBC018B819C81A8010E940C2AA4
:1033F0000894E11CF11CEA14FB043CF3C401B6017F
:103400004B815C8192010E94602ABC01F30183859B
:1034100094850E945D2EC6010E9426398B819C8175
:103420000E942639C6010E943A398B819C813DC594
:10343000D4018C91863409F03AC512C0D4018C9124
:10344000843509F034C50CC0D30117968D919C9139
:1034500018978A0D9B1D18969C938E93179727C5D6
:10346000F301B086A78223C5D4018C91863409F07C
:103470001EC5F30183859485B4010E945D2ED3019E
:103480001896BC92AE92179712C5F40180818435CC
:1034900009F00DC5D3011896BC92AE92179742C0A1
:1034A000F3018385948561E00E94192E0E948A3A77
:1034B000FEC40E94FB2B8C01D30117968D919C9129
:1034C0001897F8019683858354824382C2010E9433
:1034D0002639D30117968D919C911897F801908702
:1034E000878317968D919C9118978A0D9B1D9287C3
:1034F00081871282118282E680830E94862ED80103
:103500001C969C938E931B97F10180819181B80149
:103510000E945D2ED80119968D919C911A97F30106
:10352000908787831B968D919C911C97B401D2C381
:103530000E94FB2B8C01D30117968D919C911897BB
:10354000F8019683858354824382C2010E94263902
:10355000D30117968D919C911897F80190878783D6
:1035600017968D919C9118978A0D9B1D9287818744
:103570001282118282E680830E94862ED8011C96D8
:103580009C938E931B97F10180819181B8010E94D9
:103590005D2ED80119968D919C911A97F301908711
:1035A000878385C480E090E00E94F52782C380E095
:1035B00090E00E94F5278AC380E090E00E94F52702
:1035C0007C018824992424C0D3011B960D911C9161
:1035D0001C97C8010E94522D61E070E06A197B09B6
:1035E000680D791D680F791FC8010E94302DFC01FC
:1035F0008081823531F4CF01B101A7010E94163DCF
:1036000004C0C701BF010E9464270894811C911C5B
:10361000C401AA2797FDA095BA2F8A159B05AC0572
:10362000BD0594F200E010E005C0C9010E94022E21
:103630000F5F1F4FC801AA2797FDA095BA2FF3016E
:10364000238534858A159B05AC05BD0574F3C90136
:103650001DC2D2015596ED91FC9156970580F681D9
:10366000E02DC501880F991F0190F081E02DE80F32
:10367000F91FE080F180F70180818B3611F4E5803D
:10368000F680C101B7010E9413138C01809151068D
:10369000909152060817190709F054C0CC24DD2474
:1036A00049C0D10112968D919C911397B6010E9449
:1036B000DC235C01FC0180818336C9F5D7011396B8
:1036C0006D917C911497858996890E943C25BC0157
:1036D000BFEF8F3F9B0731F0F501858996890E94E6
:1036E000AE238C018091510690915206081719075C
:1036F00049F5D70113966D917C911497F50187894F
:10370000908D0E943C25BC01FFEF8F3F9F0741F049
:10371000D50157968D919C9158970E94AE238C01AC
:1037200080915106909152060817190759F4089490
:10373000C11CD11CF10182819381F5D7C816D9062D
:103740000CF4AFCFD3011B968D919C911C97B801BF
:10375000C1C2D2015596ED91FC9156970580F68134
:10376000E02DC501880F991F0190F081E02DE80F31
:10377000F91F00811181F80180818B3611F40581D8
:103780001681EE24FF243AC0D10112968D919C91AE
:103790001397B7010E94DC236C01FC018081833602
:1037A00051F5D80113966D917C911497858996896E
:1037B0000E943C25BC01BFEF8F3F9B0721F0F60123
:1037C0008589968914C0D80113966D917C911497C0
:1037D000F6018789908D0E943C25BC01FFEF8F3F49
:1037E0009F0749F0D60157968D919C915897A40157
:1037F0000E94AF295CC30894E11CF11CF101828195
:10380000938191D7E816F9060CF4BECF50C3D201CC
:103810005596ED91FC9156970580F681E02DC501F6
:10382000880F991F0190F081E02DE80FF91F0081AA
:103830001181F80180818B3611F405811681EE2407
:10384000FF243BC0D10112968D919C911397B70133
:10385000B3D76C01FC018081833661F5D8011396E2
:103860006D917C911497858996890E943C25BC01B5
:10387000BFEF8F3F9B0731F0F6018589968940E0C5
:1038800050E0B6CFD80113966D917C911497F60154
:103890008789908D0E943C25BC01FFEF8F3F9F07D9
:1038A00049F0D60157968D919C91589740E050E091
:1038B0000E94AF290894E11CF11CF10182819381DF
:1038C00032D7E816F9060CF4BDCFF1C2D2015596F5
:1038D0008D919C91569779C0F20183899489B501A5
:1038E0003DD7E7C1F2018789908D6FC0F201838DCA
:1038F000948D19D7AA2797FDA095BA2FF201E38CD2
:10390000F48CA816B906CA06DB06BCF4C701B501DB
:1039100025D7FC018081D2015B96ED90FC905C97ED
:103920008B3649F0C701B50119D7B4010E948B2924
:10393000AC01C7019EC0C701EFC0F201018D128D1D
:103940006501C701F0D6B501681B790BC80106D720
:10395000FC018081D2015B96ED90FC905C978B36E8
:10396000B9F0C701E0D67C01F201018D128D838D83
:10397000948DD9D6B501681B790BC801EFD6B40177
:103980000E948B29AC01CE18DF08C801B601FAC02D
:10399000D20159960D911C915A97C701C4D6C81AE5
:1039A000D90AC801B60123CFF201838D948DBBD60D
:1039B000AA2797FDA095BA2FF201E38CF48CA816E4
:1039C000B906CA06DB061CF4C701B5010BC0D2015B
:1039D00059960D911C915A97C701A5D6B501681B40
:1039E000790BC801BBD6FC0180818B3621F4838121
:1039F00094819C01F901D3011B968D919C911C9798
:103A0000BF0168C1F201838D948D8DD6AA2797FDE1
:103A1000A095BA2FF201E38CF48CA816B906CA0659
:103A2000DB061CF4C701B5010BC0D20159960D91FC
:103A30001C915A97C70177D6B501681B790BC8014D
:103A40008DD644C1D20155968D919C915697B50162
:103A500085D6FC018081F201058916898B3609F42F
:103A60005AC0C801B5017AD6B4010E948B29AC01B5
:103A7000C801B50187C0C701B4014B815C810E94B8
:103A80000C2AD3011B968D919C911C97B70122C1E2
:103A9000662777276A197B09F301838594850E943D
:103AA000302DFC0180818B3621F4838194819C012F
:103AB000F901CF01B4014B815C816AC06627772789
:103AC0006A197B09D3011B968D919C911C9707C0A5
:103AD000662777276A197B09F301838594850E94FD
:103AE000302DFC0180818B3621F4838194819C01EF
:103AF000F901CF01B4010E946427D9C1D2015796C0
:103B00008D919C915897B50129D6FC018081F201D5
:103B10000789108DA3CFC801B50169CED201559692
:103B20008D919C91569703C0F2018789908DB501C4
:103B300011C0D4018C91893619F060E070E003C0A7
:103B4000F40163817481AB81BC818C91883209F06E
:103B5000AEC1CD0181D6ABC1F4019081993619F087
:103B600060E070E005C0D40113966D917C911497CC
:103B7000EB81FC818081883209F099C1993621F46A
:103B8000CF01A701ABD693C18B819C81B401A70162
:103B90000E940C2A8CC1D4019C91993619F060E0E6
:103BA00070E003C0F40163817481AB81BC818C91AE
:103BB000883209F07CC1993611F4CD0141CF8B8157
:103BC0009C81B4010E949A2681C0850115C0D40150
:103BD0008C91853789F4D4011396ED91FC9114975B
:103BE000E00FF11F808194D40E94E227BC01F30111
:103BF000838594850E945D2E0150104017FFE7CF0A
:103C000056C1D4018C91893609F051C113966D913A
:103C10007D918D919C91169743C0D4018C918936EA
:103C200009F045C113966D917D918D919C911697E8
:103C300090958095709561957F4F8F4F9F4F30C0C5
:103C4000D4018C91893661F413968D919D910D90DC
:103C5000BC91A02D0097A105B10581F086E40FC0AD
:103C6000843511F486E403C0863419F484E528D53C
:103C700020C08E3419F0803309F019C184E520D5B5
:103C800025C0D4018C91893609F011C113966D912C
:103C90007D918D919C9116976095709580959095EA
:103CA0000E94B52713C0C4016B817C81412F0E9403
:103CB0004734BC01D3011B968D919C911C970AC07F
:103CC000C4016B817C814A2D0E94D232BC01F30178
:103CD000838594850E945D2EEAC0D3011B968D9149
:103CE0009C911C970E94022E4C011E3819F000E096
:103CF00010E006C0F301838594850E94022E8C019A
:103D00004FEF442E512C4A205B20BB27D7FCBA959D
:103D1000AD2D9C2D8B2D9C0130703A83298341144D
:103D2000510431F40115110519F4CC24DD2407C028
:103D300080E090E00E94F5276C010E94263989817D
:103D40009A81892B31F48114910419F4EE24FF2413
:103D500027C080E090E00E94F5277C015C010E9472
:103D6000263981149104E1F01C821B820DC0C4012C
:103D70006B817C81F3D4BC01C5010E946427AB81B7
:103D8000BC811196BC83AB83D4011596ED91FC9157
:103D9000169782819381EB81FC81E817F9073CF348
:103DA0000115110519F0AA24BB240DC0AA24BB24B7
:103DB0002CC0C801B501D2D4BC01C6010E94642741
:103DC0000894A11CB11CD8011596ED91FC91169791
:103DD00082819381A816B90664F3E8CFF301838545
:103DE00094850E94022E8C01D3011B968D919C918B
:103DF0001C970E94022EB8010E94902BBC01C701A3
:103E00000E9464270894A11CB11CE981FA81AE16B6
:103E1000BF0624F3AA24BB2419C0D3011B960D911D
:103E20001C911C97C8010E94522DB5016419750997
:103E30006F5F7F4F680F791FC8010E94302DBC0152
:103E4000C6010E9464270894A11CB11CA414B504E7
:103E500024F300E010E005C0C9010E94022E0F5FAC
:103E60001F4FF3012385348504151505ACF3C901F3
:103E70000E94022EFC0180818B3621F48381948183
:103E80009C01F901C101BF01A601970148D2BC0103
:103E9000009739F0D3011B968D919C911C970E943D
:103EA0005D2EC6010E943A39C7010E943A390E942C
:103EB0008A3AD1011A96ED91FC911B97309749F1FE
:103EC000C101199526C0F301838594850E94732E44
:103ED000D1016D917C91882319F0CB010C9473165C
:103EE000CB010E94022EF301838594850E94022E4D
:103EF000182F092F0E9426390E948A3A212F302F2D
:103F0000C9018C01C8012496E2E10C94EC3D0E94A9
:103F10008A3A00E010E0F6CFA0E0B0E0E2E9FFE18D
:103F20000C94D63D7C016B015A0149010091510668
:103F300010915206C0E0D0E01CC0C701BE010E9433
:103F40001813FC018081833661F4C701BE010E9411
:103F50001813DC0155968D919C915697B60146D564
:103F60008C0180915106909152060817190771F43F
:103F70002196D7011296ED91FC9113970580F68159
:103F8000E02D82819381C817D907BCF2F8018081A6
:103F9000863619F020E030E00CC0C701B801A50159
:103FA00094010E949413C7010E94E8149C01009799
:103FB000D1F3C901CDB7DEB7ECE00C94F23DA0E03F
:103FC000B0E0E5EEFFE10C94D43D7C01742E652E4B
:103FD00069014801842F952FD4D6EC01009709F48C
:103FE00071C08091510690915206C817D90709F403
:103FF00069C0C114D10429F0C816D90611F05601C0
:1040000006C080E090E0F1D75C010E942639C5012E
:1040100060E070E0472D562D2DD7D701ED91FC9132
:104020000190F081E02D028113818881863681F52F
:10403000C701BE01A50194010E94941320E030E065
:104040000BC0C7010E94E814D701ED91FC910190CB
:10405000F081E02D22813381892B19F40217130797
:1040600081F7F701808191810E945C2DDC011B9614
:104070008D919C911C970E94022E8C01EB81FC81FA
:104080008789908D60E070E040E050E027D40CC05C
:10409000833419F000E010E007C0C701BE01A5019C
:1040A00094010E940B138C01C114D10439F080914A
:1040B000510690915206C816D90631F4C5010E94E6
:1040C0003A3902C000E010E0C801CDB7DEB7EEE03B
:1040D0000C94F03D4F925F927F928F929F92AF929D
:1040E000BF92CF92DF92EF92FF920F931F93CF93E5
:1040F000DF935C016B014A012901DB011396ED910D
:10410000FC9114970189128901151105C9F10E94CA
:10411000FB2BEC0182E68883F601838194819C83EA
:104120008B830E94263918861F821E821D82D80129
:1041300015968D919C9116979A8789871A82198274
:104140000E94862E9C878B87F50180819181BE011C
:104150000E945D2E8B859C85B6010E945D2E811488
:10416000910409F442C0D6011396ED91FC91149785
:104170008789908D60E070E0A4010E94AF2935C06E
:10418000CB01FDD7EC01F501808191810E94732E56
:10419000882359F4D5018D919C910E945C2DFC01DE
:1041A00083859485BE010E945D2E84ED92E0CED180
:1041B00009D7F82EE92EC5016F2D7E2DAE01940191
:1041C00000E010E0FCDE8C010E942639C8010E944C
:1041D0003A398F2D9E2D0E9426398F2D9E2D0E94BB
:1041E0003A390E948A3AC0E0D0E0D60115967C9018
:1041F00015971696DC90072D1D2DEE24FF2426C062
:10420000C701880F991FD8011596ED91FC9116975B
:104210000190F081E02DE80FF91F20813181D90153
:104220001396ED91FC91149785859685A785B089A5
:1042300092609E7F85879687A787B08BC501B9015D
:10424000A401920147DF0894E11CF11C872D9D2DEC
:104250006AD2E816F906A4F2CE01DF91CF911F9140
:104260000F91FF90EF90DF90CF90BF90AF909F9015
:104270008F907F905F904F900895A0E0B0E0E3E4CE
:10428000F1E20C94DA3D8C01EB017A0169016115D0
:104290007105E9F188818336D9F0843638F48334A6
:1042A000F1F08D3441F0863291F50CC0863639F14B
:1042B000853769F51BC0C801BE01A70196010E94A0
:1042C0009F1423C0C801BE01A701960103DF1FC0D0
:1042D000C801BE01A70196010E941D1318C0C801A4
:1042E000BE01A70196010E940B130FC06B817C8158
:1042F000C8010E941313009711F0EC01CBCFC80145
:10430000BE01A70196010E9494139C0102C020E007
:1043100030E0C901CDB7DEB7E8E00C94F63DA0E08F
:10432000B0E0E5E9F1E20C94DA3D7C01FB01EA0141
:104330006901309761F18081853769F4C701BF0158
:104340000E941313FC018091510690915206E817C8
:10435000F90779F71CC0833439F4C701BF01AE01F6
:1043600096018BDF9C0115C0CF010E94FF2B8C01B1
:104370000E942639C701B801AE0196017EDFF82EF2
:10438000E92EC8010E943A392F2D3E2D02C020E0AF
:1043900030E0C901CDB7DEB7E8E00C94F63DA0E00F
:1043A000B0E0E5EDF1E20C94D83D7C01EB016A014F
:1043B00059018881833621F08EE482D19C0122C08C
:1043C0008DED92E0C3D0FED5182F092F0E9426391B
:1043D00086EE92E0BBD0F6D5AC018D899E89612F27
:1043E000702F0E940C2A812F902F0E943A39C7010A
:1043F000BE01A601950141DFC7010E94E8149C019E
:104400000097D1F3C901CDB7DEB7EAE00C94F43DD3
:10441000A0E0B0E0EEE0F2E20C94D93D7C018B012B
:10442000B42ECB010E944536882341F1C8010E9479
:10443000BA36EC0186EE92E089D0C4D5D82EC92ECA
:10444000C7016D2D7C2DAE010E94E314C701BE0192
:1044500040E050E020E030E0A2DF009711F00E9441
:104460003A39BB2071F0CE010E943A39C7016D2D57
:104470007C2D0E94DE14C8010E945236C0E0D0E0BC
:1044800003C0C8010E945236CE01CDB7DEB7E9E0C5
:104490000C94F53D0F931F93CF93DF938C0182E132
:1044A00090E00E943F09EC011D861C861F861E8637
:1044B0000E94862E9983888380E090E096D59B8326
:1044C0008A830E942639198A188A1D821C821986BD
:1044D00018861B861A861F821E82CE010E94A33A6E
:1044E000D3D60E94DE38CE010E949A300115110504
:1044F00049F086EE92E02AD065D5BC01CE01A80134
:104500000E94E314CE01DF91CF911F910F91089586
:10451000FF920F931F93182F82E090E00E943F09B3
:10452000082FF92E60E070E042E050E00E94230B7B
:10453000802F9F2D612F70E041E050E00E94230BFF
:10454000802F9F2D1F910F91FF900895EF92FF9262
:104550000F931F938C010E94330B01960E943F0919
:10456000F82EE92EC8010E94330BAC014F5F5F4F5C
:104570008F2D9E2D60E070E00E94230BC8010E94E9
:10458000330BAC018F2D9E2DB8010E941A0B8F2D7D
:104590009E2D1F910F91FF90EF900895A0E0B0E045
:1045A000E4EDF2E20C94DA3D7C016B01009741F4FA
:1045B0006115710519F4C0E0D0E03CC0CB0103C027
:1045C0006115710519F4C2DFEC0134C00E94330B90
:1045D0008C01C6010E94330B080F191FC8010196F8
:1045E0000E943F09EC01C7010E94330B8C01C601F8
:1045F0000E94330B080F191F0F5F1F4FCE0160E0A1
:1046000070E0A8010E94230BC7010E94330BAC018C
:10461000CE01B7010E941A0BC7010E94330B8C0117
:10462000C6010E94330BAC01CE01800F911FB60171
:104630000E941A0BCE01CDB7DEB7E8E00C94F63D30
:104640006F927F928F929F92AF92BF92CF92DF92A2
:10465000EF92FF920F931F933B014C0159016A01A6
:104660009C01EE24FF2487010BC0C9019301A40122
:104670000E94963D9C010894E11CF11C011D111D36
:10468000D601C5010197A109B109E816F9060A0783
:104690001B075CF3C9011F910F91FF90EF90DF9012
:1046A000CF90BF90AF909F908F907F906F90089524
:1046B000562F40E0282F30E0242B352BC9010895D8
:1046C0008634E9F0873438F4803379F08F3309F198
:1046D0008E3221F519C08E3419F08435F9F40AC0F0
:1046E00080915306909154060895809151069091BF
:1046F000520608958091550690915606089580912E
:1047000057069091580608958091590690915A063F
:10471000089580915B0690915C06089580915B06F8
:1047200090915C060895FC01009759F080818832D1
:1047300041F40580F681E02D309719F02281338114
:1047400002C020E030E0C9010895FC01009729F083
:104750008081883211F41482138208950F931F937D
:10476000CF93DF93FC01EB01009769F080818832E1
:1047700051F405811681D80112968D919C91139761
:10478000681779072CF080915106909152060FC05E
:1047900077FF04C0CF01C7DFC80FD91FCC0FDD1FC3
:1047A000D801ED91FC91EC0FFD1F80819181DF918B
:1047B000CF911F910F910895DC01009781F08C91AA
:1047C000883269F41596ED91FC911697309739F07F
:1047D000828193816817790714F477FF05C080916F
:1047E0005106909152060895CD01B8DFFC018381F6
:1047F00094810895DC01009719F08C91883229F09A
:104800008091510690915206089513962D913C91F6
:1048100014971596ED91FC91169782819381281734
:1048200039078CF4C901019614969C938E931397C3
:104830000197880F991F0190F081E02DE80FF91F73
:1048400080819181089514961C921E9213978091F5
:104850005106909152060895EF92FF920F931F9385
:10486000CF93DF938C01EB01009799F1DC018C91E0
:10487000883279F51596ED90FC901697F7018281B4
:104880009381681779072CF577FF04C0C8014BDFC7
:10489000C80FD91FCC0FDD1FD701ED91FC91EC0F94
:1048A000FD1F808191810097A1F00E943A3980918B
:1048B000510690915206D8011596ED91FC911697EC
:1048C0000190F081E02DEC0FFD1F918380830E9409
:1048D0002639CDB7DEB7E6E00C94F83DEF92FF92B3
:1048E0000F931F93CF93DF93FC01EB018A01009795
:1048F000B9F180818832A1F5E580F680D701129662
:104900008D919C9113976817790754F577FF04C030
:10491000CF0109DFC80FD91FCC0FDD1FD701ED91E3
:10492000FC91EC0FFD1FC081D1810115110559F0DB
:1049300080915106909152060817190721F01183B2
:104940000083C80106C08091510690915206918360
:1049500080830E942639209719F0CE010E943A39AF
:10496000CDB7DEB7E6E00C94F83DEF92FF920F93DF
:104970001F93CF93DF937C01009799F1DC018C9119
:10498000883279F515968D919C911697892B49F16E
:1049900000E010E01CC0C801880F991F0190F08151
:1049A000E02DE80FF91FC081D181209771F0888137
:1049B0008B3659F48D819E81918380838D819E8178
:1049C0000E942639CE010E943A390F5F1F4FD7014E
:1049D0001596ED91FC91169782819381081719071E
:1049E000D4F2CDB7DEB7E6E00C94F83DA0E0B0E03D
:1049F000ECEFF4E20C94DA3DFC016B01009791F1CD
:104A00008081883279F5E580F680E114F10451F176
:104A1000C0E0D0E021C0CE01880F991FD701ED91F1
:104A2000FC91E80FF91F0190F081E02D309799F08B
:104A300080818B3681F4A581B681038114818C91AC
:104A4000853749F413968D919C911497B6010E9475
:104A50002A0B892B59F02196F70182819381C8177F
:104A6000D907CCF20091510610915206C801CDB77A
:104A7000DEB7E8E00C94F63DEF92FF920F931F93A0
:104A8000CF93DF93FC017B01009799F180818832FD
:104A900081F5058116810115110559F1C0E0D0E0BD
:104AA00022C0CE01880F991FD801ED91FC91E80F2B
:104AB000F91F0190F081E02D3097A1F0DF01808196
:104AC0008B3621F4858196819C01D9018C918537A3
:104AD00049F413968D919C911497B7010E942A0B6B
:104AE000892B49F02196F80182819381C817D90753
:104AF000C4F2CFEFDFEFCE01CDB7DEB7E6E00C9426
:104B0000F83DFF920F931F93CF93DF938C01EB013E
:104B1000009729F460E0CD2B09F064C064C06115F2
:104B2000710509F45FC0FC0190818881981709F034
:104B300059C09736D9F1983628F4903361F09E34F5
:104B400041F409C09B3649F0953709F442C09936C3
:104B5000E9F06FEF48C060E046C06D817E81F801EA
:104B600085819681CEDF882319F480E090E038C0FB
:104B70006B817C81F80183819481C3DF90E088237D
:104B800009F491E081E09827892F2AC060E0F801BC
:104B900023813481458156818B819C81AD81BE8189
:104BA000281739074A075B07E9F41DC0FF24F801FD
:104BB00063817481858196812B813C814D815E81E9
:104BC0000E948D05882311F4FF24F39461E06F2582
:104BD0000AC06B817C81F801838194810E942A0B39
:104BE000682F01C061E0862FCDB7DEB7E5E00C94F9
:104BF000F93DEF92FF920F931F93CF93DF938C01B8
:104C00007B01009799F1DC018C91883279F515963A
:104C10008D919C911697892B49F16115710531F1A0
:104C2000C0E0D0E019C0CE01880F991F0190F0813B
:104C3000E02DE80FF91F0190F081E02D309729F069
:104C400080818B3611F0CF0102C083819481B7013E
:104C500058DF882369F02196D8011596ED91FC91D3
:104C6000169782819381C817D907ECF2CFEFDFEF57
:104C7000CE01CDB7DEB7E6E00C94F83DEF92FF929F
:104C80000F931F93CF93DF938C017B01009799F1D2
:104C9000DC018C91883279F515968D919C9116974F
:104CA000892B49F16115710531F1C0E0D0E019C0DF
:104CB000CE01880F991F0190F081E02DE80FF91FB8
:104CC0000190F081E02D309759F080818B3611F002
:104CD000CF0102C085819681B70113DF882369F077
:104CE0002196D8011596ED91FC91169782819381BA
:104CF000C817D907ECF2CFEFDFEFCE01CDB7DEB7A3
:104D0000E6E00C94F83DCF93DF93EC01009779F047
:104D10008881883261F46115710549F0CE01AEDFFA
:104D2000BC018FEF6F3F780711F0CE0195DDDF9169
:104D3000CF910895CF93DF93EC01A0DFBC018FEFFB
:104D40006F3F780749F0CE0109DDFC0180818B3689
:104D500019F48381948104C0809151069091520688
:104D6000DF91CF910895FC01209151069091520658
:104D700080818A3221F487819085DCDF282F822F81
:104D80000895A0E0B0E0E7ECF6E20C94D83D8C0189
:104D90006B01C0915106D0915206D8018C91863298
:104DA00009F04BC01396ED91FC9114978589968973
:104DB000B601C0DFEC010097A9F0809151069091F7
:104DC0005206C817D90741F02881263609F44CC08D
:104DD000233409F449C0EC01209721F0C817D90702
:104DE00009F042C0F801A580B6808501EE24FF24B9
:104DF0001EC0D8011596ED91FC911697C701880F3A
:104E0000991F0190F081E02DE80FF91F80819181B9
:104E1000B601B7DFEC01009739F08091510690910F
:104E20005206C817D90701F50894E11CF11CC50109
:104E30007ADCE816F906ECF217C08A32A9F4F80118
:104E400085819681B60176DFEC01009739F080917B
:104E5000510690915206C817D90731F4D80113961C
:104E60000D911C91149795CFCE01CDB7DEB7EAE036
:104E70000C94F43DEF92FF920F931F93CF93DF9327
:104E8000EC017B018A010097D1F088818832B9F466
:104E900041155105A1F08D819E81892B39F480E067
:104EA00090E060E00E9453309E838D838D819E81CF
:104EB000B701A8010E94F22FC8010E942639CDB780
:104EC000DEB7E6E00C94F83D0F931F93CF93DF938A
:104ED000EC018B010097B1F08881883299F48D81C3
:104EE0009E81892B39F480E090E060E00E9453308D
:104EF0009E838D838D819E81B8010E94932FC8016E
:104F00000E942639DF91CF911F910F91089589E07A
:104F100090E00C943F09FBDFFC0182E58083108662
:104F200017821482138212821182CF01089587E0C2
:104F300090E00C943F09EF92FF920F931F937B0137
:104F40008C01F5DFFC0187E6808312821182E38207
:104F5000F48205831683CF011F910F91FF90EF908C
:104F6000089587E090E00C943F09EF92FF920F9331
:104F70001F937B018C01F5DFFC0189E6808312829F
:104F80001182E382F48205831683CF011F910F9172
:104F9000FF90EF90089585E090E00C943F090F9307
:104FA0001F938C01F8DFFC0184E780831282118259
:104FB00014830383CF011F910F91089585E090E042
:104FC0000C943F090F931F938C01F8DFFC0185E7D8
:104FD00080831282118214830383CF011F910F916A
:104FE000089587E090E00C943F09EF92FF920F93B1
:104FF0001F938C01F6DF7C0188E2F7018083128227
:10500000118214821382C80161E00E945330F701BB
:1050100096838583C7011F910F91FF90EF900895AC
:1050200087E090E00C943F09EF92FF920F931F935B
:105030008C017B01F5DFFC0183E780831282118202
:1050400014830383F682E582CF011F910F91FF90B5
:10505000EF90089587E090E00C943F09CF92DF92A3
:10506000EF92FF920F931F937C016B01F3DF8C0192
:105070008DE4F8018083F482E382C7010E9426391F
:10508000F80112821182D682C582C6010E94263999
:10509000C8011F910F91FF90EF90DF90CF9008957E
:1050A0000F931F93CF93DF93EC018B01209719F09F
:1050B0000115110529F420915106309152063EC088
:1050C0008881833619F48D899E8906C0863239F429
:1050D000EB81FC8185899689B8012CDE1FC08A325C
:1050E00059F5CE01B8013FDE9C01009739F080915F
:1050F0005106909152062817390791F4CE01B80154
:1051000040DE9C01009799F08091510690915206E3
:105110002817390729F0C901BE01A0DF9C010EC084
:1051200080915106909152062817390739F48B81E6
:105130009C819C01E901BACF20E030E0C901DF91F8
:10514000CF911F910F91089585E090E00C943F0955
:105150000F931F938C01F8DFFC0183E48083148399
:10516000038312821182CF011F910F91089585E070
:1051700090E00C943F0989E090E00C943F09EF9295
:10518000FF920F931F937C01F6DF8C018AE2F801F6
:105190008083F482E38212821182C7010E94263941
:1051A00080E090E022DFF801858396830E94263913
:1051B00080E090E01ADFF801878390870E9426390B
:1051C000C8011F910F91FF90EF90089587E090E044
:1051D0000C943F09CF92DF92EF92FF920F931F93AF
:1051E0007C016B01F3DF8C0186E2F8018083F4829D
:1051F000E38212821182D682C582C7010E942639BB
:10520000C6010E942639F70185859685A785B08954
:10521000916085879687A787B08BC8011F910F91F2
:10522000FF90EF90DF90CF9008958DE190E00C9487
:105230003F090F931F938C01F8DFFC0183E6808305
:1052400014830383168215821086178212861186B4
:1052500014861386158616861786108A128A118A76
:10526000148A138A108E178A128E118E148E138E42
:10527000168A158A12821182CF011F910F9108950B
:1052800083E090E00C943F090F931F93F9DFFC013A
:10529000909352068093510680E3808301E010E0F2
:1052A00012830183EDDFFC01909354068093530633
:1052B0008EE4808312830183E3DFFC019093560622
:1052C0008093550684E5808312830183D9DFFC0136
:1052D000909358068093570686E480831283018357
:1052E000CFDFFC0190935A06809359068EE28083AB
:1052F00012830183C5DFFC0190935C0680935B06FB
:105300008FE38083128301831F910F91089587E0BB
:1053100090E00C943F09EF92FF920F931F93CF936D
:10532000DF938C017B01F3DFEC018BE688831A822B
:1053300019821E830D83C8010E942639E114F104ED
:1053400031F0FC82EB82C7010E94263902C01C8228
:105350001B82CE01CDB7DEB7E6E00C94F83DEF92AC
:10536000FF920F931F93CF93DF937C018B01EA0190
:105370008FEF6F3F780701F1C701F0D9FC01808101
:105380008B3699F403811481209731F0D483C38341
:10539000CE010E94263902C0148213820115110524
:1053A00059F0C8010E943A3907C0CF01BE01B3DFEE
:1053B000AC01C701B80192DACDB7DEB7E6E00C94D4
:1053C000F83DEF92FF920F931F93CF93DF93EC0181
:1053D0008B017A010097D9F088818832C1F4611578
:1053E0007105A9F08D819E81892B31F480E090E0D8
:1053F00060E059D69E838D83C801B7018CDF8C0194
:105400008D819E81B8018FD5C8010E942639CDB704
:10541000DEB7E6E00C94F83DA0E0B0E0E2E1FAE2AD
:105420000C94DA3D8C017B016A01009709F43BC0C2
:10543000FC0180818832B9F561157105A1F1C801BF
:105440001DDCEC01FFEF8F3F9F0749F1C801BE0152
:1054500085D9FC0180818B36D1F4C381D481C114FC
:10546000D10469F08091510690915206C816D90670
:1054700031F0D482C382C6010E94263902C0148250
:105480001382209781F0CE010E943A390CC0CF01DF
:10549000B60141DFAC01C801BE0120DA04C0C80179
:1054A000B701A6018EDFCDB7DEB7E8E00C94F63D7C
:1054B000FC0180818A3219F487819085ADCF0895EF
:1054C000A4E0B0E0E6E6FAE20C94D03D4C013B01EA
:1054D0002A013A8329834BDE1C0186E6D1018C9395
:1054E00012961C921E92119714969C928E9213976C
:1054F000C4010E942639F4010789108DC80113D90F
:10550000181619060CF071C06114710421F44114CD
:10551000510409F46AC0C80128DA6114710409F45D
:1055200044C0D4011596AD90BC9016971C821B8286
:105530002FC0F401E788F08C0894A108B108650138
:105540002B813C81C21AD30A0894A11CB11CC7014B
:10555000B60104D98C01DC018C918B3661F0C3015A
:105560006B817C81FBD8BC01C801D5DEAC01C701D1
:10557000B601B4D908C0C3016B817C81EFD8AC01FE
:10558000C701B601ECDEEB81FC813196FC83EB8335
:10559000D3011596ED91FC91169782819381EB8151
:1055A000FC81E817F9070CF4C4CF41145104E9F069
:1055B00000E010E010C0C201B801D0D8FC01658144
:1055C000768143815481D40157968D919C9158974F
:1055D00023DF0F5F1F4FD2011596ED91FC911697B7
:1055E000828193810817190734F3E981FA81EF2B3F
:1055F000B9F000E010E00EC089819A81B801AED800
:10560000AC01D40159968D919C915A97B80166D9F5
:105610000F5F1F4F89819A8186D80817190764F395
:10562000C1012496E2E10C94EC3DEF92FF920F93BE
:105630001F938C016CDE7C018BE6F7018083128264
:10564000118216830583C8010E942639F70114824E
:105650001382C7011F910F91FF90EF900895A0E072
:10566000B0E0E5E3FBE20C94DA3D7C01009709F43D
:1056700052C0DC018C91883209F04DC01596ED9135
:10568000FC911697309709F446C082819381892B4B
:1056900009F441C0CC24DD2434C08601000F111F61
:1056A000C081D181C00FD11FE881F981309731F1DC
:1056B00080818B3619F1CF01B8DF99838883D701B8
:1056C0001596ED91FC9116970190F081E02DE00F79
:1056D000F11F808191810E942639D7011596ED91A5
:1056E000FC9116970190F081E02DE00FF11F0190E1
:1056F000F081E02D858196810E943A390894C11C81
:10570000D11CD7011596ED91FC911697828193815A
:10571000C816D90614F2CDB7DEB7E8E00C94F63D12
:10572000CF92DF92EF92FF920F931F937C016B0158
:10573000EEDD8C018BE6F801808312821182F68205
:10574000E582C7010E942639F801D482C382C601CE
:105750000E942639C8011F910F91FF90EF90DF90B2
:10576000CF900895EF92FF920F931F93CF93DF9303
:105770008B017A01EC0189859A8501969A87898740
:105780008D899E89892B39F480E090E02EDC8D8B09
:105790009E8B0E942639C801B701C2DFBC018D89EA
:1057A0009E8992DBCDB7DEB7E6E00C94F83DEF9230
:1057B000FF920F931F938C01CB017A010E94A622C6
:1057C00001DCBC01C801A701CDDF1F910F91FF9043
:1057D000EF900895EF92FF920F931F938C017B013E
:1057E000CA01B6DCAC01C801B701E1DF1F910F911E
:1057F000FF90EF9008958DE090E00C943F09EF92B8
:10580000FF920F931F93CF93DF93EC01009709F45E
:105810001FC1F88083E6F81609F4BEC08F1540F169
:10582000E6E4FE1609F441C0EF15B8F0F0E3FF1608
:10583000E1F1FF1568F088E2F81609F48CC0EAE29D
:10584000FE1609F483C0F6E2FF1609F001C177C025
:1058500083E4F81609F0FCC06EC0EEE4FE1629F1F0
:10586000F4E5FF1611F18DE4F81609F0F1C05CC003
:10587000EBE6FE1609F449C0EF1558F0F7E6FF16FF
:10588000F1F089E6F816A9F0E6E6FE1609F0E0C0A8
:10589000D4C0F4E7FF1609F443C085E7F816A9F071
:1058A000E3E7FE1609F0D4C016C08F2D0E946023D6
:1058B00050C06B817C818D819E8157DB4AC06B819A
:1058C0007C818D819E8137DB44C08B819C810E94CD
:1058D000A62278DB3EC08D819E810E943F09182F51
:1058E000092F4D815E8160E070E00E94230B6B8187
:1058F0007C814D815E81812F902F0E941A0B6D81DA
:105900007E81812F902F90DB24C08D819E8177DF57
:105910008C018B819C8173DFBC01C80101DF19C040
:105920008B819C813CDB15C08B819C8168DF6D8104
:105930007E8194DB0EC08B819C810ADC0AC08B8146
:105940009C815DDF6D817E8145DC03C08B819C8104
:1059500016DC8C017FC0CE010E94932346DBF82E1B
:10596000E92E00E010E00DC0CE01B8010E94AE2388
:1059700046DFAC018F2D9E2DB8010E946E240F5F73
:105980001F4FCE010E949323081719076CF38F2D28
:105990009E2D9C0189015EC048DC8C01FC01F082D7
:1059A000128211828B819C810E94A622F80194832D
:1059B00083838D819E81968385838F81988590874F
:1059C000878389859A85928781878B859C85948733
:1059D00083878D859E85AF85B88985879687A787BC
:1059E000B08B89899A89928B818B0E9426398B8909
:1059F0009C89F801948B838B0E9426398F89988D1E
:105A0000FEDEF801908F878B0E942639898D9A8D52
:105A1000F801928F818F0E9426398B8D9C8DF80121
:105A2000948F838F0E9426398D899E89E8DEF80144
:105A3000968B858B0E9426390DC08B819C81DFDE81
:105A400060E070E040E050E020E030E039DD81CF00
:105A500000E010E0C801CDB7DEB7E6E00C94F83DF9
:105A6000DC0177FF07C0ED91FC9111978281938152
:105A7000680F791FED91FC918281938168177907F6
:105A80006CF477FD0BC0660F771F0190F081E02D5D
:105A9000E60FF71F0190F081E02D02C0E0E0F0E09A
:105AA000CF010895FC010190F081E02D2281338126
:105AB00021503040C9010895FC010190F081E02D92
:105AC00082819381181619061CF0E0E0F0E00BC00B
:105AD0000197880F991F0190F081E02DE80FF91FC1
