:100000005AC2000075C2000073C2000071C2000035
:100010006FC200006DC200006BC2000069C2000028
:1000200067C2000065C2000063C2000061C2000038
:100030005FC200005DC200005BC2000059C2000048
:100040000C94DB0F55C2000053C2000051C20000E7
:100050004FC200004DC200004BC2000049C2000068
:1000600047C2000045C20000D11CDD1CF01C271E49
:10007000271E111D271E271E271E231D231D271E79
:10008000231D231D231D9B1C231D231D231D231DF9
:10009000271E271E271E271E271E271E271E271E38
:1000A000271E271E271E271E271E271E271E271E28
:1000B000271E271E271E271E271E271E271E271E18
:1000C0000B1C231D231D231D271E231D7C1C691CA7
:1000D000231D231D231D231D231D231D271E271E16
:1000E000271E1917271E271E271E231D231D231D0C
:1000F000231D231D271E1F19271E271EEF17271E2E
:10010000271E271E271E271EF21B5E1CB51C1E174E
:10011000271E6117271E791AD71A271E3C1B361B6C
:10012000AB19AB19A119A6194817301D7817BC17C0
:10013000F31803191419FF18E718ED18F819271EFA
:10014000271E271E6719271E271E271E421B4E1C0F
:10015000641C271E271E271EDE16D616FD17271E17
:100160006D18D21BA41B461B271E271EDB163D1D28
:100170003D1D2819271E2E1C381C181C12348A33CA
:100180009634EA3323340B349634FB330434FB3394
:1001900004349634963496349634963496349634A1
:1001A00096349634963496349634963496349634FF
:1001B00096349634963496349634963496349634EF
:1001C0009634963423340B348A339634EA33963497
:1001D0009634C633D833B733A833913312349634B8
:1001E000963496349634963496349634C633D8334F
:1001F000B733A83391338334473496346E348E3416
:100200007E3496347434743474347434963496343E
:10021000963496349634963496349634963496348E
:10022000963496349634963496349634963496347E
:1002300096349634963496349634963496348E3476
:100240007E34473496346E34963496345C34653458
:10025000573452344D34833496349634963496342D
:100260009634963496345C346534573452344D3475
:100270006300000000000000000000000002000019
:100280000040000000732E000000640000640100C4
:100290006C00005A0000640000610100640200610B
:1002A00002006403008400005A0300640400840018
:1002B000005A040064010053280500000069000092
:1002C00000004E690500000063000000000000000F
:1002D0000000000000030000004300000073110054
:1002E00000007400006401007401008302000164D6
:1002F00000005328020000004E6909000000280297
:10030000000000750700000070696E4D6F64657530
:10031000060000004F555450555428000000002896
:1003200000000000280000000075000000007505B6
:100330000000007365747570000000004E630000DB
:100340000000000000000000000003000000430067
:100350000000734700000074000064010074010095
:10036000830200017401007402001761010074012E
:10037000006402006B0200732F007401006403002C
:100380006B02007239007402000B6102006E000003
:100390007403006404008301000164000053280515
:1003A0000000004E6909000000690000000069FFBC
:1003B000000000691E0000002804000000750B000A
:1003C0000000616E616C6F6757726974657501003A
:1003D000000062750100000066750500000064659C
:1003E0006C6179280000000028000000002800004F
:1003F0000000750000000075040000006C6F6F7055
:10040000000000004E280500000075070000006194
:10041000726475696E6F75010000006275010000FD
:100420000066750500000073657475707504000042
:10043000006C6F6F7028000000002800000000288A
:1004400000000000750000000075080000003C6D11
:100450006F64756C653E000000004E4E00000000A9
:10046000240027002A0000000000250028002B009F
:1004700000000000230026002900040404040404F2
:100480000404020202020202030303030303010243
:100490000408102040800102040810200102040812
:1004A0001020000000070002010000030406000005
:1004B00000000000000011241FBECFEFD8E0DEBF17
:1004C000CDBF12E0A0E0B1E0ECE7FAE702C0059092
:1004D0000D92A43EB107D9F713E0A4EEB2E001C03B
:1004E0001D92A931B107E1F70E94030E0C943C3D27
:1004F00087CDA0E0B0E0EFE7F2E00C945F3CDC01D8
:100500002B01FA019C91923008F439C1EB018881EA
:10051000823008F433C1943069F4843009F02FC17B
:1005200011969C9111978981981709F428C1A5ED1E
:10053000B1E025C1843009F421C18230A9F49230A0
:1005400009F01DC19A01AD0188E0EA010990AE01F0
:10055000E90109929E018150C1F7E201898111965A
:100560009C918923818308C1923009F407C11296B6
:100570002D903C901397EB018A819B811496AD904E
:10058000BD90CD90DC901797EC80FD800E811F818F
:100590009101281B390BB90137FF04C06627772763
:1005A000621B730B603271050CF061C012161306EA
:1005B0006CF537014801062E04C096948794779411
:1005C00067940A94D2F721E030E040E050E004C0A4
:1005D000220F331F441F551F6A95D2F72150304018
:1005E000404050402E213F21402351232115310509
:1005F0004105510521F021E030E040E050E0790173
:100600008A01E628F728082919293CC0232BD1F1B3
:10061000260E371E35014601062E04C09694879497
:10062000779467940A94D2F721E030E040E050E0FC
:1006300004C0220F331F441F551F6A95D2F7215063
:100640003040404050402A213B214C215D21211562
:1006500031054105510521F021E030E040E050E056
:1006600059016A01A628B728C828D9280BC08215C5
:1006700093052CF01C01AA24BB24650103C0EE24C1
:10068000FF24870111969C91D20111968C919817A5
:1006900009F445C0992339F0A80197012A193B09AB
:1006A0004C095D0906C0A60195012E193F09400BB2
:1006B000510B57FD08C01182338222822483358377
:1006C000468357831DC081E081833382228288273D
:1006D0009927DC01821B930BA40BB50B84839583B4
:1006E000A683B7830DC0220F331F441F551F2483D9
:1006F00035834683578382819381019793838283D5
:100700002481358146815781DA01C9010197A10908
:10071000B1098F5F9F4FAF4FBF4328F30BC0918349
:1007200033822282EA0CFB1C0C1D1D1DE482F58223
:100730000683178383E08083248135814681578136
:1007400057FF1AC0C901AA2797FDA095BA2F81703B
:100750009070A070B0705695479537952795822B6D
:10076000932BA42BB52B84839583A683B783828197
:100770009381019693838283DF0101C0D201CD0171
:10078000CDB7DEB7E2E10C947B3CA0E2B0E0EBEC4D
:10079000F3E00C946B3C69837A838B839C832D8379
:1007A0003E834F835887E9E0EE2EF12CEC0EFD1EC0
:1007B000CE010196B701C0D48E010F5E1F4FCE014E
:1007C0000596B801B9D48A8991E089278A8BC70137
:1007D000B801AE01475E5F4F8CDED9D3A096E6E04C
:1007E0000C94873CA0E2B0E0E8EFF3E00C946B3CA3
:1007F00069837A838B839C832D833E834F835887C1
:10080000F9E0EF2EF12CEC0EFD1ECE010196B701A2
:1008100093D48E010F5E1F4FCE010596B8018CD484
:10082000C701B801AE01475E5F4F63DEB0D3A0964B
:10083000E6E00C94873CA0E2B0E0E1E2F4E00C9446
:100840005F3C69837A838B839C832D833E834F83B4
:100850005887CE010196BE01675F7F4F6DD4CE01F0
:100860000596BE016F5E7F4F67D49985923088F000
:1008700089898230C8F0943019F4823051F404C070
:10088000843029F4923081F485ED91E0C6C0923035
:1008900049F420E09A858A89981321E02A87CE01BD
:1008A0000996BBC0823049F420E09A858A89981362
:1008B00021E02A8BCE014196B0C02D843E844F8426
:1008C00058886D887E888F88988CEE24FF24870155
:1008D000AA24BB24650140E050E060E070E0E0E065
:1008E000F0E0C10181709070892BE9F0E60CF71CF3
:1008F000081D191D9A01AB012A0D3B1D4C1D5D1DE4
:1009000080E090E0A0E0B0E0E614F70408051905E7
:1009100020F481E090E0A0E0B0E0BA01A901480F26
:10092000591F6A1F7B1FAA0CBB1CCC1CDD1C97FE29
:1009300008C081E090E0A0E0B0E0A82AB92ACA2A65
:10094000DB2A3196E032F10549F0660C771C881CF1
:10095000991C5694479437942794C3CFFA85EA8913
:100960002B893C898B859C85280F391F2E5F3F4F33
:1009700017C0CA0181709070892B61F01695079598
:10098000F794E79480E090E0A0E0B0E8E82AF92A44
:100990000A2B1B2B76956795579547952F5F3F4FF1
:1009A00077FDE7CF0CC0440F551F661F771F17FD5B
:1009B0004160EE0CFF1C001F111F215030404030E1
:1009C00090E0590790E0690790E4790760F32B8F76
:1009D0003C8FDB01CA018F779070A070B0708034BB
:1009E0009105A105B10561F447FD0AC0E114F104C8
:1009F0000105110529F0405C5F4F6F4F7F4F407834
:100A00001A8EFE1711F081E08A8F4D8F5E8F6F8FE7
:100A100078A383E0898FCE014996B9D2A096E2E10E
:100A20000C947B3CA8E1B0E0E8E1F5E00C94673C75
:100A300069837A838B839C832D833E834F8358877E
:100A4000B9E0EB2EF12CEC0EFD1ECE010196B701A4
:100A500073D38E010F5E1F4FCE010596B8016CD384
:100A60002985223008F47EC03989323010F4B8016B
:100A70007CC08A859A8989278A87243011F02230A0
:100A800031F4231709F06EC065ED71E06EC03430AB
:100A900039F41D861E861F86188A1C861B8604C094
:100AA000323021F484E08987B7015FC02B853C8513
:100AB0008B899C89281B390B3C872B87ED84FE840E
:100AC0000F851889AD88BE88CF88D88CEA14FB04BE
:100AD0000C051D0540F4EE0CFF1C001F111F2150DA
:100AE00030403C872B8720E030E040E050E080E061
:100AF00090E0A0E0B0E460E070E0EA14FB040C05D4
:100B00001D0540F0282B392B4A2B5B2BEA18FB08DC
:100B10000C091D09B695A79597958795EE0CFF1CB6
:100B2000001F111F6F5F7F4F6F31710531F7DA01C1
:100B3000C9018F779070A070B07080349105A105C5
:100B4000B10561F427FD0AC0E114F10401051105A6
:100B500029F0205C3F4F4F4F5F4F20782D873E8715
:100B60004F87588BBE01675F7F4FCB0110D26896CD
:100B7000EAE00C94833CA8E1B0E0E1ECF5E00C94F1
:100B80006B3C69837A838B839C832D833E834F8365
:100B9000588789E0E82EF12CEC0EFD1ECE0101965F
:100BA000B701CAD28E010F5E1F4FCE010596B80164
:100BB000C3D28985823038F08989823020F0C7011C
:100BC000B80132D301C081E06896E6E00C94873C1E
:100BD000A8E1B0E0EEEEF5E00C946B3C69837A831B
:100BE0008B839C832D833E834F83588789E0E82E37
:100BF000F12CEC0EFD1ECE010196B7019DD28E01A7
:100C00000F5E1F4FCE010596B80196D289858230BE
:100C100038F08989823020F0C701B80105D301C0BE
:100C200081E06896E6E00C94873CA8E1B0E0EBE157
:100C3000F6E00C946B3C69837A838B839C832D83D1
:100C40003E834F83588789E0E82EF12CEC0EFD1E81
:100C5000CE010196B70170D28E010F5E1F4FCE01FB
:100C60000596B80169D28985823038F08989823049
:100C700020F0C701B801D8D201C08FEF6896E6E036
:100C80000C94873CA8E1B0E0E8E4F6E00C946B3CFF
:100C900069837A838B839C832D833E834F8358871C
:100CA00089E0E82EF12CEC0EFD1ECE010196B70175
:100CB00043D28E010F5E1F4FCE010596B8013CD284
:100CC0008985823038F08989823020F0C701B801E7
:100CD000ABD201C08FEF6896E6E00C94873CA8E1A8
:100CE000B0E0E5E7F6E00C946B3C69837A838B8394
:100CF0009C832D833E834F83588789E0E82EF12C17
:100D0000EC0EFD1ECE010196B70116D28E010F5ECC
:100D10001F4FCE010596B8010FD28985823038F079
:100D20008989823020F0C701B8017ED201C081E0FC
:100D30006896E6E00C94873CA8E1B0E0E2EAF6E0D1
:100D40000C946B3C69837A838B839C832D833E83D5
:100D50004F83588789E0E82EF12CEC0EFD1ECE0162
:100D60000196B701E9D18E010F5E1F4FCE010596A6
:100D7000B801E2D18985823038F08989823020F04B
:100D8000C701B80151D201C081E06896E6E00C9439
:100D9000873CA8E0B0E0EFECF6E00C94683C9B01E7
:100DA000AC0183E08983DA01C9018827B7FD839507
:100DB0009927AA27BB27B82E2115310541055105D2
:100DC00019F482E0898339C08823A9F0203080E0BB
:100DD000380780E0480780E8580729F460E070E0B1
:100DE00080E09FEC2EC0EE24FF248701E21AF30A74
:100DF000040B150B02C079018A018EE1C82ED12C9B
:100E0000DC82CB82ED82FE820F831887C801B70196
:100E10006FD001971816190684F4082E04C0EE0C42
:100E2000FF1C001F111F0A94D2F7ED82FE820F8370
:100E30001887C81AD90ADC82CB82BA82CE01019601
:100E4000A6D02896E9E00C94843CACE0B0E0EBE25C
:100E5000F7E00C946F3C69837A838B839C83CE018B
:100E60000196BE016B5F7F4F67D18D81823061F14A
:100E7000823050F1843021F48E81882351F12EC0CC
:100E80002F81388537FD20C06E812F3131051CF050
:100E90006623F9F023C08EE190E0821B930B298535
:100EA0003A854B855C8504C05695479537952795BF
:100EB0008A95D2F76623B1F05095409530952195EB
:100EC0003F4F4F4F5F4F0EC020E030E040E050E01A
:100ED00009C02FEF3FEF4FEF5FE704C020E030E0A5
:100EE00040E050E8B901CA012C96E2E00C948B3C3A
:100EF000EF92FF920F931F937B018C0180E0E81625
:100F000080E0F80681E0080780E0180788F48FEF9A
:100F1000E816F1040105110531F028F088E090E0B1
:100F2000A0E0B0E017C080E090E0A0E0B0E012C028
:100F300080E0E81680E0F80680E0080781E0180706
:100F400028F088E190E0A0E0B0E004C080E190E00B
:100F5000A0E0B0E020E230E040E050E0281B390B98
:100F60004A0B5B0B04C016950795F794E7948A9596
:100F7000D2F7F701E352FE4F8081281B3109410966
:100F80005109C9011F910F91FF90EF900895DF92D1
:100F9000EF92FF920F931F93FC01E480F58006818E
:100FA0001781D1808081823048F480E090E0A0E118
:100FB000B0E0E82AF92A0A2B1B2BA5C0843009F4DB
:100FC0009FC0823021F4EE24FF24870105C0E11484
:100FD000F1040105110519F4E0E0F0E096C062812A
:100FE00073819FEF623879070CF05BC022E83FEF16
:100FF000261B370B2A3131052CF020E030E040E091
:1010000050E02AC0B801A701022E04C0769567956A
:10101000579547950A94D2F781E090E0A0E0B0E0C0
:1010200004C0880F991FAA1FBB1F2A95D2F70197EA
:10103000A109B1098E219F21A023B1230097A10509
:10104000B10521F081E090E0A0E0B0E09A01AB01B1
:10105000282B392B4A2B5B2BDA01C9018F77907033
:10106000A070B07080349105A105B10539F427FF57
:1010700009C0205C3F4F4F4F5F4F04C0215C3F4F82
:101080004F4F5F4FE0E0F0E02030A0E03A07A0E0F3
:101090004A07A0E45A0710F0E1E0F0E079018A0184
:1010A00027C06038710564F5FB01E158FF4FD80196
:1010B000C7018F779070A070B07080349105A10542
:1010C000B10539F4E7FE0DC080E490E0A0E0B0E0A7
:1010D00004C08FE390E0A0E0B0E0E80EF91E0A1F24
:1010E0001B1F17FF05C016950795F794E7943196D7
:1010F00087E016950795F794E7948A95D1F705C090
:10110000EE24FF248701EFEFF0E06E2F679566274E
:101110006795902F9F77D794DD24D7948E2F86954F
:10112000492F462B582F5D29B701CA011F910F91F6
:10113000FF90EF90DF900895FC01DB014081518129
:101140002281622F6F7770E0221F2227221F938156
:10115000892F880F822B282F30E0991F9927991FFC
:1011600011969C93119721153105A9F5411551054B
:101170006105710511F482E037C082E89FEF139694
:101180009C938E9312979A01AB0167E0220F331F55
:10119000441F551F6A95D1F783E08C930DC0220F31
:1011A000331F441F551F12968D919C9113970197E1
:1011B00013969C938E931297203080E0380780E03E
:1011C000480780E4580758F314962D933D934D93A8
:1011D0005C93179708952F3F310579F44115510518
:1011E0006105710519F484E08C93089564FF03C0D0
:1011F00081E08C9312C01C9210C02F573040139680
:101200003C932E93129783E08C9387E0440F551FF5
:10121000661F771F8A95D1F7706414964D935D937E
:101220006D937C93179708951F93DC01FB019C91AC
:10123000923008F447C08081823008F443C0943073
:1012400051F411961C91843099F58181682F70E0DA
:10125000611B71093FC0843021F0923031F482303B
:10126000B9F18181882389F12DC011961C911197C4
:101270008230F1F081811817D9F412962D913C91AA
:101280001397828193818217930794F02817390767
:10129000BCF014968D919D910D90BC91A02D248150
:1012A000358146815781281739074A075B0718F4AB
:1012B000112341F00AC082179307A407B50740F431
:1012C000112319F061E070E005C06FEF7FEF02C0FD
:1012D00060E070E0CB011F910895CF93DF93BC01D4
:1012E0008230910510F462E070E0A0911103B0919A
:1012F0001203ED01E0E0F0E040E050E021C0888121
:1013000099818617970769F48A819B81309719F034
:101310009383828304C09093120380931103FE0190
:1013200034C06817790738F44115510519F084174E
:10133000950708F4AC01FE018A819B819C01E901BB
:101340002097E9F641155105A9F1CA01861B970BB3
:10135000049708F4BA01E0E0F0E02AC08D919C9176
:10136000119784179507F9F46417750781F412969D
:101370008D919C911397309719F09383828304C0C9
:101380009093120380931103FD0132964CC0CA0161
:10139000861B970BFD01E80FF91F6193719302976C
:1013A0008D939C9340C0FD01828193819C01D90162
:1013B0001097A1F680910F0390911003892B41F4AF
:1013C0008091DF029091E0029093100380930F03CD
:1013D0004091E1025091E2024115510541F44DB7AF
:1013E0005EB78091DD029091DE02481B590B20917F
:1013F0000F0330911003CA01821B930B86179707C6
:1014000080F0AB014E5F5F4F8417950750F0420F9D
:10141000531F5093100340930F03F901619371938D
:1014200002C0E0E0F0E0CF01DF91CF910895CF93CB
:10143000DF93009709F450C0EC0122971B821A82B7
:10144000A0911103B0911203109709F140E050E010
:10145000AC17BD0708F1BB83AA83FE01219131912E
:10146000E20FF31FAE17BF0779F48D919C9111978E
:10147000280F391F2E5F3F4F3983288312968D9195
:101480009C9113979B838A834115510571F4D093E6
:101490001203C093110320C012968D919C91139753
:1014A000AD01009711F0DC01D3CFFA01D383C283E1
:1014B00021913191E20FF31FCE17DF0769F4888184
:1014C0009981280F391F2E5F3F4FFA013183208306
:1014D0008A819B8193838283DF91CF910895A0E0DD
:1014E000B0E0E5E7FAE00C94613C6C01009721F470
:1014F000CB01F3DE6C01BDC08EEF882E8FEF982EEE
:101500008C0C9D1C8601060F171F0815190508F481
:10151000AEC0F401A081B181A617B707B0F0A53025
:10152000B10508F4A6C0CD0104978617970708F403
:10153000A0C01297A61BB70BF801A193B193D401D9
:101540006D937C93CF0173DF94C07B01EA1AFB0A91
:10155000EEEFFFEFEE0EFF1E36016A0E7B1EC0910E
:101560001103D091120344245524AA24BB244AC059
:10157000C615D705E1F5488159814E155F05B8F1CB
:10158000CA0104978E159F05B0F41296A40FB51FDB
:10159000F401B183A0832A813B814114510431F0CD
:1015A000D20113963C932E93129763C0309312038B
:1015B000209311035EC08A819B81F801938382830B
:1015C000425050404E195F095183408341145104E9
:1015D00031F0D20113961C930E93129704C010930E
:1015E000120300931103F4017183608342C0888168
:1015F0009981A816B90608F45C012E018A819B81A5
:101600009C01E901209709F0B3CF80910F039091DD
:10161000100386159705E9F4A616B706D0F42091B5
:10162000E1023091E2022115310541F42DB73EB7B8
:101630008091DD029091DE02281B390B02171307FF
:10164000B0F41093100300930F03D4016D937C93B7
:1016500010C0CB0142DEEC01009749F0F40140815B
:101660005181B60115D0C601E2DE6E0102C0CC2464
:10167000DD24C601CDB7DEB7E0E10C947D3CFB0173
:10168000DC0102C005900D9241505040D8F70895FA
:10169000FB01DC0102C001900D9241505040D8F78F
:1016A0000895DC0101C06D9341505040E0F708956A
:1016B000FB01DC018D91019080190110D9F3990B88
:1016C0000895FC0101900020E9F7809590958E0F18
:1016D0009F1F0895A0E0B0E0E0E7FBE00C946F3CB2
:1016E000FE013596619171918091150390911603D9
:1016F000AF0104D02096E2E00C948B3CABE0B0E06C
:10170000E4E8FBE00C945F3C3C012B015A01FC0136
:1017100017821682838181FD03C06FEF7FEFB9C10D
:101720009AE0892E1E010894211C311CF3012381AB
:10173000F20123FD859123FF81912F01882309F474
:10174000A5C1853239F423FD859123FF81912F01B5
:10175000853221F490E0B301B7D1E8CF982FFF2470
:10176000EE249924FFE1FF15D0F09B3269F09C3202
:1017700028F4903259F0933291F40EC09D3249F022
:10178000903369F441E024C052E0F52A84E0F82A5D
:1017900028C098E0F92A25C0E0E1FE2A22C0F7FC23
:1017A00029C0892F80538A3070F4F6FE05C0989CBA
:1017B000902C1124980E15C0E89CE02C1124E80E02
:1017C000F0E2FF2A0EC09E3229F4F6FC5FC140E42D
:1017D000F42A07C09C3619F450E8F52A02C098365E
:1017E00049F4F20123FD959123FF91912F01992353
:1017F00009F0B8CF892F8554833018F08052833098
:1018000038F444E050E0A40EB51E5FE359830FC0E6
:10181000933631F0933779F0933509F052C01FC0F9
:10182000F5018081898342E050E0A40EB51E61017C
:1018300001E010E011C0F501C080D180F6FC03C0CA
:101840006FEF7FEF02C0692D70E042E050E0A40E20
:10185000B51EC6012ED18C015FE7F52213C0F5013C
:10186000C080D180F6FC03C06FEF7FEF02C0692D0E
:1018700070E042E050E0A40EB51EC6010FD18C010D
:1018800050E8F52AF3FE06C018C080E290E0B301EC
:101890001BD1EA948E2D90E008171907B0F30DC004
:1018A000F601F7FC8591F7FE81916F0190E0B3019D
:1018B0000BD1E110EA94015010400115110581F798
:1018C000E2C0943611F0993661F5F7FE08C0F501D3
:1018D000208131814281538184E090E00AC0F5018A
:1018E000808191819C01442737FD4095542F82E0EF
:1018F00090E0A80EB91E9FE6F92257FF09C0509547
:101900004095309521953F4F4F4F5F4FE0E8FE2ABD
:10191000CA01B901A1012AE030E002D1D82ED218C3
:101920003FC0953729F41F2D1F7E2AE030E01DC0EF
:101930001F2D197F9F3661F0903720F4983509F0FC
:10194000A5C00FC0903739F0983709F09FC004C088
:1019500028E030E00AC0106114FD146020E130E09E
:1019600004C014FD166020E132E017FF08C0F50145
:10197000608171818281938144E050E008C0F5016B
:1019800080819181BC0180E090E042E050E0A40EB3
:10199000B51EA101C5D0D82ED2188FE7F82EF1229E
:1019A000F6FE0BC05EEFF522D91438F4F4FE07C042
:1019B000F2FC05C08FEEF82202C01D2D01C0192DCA
:1019C000F4FE0DC0FE01ED0DF11D8081803319F490
:1019D00099EEF92208C01F5FF2FE05C003C08F2DEB
:1019E000867809F01F5F0F2DF3FC13C0F0FE0EC0C8
:1019F0001E1510F09D2C0AC09D2C9E0C911A1E2DB8
:101A000005C080E290E0B3015FD01F5F1E15C8F3F0
:101A100004C01E1510F4E11A01C0EE2404FF0EC02C
:101A200080E390E0B30150D002FF1BC001FD03C072
:101A300088E790E00EC088E590E00BC0802F8678A4
:101A400081F001FF02C08BE201C080E2F7FC8DE271
:101A500090E0B30139D005C080E390E0B30134D009
:101A60009A94D914C8F3DA94F101ED0DF11D808137
:101A700090E0B30129D0DD20B1F705C080E290E00D
:101A8000B30122D0EA94EE20C9F750CEF30166816B
:101A90007781CB012B96E2E10C947B3CFC01059015
:101AA000615070400110D8F7809590958E0F9F1F60
:101AB0000895FC016150704001900110D8F78095A5
:101AC00090958E0F9F1F08950F931F93CF93DF93D1
:101AD0008C01EB018B8181FF1BC082FF0DC02E8129
:101AE0003F818C819D812817390764F4E881F98151
:101AF0000193F983E88306C0E885F985802F09956D
:101B0000892B31F48E819F8101969F838E8302C041
:101B10000FEF1FEFC801DF91CF911F910F91089533
:101B2000FA01AA27283051F1203181F1E8946F930E
:101B30006E7F6E5F7F4F8F4F9F4FAF4FB1E03ED0B4
:101B4000B4E03CD0670F781F891F9A1FA11D680F52
:101B5000791F8A1F911DA11D6A0F711D811D911D85
:101B6000A11D20D009F468943F912AE0269F1124FA
:101B70003019305D3193DEF6CF010895462F47705E
:101B8000405D4193B3E00FD0C9F7F6CF462F4F70B9
:101B9000405D4A3318F0495D31FD4052419302D017
:101BA000A9F7EACFB4E0A6959795879577956795BD
:101BB000BA95C9F700976105710508959B01AC01BD
:101BC0000A2E06945795479537952795BA95C9F7E4
:101BD000620F731F841F951FA01D0895982F809179
:101BE000C00085FFFCCF9093C600089588E18093E4
:101BF000C1001092C50088E08093C4000895EEDF14
:101C000080E090E0089567D28DE061E01FD38DE021
:101C100060E06FD3EBDF8FEF9DE09093ED02809358
:101C2000EC021092EF021092EE0282E08093E70243
:101C30001092F1021092F00284EE92E0909316035B
:101C40008093150380E090E00E9440218C0140D0F9
:101C500080E792E06BEE71E00E943C37BC01C80166
:101C600040E00E94DA20C80160E071E040E050E00E
:101C700020E030E00E945C1EC0E0D0E08DE061E03A
:101C800038D3C80166E071E040E050E020E030E089
:101C90000E945C1E64EF71E080E090E0FAD18DE07C
:101CA00060E027D364EF71E080E090E0F2D100D0F3
:101CB00000D08BE091E0EDB7FEB792838183D483AF
:101CC000C38308DD21960F900F900F900F90D6CF11
:101CD000AF92BF92CF92DF92EF92FF920F931F933A
:101CE0005C0186E1C82E81E0D82EC6010E949C21AD
:101CF0000E940F28F82EE92E6EE171E048EA5FE0BD
:101D00000E94E02A8F2D9E2D66E271E042E95FE09D
:101D10000E94E02A8F2D9E2D62E371E046E55FE090
:101D20000E94E02A8F2D9E2D6FE371E040E45FE07A
:101D30000E94E02A8F2D9E2D6AE471E04AE15FE067
:101D40000E94E02A8F2D9E2D66E571E049E05FE05C
:101D50000E94E02A8CE591E00E949C210E94D826F6
:101D60008C0160E070E080E090E00E94AB26AC0166
:101D70008F2D9E2DB8010E94A82A82E691E00E9434
:101D80009C210E94D8268C0161E070E080E090E008
:101D90000E94AB26AC018F2D9E2DB8010E94A82A6F
:101DA00089E691E00E949C210E94D8268C0160E087
:101DB00070E080E090E00E94AB26AC018F2D9E2D5C
:101DC000B8010E94A82A8DE691E00E949C210E9401
:101DD000D8268C0161E070E080E090E00E94AB26A4
:101DE000AC018F2D9E2DB8010E94A82AC6010E9429
:101DF0009C210E94D826BC01C5014F2D5E2DB2D476
:101E00001F910F91FF90EF90DF90CF90BF90AF9018
:101E10000895CB0160E070E00E94A422FC01808163
:101E2000893629F4638174818581968132D18EE46B
:101E30000C9456220F931F93CF93DF93162F072FE7
:101E4000862F972F60E070E00E94A422EC01812F82
:101E5000902F61E070E00E94A422FC018881893605
:101E600039F48081893621F4638174818B8190D12A
:101E70008EE40E945622DF91CF911F910F91089519
:101E8000CB0160E070E00E94A422FC0180818936D1
:101E900019F020E030E003C0838158D19C01B901E2
:101EA000882777FD8095982F0C94AB260F931F936E
:101EB000CF93DF93EB01ED81FE81828193810297C5
:101EC0004CF1CB0160E070E00E94A4228C01CE01B5
:101ED00061E070E00E94A422FC01D8018C918B3655
:101EE00039F413968C91139714969C919C01890157
:101EF00080818B3621F4838194819C01F901D80182
:101F00008C91893639F48081893621F413968C912D
:101F10006381EFD18EE40E945622DF91CF911F9111
:101F20000F910895CB0160E070E00E94A422FC01B3
:101F30008081893619F020E030E003C083810BD224
:101F40009C01B901882777FD8095982F0C94AB26CA
:101F50000F931F93CF93DF93162F072F862F972F63
:101F600060E070E00E94A422EC01812F902F61E0DC
:101F700070E00E94A422FC0188818B3621F48B81C1
:101F80009C819C01E90180818B3621F483819481BD
:101F90009C01F9018881893631F48081893619F4F0
:101FA0008B81638153D18EE40E945622DF91CF91C1
:101FB0001F910F9108951F920F920FB60F92112447
:101FC0002F933F938F939F93AF93BF938091F6028C
:101FD0009091F702A091F802B091F9023091FA02C3
:101FE0000196A11DB11D232F2D5F2D3720F02D57F8
:101FF0000196A11DB11D2093FA028093F6029093E1
:10200000F702A093F802B093F9028091F202909146
:10201000F302A091F402B091F5020196A11DB11D49
:102020008093F2029093F302A093F402B093F5022E
:10203000BF91AF919F918F913F912F910F900FBEC4
:102040000F901F9018959FB7F8942091F20230914D
:10205000F3024091F4025091F50286B5A89B06C0A8
:102060008F3F21F02F5F3F4F4F4F5F4F9FBF542F48
:10207000432F322F2227280F311D411D511D82E091
:10208000220F331F441F551F8A95D1F7B901CA018A
:102090000895EF92FF920F931F93CF93DF937B01ED
:1020A0008C01D1DFEB010DC0CEDF6C1B7D0B685EB8
:1020B0007340D0F30894E108F10801091109C851EF
:1020C000DC4FE114F1040105110571F7CDB7DEB75E
:1020D000E6E00C94873C789484B5826084BD84B536
:1020E000816084BD85B5826085BD85B5816085BD13
:1020F000EEE6F0E0808181608083E1E8F0E010822C
:10210000808182608083808181608083E0E8F0E06C
:10211000808181608083E1EBF0E080818460808356
:10212000E0EBF0E0808181608083EAE7F0E080818D
:1021300084608083808182608083808181608083ED
:102140008081806880831092C1000895982F8E301E
:1021500008F09E5097708091E3028295880F880F57
:10216000807C892B80937C0080917A0080648093AE
:102170007A0080917A0086FDFCCF20917800409112
:102180007900942F80E030E0282B392BC901089585
:102190001F93CF93DF93182FEB0161E057D0209767
:1021A00009F44AC0CF3FD10509F449C0E12FF0E05E
:1021B000EE55FB4F84918330C1F0843028F4813098
:1021C00051F08230B1F50CC0863019F1873049F1F9
:1021D000843079F514C084B5806884BDC7BD32C031
:1021E00084B5806284BDC8BD2DC0809180008068A8
:1021F00080938000D0938900C093880023C0809191
:102200008000806280938000D0938B00C0938A000E
:1022100019C08091B00080688093B000C093B30073
:1022200011C08091B00080628093B000C093B40070
:1022300009C0C038D1051CF4812F60E002C0812F95
:1022400061E057D0DF91CF911F910895482F50E062
:10225000CA0182579B4FFC01249146585B4FFA01FB
:1022600084918823C1F0E82FF0E0EE0FFF1FE45ABD
:10227000FB4FA591B491662341F49FB7F8948C91DC
:10228000209582238C939FBF08959FB7F8948C91DB
:10229000822B8C939FBF0895833071F0843028F493
:1022A0008130A1F0823021F514C08630B1F0873042
:1022B000D1F08430E9F404C0809180008F7703C0AE
:1022C000809180008F7D80938000089584B58F7702
:1022D00002C084B58F7D84BD08958091B0008F7752
:1022E0008093B00008958091B0008F7D8093B000FE
:1022F0000895FF920F931F93F62E482F50E0CA01C6
:102300008E559B4FFC012491CA0182579B4FFC01C3
:10231000149146585B4FFA0104910023C1F0222327
:1023200011F0822FB9DFE02FF0E0EE0FFF1FEA5926
:10233000FB4FA591B4919FB7F894FF2021F48C91A5
:102340001095812302C08C91812B8C939FBF1F918C
:102350000F91FF9008950F931F93482F50E0CA01EB
:102360008E559B4FFC012491CA0182579B4FFC0163
:10237000049146585B4FFA011491112319F420E09F
:1023800030E014C0222311F0822F86DF812F90E0ED
:10239000880F991F80599B4FFC01A591B4918C9196
:1023A00020E030E0802311F021E030E0C9011F91EE
:1023B0000F910895FB010380F481E02DBA01A9017A
:1023C00009950895FC01828193810C949025FC016C
:1023D000828193810C94D222A0E0B0E0E2EFF1E19F
:1023E0000C94653C7C015B014A01DB0151960D9127
:1023F0001C9152970E94F12A6C0182E6F6018083BB
:10240000B482A382C5010E94B537D60118961C92EA
:102410001E92179716961C921E921597F8018581A9
:1024200096811A969C938E93199712961C921E92DF
:1024300011970E947C2DD6011C969C938E931B971E
:10244000F70180819181B6010E94532D811491047E
:10245000A1F1C0E0D0E027C0C401BE010E94A422C7
:102460007C01D50157968D919C915897BE010E9491
:10247000A422FC018081F5010789108D8B3669F05B
:10248000C801BE010E94A422B7010E948128AC01AC
:10249000C801BE010E94642305C0C801BE01A70196
:1024A0000E94A5282196D4011596ED91FC911697CE
:1024B00082819381C817D9077CF2C601CDB7DEB7F8
:1024C000ECE00C94813CA0E0B0E0E9E6F2E10C9491
:1024D0005F3C1C016B013A0129010E94F12A7C0139
:1024E00082E6D7018C9318961C921E921797169627
:1024F0001C921E92159712961C921E9211970E9482
:102500007C2DF70194878387D6011396ED91FC917A
:10251000149701891289D7011496FC93EE931397AF
:10252000CF010E94B537F80185819681D7011A96AF
:102530009C938E9319976114710409F488C0D30198
:102540001596ED91FC91169782819381D601139691
:10255000ED91FC91149785809680881599050CF46F
:102560004C01C0E0D0E02EC0C301BE010E94A422F5
:102570005C01D6011396ED91FC9114978789908D9B
:10258000BE010E94A422FC018081D6011396ED9128
:10259000FC9114978B3679F00789108DC801BE0124
:1025A0000E94A422B5010E948128AC01C801BE018D
:1025B0000E94642306C08789908DBE01A5010E94F8
:1025C000A5282196C815D9057CF2D3011596ED9161
:1025D000FC91169722813381D6011396ED91FC91DF
:1025E000149785819681821793078CF55901A81A53
:1025F000B90A80E090E00E94EB268C01C0E0D0E0B8
:1026000013C0BE01680D791DC3010E94A422FC0104
:1026100080818B3621F4838194819C01F901C8016A
:10262000BF010E945A262196CA15DB0554F3D60134
:102630001396ED91FC911497678170858581968141
:10264000680F791F8789908DA8010E94A5284114E1
:10265000510409F1C0E0D0E014C0C201BE010E94E3
:10266000A422FC01D60113968D919C91149765814B
:10267000768143815481FC018789908D0E940229D3
:102680002196D2011596ED91FC9116978281938146
:10269000C817D90714F3D6011396ED91FC9114973E
:1026A000858585FF0DC00E948126182F092FB10155
:1026B000A7010E94CF39212F302FC9019C0108C0EA
:1026C000F10180819181B7010E94532D20E030E01B
:1026D000C901CDB7DEB7E2E10C947B3CA0E0B0E0ED
:1026E000E4E7F3E10C94673C6C01EB018A015901CA
:1026F0004115510511F07A0107C080E090E00E9479
:10270000EB267C010E94B5374D815E81C70160E0F8
:1027100070E00E943026EB81FC818081863631F4A6
:10272000C601BF01A7019501CEDE0AC0833419F0AE
:10273000C0E0D0E006C0C601BF01A70195013ADEA6
:10274000EC010115110519F4C7010E94C937CE012A
:10275000CDB7DEB7EAE00C94833CFC018281938123
:102760000C947925FC01828193810C94D728A4E0F4
:10277000B0E0EDEBF3E10C945F3C1C01DC018D91CA
:102780009C910E94522C3C01FC0143805480D20158
:102790008C91833609F049C3D2015196ED91FC9199
:1027A000529743815481F301278130858185928539
:1027B0002817390714F00C94331EFA01E20FF31FA7
:1027C00010812F5F3F4FD30118963C932E9317979C
:1027D0001F3509F400C2103680F5143409F4D6C14F
:1027E0001534B0F4133009F46EC1143038F41130DC
:1027F00009F43BC1123008F049C130C1153009F469
:102800009AC1153008F48BC11930D9F50C94571EB4
:102810001635D9F1173548F4103509F430C11335A0
:1028200009F443C0163469F5D6C1173509F423C13C
:10283000812F8A55843028F5CEC11F3780F41C378C
:1028400008F0C9C1153730F4143608F0C4C1812F1F
:10285000815614C0812F8857833098F4BCC1103939
:1028600040F41C3808F0B7C1812F8258893048F4F1
:10287000B2C1103909F49CC1812F8259823008F409
:10288000AAC1AA24BB246501B8C12F5F3F4FF30141
:1028900030872783838594850E94F82C8C010E94C1
:1028A000B5370E9419390C94521ED3011B968D9195
:1028B0009C911C970E94F82C182F092FD301139676
:1028C000ED91FC911497258536854785508931FF18
:1028D00016C0F101808191810E94F82CD3011396DA
:1028E000ED91FC91149785859685A785B0899160B7
:1028F0009D7F85879687A787B08B0C94571E30FFE6
:102900006BC0F101808191810E94F82CD3011B964C
:102910008D919C911C970E94F82C8C010E94B527E8
:102920006C0182E791E00E949C210E94D826F82E3B
:10293000E92E0E94B537D8011396ED91FC911497BA
:102940008789908D6F2D7E2D0E9490255C01D80186
:102950001396ED91FC9114978789908D6F2D7E2DA4
:1029600040E050E00E9402298F2D9E2D0E94C93721
:10297000C5010E94B537F101808191810E94692DC6
:10298000882359F4D1018D919C910E94522CFC0115
:1029900083859485B6010E94532D8DE791E00E94B6
:1029A0009C210E94D826F82EE92E0E94B537C1013D
:1029B0006F2D7E2DA601950100E010E00E94AF1E54
:1029C0008C010E94B537C8010E94C9378F2D9E2DFA
:1029D0000E94C937C5011BC0D1016D917C9127FFB1
:1029E0001AC0CB010E94F82CF201838194810E94CD
:1029F0009C210E94D826182F092FC101612F702F0A
:102A0000ACDE812F902F0E94B537812F902F0E942E
:102A1000C9370C94571ECB010E94F82CD1018D911F
:102A20009C910E94692D882369F4F1018081918134
:102A30000E94522CDC011B968D919C911C97612F5A
:102A4000702FB2C0812F902F0E94B5370E94193984
:102A5000812F902F9C0189010C94521EF3018185D6
:102A60009285908787830C94571ED3011B968D9176
:102A70009C911C9707C0F1018081918103C0D10115
:102A80008D919C910E94F82C0C94571EF301838524
:102A900094850E94522C8C01D3011B968D919C91A0
:102AA0001C970E946B2CBC01F301838594850E94C6
:102AB0009D2CD3011B968D919C911C97B8010E946F
:102AC000B12C0C94571EF301838594850E94522CDF
:102AD0008C01D3011B968D919C911C970E946B2CAD
:102AE0007C01F301838594850E94842C6C01D301C1
:102AF0001B968D919C911C97B7010E949D2CF30110
:102B000083859485B6010E94B12CD3011B968D91CB
:102B10009C911C97B8010E94C52C0C94571EF30180
:102B2000838594850E94522CBC01D3011B968D9104
:102B30009C911C9739C0F301838594850E94522C87
:102B40008C01D3011B968D919C911C970E946B2C3C
:102B50007C01F3018385948562E070E00E94242D5E
:102B6000D3011B968D919C911C97B8010E949D2CBE
:102B7000C8010E94B537F30183859485B7010E948F
:102B8000B12CC7010E94B5370C94571ED3011B9678
:102B90008D919C911C970E94F82CB1010E94E93BF9
:102BA000BC01F301838594850E94532D0C94571E1C
:102BB000FA01E20FF31F818162810E944E22D3014C
:102BC00017968D919C911897029618969C938E93C8
:102BD00017970C94571EFA01E20FF31F8081618151
:102BE0000E944E225C01CC24B7FCC094DC2CF30183
:102BF000878190850296908787831F3509F470C07E
:102C0000103660F51C3309F491C01D33A8F41E3151
:102C100068F4133108F064C01A3008F447C01D305E
:102C200008F447C01F3009F041C043C0163309F40F
:102C30007DC01633D8F154C0103548F41B3408F069
:102C40004FC0143408F44CC0153481F532C01A3525
:102C500081F11C3571F1143549F52BC0143790F40E
:102C6000123738F51D3638F41B36D0F5113609F118
:102C70001A36E1F41EC01D36E1F0812F8F568230E6
:102C8000A8F417C01938A9F01A3838F4143889F0A4
:102C9000163879F01D3751F40CC0133928F4113966
:102CA00040F41F3819F405C01339D1F08824992451
:102CB00014C0D3011B968D919C911C970E94F82CF7
:102CC0004C01FC0180818B3641F4D40113968C9128
:102CD000139714969C919C0149011C821B8223C06E
:102CE000F301838594850E94F82C4C01D3011B9637
:102CF0008D919C911C970E94F82C9C838B83F401EE
:102D000080818B3621F4838194819C014901AB81C0
:102D1000BC818C918B3639F4EB81FC818381948169
:102D20009C013C832B83EE24FF2434C0D3011B96EB
:102D30008D919C911C970E94F82C4C01F301838586
:102D400094850E94F82C9C838B83D3011B968D91D4
:102D50009C911C970E94F82C7C01F40180818B3699
:102D600021F4838194819C014901AB81BC818C91C8
:102D70008B3641F413968C91139714969C919C0179
:102D80003C832B83F70180818B3621F483819481EE
:102D90009C017901812F90E0FC013A97EA38F10516
:102DA00008F055C7EC5CFF4F0C94963C00E010E037
:102DB0008824992475C6882499246CC6D3011B964F
:102DC0008D919C911C970E94F82C8C01FC018081B4
:102DD0008B3621F4838194819C018901F2E0AF1646
:102DE000B104C104D10494F0D3011B968D919C9140
:102DF0001C970E94F82CB2E0AB16B104C104D104B8
:102E000029F0F301838594850E94F82CD10118964E
:102E1000ED91FC911997309719F0C101B80109950E
:102E20008EE40E9456220E94B5378EE40E945622FC
:102E300038C781EF90E30E949E2718C6D3011B96E6
:102E40008D919C911C970E94522CFC0180818235AF
:102E500019F0E0E0F0E009C0F301838594850E9459
:102E6000522CB1010E94503BFC018081D3011B9682
:102E70002D913C911C978E3449F4C9010E94F82C85
:102E8000F301878190858A0D9B1D58C2C90188C4B2
:102E9000D20155968D919C915697B5010E94A4221E
:102EA000FC0180818B3621F4838194819C01F9019E
:102EB000C401BF010E944627BC01009709F0D7C595
:102EC000C6C6D20155968D919C915697B5010E9428
:102ED000A422FC0180818B3621F4838194819C01A2
:102EE000F901C401BF014B815C810E944E29AFC62C
:102EF000F20185899689B5010E94A4227C01DC013A
:102F00008C918B3639F413968C91139714969C916F
:102F10009C017901C101B70155DABC018091FB0226
:102F20009091FC026817790709F0A1C5D1011696A6
:102F3000ED91FC911797309709F489C6D701139644
:102F40006D917C911497C10109958C01009709F44A
:102F50007EC6F30183859485B8010E94532DC1017B
:102F6000B701A801FFDBC101B80140E050E020E05B
:102F700030E032DAC80169C6D20155968D919C9134
:102F80005697B5010E94A422FC0180818B3621F462
:102F9000838194819C01F901D4018C918336C1F421
:102FA0006381748155968D919C9156970E9432242D
:102FB000BC01BFEF8F3F9B0709F449C6F401858927
:102FC00096890E94A422BC01009709F043C53FC620
:102FD000863209F03CC6F3018385948576C1D4011D
:102FE00013968D919C9114970E949C210E94D82643
:102FF000BC01C101A401B6DB2AC685011070BB2744
:10300000D7FCBA95AD2D9C2D8B2DAFEFAA2EB12CF0
:10301000A822B9220115110519F4CC24DD241EC003
:10302000C8010E94EB266C01EE24FF24F301838586
:1030300094850E94F82CFC0180818B3621F48381D9
:1030400094819C01F901C601B701AF010E9464237C
:103050000894E11CF11CE016F10644F3A114B1043C
:1030600019F4442455241FC080E090E00E94EB2610
:103070002C01EE24FF24D3011B968D919C911C976B
:103080000E94F82C8C01F301838594850E94F82C12
:10309000BC01C201A8010E9402290894E11CF11C94
:1030A000EA14FB0444F3C401B601A20120E030E0BD
:1030B0000E945629BC01D3011B968D919C911C97AF
:1030C0000E94532DC6010E94B537C2010E94B53738
:1030D000C6010E94C937C201B8C585011070BB275F
:1030E000D7FCBA95AD2D9C2D8B2DEFEFAE2EB12CCC
:1030F000A822B922F301838594850E94F82C2C0123
:103100000115110519F4CC24DD2420C0C8010E944A
:10311000EB266C01EE24FF24D3011B968D919C912C
:103120001C970E94F82CFC0180818B3621F483814E
:1031300094819C01F901C601B701AF010E9464238B
:103140000894E11CF11CE016F10634F3A114B1045B
:1031500019F41C821B8221C080E090E00E94EB26C3
:103160009C838B83EE24FF24F301838594850E9446
:10317000F82C8C01D3011B968D919C911C970E9479
:10318000F82CBC018B819C81A8010E940229089423
:10319000E11CF11CEA14FB043CF3C401B6014B81B1
:1031A0005C8192010E945629BC01F30183859485BC
:1031B0000E94532DC6010E94B5378B819C810E94CD
:1031C000B537C6010E94C9378B819C813EC5D401A9
:1031D0008C91863409F03BC512C0D4018C918435A2
:1031E00009F035C50CC0D30117968D919C911897A5
:1031F0008A0D9B1D18969C938E93179728C5F301F3
:10320000B086A78224C5D4018C91863409F01FC5ED
:10321000F30183859485B4010E94532DD301189640
:10322000BC92AE92179713C5F4018081843509F0E2
:103230000EC5D3011896BC92AE92179742C0F30107
:103240008385948561E00E940F2D0E941939FFC487
:103250000E94F12A8C01D30117968D919C911897A9
:10326000F8019683858354824382C2010E94B53758
:10327000D30117968D919C911897F80190878783B9
:1032800017968D919C9118978A0D9B1D9287818727
:103290001282118282E680830E947C2DD8011C96C6
:1032A0009C938E931B97F10180819181B8010E94BC
:1032B000532DD80119968D919C911A97F3019087FF
:1032C00087831B968D919C911C97B401D3C30E9458
:1032D000F12A8C01D30117968D919C911897F801D2
:1032E0009683858354824382C2010E94B537D301FD
:1032F00017968D919C911897F80190878783179660
:103300008D919C9118978A0D9B1D928781871282BF
:10331000118282E680830E947C2DD8011C969C93AA
:103320008E931B97F10180819181B8010E94532DEA
:10333000D80119968D919C911A97F30190878783F4
:1033400086C480E090E00E94EB2683C380E090E09A
:103350000E94EB268BC380E090E00E94EB267C016C
:103360008824992424C0D3011B960D911C911C978D
:10337000C8010E94482C61E070E06A197B09680D61
:10338000791D680F791FC8010E94262CFC018081DD
:10339000823531F4CF01B101A7010E94A53B04C0E1
:1033A000C701BF010E945A260894811C911CC401C8
:1033B000AA2797FDA095BA2F8A159B05AC05BD05D8
:1033C00094F200E010E005C0C9010E94F82C0F5FE4
:1033D0001F4FC801AA2797FDA095BA2FF301238597
:1033E00034858A159B05AC05BD0574F3C9011EC261
:1033F000D2015596ED91FC9156970580F681E02D0E
:10340000C501880F991F0190F081E02DE80FF91F89
:10341000E080F180F70180818B3611F4E580F68041
:10342000C101B7010E94E2118C018091FB029091D1
:10343000FC020817190709F055C0CC24DD2449C047
:10344000D10112968D919C911397B6010E94D222C0
:103450005C01FC0180818336C9F5D70113966D911B
:103460007C911497858996890E943224BC01BFEF14
:103470008F3F9B0731F0F501858996890E94A42230
:103480008C018091FB029091FC020817190751F5FD
:10349000D70113966D917C911497F5018789908DD2
:1034A0000E943224BC01FFEF8F3F9F0741F0D501FE
:1034B00057968D919C9158970E94A4228C018091DF
:1034C000FB029091FC020817190761F40894C11CD3
:1034D000D11CF101828193810E948922C816D906EC
:1034E0000CF4AECFD3011B968D919C911C97B80123
:1034F000C1C2D2015596ED91FC9156970580F68197
:10350000E02DC501880F991F0190F081E02DE80F93
:10351000F91F00811181F80180818B3611F405813A
:103520001681EE24FF243AC0D10112968D919C9110
:103530001397B7010E94D2226C01FC01808183366F
:1035400051F5D80113966D917C91149785899689D0
:103550000E943224BC01BFEF8F3F9B0721F0F60190
:103560008589968914C0D80113966D917C91149722
:10357000F6018789908D0E943224BC01FFEF8F3FB6
:103580009F0749F0D60157968D919C915897A401B9
:103590000E94A5285CC30894E11CF11CF101828102
:1035A0009381B7D7E816F9060CF4BECF50C3D20109
:1035B0005596ED91FC9156970580F681E02DC50159
:1035C000880F991F0190F081E02DE80FF91F00810D
:1035D0001181F80180818B3611F405811681EE246A
:1035E000FF243BC0D10112968D919C911397B70196
:1035F000D9D76C01FC018081833661F5D80113961F
:103600006D917C911497858996890E943224BC0122
:10361000BFEF8F3F9B0731F0F6018589968940E027
:1036200050E0B6CFD80113966D917C911497F601B6
:103630008789908D0E943224BC01FFEF8F3F9F0746
:1036400049F0D60157968D919C91589740E050E0F3
:103650000E94A5280894E11CF11CF101828193814C
:1036600058D7E816F9060CF4BDCFF1C2D201559631
:103670008D919C91569779C0F20183899489B50107
:1036800063D7E7C1F2018789908D6FC0F201838D06
:10369000948D3FD7AA2797FDA095BA2FF201E38C0E
:1036A000F48CA816B906CA06DB06BCF4C701B5013E
:1036B0004BD7FC018081D2015B96ED90FC905C972A
:1036C0008B3649F0C701B5013FD7B4010E9481286C
:1036D000AC01C7019EC0C701EFC0F201018D128D80
:1036E0006501C70116D7B501681B790BC8012CD736
:1036F000FC018081D2015B96ED90FC905C978B364B
:10370000B9F0C70106D77C01F201018D128D838DBE
:10371000948DFFD6B501681B790BC80115D7B4018C
:103720000E948128AC01CE18DF08C801B601FAC09A
:10373000D20159960D911C915A97C701EAD6C81A21
:10374000D90AC801B60123CFF201838D948DE1D649
:10375000AA2797FDA095BA2FF201E38CF48CA81646
:10376000B906CA06DB061CF4C701B5010BC0D201BD
:1037700059960D911C915A97C701CBD6B501681B7C
:10378000790BC801E1D6FC0180818B3621F483815D
:1037900094819C01F901D3011B968D919C911C97FA
:1037A000BF0168C1F201838D948DB3D6AA2797FD1E
:1037B000A095BA2FF201E38CF48CA816B906CA06BC
:1037C000DB061CF4C701B5010BC0D20159960D915F
:1037D0001C915A97C7019DD6B501681B790BC8018A
:1037E000B3D644C1D20155968D919C915697B5019F
:1037F000ABD6FC018081F201058916898B3609F46C
:103800005AC0C801B501A0D6B4010E948128AC01FC
:10381000C801B50187C0C701B4014B815C810E941A
:103820000229D3011B968D919C911C97B70122C14F
:10383000662777276A197B09F301838594850E949F
:10384000262CFC0180818B3621F4838194819C019C
:10385000F901CF01B4014B815C816AC066277727EB
:103860006A197B09D3011B968D919C911C9707C007
:10387000662777276A197B09F301838594850E945F
:10388000262CFC0180818B3621F4838194819C015C
:10389000F901CF01B4010E945A26D9C1D20157962D
:1038A0008D919C915897B5014FD6FC018081F20112
:1038B0000789108DA3CFC801B50169CED2015596F5
:1038C0008D919C91569703C0F2018789908DB50127
:1038D00011C0D4018C91893619F060E070E003C00A
:1038E000F40163817481AB81BC818C91883209F0D1
:1038F000AEC1CD01A7D6ABC1F4019081993619F0C4
:1039000060E070E005C0D40113966D917C9114972E
:10391000EB81FC818081883209F099C1993621F4CC
:10392000CF01A701D1D693C18B819C81B401A7019E
:103930000E9402298CC1D4019C91993619F060E053
:1039400070E003C0F40163817481AB81BC818C9110
:10395000883209F07CC1993611F4CD0141CF8B81B9
:103960009C81B4010E94902581C0850115C0D401BD
:103970008C91853789F4D4011396ED91FC911497BD
:10398000E00FF11F8081BAD40E94D826BC01F30158
:10399000838594850E94532D0150104017FFE7CF77
:1039A00056C1D4018C91893609F051C113966D919D
:1039B0007D918D919C91169743C0D4018C9189364D
:1039C00009F045C113966D917D918D919C9116974B
:1039D00090958095709561957F4F8F4F9F4F30C028
:1039E000D4018C91893661F413968D919D910D903F
:1039F000BC91A02D0097A105B10581F086E40FC010
:103A0000843511F486E403C0863419F484E54ED578
:103A100020C08E3419F0803309F019C184E546D5F1
:103A200025C0D4018C91893609F011C113966D918E
:103A30007D918D919C91169760957095809590954C
:103A40000E94AB2613C0C4016B817C81412F0E9470
:103A5000DB32BC01D3011B968D919C911C970AC04F
:103A6000C4016B817C814A2D0E946631BC01F30147
:103A7000838594850E94532DEAC0D3011B968D91B6
:103A80009C911C970E94F82C4C011E3819F000E004
:103A900010E006C0F301838594850E94F82C8C0108
:103AA0004FEF442E512C4A205B20BB27D7FCBA9500
:103AB000AD2D9C2D8B2D9C0130703A8329834114B0
:103AC000510431F40115110519F4CC24DD2407C08B
:103AD00080E090E00E94EB266C010E94B53789815E
:103AE0009A81892B31F48114910419F4EE24FF2476
:103AF00027C080E090E00E94EB267C015C010E94E0
:103B0000B53781149104E1F01C821B820DC0C40101
:103B10006B817C8119D5BC01C5010E945A26AB81FD
:103B2000BC811196BC83AB83D4011596ED91FC91B9
:103B3000169782819381EB81FC81E817F9073CF3AA
:103B40000115110519F0AA24BB240DC0AA24BB2419
:103B50002CC0C801B501F8D4BC01C6010E945A2688
:103B60000894A11CB11CD8011596ED91FC911697F3
:103B700082819381A816B90664F3E8CFF3018385A7
:103B800094850E94F82C8C01D3011B968D919C91F9
:103B90001C970E94F82CB8010E94862ABC01C7011C
:103BA0000E945A260894A11CB11CE981FA81AE1624
:103BB000BF0624F3AA24BB2419C0D3011B960D9180
:103BC0001C911C97C8010E94482CB5016419750905
:103BD0006F5F7F4F680F791FC8010E94262CBC01C0
:103BE000C6010E945A260894A11CB11CA414B50455
:103BF00024F300E010E005C0C9010E94F82C0F5F1B
:103C00001F4FF3012385348504151505ACF3C90155
:103C10000E94F82CFC0180818B3621F483819481F1
:103C20009C01F901C101BF01A60197014AD2BC0163
:103C3000009739F0D3011B968D919C911C970E949F
:103C4000532DC6010E94C937C7010E94C9370E947F
:103C50001939D1011A96ED91FC911B97309749F1D2
:103C6000C101099526C0F301838594850E94692DC1
:103C7000D1016D917C91882319F0CB010C944215F0
:103C8000CB010E94F82CF301838594850E94F82CC7
:103C9000182F092F0E94B5370E941939212F302F74
:103CA000C9018C01C8012496E2E10C947B3C0E947E
:103CB000193900E010E0F6CFA0E0B0E0E2E6FEE166
:103CC0000C94653C7C016B015A0149010091FB0297
:103CD0001091FC02C0E0D0E01CC0C701BE010E94F0
:103CE000E711FC018081833661F4C701BE010E94A7
:103CF000E711DC0155968D919C915697B6016CD5D4
:103D00008C018091FB029091FC020817190771F455
:103D10002196D7011296ED91FC9113970580F681BB
:103D2000E02D82819381C817D907BCF2F801808108
:103D3000863619F020E030E00CC0C701B801A501BB
:103D400094010E946312C7010E94B7139C0100975F
:103D5000D1F3C901CDB7DEB7ECE00C94813CA0E013
:103D6000B0E0E5EBFEE10C94633C7C01742E652E23
:103D700069014801842F952FFAD6EC01009709F4C8
:103D800072C08091FB029091FC02C817D90709F418
:103D90006AC0C114D10429F0C816D90611F0560121
:103DA00007C080E090E00E94EB265C010E94B537DE
:103DB000C50160E070E0472D562D52D7D701ED9137
:103DC000FC910190F081E02D02811381888186367B
:103DD00081F5C701BE01A50194010E94631220E094
:103DE00030E00BC0C7010E94B713D701ED91FC91E1
:103DF0000190F081E02D22813381892B19F4021783
:103E0000130781F7F701808191810E94522CDC0118
:103E10001B968D919C911C970E94F82C8C01EB8134
:103E2000FC818789908D60E070E040E050E04CD4E8
:103E30000CC0833419F000E010E007C0C701BE01D8
:103E4000A50194010E94DA118C01C114D10439F04A
:103E50008091FB029091FC02C816D90631F4C5018D
:103E60000E94C93702C000E010E0C801CDB7DEB73C
:103E7000EEE00C947F3C4F925F927F928F929F92E4
:103E8000AF92BF92CF92DF92EF92FF920F931F9368
:103E9000CF93DF935C016B014A012901DB0113968B
:103EA000ED91FC9114970189128901151105C9F151
:103EB0000E94F12AEC0182E68883F60183819481D5
:103EC0009C838B830E94B53718861F821E821D82B9
:103ED000D80115968D919C9116979A8789871A8299
:103EE00019820E947C2D9C878B87F50180819181AE
:103EF000BE010E94532D8B859C85B6010E94532DD7
:103F00008114910409F443C0D6011396ED91FC91FC
:103F100014978789908D60E070E0A4010E94A52825
:103F200036C0CB010E94B527EC01F501808191815B
:103F30000E94692D882359F4D5018D919C910E948E
:103F4000522CFC0183859485BE010E94532D8DE780
:103F500091E0F2D12DD7F82EE92EC5016F2D7E2DDF
:103F6000AE01940100E010E0FADE8C010E94B5374A
:103F7000C8010E94C9378F2D9E2D0E94B5378F2D05
:103F80009E2D0E94C9370E941939C0E0D0E0D601A9
:103F900015967C9015971696DC90072D1D2DEE2416
:103FA000FF2426C0C701880F991FD8011596ED91EF
:103FB000FC9116970190F081E02DE80FF91F208108
:103FC0003181D9011396ED91FC91149785859685E1
:103FD000A785B08992609E7F85879687A787B08BDB
:103FE000C501B901A401920146DF0894E11CF11C4E
:103FF000872D9D2D8ED2E816F906A4F2CE01DF9111
:10400000CF911F910F91FF90EF90DF90CF90BF90D5
:10401000AF909F908F907F905F904F900895A0E019
:10402000B0E0E5E1F0E20C94693C8C01EB017A012F
:10403000690161157105E9F188818336D9F084360B
:1040400038F48334F1F08D3441F0863291F50CC0B0
:10405000863639F1853769F51BC0C801BE01A70155
:1040600096010E946E1323C0C801BE01A7019601EC
:1040700002DF1FC0C801BE01A70196010E94EC111A
:1040800018C0C801BE01A70196010E94DA110FC035
:104090006B817C81C8010E94E211009711F0EC0154
:1040A000CBCFC801BE01A70196010E9463129C01FB
:1040B00002C020E030E0C901CDB7DEB7E8E00C94E3
:1040C000853CA0E0B0E0E7E6F0E20C94693C7C01BE
:1040D000FB01EA016901309761F18081853769F45C
:1040E000C701BF010E94E211FC018091FB02909187
:1040F000FC02E817F90779F71CC0833439F4C701CB
:10410000BF01AE0196018BDF9C0115C0CF010E945B
:10411000F52A8C010E94B537C701B801AE0196019E
:104120007EDFF82EE92EC8010E94C9372F2D3E2DC3
:1041300002C020E030E0C901CDB7DEB7E8E00C9462
:10414000853CA0E0B0E0E7EAF0E20C94673C7C013B
:10415000EB016A0159018881833621F08EE4A6D1F2
:104160009C0122C086E891E0E7D022D6182F092FC3
:104170000E94B5378FE891E0DFD01AD6AC018D8967
:104180009E89612F702F0E940229812F902F0E94FB
:10419000C937C701BE01A601950141DFC7010E94D1
:1041A000B7139C010097D1F3C901CDB7DEB7EAE0A0
:1041B0000C94833CA0E0B0E0E0EEF0E20C94683CAC
:1041C0007C018B01B42ECB010E94D934882309F0E5
:1041D0004BC000D088E991E0ADB7BEB712969C9372
:1041E0008E9311970E946A0B0F900F90C8010E9446
:1041F0004E35EC018FE891E09FD0DAD5D82EC92E4C
:10420000C7016D2D7C2DAE010E94B21300D000D0ED
:10421000EDB7FEB7319680EA91E0ADB7BEB7129622
:104220009C938E9311978881828313820E946A0BDC
:104230000F900F900F900F90C701BE0140E050E02B
:1042400020E030E07EDF009711F00E94C937BB20EC
:1042500071F0CE010E94C937C7016D2D7C2D0E94DF
:10426000AD13C8010E94E634C0E0D0E003C0C8012D
:104270000E94E634CE01CDB7DEB7E9E00C94843C71
:104280000F931F93CF93DF938C0182E190E00E9404
:104290006D09EC011D861C861F861E860E947C2DE2
:1042A0009983888380E090E096D59B838A830E94DF
:1042B000B537198A188A1D821C82198618861B86B2
:1042C0001A861F821E82CE010E943239D3D60E94E6
:1042D0006D37CE010E94342F0115110549F08FE88A
:1042E00091E02AD065D5BC01CE01A8010E94B2138D
:1042F000CE01DF91CF911F910F910895FF920F93FF
:104300001F93182F82E090E00E946D09082FF92E6C
:1043100060E070E042E050E00E94510B802F9F2D42
:10432000612F70E041E050E00E94510B802F9F2DE3
:104330001F910F91FF900895EF92FF920F931F939B
:104340008C010E94610B01960E946D09F82EE92EE6
:10435000C8010E94610BAC014F5F5F4F8F2D9E2DF6
:1043600060E070E00E94510BC8010E94610BAC013B
:104370008F2D9E2DB8010E94480B8F2D9E2D1F91D1
:104380000F91FF90EF900895A0E0B0E0EAECF1E229
:104390000C94693C7C016B01009741F46115710537
:1043A00019F4C0E0D0E03CC0CB0103C06115710539
:1043B00019F4C2DFEC0134C00E94610B8C01C6010C
:1043C0000E94610B080F191FC80101960E946D0918
:1043D000EC01C7010E94610B8C01C6010E94610BB8
:1043E000080F191F0F5F1F4FCE0160E070E0A8019A
:1043F0000E94510BC7010E94610BAC01CE01B701B5
:104400000E94480BC7010E94610B8C01C6010E94EB
:10441000610BAC01CE01800F911FB6010E94480BC9
:10442000CE01CDB7DEB7E8E00C94853C6F927F9269
:104430008F929F92AF92BF92CF92DF92EF92FF92B4
:104440000F931F933B014C0159016A019C01EE241B
:10445000FF2487010BC0C9019301A4010E94253CE0
:104460009C010894E11CF11C011D111DD601C50120
:104470000197A109B109E816F9060A071B075CF3C1
:10448000C9011F910F91FF90EF90DF90CF90BF90E7
:10449000AF909F908F907F906F900895562F40E03F
:1044A000282F30E0242B352BC90108958634E9F0FC
:1044B000873438F4803379F08F3309F18E3221F567
:1044C00019C08E3419F08435F9F40AC08091FD02C8
:1044D0009091FE0208958091FB029091FC02089554
:1044E0008091FF02909100030895809101039091C3
:1044F000020308958091030390910403089580912D
:104500000503909106030895809105039091060399
:104510000895FC01009759F08081883241F40580AC
:10452000F681E02D309719F02281338102C020E01E
:1045300030E0C9010895FC01009729F0808188329C
:1045400011F41482138208950F931F93CF93DF9376
:10455000FC01EB01009769F08081883251F40581FC
:104560001681D80112968D919C911397681779073F
:104570002CF08091FB029091FC020FC077FF04C0E9
:10458000CF01C7DFC80FD91FCC0FDD1FD801ED91B8
:10459000FC91EC0FFD1F80819181DF91CF911F91E4
:1045A0000F910895DC01009781F08C91883269F4B5
:1045B0001596ED91FC911697309739F08281938191
:1045C0006817790714F477FF05C08091FB0290917A
:1045D000FC020895CD01B8DFFC0183819481089528
:1045E000DC01009719F08C91883229F08091FB0250
:1045F0009091FC02089513962D913C911497159675
:10460000ED91FC91169782819381281739078CF4DC
:10461000C901019614969C938E9313970197880F66
:10462000991F0190F081E02DE80FF91F80819181A1
:10463000089514961C921E9213978091FB029091FC
:10464000FC020895EF92FF920F931F93CF93DF9395
:104650008C01EB01009799F1DC018C91883279F59E
:104660001596ED90FC901697F7018281938168175B
:1046700079072CF577FF04C0C8014BDFC80FD91F9D
:10468000CC0FDD1FD701ED91FC91EC0FFD1F808158
:1046900091810097A1F00E94C9378091FB0290910F
:1046A000FC02D8011596ED91FC9116970190F081CE
:1046B000E02DEC0FFD1F918380830E94B537CDB7AD
:1046C000DEB7E6E00C94873CEF92FF920F931F93C6
:1046D000CF93DF93FC01EB018A010097B9F1808150
:1046E0008832A1F5E580F680D70112968D919C91D4
:1046F00013976817790754F577FF04C0CF0109DFD6
:10470000C80FD91FCC0FDD1FD701ED91FC91EC0F25
:10471000FD1FC081D1810115110559F08091FB0267
:104720009091FC020817190721F011830083C8013A
:1047300006C08091FB029091FC02918380830E94CD
:10474000B537209719F0CE010E94C937CDB7DEB733
:10475000E6E00C94873CEF92FF920F931F93CF9368
:10476000DF937C01009799F1DC018C91883279F517
:1047700015968D919C911697892B49F100E010E0D8
:104780001CC0C801880F991F0190F081E02DE80F2F
:10479000F91FC081D181209771F088818B3659F43F
:1047A0008D819E81918380838D819E810E94B5370A
:1047B000CE010E94C9370F5F1F4FD7011596ED91AB
:1047C000FC9116978281938108171907D4F2CDB70F
:1047D000DEB7E6E00C94873CA0E0B0E0E2EFF3E265
:1047E0000C94693CFC016B01009791F18081883247
:1047F00079F5E580F680E114F10451F1C0E0D0E0F4
:1048000021C0CE01880F991FD701ED91FC91E80FCF
:10481000F91F0190F081E02D309799F080818B365F
:1048200081F4A581B681038114818C91853749F487
:1048300013968D919C911497B6010E94580B892B69
:1048400059F02196F70182819381C817D907CCF2DC
:104850000091FB021091FC02C801CDB7DEB7E8E081
:104860000C94853CEF92FF920F931F93CF93DF93AD
:10487000FC017B01009799F18081883281F50581E7
:1048800016810115110559F1C0E0D0E022C0CE011A
:10489000880F991FD801ED91FC91E80FF91F019045
:1048A000F081E02D3097A1F0DF0180818B3621F47B
:1048B000858196819C01D9018C91853749F41396A5
:1048C0008D919C911497B7010E94580B892B49F048
:1048D0002196F80182819381C817D907C4F2CFEFDE
:1048E000DFEFCE01CDB7DEB7E6E00C94873CFF9258
:1048F0000F931F93CF93DF938C01EB01009729F463
:1049000060E0CD2B09F064C064C06115710509F445
:104910005FC0FC0190818881981709F059C09736D3
:10492000D9F1983628F4903361F09E3441F409C0EF
:104930009B3649F0953709F442C09936E9F06FEF9C
:1049400048C060E046C06D817E81F8018581968116
:10495000CEDF882319F480E090E038C06B817C8141
:10496000F80183819481C3DF90E0882309F491E00A
:1049700081E09827892F2AC060E0F80123813481E3
:10498000458156818B819C81AD81BE812817390775
:104990004A075B07E9F41DC0FF24F80163817481B5
:1049A000858196812B813C814D815E810E94BB0572
:1049B000882311F4FF24F39461E06F250AC06B8112
:1049C0007C81F801838194810E94580B682F01C07B
:1049D00061E0862FCDB7DEB7E5E00C94883CEF921E
:1049E000FF920F931F93CF93DF938C017B0100976E
:1049F00099F1DC018C91883279F515968D919C9115
:104A00001697892B49F16115710531F1C0E0D0E0AD
:104A100019C0CE01880F991F0190F081E02DE80F99
:104A2000F91F0190F081E02D309729F080818B36BD
:104A300011F0CF0102C083819481B70158DF882330
:104A400069F02196D8011596ED91FC911697828117
:104A50009381C817D907ECF2CFEFDFEFCE01CDB7C6
:104A6000DEB7E6E00C94873CEF92FF920F931F9322
:104A7000CF93DF938C017B01009799F1DC018C913E
:104A8000883279F515968D919C911697892B49F16D
:104A90006115710531F1C0E0D0E019C0CE01880F79
:104AA000991F0190F081E02DE80FF91F0190F0812E
:104AB000E02D309759F080818B3611F0CF0102C084
:104AC00085819681B70113DF882369F02196D8018B
:104AD0001596ED91FC91169782819381C817D9079D
:104AE000ECF2CFEFDFEFCE01CDB7DEB7E6E00C940E
:104AF000873CCF93DF93EC01009779F0888188326F
:104B000061F46115710549F0CE01AEDFBC018FEF94
:104B10006F3F780711F0CE0195DDDF91CF910895B9
:104B2000CF93DF93EC01A0DFBC018FEF6F3F7807DD
:104B300049F0CE0109DDFC0180818B3619F48381B7
:104B4000948104C08091FB029091FC02DF91CF918F
:104B50000895FC012091FB029091FC0280818A3231
:104B600021F487819085DCDF282F822F0895A0E033
:104B7000B0E0EDEBF5E20C94673C8C016B01C09169
:104B8000FB02D091FC02D8018C91863209F04BC017
:104B90001396ED91FC91149785899689B601C0DF33
:104BA000EC010097A9F08091FB029091FC02C817DC
:104BB000D90741F02881263609F44CC0233409F482
:104BC00049C0EC01209721F0C817D90709F042C06D
:104BD000F801A580B6808501EE24FF241EC0D8010F
:104BE0001596ED91FC911697C701880F991F0190BA
:104BF000F081E02DE80FF91F80819181B601B7DFC8
:104C0000EC01009739F08091FB029091FC02C817EB
:104C1000D90701F50894E11CF11CC5017ADCE816FE
:104C2000F906ECF217C08A32A9F4F8018581968161
:104C3000B60176DFEC01009739F08091FB0290918C
:104C4000FC02C817D90731F4D80113960D911C91B5
:104C5000149795CFCE01CDB7DEB7EAE00C94833C34
:104C6000EF92FF920F931F93CF93DF93EC017B01A1
:104C70008A010097D1F088818832B9F44115510535
:104C8000A1F08D819E81892B39F480E090E060E075
:104C90000E940B2F9E838D838D819E81B701A80179
:104CA0000E94BE2EC8010E94B537CDB7DEB7E6E040
:104CB0000C94873C0F931F93CF93DF93EC018B01F0
:104CC0000097B1F08881883299F48D819E81892B7B
:104CD00039F480E090E060E00E940B2F9E838D838A
:104CE0008D819E81B8010E94892EC8010E94B5372E
:104CF000DF91CF911F910F91089589E090E00C947E
:104D00006D09FBDFFC0182E5808310861782148227
:104D1000138212821182CF01089587E090E00C94F3
:104D20006D09EF92FF920F931F937B018C01F5DFCA
:104D3000FC0187E6808312821182E382F48205837C
:104D40001683CF011F910F91FF90EF90089587E098
:104D500090E00C946D09EF92FF920F931F937B01EB
:104D60008C01F5DFFC0189E6808312821182E382E7
:104D7000F48205831683CF011F910F91FF90EF906E
:104D8000089585E090E00C946D090F931F938C01BA
:104D9000F8DFFC0184E7808312821182148303838D
:104DA000CF011F910F91089585E090E00C946D095B
:104DB0000F931F938C01F8DFFC0185E7808312823B
:104DC000118214830383CF011F910F91089587E00F
:104DD00090E00C946D09EF92FF920F931F938C015A
:104DE000F6DF7C0188E2F70180831282118214824F
:104DF0001382C80161E00E940B2FF701968385831F
:104E0000C7011F910F91FF90EF90089587E090E008
:104E10000C946D09EF92FF920F931F938C017B010D
:104E2000F5DFFC0183E78083128211821483038300
:104E3000F682E582CF011F910F91FF90EF900895C8
:104E400087E090E00C946D09CF92DF92EF92FF9291
:104E50000F931F937C016B01F3DF8C018DE4F8014C
:104E60008083F482E382C7010E94B537F801128281
:104E70001182D682C582C6010E94B537C8011F9132
:104E80000F91FF90EF90DF90CF9008950F931F93B5
:104E9000CF93DF93EC018B01209719F001151105D9
:104EA00029F42091FB023091FC023EC088818336B8
:104EB00019F48D899E8906C0863239F4EB81FC8114
:104EC00085899689B8012CDE1FC08A3259F5CE013A
:104ED000B8013FDE9C01009739F08091FB02909170
:104EE000FC022817390791F4CE01B80140DE9C017D
:104EF000009799F08091FB029091FC0228173907E6
:104F000029F0C901BE01A0DF9C010EC08091FB0207
:104F10009091FC022817390739F48B819C819C0100
:104F2000E901BACF20E030E0C901DF91CF911F91B4
:104F30000F91089585E090E00C946D090F931F93F5
:104F40008C01F8DFFC0183E48083148303831282E5
:104F50001182CF011F910F91089585E090E00C948C
:104F60006D0989E090E00C946D09EF92FF920F9328
:104F70001F937C01F6DF8C018AE2F8018083F482C2
:104F8000E38212821182C7010E94B53780E090E06F
:104F900022DFF801858396830E94B53780E090E098
:104FA0001ADFF801878390870E94B537C8011F91E7
:104FB0000F91FF90EF90089587E090E00C946D09B9
:104FC000CF92DF92EF92FF920F931F937C016B01C0
:104FD000F3DF8C0186E2F8018083F482E38212829F
:104FE0001182D682C582C7010E94B537C6010E94D0
:104FF000B537F70185859685A785B0899160858746
:105000009687A787B08BC8011F910F91FF90EF90F3
:10501000DF90CF9008958DE190E00C946D090F938F
:105020001F938C01F8DFFC0183E6808314830383E4
:1050300016821582108617821286118614861386B0
:10504000158616861786108A128A118A148A138A80
:10505000108E178A128E118E148E138E168A158A50
:1050600012821182CF011F910F91089583E090E089
:105070000C946D090F931F93F9DFFC019093FC02D0
:105080008093FB0280E3808301E010E012830183C0
:10509000EDDFFC019093FE028093FD028EE480839D
:1050A00012830183E3DFFC01909300038093FF02EE
:1050B00084E5808312830183D9DFFC01909302038E
:1050C0008093010386E4808312830183CFDFFC0198
:1050D00090930403809303038EE280831283018301
:1050E000C5DFFC0190930603809305038FE3808363
:1050F000128301831F910F91089587E090E00C9433
:105100006D09EF92FF920F931F93CF93DF938C0162
:105110007B01F3DFEC018BE688831A8219821E8300
:105120000D83C8010E94B537E114F10431F0FC820F
:10513000EB82C7010E94B53702C01C821B82CE01E0
:10514000CDB7DEB7E6E00C94873CEF92FF920F9369
:105150001F93CF93DF937C018B01EA018FEF6F3FA9
:10516000780701F1C701F0D9FC0180818B3699F4F1
:1051700003811481209731F0D483C383CE010E9430
:10518000B53702C0148213820115110559F0C80108
:105190000E94C93707C0CF01BE01B3DFAC01C70110
:1051A000B80192DACDB7DEB7E6E00C94873CEF9217
:1051B000FF920F931F93CF93DF93EC018B017A0142
:1051C0000097D9F088818832C1F461157105A9F082
:1051D0008D819E81892B31F480E090E060E01BD6C8
:1051E0009E838D83C801B7018CDF8C018D819E81E8
:1051F000B8018FD5C8010E94B537CDB7DEB7E6E05C
:105200000C94873CA0E0B0E0E8E0F9E20C94693C43
:105210008C017B016A01009709F43BC0FC0180818D
:105220008832B9F561157105A1F1C8011DDCEC01E9
:10523000FFEF8F3F9F0749F1C801BE0185D9FC01EF
:1052400080818B36D1F4C381D481C114D10469F03B
:105250008091FB029091FC02C816D90631F0D482ED
:10526000C382C6010E94B53702C014821382209700
:1052700081F0CE010E94C9370CC0CF01B60141DFD9
:10528000AC01C801BE0120DA04C0C801B701A60103
:105290008EDFCDB7DEB7E8E00C94853CFC01808161
:1052A0008A3219F487819085ADCF0895A4E0B0E0EB
:1052B000ECE5F9E20C945F3C4C013B012A013A8396
:1052C00029834BDE1C0186E6D1018C9312961C9239
:1052D0001E92119714969C928E921397C4010E946D
:1052E000B537F4010789108DC80113D918161906AE
:1052F0000CF071C06114710421F44114510409F4DB
:105300006AC0C80128DA6114710409F444C0D401E8
:105310001596AD90BC9016971C821B822FC0F4018D
:10532000E788F08C0894A108B10865012B813C81C5
:10533000C21AD30A0894A11CB11CC701B60104D932
:105340008C01DC018C918B3661F0C3016B817C8117
:10535000FBD8BC01C801D5DEAC01C701B601B4D988
:1053600008C0C3016B817C81EFD8AC01C701B601D5
:10537000ECDEEB81FC813196FC83EB83D301159647
:10538000ED91FC91169782819381EB81FC81E81766
:10539000F9070CF4C4CF41145104E9F000E010E027
:1053A00010C0C201B801D0D8FC016581768143816B
:1053B0005481D40157968D919C91589723DF0F5FAC
:1053C0001F4FD2011596ED91FC9116978281938122
:1053D0000817190734F3E981FA81EF2BB9F000E0DF
:1053E00010E00EC089819A81B801AED8AC01D40119
:1053F00059968D919C915A97B80166D90F5F1F4FAE
:1054000089819A8186D80817190764F3C101249607
:10541000E2E10C947B3CEF92FF920F931F938C017F
:105420006CDE7C018BE6F701808312821182168389
:105430000583C8010E94B537F70114821382C701A2
:105440001F910F91FF90EF900895A0E0B0E0EBE284
:10545000FAE20C94693C7C01009709F452C0DC012B
:105460008C91883209F04DC01596ED91FC911697FC
:10547000309709F446C082819381892B09F441C099
:10548000CC24DD2434C08601000F111FC081D181DE
:10549000C00FD11FE881F981309731F180818B36BF
:1054A00019F1CF01B8DF99838883D7011596ED9163
:1054B000FC9116970190F081E02DE00FF11F8081A3
:1054C00091810E94B537D7011596ED91FC91169701
:1054D0000190F081E02DE00FF11F0190F081E02DAF
:1054E000858196810E94C9370894C11CD11CD701BF
:1054F0001596ED91FC91169782819381C816D90675
:1055000014F2CDB7DEB7E8E00C94853CCF92DF9281
:10551000EF92FF920F931F937C016B01EEDD8C01E4
:105520008BE6F801808312821182F682E582C70140
:105530000E94B537F801D482C382C6010E94B537F4
:10554000C8011F910F91FF90EF90DF90CF900895C9
:10555000EF92FF920F931F93CF93DF938B017A010A
:10556000EC0189859A8501969A8789878D899E891C
:10557000892B39F480E090E02EDC8D8B9E8B0E948D
:10558000B537C801B701C2DFBC018D899E8992DBA6
:10559000CDB7DEB7E6E00C94873CEF92FF920F9315
:1055A0001F938C01CB017A010E949C2101DCBC017C
:1055B000C801A701CDDF1F910F91FF90EF900895D3
:1055C000EF92FF920F931F938C017B01CA01B6DC0F
:1055D000AC01C801B701E1DF1F910F91FF90EF907F
:1055E00008958DE090E00C946D09EF92FF920F9377
:1055F0001F93CF93DF93EC01009709F41FC1F8804C
:1056000083E6F81609F4BEC08F1540F1E6E4FE16F5
:1056100009F441C0EF15B8F0F0E3FF16E1F1FF1512
:1056200068F088E2F81609F48CC0EAE2FE1609F484
:1056300083C0F6E2FF1609F001C177C083E4F816D3
:1056400009F0FCC06EC0EEE4FE1629F1F4E5FF1689
:1056500011F18DE4F81609F0F1C05CC0EBE6FE161E
:1056600009F449C0EF1558F0F7E6FF16F1F089E6A6
:10567000F816A9F0E6E6FE1609F0E0C0D4C0F4E79B
:10568000FF1609F443C085E7F816A9F0E3E7FE1614
:1056900009F0D4C016C08F2D0E94562250C06B81D5
:1056A0007C818D819E8157DB4AC06B817C818D819D
:1056B0009E8137DB44C08B819C810E949C2178DBDA
:1056C0003EC08D819E810E946D09182F092F4D814A
:1056D0005E8160E070E00E94510B6B817C814D81A6
:1056E0005E81812F902F0E94480B6D817E81812FDA
:1056F000902F90DB24C08D819E8177DF8C018B8180
:105700009C8173DFBC01C80101DF19C08B819C81C2
:105710003CDB15C08B819C8168DF6D817E8194DBD1
:105720000EC08B819C810ADC0AC08B819C815DDF6D
:105730006D817E8145DC03C08B819C8116DC8C01F0
:105740007FC0CE010E94892246DBF82EE92E00E0C0
:1057500010E00DC0CE01B8010E94A42246DFAC01CA
:105760008F2D9E2DB8010E9464230F5F1F4FCE0125
:105770000E948922081719076CF38F2D9E2D9C011A
:1057800089015EC048DC8C01FC01F082128211822A
:105790008B819C810E949C21F801948383838D815D
:1057A0009E81968385838F8198859087878389855D
:1057B0009A85928781878B859C85948783878D8541
:1057C0009E85AF85B88985879687A787B08B89899D
:1057D0009A89928B818B0E94B5378B899C89F801BD
:1057E000948B838B0E94B5378F89988DFEDEF801EC
:1057F000908F878B0E94B537898D9A8DF801928F93
:10580000818F0E94B5378B8D9C8DF801948F838F8B
:105810000E94B5378D899E89E8DEF801968B858BCD
:105820000E94B5370DC08B819C81DFDE60E070E0A7
:1058300040E050E020E030E039DD81CF00E010E0D2
:10584000C801CDB7DEB7E6E00C94873CDC0177FFFA
:1058500007C0ED91FC91119782819381680F791FA8
:10586000ED91FC9182819381681779076CF477FD43
:105870000BC0660F771F0190F081E02DE60FF71F38
:105880000190F081E02D02C0E0E0F0E0CF0108954A
:10589000FC010190F081E02D2281338121503040C4
:1058A000C9010895FC010190F081E02D828193816E
:1058B000181619061CF0E0E0F0E00BC00197880F05
:1058C000991F0190F081E02DE80FF91F0190F08100
:1058D000E02DCF010895FC010190F081E02D82813F
:1058E0009381823091051CF4E0E0F0E00BC0029758
:1058F000880F991F0190F081E02DE80FF91F0190AA
:10590000F081E02DCF010895FC010190F081E02DA0
:1059100082819381833091051CF4E0E0F0E00BC0BC
:105920000397880F991F0190F081E02DE80FF91F70
:105930000190F081E02DCF010895FC010190F081EC
:10594000E02D828193811816190654F40197880F6F
:10595000991F0190F081E02DE80FF91F718360839A
:105960000895FC010190F081E02D828193818230C5
:10597000910554F00297880F991F0190F081E02D56
:10598000E80FF91F718360830895FC010190F08195
:10599000E02D828193818330910554F00397880F25
:1059A000991F0190F081E02DE80FF91F718360834A
:1059B0000895DC0120E030E011C0C901880F991F73
:1059C0000190F081E02DE80FF91F80819181861709
:1059D000970711F481E008952F5F3F4FED91FC91FF
:1059E000119782819381281739073CF380E008954D
:1059F000CF93DF93FC010190F081E02D82819381B0
:105A0000181619061CF0C0E0D0E005C0CF0172D115
:105A1000EC010E94C937CE01DF91CF910895CF9359
:105A2000DF93EC01009769F0662329F40AC0CF01E7
:105A300061D10E94C937E881F98182819381892BE4
:105A4000B1F7DF91CF910895EF92FF920F931F93DB
:105A5000CF93DF937C018B01161617066CF4C0E020
:105A6000D0E0F7018081918160E070E052D1219611
:105A7000C017D107B4F312C06115710579F0C0E009
:105A8000D0E005C0F7018081918134D1219688272B
:105A90009927801B910BC817D907A4F3CDB7DEB7A0
:105AA000E6E00C94873C0F931F93CF93DF938C0118
:105AB000EB016115710541F0CB010E94B537F8018A
:105AC00080819181BE0125D1DF91CF911F910F91EE
:105AD0000895FC0180819181A3C0CF93DF93EC01F5
