:1000000027C2000047C2000045C2000043C20000F2
:1000100041C200003FC200003DC200003BC20000E0
:1000200039C2000037C2000035C2000033C20000F0
:1000300031C200002FC200002DC200002BC2000000
:1000400029C2000027C2000025C2000023C2000010
:1000500021C200001FC200001DC200000C94391212
:1000600019C2000017C2000015C2000013C2000030
:1000700011C200000FC200000DC200000BC2000040
:1000800009C2000007C2000005C2000003C2000050
:1000900001C20000FFC10000FDC10000FBC1000063
:1000A000F9C10000F7C10000F5C10000F3C1000074
:1000B000F1C10000EFC10000EDC10000EBC1000084
:1000C000E9C10000E7C10000E5C10000E3C1000094
:1000D000E1C10000DFC10000DDC10000DBC10000A4
:1000E000D9C100007E1383138813921306149C1346
:1000F000A413AC13B613C013CA13D413DE1306141F
:10010000E813F213FC134E145114441448148A14C7
:10011000551459145F14631467146D147114751415
:100120008A147B147F148514AF23BA23CC2314259F
:100130001425F8231425142514250924092414252D
:1001400009240924092469230924092409240924E8
:1001500014251425142514251425142514251425D7
:1001600014251425142514251425142514251425C7
:1001700014251425142514251425142514251425B7
:10018000AB220924092409241425092445232F23FB
:1001900009240924092409240924092414251425DF
:1001A00014256F1C14251425142509240924092459
:1001B000092409241425F21E14251425A71D14252D
:1001C00014251425142514258E2222238723741C1C
:1001D0001425D11C14258420052114258E218A2163
:1001E000911F911F871F8C1FA71C1624F41C541DE0
:1001F000C51ED31EE51ECD1EB21EB91EDF1F14255F
:1002000014251425471F1425142514259B210E237E
:100210002823142514251425F51BEB1BB51D1425C7
:10022000261E63222722BD2114251425F11B252417
:100230002524FD1E1425E122EB22BC224242BE41B0
:10024000EA421A4253423B42EA422B4234422B4298
:100250003442EA42EA42EA42EA42EA42EA42EA42F4
:10026000EA42EA42EA42EA42EA42EA42EA42EA422E
:10027000EA42EA42EA42EA42EA42EA42EA42EA421E
:10028000EA42EA4253423B42BE41EA421A42EA4251
:10029000EA42F6410842E741D441C5414242EA42BE
:1002A000EA42EA42EA42EA42EA42EA42F6410842C5
:1002B000E741D441C541DA428A42EA42B242E142D0
:1002C000D542EA42C942C942C942C942EA42EA4267
:1002D000EA42EA42EA42EA42EA42EA42EA42EA42BE
:1002E000EA42EA42EA42EA42EA42EA42EA42EA42AE
:1002F000EA42EA42EA42EA42EA42EA42EA42E142A7
:10030000D5428A42EA42B242EA42EA42A042A942C5
:100310009B4296429142DA42EA42EA42EA42EA4289
:10032000EA42EA42EA42A042A9429B4296429142F4
:1003300000002100240027002A002D003000330097
:1003400001010000040107010A010000220025004C
:1003500028002B002E0031003400020100000501AE
:1003600008010B01000020002300260029002C00BA
:100370002F003200000100000301060109010505FC
:100380000505070508080808020202020A0A08080B
:100390000404040401010101010101010303030339
:1003A00003030303040707070C0C0C0C0C0C0C0CC8
:1003B0000202020206060606060606060B0B0B0BD9
:1003C0000B0B0B0B010210202008081020401020FE
:1003D0004080020102010804020101020408102009
:1003E0004080804020100804020180040201804007
:1003F0002010080402010804020101020408102070
:10040000408001020408102040800000090A020810
:100410000B0C0D07060304010000000000000000A3
:1004200000000000000000000000000000000000CC
:1004300000000000000011100F000000000000008C
:1004400000000000000000000000000000000000AC
:1004500011241FBECFEFD1E2DEBFCDBF00E00CBF45
:1004600019E0A0E0B2E0EAE0F2EA00E00BBF02C06F
:1004700007900D92A43BB107D9F71BBE1AE0A4EB7D
:10048000B9E001C01D92AF30B107E1F70E94F50D50
:100490000C940351B5CDA0E0B0E0E1E5F2E00C949E
:1004A0002650DC012B01FA019C91923008F439C1ED
:1004B000EB018881823008F433C1943069F48430D0
:1004C00009F02FC111969C9111978981981709F411
:1004D00028C1A8EBB6E025C1843009F421C18230DF
:1004E000A9F4923009F01DC19A01AD0188E0EA013A
:1004F0000990AE01E90109929E018150C1F7E20124
:10050000898111969C918923818308C1923009F4D5
:1005100007C112962D903C901397EB018A819B8125
:100520001496AD90BD90CD90DC901797EC80FD8037
:100530000E811F819101281B390BB90137FF04C0BF
:1005400066277727621B730B603271050CF061C060
:10055000121613066CF537014801062E04C0969456
:100560008794779467940A94D2F721E030E040E0D2
:1005700050E004C0220F331F441F551F6A95D2F765
:1005800021503040404050402E213F2140235123F4
:10059000211531054105510521F021E030E040E011
:1005A00050E079018A01E628F728082919293CC07A
:1005B000232BD1F1260E371E35014601062E04C02D
:1005C00096948794779467940A94D2F721E030E068
:1005D00040E050E004C0220F331F441F551F6A95AE
:1005E000D2F721503040404050402A213B214C213D
:1005F0005D21211531054105510521F021E030E053
:1006000040E050E059016A01A628B728C828D92837
:100610000BC0821593052CF01C01AA24BB24650194
:1006200003C0EE24FF24870111969C91D2011196FC
:100630008C91981709F445C0992339F0A8019701C6
:100640002A193B094C095D0906C0A60195012E191E
:100650003F09400B510B57FD08C0118233822282A3
:1006600024833583468357831DC081E08183338291
:10067000228288279927DC01821B930BA40BB50BE0
:1006800084839583A683B7830DC0220F331F441F35
:10069000551F248335834683578382819381019735
:1006A000938382832481358146815781DA01C90190
:1006B0000197A109B1098F5F9F4FAF4FBF4328F347
:1006C0000BC0918333822282EA0CFB1C0C1D1D1D82
:1006D000E482F5820683178383E080832481358159
:1006E0004681578157FF1AC0C901AA2797FDA095D7
:1006F000BA2F81709070A070B0705695479537955D
:100700002795822B932BA42BB52B84839583A683CB
:10071000B78382819381019693838283DF0101C035
:10072000D201CD01CDB7DEB7E2E10C944250A0E298
:10073000B0E0EDE9F3E00C94325069837A838B8367
:100740009C832D833E834F835887E9E0EE2EF12C66
:10075000EC0EFD1ECE010196B701C0D48E010F5ED6
:100760001F4FCE010596B801B9D48A8991E0892737
:100770008A8BC701B801AE01475E5F4F8CDED9D3CB
:10078000A096E6E00C944E50A0E2B0E0EAECF3E074
:100790000C94325069837A838B839C832D833E83B0
:1007A0004F835887F9E0EF2EF12CEC0EFD1ECE01A1
:1007B0000196B70193D48E010F5E1F4FCE010596AF
:1007C000B8018CD4C701B801AE01475E5F4F63DE4C
:1007D000B0D3A096E6E00C944E50A0E2B0E0E3EF78
:1007E000F3E00C94265069837A838B839C832D835A
:1007F0003E834F835887CE010196BE01675F7F4FCE
:100800006DD4CE010596BE016F5E7F4F67D499858A
:10081000923088F089898230C8F0943019F482309F
:1008200051F404C0843029F4923081F488EB96E0CE
:10083000C6C0923049F420E09A858A89981321E055
:100840002A87CE010996BBC0823049F420E09A8500
:100850008A89981321E02A8BCE014196B0C02D845D
:100860003E844F8458886D887E888F88988CEE24CB
:10087000FF248701AA24BB24650140E050E060E02A
:1008800070E0E0E0F0E0C10181709070892BE9F048
:10089000E60CF71C081D191D9A01AB012A0D3B1D22
:1008A0004C1D5D1D80E090E0A0E0B0E0E614F70490
:1008B0000805190520F481E090E0A0E0B0E0BA015D
:1008C000A901480F591F6A1F7B1FAA0CBB1CCC1C17
:1008D000DD1C97FE08C081E090E0A0E0B0E0A82A0F
:1008E000B92ACA2ADB2A3196E032F10549F0660CB2
:1008F000771C881C991C5694479437942794C3CF2F
:10090000FA85EA892B893C898B859C85280F391FBC
:100910002E5F3F4F17C0CA0181709070892B61F024
:1009200016950795F794E79480E090E0A0E0B0E892
:10093000E82AF92A0A2B1B2B769567955795479538
:100940002F5F3F4F77FDE7CF0CC0440F551F661F49
:10095000771F17FD4160EE0CFF1C001F111F215077
:100960003040403090E0590790E0690790E4790703
:1009700060F32B8F3C8FDB01CA018F779070A070E2
:10098000B07080349105A105B10561F447FD0AC03E
:10099000E114F1040105110529F0405C5F4F6F4F30
:1009A0007F4F40781A8EFE1711F081E08A8F4D8FAD
:1009B0005E8F6F8F78A383E0898FCE014996B9D27D
:1009C000A096E2E10C944250A8E1B0E0EAEEF4E037
:1009D0000C942E5069837A838B839C832D833E8372
:1009E0004F835887B9E0EB2EF12CEC0EFD1ECE01A3
:1009F0000196B70173D38E010F5E1F4FCE0105968E
:100A0000B8016CD32985223008F47EC03989323090
:100A100010F4B8017CC08A859A8989278A87243096
:100A200011F0223031F4231709F06EC068EB76E044
:100A30006EC0343039F41D861E861F86188A1C86C7
:100A40001B8604C0323021F484E08987B7015FC07F
:100A50002B853C858B899C89281B390B3C872B87F0
:100A6000ED84FE840F851889AD88BE88CF88D88C28
:100A7000EA14FB040C051D0540F4EE0CFF1C001FDE
:100A8000111F215030403C872B8720E030E040E0B0
:100A900050E080E090E0A0E0B0E460E070E0EA14B4
:100AA000FB040C051D0540F0282B392B4A2B5B2B32
:100AB000EA18FB080C091D09B695A7959795879527
:100AC000EE0CFF1C001F111F6F5F7F4F6F31710510
:100AD00031F7DA01C9018F779070A070B07080345F
:100AE0009105A105B10561F427FD0AC0E114F104E7
:100AF0000105110529F0205C3F4F4F4F5F4F2078D3
:100B00002D873E874F87588BBE01675F7F4FCB0194
:100B100010D26896EAE00C944A50A8E1B0E0E3E90C
:100B2000F5E00C94325069837A838B839C832D8308
:100B30003E834F83588789E0E82EF12CEC0EFD1E92
:100B4000CE010196B701CAD28E010F5E1F4FCE01B2
:100B50000596B801C3D28985823038F08989823000
:100B600020F0C701B80132D301C081E06896E6E009
:100B70000C944E50A8E1B0E0E0ECF5E00C9432505B
:100B800069837A838B839C832D833E834F8358872D
:100B900089E0E82EF12CEC0EFD1ECE010196B70186
:100BA0009DD28E010F5E1F4FCE010596B80196D2E1
:100BB0008985823038F08989823020F0C701B801F8
:100BC00005D301C081E06896E6E00C944E50A8E1A0
:100BD000B0E0EDEEF5E00C94325069837A838B83BC
:100BE0009C832D833E834F83588789E0E82EF12C28
:100BF000EC0EFD1ECE010196B70170D28E010F5E84
:100C00001F4FCE010596B80169D28985823038F030
:100C10008989823020F0C701B801D8D201C08FEF96
:100C20006896E6E00C944E50A8E1B0E0EAE1F6E008
:100C30000C94325069837A838B839C832D833E830B
:100C40004F83588789E0E82EF12CEC0EFD1ECE0173
:100C50000196B70143D28E010F5E1F4FCE0105965C
:100C6000B8013CD28985823038F08989823020F001
:100C7000C701B801ABD201C08FEF6896E6E00C94D3
:100C80004E50A8E1B0E0E7E4F6E00C9432506983FE
:100C90007A838B839C832D833E834F83588789E09F
:100CA000E82EF12CEC0EFD1ECE010196B70116D2F6
:100CB0008E010F5E1F4FCE010596B8010FD28985B8
:100CC000823038F08989823020F0C701B8017ED2A5
:100CD00001C081E06896E6E00C944E50A8E1B0E0D7
:100CE000E4E7F6E00C94325069837A838B839C832B
:100CF0002D833E834F83588789E0E82EF12CEC0E3C
:100D0000FD1ECE010196B701E9D18E010F5E1F4F86
:100D1000CE010596B801E2D18985823038F0898903
:100D2000823020F0C701B80151D201C081E068963D
:100D3000E6E00C944E50A8E0B0E0E1EAF6E00C9456
:100D40002F509B01AC0183E08983DA01C901882718
:100D5000B7FD83959927AA27BB27B82E2115310502
:100D60004105510519F482E0898339C08823A9F02F
:100D7000203080E0380780E0480780E8580729F4F1
:100D800060E070E080E09FEC2EC0EE24FF2487013D
:100D9000E21AF30A040B150B02C079018A018EE1F5
:100DA000C82ED12CDC82CB82ED82FE820F83188785
:100DB000C801B7016FD001971816190684F4082EE0
:100DC00004C0EE0CFF1C001F111F0A94D2F7ED8225
:100DD000FE820F831887C81AD90ADC82CB82BA82B6
:100DE000CE010196A6D02896E9E00C944B50ACE0D9
:100DF000B0E0EDEFF6E00C94365069837A838B8394
:100E00009C83CE010196BE016B5F7F4F67D18D81C0
:100E1000823061F1823050F1843021F48E81882358
:100E200051F12EC02F81388537FD20C06E812F31C2
:100E300031051CF06623F9F023C08EE190E0821B9F
:100E4000930B29853A854B855C8504C0569547955B
:100E5000379527958A95D2F76623B1F0509540953E
:100E6000309521953F4F4F4F5F4F0EC020E030E04F
:100E700040E050E009C02FEF3FEF4FEF5FE704C0C5
:100E800020E030E040E050E8B901CA012C96E2E0F1
:100E90000C945250EF92FF920F931F937B018C01A1
:100EA00080E0E81680E0F80681E0080780E0180797
:100EB00088F48FEFE816F1040105110531F028F0F0
:100EC00088E090E0A0E0B0E017C080E090E0A0E013
:100ED000B0E012C080E0E81680E0F80680E0080785
:100EE00081E0180728F088E190E0A0E0B0E004C0BD
:100EF00080E190E0A0E0B0E020E230E040E050E0AF
:100F0000281B390B4A0B5B0B04C016950795F79409
:100F1000E7948A95D2F7F701E054F94F8081281BB6
:100F2000310941095109C9011F910F91FF90EF90BB
:100F30000895DF92EF92FF920F931F93FC01E480DC
:100F4000F58006811781D1808081823048F480E06D
:100F500090E0A0E1B0E0E82AF92A0A2B1B2BA5C0FB
:100F6000843009F49FC0823021F4EE24FF248701ED
:100F700005C0E114F1040105110519F4E0E0F0E009
:100F800096C0628173819FEF623879070CF05BC075
:100F900022E83FEF261B370B2A3131052CF020E0E9
:100FA00030E040E050E02AC0B801A701022E04C0A2
:100FB00076956795579547950A94D2F781E090E02A
:100FC000A0E0B0E004C0880F991FAA1FBB1F2A959C
:100FD000D2F70197A109B1098E219F21A023B12346
:100FE0000097A105B10521F081E090E0A0E0B0E01C
:100FF0009A01AB01282B392B4A2B5B2BDA01C90153
:101000008F779070A070B07080349105A105B10504
:1010100039F427FF09C0205C3F4F4F4F5F4F04C09A
:10102000215C3F4F4F4F5F4FE0E0F0E02030A0E009
:101030003A07A0E04A07A0E45A0710F0E1E0F0E028
:1010400079018A0127C06038710564F5FB01E15818
:10105000FF4FD801C7018F779070A070B0708034B7
:101060009105A105B10539F4E7FE0DC080E490E0DB
:10107000A0E0B0E004C08FE390E0A0E0B0E0E80EB4
:10108000F91E0A1F1B1F17FF05C016950795F79439
:10109000E794319687E016950795F794E7948A953B
:1010A000D1F705C0EE24FF248701EFEFF0E06E2FAB
:1010B000679566276795902F9F77D794DD24D794FF
:1010C0008E2F8695492F462B582F5D29B701CA01CF
:1010D0001F910F91FF90EF90DF900895FC01DB01CD
:1010E000408151812281622F6F7770E0221F222779
:1010F000221F9381892F880F822B282F30E0991F80
:101100009927991F11969C93119721153105A9F5DF
:10111000411551056105710511F482E037C082E87F
:101120009FEF13969C938E9312979A01AB0167E001
:10113000220F331F441F551F6A95D1F783E08C930C
:101140000DC0220F331F441F551F12968D919C9185
:101150001397019713969C938E931297203080E0FB
:10116000380780E0480780E4580758F314962D9319
:101170003D934D935C93179708952F3F310579F474
:10118000411551056105710519F484E08C930895AA
:1011900064FF03C081E08C9312C01C9210C02F57D3
:1011A000304013963C932E93129783E08C9387E004
:1011B000440F551F661F771F8A95D1F770641496E8
:1011C0004D935D936D937C93179708951F93DC0166
:1011D000FB019C91923008F447C08081823008F472
:1011E00043C0943051F411961C91843099F581815B
:1011F000682F70E0611B71093FC0843021F092308C
:1012000031F48230B9F18181882389F12DC01196A2
:101210001C9111978230F1F081811817D9F4129640
:101220002D913C911397828193818217930794F0BB
:1012300028173907BCF014968D919D910D90BC91A3
:10124000A02D2481358146815781281739074A0707
:101250005B0718F4112341F00AC082179307A40713
:10126000B50740F4112319F061E070E005C06FEF9D
:101270007FEF02C060E070E0CB011F910895CF9333
:10128000DF93BC018230910510F462E070E0A09120
:10129000070AB091080AED01E0E0F0E040E050E01C
:1012A00021C0888199818617970769F48A819B817B
:1012B000309719F09383828304C09093080A809337
:1012C000070AFE0134C06817790738F44115510543
:1012D00019F08417950708F4AC01FE018A819B81FF
:1012E0009C01E9012097E9F641155105A9F1CA01D0
:1012F000861B970B049708F4BA01E0E0F0E02AC0DF
:101300008D919C91119784179507F9F464177507CF
:1013100081F412968D919C911397309719F09383D5
:10132000828304C09093080A8093070AFD013296D5
:101330004CC0CA01861B970BFD01E80FF91F619392
:10134000719302978D939C9340C0FD01828193819C
:101350009C01D9011097A1F68091050A9091060A87
:10136000892B41F48091C2079091C3079093060A9C
:101370008093050A4091C4075091C5074115510556
:1013800041F44DB75EB78091C0079091C107481BEB
:10139000590B2091050A3091060ACA01821B930B52
:1013A0008617970780F0AB014E5F5F4F8417950754
:1013B00050F0420F531F5093060A4093050AF9015B
:1013C0006193719302C0E0E0F0E0CF01DF91CF9133
:1013D0000895CF93DF93009709F450C0EC01229752
:1013E0001B821A82A091070AB091080A109709F18E
:1013F00040E050E0AC17BD0708F1BB83AA83FE01B3
:1014000021913191E20FF31FAE17BF0779F48D914F
:101410009C911197280F391F2E5F3F4F39832883E6
:1014200012968D919C9113979B838A834115510548
:1014300071F4D093080AC093070A20C012968D91C8
:101440009C911397AD01009711F0DC01D3CFFA0105
:10145000D383C28321913191E20FF31FCE17DF07AF
:1014600069F488819981280F391F2E5F3F4FFA0157
:10147000318320838A819B8193838283DF91CF9103
:101480000895A0E0B0E0E7E4FAE00C9428506C0185
:10149000009721F4CB01F3DE6C01BDC08EEF882EE6
:1014A0008FEF982E8C0C9D1C8601060F171F0815B8
:1014B000190508F4AEC0F401A081B181A617B707E1
:1014C000B0F0A530B10508F4A6C0CD010497861789
:1014D000970708F4A0C01297A61BB70BF801A193B9
:1014E000B193D4016D937C93CF0173DF94C07B01E2
:1014F000EA1AFB0AEEEFFFEFEE0EFF1E36016A0E50
:101500007B1EC091070AD091080A44245524AA24BE
:10151000BB244AC0C615D705E1F5488159814E154F
:101520005F05B8F1CA0104978E159F05B0F41296B5
:10153000A40FB51FF401B183A0832A813B8141141C
:10154000510431F0D20113963C932E93129763C04D
:101550003093080A2093070A5EC08A819B81F801B4
:1015600093838283425050404E195F0951834083D8
:101570004114510431F0D20113961C930E9312972B
:1015800004C01093080A0093070AF4017183608372
:1015900042C088819981A816B90608F45C012E0121
:1015A0008A819B819C01E901209709F0B3CF80914A
:1015B000050A9091060A86159705E9F4A616B7065E
:1015C000D0F42091C4073091C5072115310541F4AD
:1015D0002DB73EB78091C0079091C107281B390BEA
:1015E00002171307B0F41093060A0093050AD401FA
:1015F0006D937C9310C0CB0142DEEC01009749F063
:10160000F40140815181B60119D0C601E2DE6E01BC
:1016100002C0CC24DD24C601CDB7DEB7E0E10C94D6
:101620004450FB01DC0104C08D910190801921F42C
:1016300041505040C8F7881B990B0895FB01DC010D
:1016400002C001900D9241505040D8F70895DC013E
:1016500001C06D9341505040E0F70895FB01DC015B
:101660008D91019080190110D9F3990B0895FC0117
:1016700001900020E9F7809590958E0F9F1F0895A7
:10168000A0E0B0E0E6E4FBE00C943650FE013696B4
:101690006191719180910B0A90910C0AAF0104D075
:1016A0002096E2E00C945250ABE0B0E0EAE5FBE0BB
:1016B0000C9426503C012B015A01FC011782168222
:1016C000838181FD03C06FEF7FEFB9C19AE0892E5E
:1016D0001E010894211C311CF3012381F20123FD1A
:1016E000859123FF81912F01882309F4A5C18532BB
:1016F00039F423FD859123FF81912F01853221F457
:1017000090E0B301B7D1E8CF982FFF24EE249924BD
:10171000FFE1FF15D0F09B3269F09C3228F4903243
:1017200059F0933291F40EC09D3249F0903369F430
:1017300041E024C052E0F52A84E0F82A28C098E06D
:10174000F92A25C0E0E1FE2A22C0F7FC29C0892F32
:1017500080538A3070F4F6FE05C0989C902C1124BA
:10176000980E15C0E89CE02C1124E80EF0E2FF2A48
:101770000EC09E3229F4F6FC5FC140E4F42A07C093
:101780009C3619F450E8F52A02C0983649F4F20163
:1017900023FD959123FF91912F01992309F0B8CF53
:1017A000892F8554833018F08052833038F444E018
:1017B00050E0A40EB51E5FE359830FC0933631F09D
:1017C000933779F0933509F052C01FC0F50180813D
:1017D000898342E050E0A40EB51E610101E010E0F3
:1017E00011C0F501C080D180F6FC03C06FEF7FEF20
:1017F00002C0692D70E042E050E0A40EB51EC601A3
:101800002ED18C015FE7F52213C0F501C080D18095
:10181000F6FC03C06FEF7FEF02C0692D70E042E07D
:1018200050E0A40EB51EC6010FD18C0150E8F52A78
:10183000F3FE06C018C080E290E0B3011BD1EA9429
:101840008E2D90E008171907B0F30DC0F601F7FCD4
:101850008591F7FE81916F0190E0B3010BD1E1100A
:10186000EA94015010400115110581F7E2C0943649
:1018700011F0993661F5F7FE08C0F501208131813C
:101880004281538184E090E00AC0F501808191811A
:101890009C01442737FD4095542F82E090E0A80E2C
:1018A000B91E9FE6F92257FF09C050954095309523
:1018B00021953F4F4F4F5F4FE0E8FE2ACA01B90123
:1018C000A1012AE030E002D1D82ED2183FC09537CE
:1018D00029F41F2D1F7E2AE030E01DC01F2D197F27
:1018E0009F3661F0903720F4983509F0A5C00FC0FD
:1018F000903739F0983709F09FC004C028E030E0F5
:101900000AC0106114FD146020E130E004C014FD31
:10191000166020E132E017FF08C0F5016081718197
:101920008281938144E050E008C0F501808191817B
:10193000BC0180E090E042E050E0A40EB51EA101A1
:10194000C5D0D82ED2188FE7F82EF122F6FE0BC0A4
:101950005EEFF522D91438F4F4FE07C0F2FC05C09E
:101960008FEEF82202C01D2D01C0192DF4FE0DC00E
:10197000FE01ED0DF11D8081803319F499EEF922FD
:1019800008C01F5FF2FE05C003C08F2D867809F0E6
:101990001F5F0F2DF3FC13C0F0FE0EC01E1510F0DC
:1019A0009D2C0AC09D2C9E0C911A1E2D05C080E214
:1019B00090E0B3015FD01F5F1E15C8F304C01E1571
:1019C00010F4E11A01C0EE2404FF0EC080E390E0A1
:1019D000B30150D002FF1BC001FD03C088E790E0B7
:1019E0000EC088E590E00BC0802F867881F001FF63
:1019F00002C08BE201C080E2F7FC8DE290E0B3010F
:101A000039D005C080E390E0B30134D09A94D91462
:101A1000C8F3DA94F101ED0DF11D808190E0B3017E
:101A200029D0DD20B1F705C080E290E0B30122D0DB
:101A3000EA94EE20C9F750CEF30166817781CB019D
:101A40002B96E2E10C944250FC01059061507040ED
:101A50000110D8F7809590958E0F9F1F0895FC0177
:101A60006150704001900110D8F7809590958E0FCD
:101A70009F1F08950F931F93CF93DF938C01EB016A
:101A80008B8181FF1BC082FF0DC02E813F818C8125
:101A90009D812817390764F4E881F9810193F9835E
:101AA000E88306C0E885F985802F1995892B31F4E4
:101AB0008E819F8101969F838E8302C00FEF1FEF5F
:101AC000C801DF91CF911F910F910895FA01AA27C4
:101AD000283051F1203181F1E8946F936E7F6E5F71
:101AE0007F4F8F4F9F4FAF4FB1E03ED0B4E03CD01F
:101AF000670F781F891F9A1FA11D680F791F8A1F02
:101B0000911DA11D6A0F711D811D911DA11D20D068
:101B100009F468943F912AE0269F11243019305D22
:101B20003193DEF6CF010895462F4770405D419313
:101B3000B3E00FD0C9F7F6CF462F4F70405D4A3360
:101B400018F0495D31FD4052419302D0A9F7EACF28
:101B5000B4E0A6959795879577956795BA95C9F757
:101B600000976105710508959B01AC010A2E06944A
:101B70005795479537952795BA95C9F7620F731F03
:101B8000841F951FA01D0895982F8091C00085FF88
:101B9000FCCF9093C600089588E18093C100109215
:101BA000C50088E08093C4000895A2E0B0E0EBEDAA
:101BB000FDE00C9436502091050A3091060ACE01C2
:101BC00001962115310519F48F509A4002C0821BED
:101BD000930B9A83898389819A812296E2E00C94FF
:101BE0005250D2DF80E090E00895D3D4D5DF81EF6A
:101BF0009DE09093BD098093BC091092BF0910929B
:101C0000BE0982E08093B7091092C1091092C00901
:101C100084EB99E090930C0A80930B0AC6DF00D006
:101C20000F9220E032E0ADB7BEB712963C932E93F0
:101C3000119714969C938E93139722DD0F900F901B
:101C40000F900F9080E090E00E9469296C01ADDF59
:101C500000D00F9229E032E0EDB7FEB73283218346
:101C6000948383830DDD0F900F900F900F909DDF75
:101C700000D00F9223E132E0ADB7BEB712963C938D
:101C80002E93119714969C938E931397F9DC0F90D3
:101C90000F900F900F9086EC97E04BEE51E060E0D4
:101CA00070E00E94EA336BEE71E00E94D9468C012D
:101CB0007CDF00D00F922CE132E0EDB7FEB732832B
:101CC000218394838383DCDC0F900F900F900F901F
:101CD000C601B80140E00E94242967DF00D00F92BE
:101CE00025E232E0ADB7BEB712963C932E93119722
:101CF00014969C938E931397C3DC0F900F900F90C4
:101D00000F908EE292E00E944735BC01C60140E090
:101D100050E020E030E00E941B2647DF00D00F9209
:101D200024E332E0EDB7FEB73283218394838383CB
:101D3000A7DC0F900F900F900F9068EE73E080E09B
:101D400090E005D400E010E08DE392E00E9447357A
:101D5000BC01C60140E050E020E030E00E941B26BC
:101D60000F5F1F4F22DF00D000D0EDB7FEB73196D6
:101D700022E432E0ADB7BEB712963C932E93119792
:101D800093838283158304837BDCC0E4D0E0FF244B
:101D9000F394EDB7FEB736960FB6F894FEBF0FBEBC
:101DA000EDBFCE016CDA0097A1F400D00F9283E56D
:101DB00092E0ADB7BEB712969C938E93119714968E
:101DC000DC93CE9313975CDC0F900F900F900F90E5
:101DD00001C0FFDAF394B4E0BF1508F4B5CFCC0F1F
:101DE000DD1FDFCFAF92BF92CF92DF92EF92FF92D3
:101DF0000F931F935C0188E7C82E82E0D82EC6019E
:101E00000E9447350E94512E7C0180E892E00E949A
:101E10004735BC01C7014BE951E10E941D3288E8FA
:101E200092E00E944735BC01C70144E551E10E94A0
:101E30001D3284E992E00E944735BC01C70146EBA0
:101E400050E10E941D3281EA92E00E944735BC01B8
:101E5000C7014FE650E10E941D328CEA92E00E94D9
:101E60004735BC01C70146ED5FE00E941D3288EB9B
:101E700092E00E944735BC01C7014BE95FE00E9438
:101E80001D328EEB92E00E9447350E94F0308C01AB
:101E900060E070E080E090E00E944F32AC01C7014A
:101EA000B8010E94973084EC92E00E9447350E946E
:101EB000F0308C0161E070E080E090E00E944F32F1
:101EC000AC01C701B8010E9497308BEC92E00E94F0
:101ED00047350E94F0308C0160E070E080E090E0D7
:101EE0000E944F32AC01C701B8010E9497308FECBD
:101EF00092E00E9447350E94F0308C0161E070E072
:101F000080E090E00E944F32AC01C701B8010E940E
:101F10009730C6010E9447350E94F030BC01C501D0
:101F2000A701C8D71F910F91FF90EF90DF90CF903E
:101F3000BF90AF900895EF92FF920F931F93CB0144
:101F400060E070E00E94A7477C010E94E8338C01AA
:101F500000D000D084ED92E0EDB7FEB7928381838C
:101F6000F80183819481A581B681EDB7FEB78383A3
:101F70009483A583B68384DB8DB79EB706960FB690
:101F8000F8949EBF0FBE8DBFF80163817481858177
:101F90009681DDD2C70160E00E94E9338EE40E94A1
:101FA000EB2A1F910F91FF90EF900895A0E0B0E011
:101FB000ECEDFFE00C942E508B01CB0160E070E063
:101FC0000E94A747B82EA92EC80161E070E00E94C8
:101FD000A747D82EC92E8B2D9A2D0E941E2B8B36EB
:101FE00069F48B2D9A2D0E94E833FC011381048142
:101FF0008B2D9A2D60E00E94E93358018D2D9C2D88
:102000000E941E2B8B3669F48D2D9C2D0E94E83387
:10201000FC01138104818D2D9C2D60E00E94E93329
:1020200068018B2D9A2D0E941E2B893609F04FC016
:102030008D2D9C2D0E941E2B893609F048C08B2DBA
:102040009A2D0E94E8337C018D2D9C2D0E94E8334F
:102050008C018DB79EB70A970FB6F8949EBF0FBE3E
:102060008DBFEDB7FEB731968FED92E0ADB7BEB73D
:1020700012969C938E931197E7018B819C81AD8181
:10208000BE8182839383A483B583E8018B819C8185
:10209000AD81BE8186839783A087B187F1DAEDB7E2
:1020A000FEB73A960FB6F894FEBF0FBEEDBF6B8138
:1020B0007C81D70113968C9102D38D2D9C2D60E0ED
:1020C0000E94E9338B2D9A2D60E00E94E9338EE463
:1020D0000E94EB2ACDB7DEB7EAE00C944A50EF92AB
:1020E000FF920F931F93CF93DF93CB0160E070E0DB
:1020F0000E94A7477C010E941E2B893619F0C0E080
:10210000D0E028C0C7010E94E8338C0100D000D085
:102110008FEF92E0EDB7FEB792838183F801838160
:102120009481A581B681EDB7FEB783839483A5839F
:10213000B683A6DA8DB79EB706960FB6F8949EBF03
:102140000FBE8DBFF801838186D2EC01C70160E02C
:102150000E94E933BE01882777FD8095982F0E9461
:102160004F32CDB7DEB7E6E00C944E50A0E0B0E0C1
:10217000ECEBF0E10C942E508B01CB010E946847F0
:1021800002970CF489C0C80160E070E00E94A74784
:10219000B82EA92EC80161E070E00E94A747D82E92
:1021A000C92E8B2D9A2D0E941E2B8B3669F48B2DF8
:1021B0009A2D0E94E833FC01138104818B2D9A2D06
:1021C00060E00E94E93358018D2D9C2D0E941E2B4A
:1021D0008B3669F48D2D9C2D0E94E833FC01138110
:1021E00004818D2D9C2D60E00E94E93368018B2DC8
:1021F0009A2D0E941E2B893609F04EC08D2D9C2DE4
:102200000E941E2B893609F047C08B2D9A2D0E9403
:10221000E8337C018D2D9C2D0E94E8338C018DB715
:102220009EB70A970FB6F8949EBF0FBE8DBFEDB74D
:10223000FEB731968FE093E0ADB7BEB712969C9390
:102240008E931197E7018B819C81AD81BE81828342
:102250009383A483B583E8018B819C81AD81BE818A
:1022600086839783A087B1870BDAEDB7FEB73A96DE
:102270000FB6F894FEBF0FBEEDBFD70113968C9139
:102280006B8149D38D2D9C2D60E00E94E9338B2D0D
:102290009A2D60E00E94E9338EE40E94EB2ACDB7CC
:1022A000DEB7EAE00C944A50EF92FF920F931F932F
:1022B000CF93DF93CB0160E070E00E94A7477C01E1
:1022C0000E941E2B893619F0C0E0D0E028C0C7015B
:1022D0000E94E8338C0100D000D08DE293E0EDB78E
:1022E000FEB792838183F80183819481A581B681B1
:1022F000EDB7FEB783839483A583B683C1D98DB729
:102300009EB706960FB6F8949EBF0FBE8DBFF8011C
:10231000838133D3EC01C70160E00E94E933BE0141
:10232000882777FD8095982F0E944F32CDB7DEB772
:10233000E6E00C944E50A0E0B0E0E1EAF1E10C944C
:102340002E508B01CB010E94684702970CF489C084
:10235000C80160E070E00E94A747B82EA92EC8010E
:1023600061E070E00E94A747D82EC92E8B2D9A2DD0
:102370000E941E2B8B3669F48B2D9A2D0E94E83318
:10238000FC01138104818B2D9A2D60E00E94E933BA
:1023900058018D2D9C2D0E941E2B8B3669F48D2D9E
:1023A0009C2D0E94E833FC01138104818D2D9C2D0E
:1023B00060E00E94E93368018B2D9A2D0E941E2B4C
:1023C000893609F04EC08D2D9C2D0E941E2B89361A
:1023D00009F047C08B2D9A2D0E94E8337C018D2D8A
:1023E0009C2D0E94E8338C018DB79EB70A970FB6DB
:1023F000F8949EBF0FBE8DBFEDB7FEB731968EE34A
:1024000093E0ADB7BEB712969C938E931197E701F8
:102410008B819C81AD81BE8182839383A483B583AC
:10242000E8018B819C81AD81BE8186839783A087E3
:10243000B18726D9EDB7FEB73A960FB6F894FEBF2E
:102440000FBEEDBFD70113968C916B81ECD18D2D12
:102450009C2D60E00E94E9338B2D9A2D60E00E9454
:10246000E9338EE40E94EB2ACDB7DEB7EAE00C94A4
:102470004A501F920F920FB60F9211242F933F9341
:102480008F939F93AF93BF938091C6099091C70993
:10249000A091C809B091C9093091CA090196A11D3E
:1024A000B11D232F2D5F2D3720F02D570196A11D33
:1024B000B11D2093CA098093C6099093C709A093C0
:1024C000C809B093C9098091C2099091C309A0912C
:1024D000C409B091C5090196A11DB11D8093C2091F
:1024E0009093C309A093C409B093C509BF91AF915C
:1024F0009F918F913F912F910F900FBE0F901F9042
:1025000018959FB7F8942091C2093091C309409162
:10251000C4095091C50986B5A89B06C08F3F21F01C
:102520002F5F3F4F4F4F5F4F9FBF542F432F322F8F
:102530002227280F311D411D511D82E0220F331F1C
:10254000441F551F8A95D1F7B901CA010895EF922A
:10255000FF920F931F93CF93DF937B018C01D1DF09
:10256000EB010DC0CEDF6C1B7D0B685E7340D0F3BA
:102570000894E108F10801091109C851DC4FE11480
:10258000F1040105110571F7CDB7DEB7E6E00C9453
:102590004E50789484B5826084BD84B5816084BDDA
:1025A00085B5826085BD85B5816085BDEEE6F0E0CC
:1025B000808181608083E1E8F0E010828081826028
:1025C0008083808181608083E0E8F0E080818160A9
:1025D0008083E1EBF0E0808184608083E0EBF0E0D9
:1025E000808181608083E1E9F0E080818260808386
:1025F000808181608083E0E9F0E080818160808378
:10260000E1EAF0E080818260808380818160808364
:10261000E0EAF0E0808181608083E1E2F1E08081A6
:1026200082608083808181608083E0E2F1E080814C
:1026300081608083EAE7F0E080818460808380812C
:1026400082608083808181608083808180688083D4
:102650001092C1000895382F863308F03653209128
:102660007B00832F86958695869590E0817090708B
:1026700043E0880F991F4A95E1F7277F282B209385
:102680007B0037708091B2098295880F880F807C1B
:10269000832B80937C0080917A00806480937A0001
:1026A00080917A0086FDFCCF2091780040917900DE
:1026B000942F80E030E0282B392BC90108951F9317
:1026C000CF93DF93182FEB0161E0ADD0209709F491
:1026D000A0C0CF3FD10509F49FC0E12FF0E0E65F35
:1026E000FB4FE4918E2F90E0FC013197E131F10531
:1026F00008F08CC0EE58FF4F0C945D5084B5806894
:1027000084BDC7BD8CC084B5806284BDC8BD87C090
:1027100080918000806880938000D0938900C0936E
:1027200088007DC080918000806280938000D0937B
:102730008B00C0938A0073C08091B0008068809342
:10274000B000C093B3006BC08091B00080628093F2
:10275000B000C093B40063C0809190008068809303
:102760009000D0939900C093980059C08091900038
:10277000806280939000D0939B00C0939A004FC0DA
:1027800080919000886080939000D0939D00C093CA
:102790009C0045C08091A00080688093A000D093E9
:1027A000A900C093A8003BC08091A00080628093E4
:1027B000A000D093AB00C093AA0031C08091A000CC
:1027C00088608093A000D093AD00C093AC0027C078
:1027D00080912001806880932001D0932901C093CB
:1027E00028011DC080912001806280932001D09338
:1027F0002B01C0932A0113C080912001886080932F
:102800002001D0932D01C0932C0109C0C038D105FF
:102810001CF4812F60E002C0812F61E07CD0DF9149
:10282000CF911F910895482F50E0CA018C539C4FBF
:10283000FC01249142585C4FFA0184918823C1F035
:10284000E82FF0E0EE0FFF1FE05DFC4FA591B49183
:10285000662341F49FB7F8948C91209582238C9342
:102860009FBF08959FB7F8948C91822B8C939FBF44
:10287000089590E0FC013197E131F10508F04AC07C
:10288000ED57FF4F0C945D50809180008F7703C00F
:10289000809180008F7D80938000089584B58F772C
:1028A00002C084B58F7D84BD08958091B0008F777C
:1028B00003C08091B0008F7D8093B0000895809117
:1028C00090008F7707C0809190008F7D03C080912A
:1028D0009000877F8093900008958091A0008F776B
:1028E00007C08091A0008F7D03C08091A000877FEA
:1028F0008093A0000895809120018F7703C080917C
:1029000020018F7D80932001089580912001877F91
:10291000809320010895FF920F931F93F62E482F66
:1029200050E0CA01865F9B4FFC012491CA018C5381
:102930009C4FFC01149142585C4FFA010491002312
:10294000C1F0222311F0822F94DFE02FF0E0EE0F90
:10295000FF1FE65BFC4FA591B4919FB7F894FF2051
:1029600021F48C911095812302C08C91812B8C9342
:102970009FBF1F910F91FF9008950F931F93482FB2
:1029800050E0CA01865F9B4FFC012491CA018C5321
:102990009C4FFC01049142585C4FFA0114911123A1
:1029A00019F420E030E014C0222311F0822F61DFFF
:1029B000812F90E0880F991F8C599C4FFC01A591A5
:1029C000B4918C9120E030E0802311F021E030E0E0
:1029D000C9011F910F910895AF92BF92CF92DF92DC
:1029E000EF92FF920F931F936C015B018A017901B3
:1029F000CB010E94E833DC011396ED91FC91149712
:102A0000C601B801A7011995182F092FC50160E06B
:102A10000E94E933812F902F1F910F91FF90EF902B
:102A2000DF90CF90BF90AF900895EF92FF920F93F9
:102A30001F937C018B010E94E833FC01828193810A
:102A4000B8010E946E4A182F092FC70160E00E944A
:102A5000E933812F902F1F910F91FF90EF900895F0
:102A6000EF92FF920F931F937C018B010E94E8333A
:102A7000FC0182819381B8010E941848182F092F08
:102A8000C70160E00E94E933812F902F1F910F91C1
:102A9000FF90EF900895A0E0B0E0E1E5F5E10C943F
:102AA00028505C017B013A01CB010E94E8334C01C4
:102AB000FC01C188D288C70160E00E94E93382E648
:102AC00060E070E00E94C02D582E492E0E94E8332D
:102AD0008C01FC01F482E382C7010E944D2BF801B6
:102AE0001086178216821582C6010E94E833FC0107
:102AF00085819681F80192878187C60160E00E94F6
:102B0000E9330E94CA37F80194878387852D942D75
:102B100061E00E94E933C5010E94E833FC01808135
:102B20009181652D742D0E948D37C50160E00E9452
:102B3000E9336114710471F1C0E0D0E025C0C30134
:102B4000BE010E94A7477C01F4018789908DBE01D8
:102B50000E94A7470E941E2BF4010789108D8B3617
:102B600069F0C801BE010E94A747B7010E947D2FEE
:102B7000AC01C801BE010E944B4805C0C801BE019E
:102B8000A7010E94A14A2196C3010E946847C81765
:102B9000D907ACF2852D942DCDB7DEB7E0E10C94CA
:102BA0004450A6E0B0E0E7EDF5E10C9426509A839E
:102BB00089838B013A013C832B83CB010E94E8334C
:102BC000FC0183809480C80160E00E94E93382E6C2
:102BD00060E070E00E94C02D1C010E94E8338C016F
:102BE000FC0110861782168215820E94CA37F801EE
:102BF00094878387C4010E94E833FC01E188F2884E
:102C0000F80194828382C4010E944D2BC7010E9467
:102C1000E833FC0185819681F80192878187C7019D
:102C200060E00E94E933C40160E00E94E933C10121
:102C300061E00E94E933C4010E94E8337C01611421
:102C4000710409F481C0C3010E946847F7014581FE
:102C500056815C01481759070CF45A014424552445
:102C600027C0C301B2010E94A7476C01F701878901
:102C7000908DB2010E94A7470E941E2BF701078981
:102C8000108D8B3669F0C801B2010E94A747B601CA
:102C90000E947D2FAC01C801B2010E944B4805C0C3
:102CA000C801B201A6010E94A14A0894411C511C0E
:102CB0004A145B04B4F2C3010E946847F7012581FE
:102CC0003681281739070CF03FC0C3010E946847BE
:102CD000F701258136812C01421A530A80E090E0E9
:102CE0000E9471306C0100E010E01FC0B8016A0D55
:102CF0007B1DC3010E94A7479E838D830E941E2BCC
:102D00008B3661F48D819E810E94E833FC018381C2
:102D100094819E838D8360E00E94E933C6016D81BA
:102D20007E810E94114B0F5F1F4F04151505F4F2B1
:102D3000F7016781708585819681680F791F878982
:102D4000908DA6010E94A14A8B819C81892B19F14B
:102D5000CC24DD2419C08B819C81B6010E94A74739
:102D60008C010E94E833FC016581768143815481A6
:102D7000F7018789908D0E94794BC80160E00E941D
:102D8000E9330894C11CD11C8B819C810E94684747
:102D9000C816D90604F3F701858585FF0DC00E948A
:102DA0003A2E8C0169817A81A1010E94ED4CC40107
:102DB00060E00E94E93315C0C40160E00E94E9337D
:102DC00089819A810E94E833FC0180819181B1015F
:102DD0000E948D3789819A8160E00E94E93300E08A
:102DE00010E0C8012696E2E10C944250A0E0B0E069
:102DF000ECEFF6E10C942C506C014B018A01590167
:102E00004115510511F07A0107C080E090E00E9461
:102E100071307C010E944D2BC4010E94E833EC010B
:102E20004D815E81C70160E070E00E94E04A8B81C5
:102E30009C810E941E2B6B817C81863629F4C60101
:102E4000A7019501AEDE0EC0CB010E941E2B83347C
:102E500019F0C0E0D0E007C06B817C81C601A701FA
:102E60009501BADDEC010115110519F4C7010E94A5
:102E7000612BC40160E00E94E933CE01CDB7DEB71B
:102E8000ECE00C944850EF92FF920F931F937C015B
:102E90008B010E94E833FC0182819381B8010E947A
:102EA000514AC70160E00E94E9331F910F91FF90E2
:102EB000EF900895CF92DF92EF92FF920F931F93BE
:102EC0008C017B016A010E94E833FC0182819381BD
:102ED000B701A6010E94414BC80160E00E94E9339E
:102EE0001F910F91FF90EF90DF90CF900895A7E191
:102EF000B0E0EDE7F7E10C9426509A8B898B0E94A5
:102F0000E8338C8B9D8BAC89BD898D919C910E94FF
:102F1000D736988B8F870E94E8334C01FC010380E1
:102F2000F481E02DFE87ED87CF010E94E8333C015C
:102F3000DC018C918336A9F00F920F9281E593E02A
:102F4000EDB7FEB7928381830E94400B0F900F90E4
:102F50008D859E8560E00E94E9338F85988960E0C9
:102F6000B2C4D30151960D90BC91A02DBC87AB8704
:102F7000CD010E94E833FC01838194819A8789877F
:102F80000E94E833AC01D40117962D913C9118971B
:102F900019968D919C911A972817390714F00C9463
:102FA000A5258A010F920F928EE693E0EDB7FEB74A
:102FB000928381830E94400BD40117968D919C913E
:102FC0001897F801E80FF91FF080FC013196189668
:102FD000FC93EE9317970F900F90BFE5FB1609F443
:102FE00080C2BF15E0F124E4F21609F459C22F158E
:102FF000D8F033E0F31609F4EEC13F1540F081E05C
:10300000F81609F4BAC18F1508F4C8C1ABC195E030
:10301000F91609F418C2F91608F409C2A9E0FA165B
:1030200009F048C00C94FD25B6E5FB1609F446C02E
:10303000BF1560F020E5F21609F4A8C133E5F316D8
:1030400009F468C086E4F816A9F54BC297E5F916AD
:1030500009F497C18F2D8A55843060F542C2AEE7DE
:10306000AF1598F0BCE7FB1608F03BC224E72F151C
:1030700038F034E6F31608F034C28F2D815617C0AD
:103080008F2D88578330B0F42CC28FE88F1548F00D
:103090009CE8F91608F025C28F2D8258893050F42B
:1030A00020C2A0E9FA1609F40EC28F2D825982308F
:1030B00008F417C2AA24BB24650128C23196D401A2
:1030C0001896FC93EE9317971B968D919C911C97E5
:1030D0000E940C378C010E944D2B0E94F43189858F
:1030E0009A8560E00E94E9338B859C8560E00E94B0
:1030F000E9338D859E8561E00E94E9338F8598894B
:1031000060E00E94E93389899A8960E00E94E9338E
:103110000C94F825F401838594850E940C37F82ED1
:10312000E92ED3011D962D913D914D915C915097C3
:1031300031FF12C0EC89FD89808191810E940C379A
:10314000F30185859685A785B08991609D7F8587E8
:103150009687A787B08BE9C030FF84C0AC89BD8952
:103160008D919C910E940C37F401838594850E9477
:103170000C375C010E94C1304C0185E793E00E944E
:1031800047350E94F0307C010E944D2BC5010E9402
:10319000E8333C01DC0113968D919C9114970E94B9
:1031A000E8338C01FC018789908DB7010E946E4A3B
:1031B0006C01D80157968D919C915897B70140E0CA
:1031C00050E00E94794BC7010E94612BC6010E940A
:1031D0004D2BEC89FD89808191810E94A137882344
:1031E00099F4AC89BD898D919C910E94D7368C0150
:1031F0000E94E833FC0183859485B4010E948D37D9
:10320000C80160E00E94E93380E893E00E944735FE
:103210000E94F0307C010E944D2B89899A89B70168
:10322000A401960100E010E00E9490268C010E940B
:103230004D2BC8010E94612BC7010E94612BC60162
:103240000E94612B0E94F431D30113968D919C91C1
:10325000149760E00E94E933C50160E00E94E93301
:103260000C94FF25EC89FD896081718127FF18C0CE
:10327000CB010E940C37D30113968D919C9114972A
:103280000E9492350E94F0308C0189899A89B80198
:10329000FADDC8010E944D2BC8010E94612B45C078
:1032A000CB010E940C37EC89FD89808191810E94BD
:1032B000A1378823A9F4AC89BD898D919C910E9486
:1032C000D7368C010E94E833FC01838594856F2DED
:1032D0007E2D0E948D37C80160E00E94E93325C031
:1032E0008F2D9E2D0E944D2B89859A8560E00E942E
:1032F000E9338B859C8560E00E94E9338D859E854E
:1033000061E00E94E9338F85988960E00E94E9338B
:1033100089899A8960E00E94E9330E94F4318F2DF7
:103320009E2D9C0189010C94F82589859A8560E081
:103330000E94E9338B859C8560E00E94E9338D858E
:103340009E8561E00E94E9338F85988960E00E9444
:10335000E93389899A8960E00E94E9330E94F43157
:103360000C941826D40119968D919C911A97189651
:103370009C938E9317970C94FD25F4018385948577
:1033800009C0AC89BD898D919C9104C0EC89FD89EF
:10339000808191810E940C370C94FD25D4011B96ED
:1033A0008D919C911C970E94D7368C01F4018385E6
:1033B00094850E94C236BC01D4011B968D919C91CC
:1033C0001C970E947637F40183859485B8010E948A
:1033D00060370C94FD25D4011B968D919C911C9710
:1033E0000E94D7368C01F401838594850E94C236F1
:1033F0007C01D4011B968D919C911C970E94AD3647
:103400006C01F40183859485B7010E947637D4015D
:103410001B968D919C911C97B6010E946037F40118
:1034200083859485B8010E944A370C94FD25D40108
:103430001B968D919C911C970E94D736BC01F4017C
:10344000838594853CC0D4011B968D919C911C97DB
:103450000E94D7368C01F401838594850E94C23680
:103460007C01D4011B968D919C911C9762E070E0C9
:103470000E941F37F40183859485B8010E94763736
:10348000C8010E944D2BD4011B968D919C911C97D5
:10349000B7010E946037C7010E944D2B0C94FD2597
:1034A000F401838594850E940C3769897A890E948A
:1034B000824FBC01D4011B968D919C911C970E9458
:1034C0008D370C94FD25E00FF11F818162810E94F0
:1034D000DE2AF401878190850296908787830C9479
:1034E000FD25E00FF11F808161810E94DE2A5C01D1
:1034F000CC24B7FCC094DC2CD40117968D919C9100
:103500001897029618969C938E931797BFE5FB1613
:1035100009F4A2C0BF15D8F1ECE3FE1609F4E4C02B
:10352000EF15C8F0FDE1FF1570F023E1F21608F089
:1035300093C03AE0F31608F460C08CE08F1508F0F1
:1035400065C09FE021C0A6E3FA1609F4CDC0FA16C3
:1035500008F453C081C0BFE4BF1568F0EBE4FE1669
:1035600008F07AC0F3E4FF1508F076C025E4F216FF
:1035700009F043C04BC03AE5F31609F447C08CE5A7
:10358000F81609F443C094E5F916B9F53FC0A3E76E
:10359000AF15B8F0B2E7FB16C8F5ECE6EF1548F04A
:1035A000FBE6FF1608F058C021E6F21679F13AE67C
:1035B0001EC08DE6F81651F18F2D8F568230E8F43B
:1035C00025C099E8F91611F19F1550F0A4E8FA16F4
:1035D000E9F0B6E8FB16D1F0EDE7FE1671F416C07F
:1035E000F2E9FF1538F021E9F21680F43FE8F3160E
:1035F00021F40CC083E9F81679F1222433241886CB
:103600001F821E821D821F8A1E8A23C0D4011B9620
:103610008D919C911C970E940C371C010E941E2BBF
:103620008B3671F4C1010E94E833FC0113810481DF
:10363000C10160E00E94E933212F302FC9011C0134
:10364000C1010E94E8339F8B8E8B18861F821E82D9
:103650001D8200E010E0B2C0F401838594850E94D1
:103660000C371C010E941E2B8B3671F4C1010E9485
:10367000E833FC0113810481C10160E00E94E93359
:10368000212F302FC9011C01C1010E94E833E82E0F
:10369000592ED4011B968D919C911C970E940C373A
:1036A00098878F830E941E2B8B3689F48F81988593
:1036B0000E94E833FC01138104818F81988560E0CA
:1036C0000E94E933212F302FC90198878F832E2D37
:1036D000352DC9019F8B8E8B8F8198850E94E83391
:1036E0008C011E821D826AC0F401838594850E942C
:1036F0000C371C010E941E2B8B3671F4C1010E94F5
:10370000E833FC0113810481C10160E00E94E933C8
:10371000212F302FC9011C01C1010E94E833482E1E
:103720009B8BD4011B968D919C911C970E940C370A
:1037300098878F830E941E2B8B3689F48F81988502
:103740000E94E833FC01138104818F81988560E039
:103750000E94E933212F302FC90198878F838F81F1
:1037600098850E94E833E82E592EF40183859485CC
:103770000E940C379E838D830E941E2B8B3689F40A
:103780008D819E810E94E833FC01138104818D812B
:103790009E8160E00E94E933212F302FC9019E8372
:1037A0008D83242D3B89C9019F8B8E8B2E2D352D2A
:1037B000C9018C018D819E810E94E8338F2D90E09C
:1037C000FC013A97EA38F10510F00C941425EC56F8
:1037D000FF4F0C945D506624772400E010E00C94B9
:1037E000392400E010E00C943124D4011B968D9113
:1037F0009C911C970E940C37F82EE92E0E941E2BDC
:103800008B3669F48F2D9E2D0E94E833FC011381C5
:1038100004818F2D9E2D60E00E94E9337801B2E093
:10382000AB16B104C104D1048CF0F40183859485F6
:103830000E940C378C010E941E2B8B3639F4C80174
:103840000E94E833C80160E00E94E933F3E0AF165C
:10385000B104C104D1049CF0D4011B968D919C91BC
:103860001C970E940C378C010E941E2B8B3639F45A
:10387000C8010E94E833C80160E00E94E933EC8986
:10388000FD89208531852115310531F089899A8995
:103890006F2D7E2DF90119958EE40E94EB2A0E946E
:1038A0004D2B89859A8560E00E94E9338B859C8544
:1038B00060E00E94E9338D859E8560E00E94E933D7
:1038C0008F85988961E00E94E93389899A8960E04F
:1038D0000E94E9338EE40E94EB2A0C94F7258AE5D6
:1038E0009EE30E94382F20C5F401838594850E94B1
:1038F000D7360E941E2B823519F000E010E00CC074
:10390000D4011B968D919C911C970E94D736698992
:103910007A890E94D84E8C01C8010E941E2BF401A6
:10392000238534858E3481F4C9010E940C37D4017B
:1039300017968D919C9118978A0D9B1D18969C93B4
:103940008E9317970C941425C901B8016CC7F30125
:1039500085899689B5010E94A747E82ED92E0E9435
:103960001E2B8B3671F48E2D9D2D0E94E833FC01A9
:10397000138104818E2D9D2D60E00E94E933E12E9C
:10398000D02EC1016E2D7D2D0E94E22EBC0100972C
:1039900011F40C941425D4011B968D919C911C97C5
:1039A00042C7F30185899689B5010E94A747E82E91
:1039B000D92E0E941E2B8B3671F48E2D9D2D0E94C8
:1039C000E833FC01138104818E2D9D2D60E00E945F
:1039D000E933E12ED02EC1016E2D7D2D4F8158850A
:1039E0000E940C2C0C948E25D30155968D919C91A0
:1039F0005697B5010E94A747E82ED92E0E941E2B8C
:103A00008B3671F48E2D9D2D0E94E833FC011381BD
:103A100004818E2D9D2D60E00E94E933E12ED02E91
:103A200089899A896E2D7D2D00D8BC01009709F0F7
:103A3000F7C6AC89BD8916968D919C911797892BF5
:103A400009F4F2C78E2D9D2D0E94E833FC0163819D
:103A50007481AC89BD8916962D913C9117978989FF
:103A60009A89F90119958C018E2D9D2D60E00E9497
:103A7000E9330115110509F4D7C7F401838594854D
:103A8000B8010E948D3789899A896E2D7D2DA801F4
:103A900011DA89899A89B80140E050E020E030E0ED
:103AA0000E944B15C801BFC7D30155968D919C91BB
:103AB0005697B5010E94A747E82ED92E0E941E2BCB
:103AC0008B3671F48E2D9D2D0E94E833FC011381FD
:103AD00004818E2D9D2D60E00E94E933E12ED02ED1
:103AE000EE89FF898081833641F58E2D9D2D0E94C0
:103AF000E833DC0113966D917C911497EE89FF8970
:103B0000858996890E94B4488C018E2D9D2D60E098
:103B10000E94E933FFEF0F3F1F0709F485C7AE8905
:103B2000BF8955968D919C915697B8010E94A747E1
:103B3000BC01009709F074C677C7863209F074C7D4
:103B4000D4011B968D919C911C97B1016CC6EE8996
:103B5000FF89838194810E9492350E94F030BC01DC
:103B600089899A89A101A6D9DEC7FFEF6F2E712C32
:103B70006A207B20BB27D7FCBA95AD2D9C2D8B2DC1
:103B80007FEF472E512C482259226114710419F4F9
:103B9000AA24BB2430C0C3010E9471305C011F8A7B
:103BA0001E8AD4011B968D919C911C970E940C3704
:103BB000E82ED92E0E941E2B8B3671F48E2D9D2D52
:103BC0000E94E833FC01138104818E2D9D2D60E05D
:103BD0000E94E933E12ED02EC5016E897F894E2DDA
:103BE0005D2D0E944B48EE89FF893196FF8BEE8B4D
:103BF000E615F705B4F24114510419F4CC24DD2480
:103C00001FC080E090E00E9471306C016624772430
:103C1000D4011B968D919C911C970E940C378C01AE
:103C2000F401838594850E940C37BC01C601A8016C
:103C30000E94794B0894611C711C6414750444F350
:103C4000C101B501A60120E030E077C06FEF662E1C
:103C5000712C6A207B20BB27D7FCBA95AD2D9C2DFB
:103C60008B2D4FEF442E512C48225922F40183858D
:103C700094850E940C3798878F836114710419F41E
:103C8000AA24BB2430C0C3010E9471305C011F8A8A
:103C90001E8AD4011B968D919C911C970E940C3713
:103CA000E82ED92E0E941E2B8B3671F48E2D9D2D61
:103CB0000E94E833FC01138104818E2D9D2D60E06C
:103CC0000E94E933E12ED02EC5016E897F894E2DE9
:103CD0005D2D0E944B48EE89FF893196FF8BEE8B5C
:103CE000E615F705B4F24114510419F4CC24DD248F
:103CF0001FC080E090E00E9471306C016624772440
:103D0000D4011B968D919C911C970E940C378C01BD
:103D1000F401838594850E940C37BC01C601A8017B
:103D20000E94794B0894611C711C6414750444F35F
:103D3000C101B501A6012F8138850E94822FBC01E7
:103D4000D4011B968D919C911C970E948D37C501C3
:103D50000E944D2BC6010E944D2BC5010E94612B74
:103D6000C60161C6EE89FF898081863409F0DBC611
:103D700006C0EE89FF898081843509F0D4C6D4015C
:103D80001896BC92AE921797CEC6F40187819085A3
:103D90008A0D9B1D90878783CAC6D4011896BC9252
:103DA000AE921797C4C6EE89FF898081863409F0E8
:103DB000BAC6D4011B968D919C911C97B1010E94AB
:103DC0008D37F401B086A782AEC6AE89BF898C91CB
:103DD000843509F0A8C6F401B086A782838594854E
:103DE000B10103C5D4011B968D919C911C9761E094
:103DF0000E94A3370E94F4319AC682E660E070E028
:103E00000E94C02D7C010E94E8338C01F40187815F
:103E10009085D80116969C938E931597ED85FE8517
:103E20001496FC93EE931397CF010E944D2BD4016F
:103E300017968D919C911897F80190878783179614
:103E40008D919C9118978A0D9B1D928781870E9466
:103E5000CA37D8011C969C938E931B97EC89FD89D9
:103E600080819181B7010E948D37D80119968D917B
:103E70009C911A97F401908787831B968D919C9152
:103E80001C97B1010E948D37C70161E04AC682E6E6
:103E900060E070E00E94C02D7C010E94E8338C013C
:103EA000D40117968D919C911897F801968385837C
:103EB0002D853E8534832383C9010E944D2BD40177
:103EC00017968D919C911897F80190878783179684
:103ED0008D919C9118978A0D9B1D928781870E94D6
:103EE000CA37D8011C969C938E931B9719968D9177
:103EF0009C911A97F40190878783C70161E00E9423
:103F0000E933AC89BD898D919C91B70104C380E0F0
:103F100090E00E947130FBC280E090E00E9471301E
:103F200003C280E090E00E9471302C016624772467
:103F300024C0F40103851485C8010E94883661E01D
:103F400070E06A197B09660D771D680F791FC8013B
:103F50000E94ED368C010E941E2B823539F4C80177
:103F600069897A89A2010E94404F04C0C201B80148
:103F70000E94114B0894611C711CC301AA2797FD74
:103F8000A095BA2F8A159B05AC05BD0594F200E0FB
:103F900010E005C0C9010E940C370F5F1F4FC80118
:103FA000AA2797FDA095BA2FF401238534858A1599
:103FB0009B05AC05BD0574F3C901B20134C4D3013E
:103FC00055960D911C915697C801B5010E94A747BF
:103FD0000E941E2B8B3679F4C801B5010E94A747B9
:103FE0008C010E94E833FC0145805680C80160E0E6
:103FF0000E94E93305C0C801B5010E94A7472C0102
:1040000089899A89B2010E9415159A838983892B1F
:1040100009F071C06624772464C0AC89BD8912960A
:104020008D919C911397B3010E9418485C010E94E6
:104030001E2B833609F052C0C5010E94E8338E8BD7
:104040009F8BC2010E94E8338C01FC016381748163
:10405000AE89BF8955968D919C9156970E94B44820
:10406000BC01BFEF8F3F9B0791F0EE89FF898589E7
:1040700096890E94A7476C01009749F0C20160E051
:104080000E94E933C50160E00E94E93336C0D801DF
:1040900013966D917C911497EE89FF898789908D95
:1040A0000E94B448BC01FFEF8F3F9F0719F4CC2456
:1040B000DD2409C0AE89BF8957968D919C91589790
:1040C0000E94A7476C01C20160E00E94E933C5016C
:1040D00060E00E94E933C114D10479F40894611CB2
:1040E000711CEC89FD89828193810E946847681662
:1040F00079060CF492CFC980DA80D4011B968D9199
:104100009C911C97B6018FC3F30105891689C801DC
:10411000B5010E94A7470E941E2B8B3689F4C80167
:10412000B5010E94A7478C010E94E833DC01159677
:10413000AD90BC901697C80160E00E94E93305C0BD
:10414000C801B5010E94A7475C01CC24DD2450C002
:10415000EC89FD8982819381B6010E9418487C0117
:104160000E941E2B833609F040C0C7010E94E8332D
:104170008C01C5010E94E8334C01DC0113966D915E
:104180007C911497F801858996890E94B448BC01F6
:10419000FFEF8F3F9F0731F0D80155968D919C918D
:1041A000569712C0F40163817481D80157968D919E
:1041B0009C9158970E94B448BC01BFEF8F3F9B076A
:1041C00061F0F8018789908DA1010E94A14AC50183
:1041D00060E00E94E933C701A3C4C50160E00E940A
:1041E000E933C70160E00E94E9330894C11CD11C87
:1041F000AC89BD8912968D919C9113970E94684756
:10420000C816D9060CF4A4CF8EC4F301058916890B
:10421000C801B5010E94A7470E941E2B8B3689F466
:10422000C801B5010E94A7478C010E94E833DC0158
:104230001596AD90BC901697C80160E00E94E933D6
:1042400005C0C801B5010E94A7475C01CC24DD244C
:1042500054C0EC89FD8982819381B6010E9418487F
:104260007C010E941E2B833609F044C0C7010E94C6
:10427000E8338C01C5010E94E8334C01DC01139640
:104280006D917C911497F801858996890E94B448B4
:10429000BC01FFEF8F3F9F0779F0D80155968D91B4
:1042A0009C91569740E050E00E94A14AC50160E011
:1042B0000E94E933C70138C4F40163817481D801D5
:1042C00057968D919C9158970E94B448BC01BFEFBE
:1042D0008F3F9B0739F0F8018789908D40E050E0CF
:1042E0000E94A14AC50160E00E94E933C70160E075
:1042F0000E94E9330894C11CD11CAC89BD89129677
:104300008D919C9113970E946847C816D9060CF4AA
:10431000A0CF0DC4F3018589968910C0F30183896C
:104320009489B5010E94A747BC01D4011B968D91C9
:104330009C911C97F0C0F3018789908DB5010E9474
:10434000A747E82ED92E0E941E2B8B3671F48E2D96
:104350009D2D0E94E833FC01138104818E2D9D2D3B
:1043600060E00E94E933E12ED02ED4011B968D919E
:104370009C911C976E2D7D2DCEC0F301838D948D65
:104380000E946847AA2797FDA095BA2FF301438C96
:10439000548CA816B906CA06DB06CCF4C201B501D6
:1043A0000E94A7470E941E2BD3015B964D905C9004
:1043B0005C978B3651F0C201B5010E94A747B1014D
:1043C0000E947D2FAC01C201C2C0C20136C1F301FF
:1043D000018D128D6501C2010E946847B501681BFD
:1043E000790BC8010E94A7470E941E2BD3015B9640
:1043F0004D905C905C978B36D1F0C2010E9468476B
:104400007C01F301018D128D838D948D0E9468478C
:10441000B501681B790BC8010E94A747B1010E9432
:104420007D2FAC01CE18DF08C801B60191C0D301C1
:1044300059960D911C915A97C2010E946847C81A5B
:10444000D90AC801B601A1010E94A14AEDC2F30137
:10445000838D948D0E946847AA2797FDA095BA2F57
:10446000F301438C548CA816B906CA06DB061CF46B
:10447000C201B5010CC0D30159960D911C915A97F8
:10448000C2010E946847B501681B790BC8010E94F0
:10449000A747D82EE92E0E941E2B8B3671F48D2D46
:1044A0009E2D0E94E833FC01138104818D2D9E2DE9
:1044B00060E00E94E933D12EE02EF40183859485DB
:1044C0006D2D7E2DB0C1D3015B968D919C915C9733
:1044D0000E946847AA2797FDA095BA2FF301438C45
:1044E000548CA816B906CA06DB061CF4C201B50135
:1044F0000CC0D30159960D911C915A97C2010E948C
:104500006847B501681B790BC8010E94A747BC0129
:10451000F401838594850E948D3709C3D301559694
:104520008D919C915697B5010E94A7470E941E2B22
:10453000F301058916898B3609F47EC0C801B501DF
:104540000E94A747B1010E947D2FAC01C801B501AF
:104550000E944B48E8C28D819E81B1014F815885F0
:104560000E94794BD4011B968D919C911C976D8173
:104570007E810E948D37CDC2662777276A197B0915
:10458000F401838594850E94ED36E82ED92E0E9491
:104590001E2B8B3671F48E2D9D2D0E94E833FC016D
:1045A000158106818E2D9D2D60E00E94E933E12E5C
:1045B000D02E8E2D9D2DB1014F8158850E94794BB3
:1045C000ADC2662777276A197B09D4011B968D91A6
:1045D0009C911C9707C0662777276A197B09F4010D
:1045E000838594850E94ED36E82ED92E0E941E2BDD
:1045F0008B3671F48E2D9D2D0E94E833FC011581C0
:1046000006818E2D9D2D60E00E94E933E12ED02E93
:104610008E2D9D2DB1010E94114B85C2D30157965D
:104620008D919C915897B5010E94A7470E941E2B1F
:10463000F3010789108D7FCFC801B501A1010E9448
:10464000A14A71C2D30155968D919C91569703C092
:10465000F3018789908DB5010E948F4868C2AE89A9
:10466000BF898C91893619F060E070E004C0EE8952
:10467000FF8963817481D8018C91883209F0D4C19B
:104680008F8198850E948F48CFC1EE89FF899081E4
:10469000993619F060E070E006C0AE89BF891396C4
:1046A0006D917C911497F8018081883209F0BCC12A
:1046B000993639F48F8198854D815E810E944B48EF
:1046C000B3C18F819885B1014D815E810E94794B84
:1046D000ABC1AE89BF899C91993619F060E070E05A
:1046E00004C0EE89FF8963817481D8018C9188327E
:1046F00009F09AC1993629F48F8198850E94A747BD
:104700008EC08F819885B1010E946E4A88C0650174
:1047100020C0AE89BF898C918537D9F4EE89FF8995
:1047200003811481C8010E94E833FC01EC0DFD1DDA
:10473000808126D60E94F0307C01C80160E00E9492
:10474000E933D4011B968D919C911C97B7010E946F
:104750008D370894C108D108D7FEDBCFE4C1EE89BC
:10476000FF898081893609F0DEC16381748185818A
:1047700096814CC0EE89FF898081893609F0D3C1CA
:1047800063817481858196819095809570956195FE
:104790007F4F8F4F9F4F3AC0EE89FF8980818936C6
:1047A00051F483819481A581B6810097A105B1055B
:1047B000A1F086E413C0843511F486E403C0863486
:1047C00039F484E508D7BC01F401838594850DC0D4
:1047D0008E3419F0803309F0A6C184E5FCD6BC0103
:1047E000D4011B968D919C911C970E948D379BC183
:1047F000EE89FF898081893609F095C163817481D2
:104800008581968160957095809590950E944F3234
:10481000E6CFC1016F8178854F2D0E94CE40BC014B
:10482000F401838594850E948D37FEC0C1016F819C
:1048300078854A2D0E94FB3EBC01D4011B968D91C8
:104840009C911C970E948D3769C1F40183859485E2
:104850000E940C378C01FEE8FF1619F066247724BD
:1048600008C0D4011B968D919C911C970E940C3717
:104870003C01F501F070FC83EB83BB27D7FCBA95B4
:10488000AD2D9C2D8B2D2FEFC22ED12CC822D922DD
:10489000EF2B31F46114710419F44424552406C03B
:1048A00080E090E00E9471302C01F7D6C114D10451
:1048B00031F40115110519F4AA24BB2423C080E0AA
:1048C00090E00E9471305C01E8D601151105D1F02D
:1048D0001F8A1E8A0FC0C8016E897F890E94A74760
:1048E000BC01C5010E94114B2E893F892F5F3F4FAC
:1048F0003F8B2E8BC8010E946847AE89BF89A817DD
:10490000B9074CF36114710419F000E010E00DC018
:104910006624772428C0C301B8010E94A747BC01C0
:10492000C2010E94114B0F5F1F4FC3010E946847D5
:104930000817190784F3ECCFF401838594850E944E
:104940000C378C01D4011B968D919C911C970E9471
:104950000C37B8010E94522FBC01C5010E94114BB7
:104960000894611C711C6C147D0434F3CC24DD2488
:1049700019C0F40103851485C8010E948836B60168
:104980002B813C81621B730B6F5F7F4F680F791F18
:10499000C8010E94ED36BC01C2010E94114B08946F
:1049A000C11CD11C8B819C81C816D90614F300E070
:1049B00010E005C0C9010E940C370F5F1F4FD401E2
:1049C0001B962D913C911C97EB81FC810E171F07C4
:1049D0008CF3C9010E940C37E82ED92E2FD68B36C6
:1049E00071F48E2D9D2D0E94E833FC01138104810A
:1049F0008E2D9D2D60E00E94E933E12ED02E898915
:104A00009A896E2D7D2DA20195018FD3BC0100974F
:104A100039F0D4011B968D919C911C970E948D3783
:104A2000C2014FD6C5014DD6BFE5FB1609F476C0CD
:104A3000BF15B0F1ECE3FE1609F46BC0EF15C8F03A
:104A4000FDE1FF1570F023E1F21608F067C03AE0CF
:104A5000F31608F46CC08CE08F1508F064C09FE07A
:104A600051C0A6E3FA1609F454C0FA1608F45FC060
:104A700055C0BFE4BF1550F0EBE4FE1608F04EC081
:104A8000F3E4FF1508F04AC025E432C03AE5F31616
:104A900009F449C08CE5F81609F445C094E532C024
:104AA000A3E7AF15C8F0B2E7FB16E8F5ECE6EF15A3
:104AB00050F0FBE6FF1690F521E6F216A1F13AE67A
:104AC000F316A9F530C08DE6F81669F191E9F90EF3
:104AD000A1E0AF1560F127C0B9E8FB1621F1BF15C1
:104AE00050F0E4E8FE16F9F0F6E8FF16E1F02DE7E5
:104AF000F216E9F418C032E93F1538F081E9F816EA
:104B000090F49FE8F91699F40EC0A3E9FA1679F427
:104B100005C08D819E8160E00E94E9338F81988578
:104B200060E00E94E933C10160E00E94E9330E9425
:104B3000F431EC89FD892285338521153105B9F0E1
:104B400089899A89F901199512C0D4011B968D9112
:104B50009C911C970E94A137EC89FD89608171812D
:104B60008823C1F0CB010E940C370E94F431898563
:104B70009A8560E00E94E9338B859C8560E00E9405
:104B8000E9338D859E8560E00E94E9338F859889A1
:104B900061E047C0CB010E940C37D4011B968D9178
:104BA0009C911C970E940C37182F092F89859A8594
:104BB00060E00E94E9338B859C8560E00E94E933C8
:104BC0008D859E8560E00E94E9338F85988961E03C
:104BD0000E94E93389899A8960E00E94E933812F34
:104BE000902F5BD50E94F431212F302FC9018C0109
:104BF000C8016796E2E10C9442500E94F431898525
:104C00009A8560E00E94E9338B859C8560E00E9474
:104C1000E9338D859E8561E00E94E9338F8598890F
:104C200060E00E94E93389899A8960E00E94E93353
:104C300000E010E0DDCFA0E0B0E0E1E2F6E20C94AD
:104C400028505C014B013A0129010E94E8336C01B4
:104C5000EE24FF242EC0C501B7010E943015EED40A
:104C6000833621F500D00F9289E893E0EDB7FEB7C7
:104C700092838183F482E3820E94400B0F900F9015
:104C80000F900F90C501B7010E9430158C010E9452
:104C9000E833FC0185899689B4010E940849EC013A
:104CA000C80160E00E94E933209769F40894E11C90
:104CB000F11CF601828193810E946847E816F9068B
:104CC00054F2C0E0D0E0C50160E00E94E933CE01BB
:104CD000B5D4863619F020E030E01CC000D00F9229
:104CE0008EE993E0EDB7FEB792838183D483C383CB
:104CF0000E94400B0F900F900F900F90C501BE01C6
:104D0000A30192010E94D115C5010E9477179C0151
:104D10000097D1F3C901CDB7DEB7E0E10C94445060
:104D2000A0E0B0E0E6E9F6E20C942A50EC016A015A
:104D30005901CA0112D57C01009719F4C0E0D0E0F6
:104D40008EC0A114B10411F0450106C080E090E0CE
:104D50000E9471304C01A1D4C40160E070E0A60152
:104D60000E94E04ACE010E94E833FC0180819181DB
:104D70000E9486363C01CE0160E00E94E933C70103
:104D80005DD4863609F058C0CE01B701A401980160
:104D90000E94D1156C0100E010E011C0CE010E940C
:104DA00077176C01CE010E94E833FC01808191816C
:104DB0000E9486368C01CE0160E00E94E933C11466
:104DC000D10419F46016710649F7CE010E94E83348
:104DD000FC01808191810E94D7368C01CE0160E078
:104DE0000E94E933C8010E94E833FC018385948561
:104DF0000E940C37EC01C80160E00E94E933C70152
:104E00000E94E8338C01FC01838194810E94E83385
:104E1000FC018789908D60E070E040E050E00E94E6
:104E20004B48F8018381948160E00E94E933C70117
:104E300060E00E94E9330EC0C70100D4833419F04A
:104E4000C0E0D0E007C0CE01B701A40198010E94E4
:104E5000EC14EC01A114B10411F4C40132D4CE015C
:104E6000CDB7DEB7EEE00C944650A0E0B0E0EBE347
:104E7000F7E20C9426504C015B012A011901CB0189
:104E80000E94E833FC01C381D481C50160E00E9427
:104E9000E933CE010E94E833FC01E188F288E11495
:104EA000F10409F44CC06788708CCE0160E00E9468
:104EB000E93382E660E070E063D66C010E94E8337B
:104EC0008C01FC01D483C383CE01E7D3F8011086A3
:104ED000178216821582C7010E94E833FC01858182
:104EE0009681F80192878187C70160E00E94E933CB
:104EF0000E94CA37F80194878387C4010E94E8336F
:104F0000FC0180819181B6010E948D37C40160E06F
:104F10000E94E933F80183859485B5010E948D379D
:104F2000C60161E00E94E9334114510409F448C00C
:104F3000C30160E070E0A2010E94A14A41C0CE011D
:104F400060E00E94E933C4010E94E833EC01C5012E
:104F50000E94C1306C01888199810E94A137882309
:104F600089F4888199810E94D7368C010E94E833A8
:104F7000FC0183859485B6010E948D37C80160E0ED
:104F80000E94E933C40160E00E94E93380E893E0C5
:104F90000E9447350E94F0307C01C401B701A60190
:104FA000920100E010E0BCDE8C0177D3C80189D308
:104FB000C70173D3C70185D30E94F431CC24DD240B
:104FC000C5010E94E833FC0165807680C50160E080
:104FD0000E94E933C0E0D0E028C0C301BE010E94B6
:104FE000A7477C010E94E8338C01FC0183819481F6
:104FF0000E94E833FC0185859685A785B08992607B
:105000009E7F85879687A787B08BF80183819481DF
:1050100061E00E94E933C70160E00E94E933C40106
:10502000B701A201910121DF2196C3010E946847C7
:10503000C817D90794F2C601CDB7DEB7E2E10C94E8
:105040004250A0E0B0E0E7E2F8E20C9430508C016E
:10505000EB017A0169016115710509F45EC0CE01A9
:105060000E94E833FC01E081E33629F1E43640F4A4
:10507000E33461F1ED3451F0E63209F04AC011C079
:10508000E636D9F1E53709F044C02BC0CE0160E027
:105090000E94E933C801BE01A70196010E94F616DD
:1050A00036C0CE0160E00E94E933C801BE01A7010D
:1050B0009601DBDE32C0CE0160E00E94E933C80118
:1050C000BE01A70196010E944B1527C0CE0160E0EA
:1050D0000E94E933C801BE01A70196010E94EC14A9
:1050E00016C0CE0160E00E94E933C801BE010E94F3
:1050F0001515009711F0EC01B2CFCE0160E00E94CF
:10510000E933C801BE01A70196010E94D1159C0197
:1051100006C0CE0160E00E94E93320E030E0C90122
:10512000CDB7DEB7E8E00C944C50A0E0B0E0EBE97E
:10513000F8E20C942C506C017B015A014901611575
:105140007105D1F1C7010E94E833FC01E081E53728
:1051500069F4C601B7010E941515EC01009741F1F1
:10516000C70160E00E94E9337E01ECCFE33459F4DB
:10517000C70160E00E94E933C601B701A5019401AF
:1051800060DF9C011BC0C70160E00E94E933C701DA
:105190000E9491328C0181D2C601B801A50194010F
:1051A00050DFF82EE92EC8018CD22F2D3E2D06C0DF
:1051B000C70160E00E94E93320E030E0C901CDB7CB
:1051C000DEB7ECE00C944850A0E0B0E0EAEEF8E284
:1051D0000C942C506C01EB015A014901CB012ED2E9
:1051E000833621F08EE4F7D19C0128C085EB93E053
:1051F0000E944735F5D78C0150D28EEB93E00E9488
:105200004735EED77C01CE010E94E833FC01858949
:105210009689B801A7010E94794BCE0160E00E94F7
:10522000E933C8014ED2C601BE01A501940109DFD0
:10523000C6010E9477179C010097D1F3C901CDB731
:10524000DEB7ECE00C944850A0E0B0E0EAE2F9E20E
:105250000C942F506C017B01B42ECB010E94DC43D7
:10526000882359F1C7010E94CB44EC018EEB93E0F7
:105270000E944735B5D78C0110D2C601B801AE01E6
:105280000E945A17C8018CD3CE018AD3C601BE0131
:1052900040E050E020E030E097DF009709F011D2C5
:1052A000BB2071F0CE010DD2C601B8010E94431798
:1052B000C80107D2C7010E94AC43C0E0D0E003C0E0
:1052C000C7010E94AC43CE01CDB7DEB7E9E00C9434
:1052D0004B50EF92FF920F931F93CF93DF93EC010C
:1052E0000E9423360E94AA3382E190E064E00E948B
:1052F000F435F82EE92E6AD18F2D9E2D0E94E833C9
:105300008C01FC0115861486178616860E94CA3702
:10531000F8019183808380E090E0E3D6F8019383E5
:105320008283BBD1F801118A108A158214821186FA
:10533000108613861286178216828F2D9E2D61E0AD
:105340000E94E9330E9413478F2D9E2D0E94A13A9F
:105350008F2D9E2D0E94F20E209759F08EEB93E038
:105360000E9447353DD7BC018F2D9E2DAE010E9476
:105370005A178F2D9E2DCDB7DEB7E6E00C944E5018
:10538000DF92EF92FF920F931F93D82E82E090E06E
:1053900061E00E94F435F82EE92E0E94E833182FC0
:1053A000092F60E070E042E050E00E94270B812F5F
:1053B000902F6D2D70E041E050E00E94270B8F2D63
:1053C0009E2D61E00E94E9338F2D9E2D1F910F913C
:1053D000FF90EF90DF900895AF92BF92CF92DF924F
:1053E000EF92FF920F931F935C010E94E833182FF6
:1053F000092F0E94370B019662E00E94F435F82EC7
:10540000E92E0E94E833D82EC92E812F902F0E94BA
:10541000370BAC014F5F5F4F8D2D9C2D60E070E02E
:105420000E94270B812F902F0E94370BAC018D2DEE
:105430009C2D612F702F0E941E0B8F2D9E2D61E0E1
:105440000E94E933C50160E00E94E9338F2D9E2D53
:105450001F910F91FF90EF90DF90CF90BF90AF9092
:105460000895A0E0B0E0E7E3FAE20C942A503C0192
:105470004B01009741F46115710519F4C0E0D0E0CB
:105480005FC0CB0103C06115710519F4A5DFEC0104
:1054900057C00E94E833D82EC92EC4010E94E833B9
:1054A000B82EA92E8D2D9C2D0E94370B8C018B2D93
:1054B0009A2D0E94370B080F191FC801019662E050
:1054C0000E94F435EC010E94E8337C018D2D9C2D67
:1054D0000E94370B8C018B2D9A2D0E94370B080FE1
:1054E000191F0F5F1F4FC70160E070E0A8010E9405
:1054F000270B8D2D9C2D0E94370BAC01C7016D2D04
:105500007C2D0E941E0B8D2D9C2D0E94370B8C0133
:105510008B2D9A2D0E94370BAC01C701800F911F74
:105520006B2D7A2D0E941E0BCE0161E00E94E933A3
:10553000C40160E00E94E933C30160E00E94E933E6
:10554000CE01CDB7DEB7EEE00C9446506F927F925D
:105550008F929F92AF92BF92CF92DF92EF92FF9283
:105560000F931F933B014C0159016A019C01EE24EA
:10557000FF2487010BC0C9019301A4010E94EC4FD5
:105580009C010894E11CF11C011D111DD601C501EF
:105590000197A109B109E816F9060A071B075CF390
:1055A000C9011F910F91FF90EF90DF90CF90BF90B6
:1055B000AF909F908F907F906F900895562F40E00E
:1055C000282F30E0242B352BC90108959093F8093A
:1055D0008093F70908958634E9F0873438F48033EE
:1055E00079F08F3309F18E3221F519C08E3419F01C
:1055F0008435F9F40AC08091CD099091CE090895BF
:105600008091CB099091CC0908958091CF09909118
:10561000D00908958091D1099091D209089580917F
:10562000D3099091D40908958091D5099091D60914
:1056300008958091D5099091D60908951F93CF932D
:10564000DF93EC01009711F410E008C00E94E833EA
:10565000FC011081CE0160E00E94E933812FDF91CF
:10566000CF911F9108951F93CF93DF93EC01009783
:1056700011F411E00DC00E94E83310E0FC018181BB
:105680009281892B09F411E0CE0160E00E94E93398
:10569000812FDF91CF911F910895CF93DF93EC017C
:1056A000009761F00E94E833FC01818192810196AC
:1056B00092838183CE0161E00E94E933DF91CF9133
:1056C0000895CF93DF93EC01009729F10E94E8330E
:1056D000FC01818192818130910599F412821182BD
:1056E0008091F5099091F609BE010E941B3888232C
:1056F00071F48091F5099091F609BE010E94673A14
:1057000006C0823091051CF0019792838183CE01FF
:1057100061E00E94E933DF91CF9108950F931F93C9
:10572000CF93DF938C01EB010E94E833FC01808171
:105730008A3219F0C0E0D0E006C087819085BE01B2
:105740000E946E4AEC01C80160E00E94E933CE017C
:10575000DF91CF911F910F910895A0E0B0E0E3EBAE
:10576000FBE20C942E505C016B010E94E8338C012B
:10577000FC018081863299F5838194810E94E8330F
:10578000FC0185899689B6010E946E4AEC01F801F8
:105790008381948160E00E94E933CE014FDF863639
:1057A00021F0CE014BDF833411F4209761F5F8012D
:1057B000E580F68000E010E00BC0C701B8010E9450
:1057C000A747B601CADFEC010097E9F40F5F1F4F4E
:1057D000C7010E946847081719077CF302C08A3284
:1057E00019F0C0E0D0E00FC0F80185819681B601C4
:1057F0000E946E4AEC01009731F4F8018381948194
:10580000B601ABDFEC01C50160E0E3D7CE01CDB757
:10581000DEB7EAE00C944A50EF92FF920F931F9389
:10582000CF93DF93EC018B017A01D2D7FC01808109
:105830008A3231F487819085B801A7010E94794BA3
:10584000CE0160E0C6D7CDB7DEB7E6E00C944E508F
:10585000A0E0B0E0EEE2FCE20C942E505C016B01A3
:10586000009731F410E06115710509F493C016C07A
:105870006115710599F08617970761F1A9D77C0129
:10588000C601A6D7EC01F70190818881981741F0F5
:10589000C60160E09ED7C50160E09BD711E07AC0E9
:1058A000973609F441C0983630F4903369F09E344D
:1058B00009F069C009C09B3679F0953709F446C0F4
:1058C000993609F060C01FC0C60160E082D7C501EB
:1058D00060E07FD710E05EC06D817E81F701858139
:1058E0009681B6DF882359F06B817C81F701838133
:1058F0009481AEDF882319F081E090E002C080E05F
:1059000090E0182F39C010E0F701238134814581E0
:1059100056818B819C81AD81BE81281739074A074A
:105920005B0751F111E028C010E0F7016381748139
:10593000858196812B813C814D815E810E948D0500
:10594000882309F411E081E0182716C0F70183814C
:1059500094813ED78C018B819C813AD7BC01C801D0
:105960000E942E0B182F8B819C8160E032D7F701AB
:105970008381948160E02DD7C60160E02AD7C501FC
:1059800060E027D707C0C60160E023D7C50160E00B
:1059900020D71FEF812FCDB7DEB7EAE00C944A5035
:1059A0000F931F93CF93DF938C01009709F4E3C00B
:1059B0000FD7EC0188818336C1F1843698F48634A0
:1059C00009F442C0873440F48E32A1F18334D9F017
:1059D000883209F0CDC08DC08E34D9F1843509F0FC
:1059E000C7C02DC08936D1F18A3630F4863681F0B1
:1059F000873609F0BDC043C08B3609F45BC08537DC
:105A000009F0B6C05EC00F920F9287EC93E004C01D
:105A10000F920F9281ED93E0EDB7FEB792838183F1
:105A20000E94400B0F900F90A3C00F920F928AED2F
:105A300093E0F2CF0F920F928FED93E0EDCF0F92A4
:105A40000F9288EE93E0E8CF0F920F928DEE93E0E5
:105A5000E3CF0F920F9283EF93E0DECF00D000D020
:105A600088EF93E0EDB7FEB7928381838B819C81B1
:105A7000AD81BE8183839483A583B68310C000D09B
:105A800000D08DEF93E0EDB7FEB7928381838B81D9
:105A90009C81AD81BE8183839483A583B6830E945C
:105AA000400B8DB79EB706960FB6F8949EBF0FBEFB
:105AB0008DBF5EC08D819E8173DF8B819C8170DF85
:105AC00057C08B819C8184D600D00F9221E034E0B6
:105AD000EDB7FEB732832183948383830E94400B0A
